:100000000C94A40E0C94D10E0C94D10E0C94D10E21
:100010000C94D10E0C94D10E0C94D10E0C94D10EE4
:100020000C94D10E0C94D10E0C94D10E0C94D10ED4
:100030000C94D10E0C9445DF0C94D10E0C94D10E7F
:100040000C94D10E0C945D8A0C94D10E0C94D10EAC
:100050000C94D10E0C94D10E0C946E930C94AEE2D1
:100060000C94D10E0C945D510C94D10E0C94D10EC5
:100070000C94D10E0C94D10E0C94D10E0C94D10E84
:100080000C94D10E0C94D10E0C94D10E0C94D10E74
:100090000C94D10E0C94D10E0C94D10E0C94D10E64
:1000A0000C94D10E0C94D10E0C94D10E0C94D10E54
:1000B0000C94D10E0C94D10E0C94D10E0C94D10E44
:1000C0000C94D10E0C94D10E0C94D10E0C94D10E34
:1000D0000C94D10E0C94D10E0C94D10E0C94D10E24
:1000E0000C94D10E084AD73B3BCE016E84BCBFFDB9
:1000F000C12F3D6C74319ABD56833DDA3D00C77FF8
:1001000011BED9E4BB4C3E916BAAAABE0000008090
:100110003F05A84CCDB2D44EB93836A9020C50B91F
:10012000918688083CA6AAAA2ABE000000803F65E6
:1001300063686F3A004572726F723A0053544F50C1
:100140005045442E20005072696E7465722073749D
:100150006F707065642064756520746F20657272BD
:100160006F72732E204669782074686520657272FC
:100170006F7220616E6420757365204D39393920A6
:10018000746F20726573746172742E202854656DCB
:10019000706572617475726520697320726573652C
:1001A000742E205365742069742061667465722012
:1001B00072657374617274696E6729004B494C4CA7
:1001C00045442E20005072696E7465722068616C1F
:1001D0007465642E206B696C6C28292063616C6CDB
:1001E000656421006F6B00526573656E643A200090
:1001F0002200556E6B6E6F776E20636F6D6D616E52
:10020000643A2022004368616E67652066696C610C
:100210006D656E74007A5F6D61783A20007A5F6D6B
:10022000696E3A2000795F6D61783A2000785F6DE1
:1002300061783A2000205A3A0020593A0020436F52
:10024000756E7420583A200020453A00205A3A0032
:1002500020593A00583A004649524D574152455F9D
:100260004E414D453A4D61726C696E2056313B20CE
:10027000537072696E7465722F6772626C206D6163
:100280007368757020666F722067656E3620464908
:10029000524D574152455F55524C3A6874747073D1
:1002A0003A2F2F6769746875622E636F6D2F4572E0
:1002B000696B5A616C6D2F4D61726C696E2F2050A5
:1002C000524F544F434F4C5F56455253494F4E3A4D
:1002D000312E30204D414348494E455F54595045D9
:1002E0003A4B6F7373656C38303020455854525513
:1002F0004445525F434F554E543A31205555494479
:100300003A30303030303030302D303030302D30E9
:100310003030302D303030302D30303030303030E3
:1003200030303030300A004B6F7373656C383030CA
:10033000204F66662E004B6F7373656C383030202B
:1003400072656164792E0042656420646F6E652E6B
:100350000020423A0020453A00543A0042656420A9
:1003600048656174696E672E0048656174696E67DF
:1003700020646F6E652E0020573A0020453A0054E5
:100380003A0048656174696E672E2E2E0020424047
:100390003A0020403A00202F003A00205400202F3D
:1003A0000020423A00202F006F6B20543A0025694C
:1003B000206D696E2C2025692073656300456E648D
:1003C0002066696C65206C69737400426567696EAC
:1003D0002066696C65206C697374004E6F206D6FC8
:1003E00076652E00526573756D696E67207072694F
:1003F0006E74005761697420666F72207573657240
:100400002E2E2E000A00205A3A200020593A2000B1
:1004100020583A200042656400536C6565702E2EAA
:100420002E0001010100002A4300002A4300006B56
:10043000430000A0400000A0400000A040000000D9
:10044000000000000000006B430000AAC20000AAE8
:10045000C2000000000000AA420000AA4200006B97
:10046000430A00207A3A200020793A200020783A86
:100470002000426564002000256920686F75727352
:10048000202569206D696E7574657300446F6E6513
:10049000207072696E74696E672066696C650053BE
:1004A000544F505045442E20005072696E7465724E
:1004B0002073746F707065642064756520746F209C
:1004C0006572726F72732E20466978207468652099
:1004D0006572726F7220616E6420757365204D398C
:1004E000393920746F20726573746172742E2028FC
:1004F00054656D70657261747572652069732072E0
:10050000657365742E205365742069742061667468
:1005100065722072657374617274696E6729006F09
:100520006B004E6F204C696E65204E756D62657272
:10053000207769746820636865636B73756D2C2020
:100540004C617374204C696E653A20004E6F2043F5
:100550006865636B73756D2077697468206C696E6C
:1005600065206E756D6265722C204C617374204C31
:10057000696E653A2000636865636B73756D206D05
:1005800069736D617463682C204C617374204C69CD
:100590006E653A20004C696E65204E756D6265721D
:1005A000206973206E6F74204C617374204C696EE7
:1005B00065204E756D6265722B312C204C61737411
:1005C000204C696E653A20004D31313000446F6E29
:1005D0006520736176696E672066696C652E006FB1
:1005E0006B004D3239002020506C616E6E65724296
:1005F000756666657242797465733A2000204672AA
:100600006565204D656D6F72793A20004F637420E7
:100610003232203230313500436F6D70696C656461
:100620003A2000286A63726F63686F6C6C2C204DEF
:10063000696E69204B6F7373656C2900207C2041C3
:100640007574686F723A20004F6374203232203222
:100650003031352031383A35383A313300204C6169
:10066000737420557064617465643A2000312E30D3
:100670002E30004D61726C696E0020536F66747786
:1006800061726520526573657400205761746368F8
:10069000646F67205265736574002042726F776ED5
:1006A000206F7574205265736574002045787465F9
:1006B000726E616C20526573657400506F7765725D
:1006C0005570007374617274002200656E717565F7
:1006D000696E672022002200656E717565696E671C
:1006E0002022006563686F3A0048617264636F643A
:1006F00065642044656661756C7420536574746923
:100700006E6773204C6F616465640053746F72652B
:10071000642073657474696E67732072657472699E
:1007200065766564002044002049002020204D3378
:1007300030312050005049442073657474696E67ED
:10074000733A00205A0020590020204D36363620BA
:100750005800456E6473746F702061646A757374B9
:10076000656D656E7420286D6D293A00205A002051
:10077000590020204D323036205800486F6D6520DA
:100780006F666673657420286D6D293A00204500F8
:10079000205A0020580020420020540020204D32D2
:1007A0003035205300416476616E63656420766164
:1007B000726961626C65733A20533D4D696E2066C3
:1007C0006565647261746520286D6D2F73292C2016
:1007D000543D4D696E2074726176656C2066656566
:1007E000647261746520286D6D2F73292C20423D41
:1007F0006D696E696D756D207365676D656E7420CA
:1008000074696D6520286D73292C20583D6D6178C1
:10081000696D756D205859206A65726B20286D6D61
:100820002F73292C20205A3D6D6178696D756D20DC
:100830005A206A65726B20286D6D2F73292C202039
:10084000453D6D6178696D756D2045206A65726BF7
:1008500020286D6D2F73290020540020204D323048
:1008600034205300416363656C65726174696F6E17
:100870003A20533D616363656C65726174696F6EA4
:100880002C20543D726574726163742061636365EA
:100890006C65726174696F6E00204500205A0020FB
:1008A000590020204D3230312058004D6178696D5B
:1008B000756D20416363656C65726174696F6E204C
:1008C000286D6D2F7332293A00204500205A0020F0
:1008D000590020204D3230332058004D6178696D29
:1008E000756D2066656564726174657320286D6D31
:1008F0002F73293A00204500205A0020590020205B
:100900004D39322058005374657073207065722021
:10091000756E69743A0053657474696E6773205319
:10092000746F726564007C3C3E5E2B3D3F2F5B5DC7
:100930003B2C2A225C004D383420582059205A2064
:1009400045006563686F3A0043616E6E6F742065A1
:100950006E746572207375626469723A20004D325C
:1009600034004D3233202573006175746F25692E74
:1009700067004572726F723A006572726F7220770B
:10098000726974696E6720746F2066696C65004EC9
:100990006F74205344207072696E74696E67002F03
:1009A000005344207072696E74696E6720627974B6
:1009B0006520002E0044656C6574696F6E20666169
:1009C000696C65642C2046696C653A200046696C48
:1009D000652064656C657465643A002E006F70650F
:1009E0006E206661696C65642C2046696C653A20EE
:1009F0000057726974696E6720746F2066696C6550
:100A00003A20002E006F70656E206661696C656427
:100A10002C2046696C653A20002E006F70656E20B0
:100A20006661696C65642C2046696C653A200046F5
:100A3000696C652073656C65637465640020536937
:100A40007A653A200046696C65206F70656E656452
:100A50003A20002E006F70656E206661696C6564D7
:100A60002C2046696C653A20004E6F7720667265CF
:100A700073682066696C653A20004E6F7720646F5A
:100A8000696E672066696C653A20002220706F737A
:100A9000002220706172656E743A220053554252F2
:100AA0004F5554494E452043414C4C207461726768
:100AB00065743A2200747279696E6720746F2063DE
:100AC000616C6C207375622D67636F646520666965
:100AD0006C6573207769746820746F6F206D616E28
:100AE00079206C6576656C732E204D4158206C65BD
:100AF00076656C2069733A00534420636172642008
:100B00006F6B006F70656E526F6F74206661696CF9
:100B1000656400766F6C756D652E696E697420660C
:100B200061696C656400534420696E697420666174
:100B3000696C006563686F3A0020746F6F206C6F9A
:100B40006E6720657874727573696F6E2070726558
:100B500076656E7465640020636F6C6420657874DC
:100B6000727573696F6E2070726576656E746564F8
:100B70000045313A200045303A20005A3A200059C9
:100B80003A2000583A20004D53312C4D533220501A
:100B9000696E730A0024F404D9201BC40C5C0E98FF
:100BA00004C4095F0265077101F405F900FB04B391
:100BB0000048048700C1036900580355000303453A
:100BC00000BE023A008402310053022A00290225A5
:100BD0000004022000E4011C00C8011900AF011745
:100BE00000980114008401130071011000610110CC
:100BF0000051010E0043010D0036010B002B010BCB
:100C00000020010B00150109000C01090003010877
:100C100000FB000800F3000800EB000700E40006FA
:100C200000DE000600D8000600D2000600CC000559
:100C300000C7000500C2000500BD000400B90004A3
:100C400000B5000400B1000400AD000400A90004D8
:100C500000A5000300A20003009F0004009B000306
:100C60000098000300950002009300030090000329
:100C7000008D0002008B0003008800020086000245
:100C80000084000300810002007F0002007D00025A
:100C9000007B00020079000200770001007600026C
:100CA000007400020072000100710002006F000277
:100CB000006D0001006C0002006A00010069000282
:100CC0000067000100660001006500010064000289
:100CD000006200010061000100600001005F00028D
:100CE000005D0001005C0001005B0001005A000192
:100CF0000059000100580001005700010056000192
:100D00000055000100540001005300000053000191
:100D1000005200010051000100500001004F00018D
:100D2000004E0000004E0001004D0001004C00018B
:100D3000004B0000004B0001004A00010049000187
:100D40000048000000480001004700010046000084
:100D5000004600010045000000450001004400017C
:100D60000043000000430001004200000042000177
:100D7000004100000041000100400001003F000070
:100D8000003F0001003E0000003E0001003D000069
:100D9000003D0001003C0000003C0000003C000160
:100DA000003B0000003B0001003A0000003A000157
:100DB0000039000000390001003800000038000050
:100DC0000038000100370000003700010036000045
:100DD000003600000036000100350000003500003C
:100DE0000035000100340000003400000034000130
:100DF0000033000000330000003300010032000027
:100E0000003200000032000100310000003100001B
:100E1000003100010030000000300000003000010F
:100E2000002F0000002F0000002F0000002F000105
:100E3000002E0000002E0000002E0001002D0000FA
:100E4000002D0000002D0000002D0001002C0000EE
:100E5000002C0000002C0000002C0001002B0000E2
:100E6000002B0000002B0000002B0001002A0000D6
:100E7000002A0000002A0000002A000100290000CA
:100E800000290000002900000029000000290001BD
:100E900000280000002800000028000000280000B2
:100EA00000280001002700000027000000270000A4
:100EB0000027000000270001002600000026000097
:100EC000002600000026000000260001002500008A
:100ED000002500000025000000250000002500007E
:100EE0000025000100240000002400000024000070
:100EF0000024000000240001002300000023000063
:100F00000023000000230000002300000023000055
:100F10000023000100220000002200000022000047
:100F20000022000000220000002200010021000039
:100F3000002100000021000000210000002100002D
:100F4000002100000021000100200000002000001E
:100F50000020000000200000002000000020000011
:100F60000020000000200001001F0000001F000002
:100F7000001F0000001F0000001F0000001F0000F5
:100F8000001F0001001E0000001E0000001E0000E7
:100F9000001E00000024F4D43050C38E20C2A240B2
:100FA00017828B7011127A910D816CD90AA861E1B8
:100FB00008C7586607615143061E4B5D05C145A72A
:100FC000041A411104093D9803713931034036DB9D
:100FD0000265339102D4305402802E1D02632CEE40
:100FE00001752AC501B028A001102781018F256451
:100FF000012B244B01E0223401AC211F018D200D77
:1010000001801FFC00841EED00971DDF00B81CD27C
:1010100000E61BC600201BBC00641AB200B219A86F
:10102000000A19A0006A189900D117910040178B87
:1010300000B516840031167E00B31579003A157399
:1010400000C7146F0058146A00EE1366008813631B
:101050000025135E00C7125B006C12570015125476
:1010600000C111510070114F0021114B00D61049E1
:10107000008D1047004610440002104200C00F408F
:1010800000800F3E00420F3C00060F3B00CB0E38A5
:1010900000930E37005C0E3500270E3400F30D323E
:1010A00000C10D3100900D3000600D2E00320D2D6D
:1010B00000050D2C00D90C2B00AE0C2900850C2945
:1010C000005C0C2700350C27000E0C2600E80B24D2
:1010D00000C40B2400A00B23007D0B23005A0B211E
:1010E00000390B2100180B2000F80A1F00D90A1E36
:1010F00000BB0A1E009D0A1D00800A1D00630A1C19
:1011000000470A1B002C0A1B00110A1A00F7091AD3
:1011100000DD091900C4091900AB0919009209176B
:10112000007B091800630917004C091600360916E0
:1011300000200916000A091500F5081500E008143A
:1011400000CC081400B8081400A408140090081378
:10115000007D0812006B08130058081200460812A0
:1011600000340811002308110012081100010811B1
:1011700000F0071000E0071000D0071000C00710B3
:1011800000B0070F00A107100091070E0083070FA2
:101190000074070F0065070E0057070E0049070E81
:1011A000003B070D002E070E0020070D0013070D52
:1011B0000006070D00F9060C00ED060D00E0060C18
:1011C00000D4060C00C8060C00BC060C00B0060CCF
:1011D00000A4060B0099060C008D060B0082060B7E
:1011E0000077060B006C060B0061060A0057060B21
:1011F000004C060A0042060A0038060A002E060ABB
:101200000024060A001A060A001006090007060A4A
:1012100000FD050900F4050900EB050900E20509D8
:1012200000D9050900D0050900C7050900BE050958
:1012300000B5050800AD050800A50509009C0508D6
:1012400000940508008C050800840508007C05084A
:1012500000740508006C050700650508005D0507BA
:1012600000560508004E0507004705070040050821
:101270000038050700310507002A05070023050788
:10128000001C050600160507000F050700080506E7
:101290000002050700FB040600F5040700EE040643
:1012A00000E8040600E2040700DB040600D504069B
:1012B00000CF040600C9040600C3040600BD0406EE
:1012C00000B7040600B1040500AC040600A604063D
:1012D00000A00405009B0406009504050090040688
:1012E000008A04050085040500800406007A0405D0
:1012F0000075040500700405006B04050066040514
:1013000000610405005C0405005704050052040553
:10131000004D04050048040500430405003E040494
:10132000003A04050035040500300404002C0405CF
:101330000027040400230405001E0404001A04040A
:101340000016040500110404000D0404000904053E
:10135000000404040000040400FC030400F8030477
:1013600000F4030400F0030400EC030400E80304A9
:1013700000E4030400E0030400DC030400D80304D9
:1013800000D4030400D0030400CC030400C803030A
:1013900000C50303006563686F3A00656E6473748B
:1013A0006F7073206869743A205A00205A3A0065B9
:1013B0006E6473746F7073206869743A20590020EA
:1013C000593A00656E6473746F7073206869743A7B
:1013D00020580020583A00656E6473746F70732053
:1013E0006869743A20004572726F723A00457272F1
:1013F0003A204D415854454D5020424544005465D3
:101400006D7065726174757265206865617465647C
:1014100020626564207377697463686564206F6611
:10142000662E204D415854454D50207472696767AF
:1014300065726564202121004572723A204D494E43
:1014400054454D50003A2045787472756465722099
:101450007377697463686564206F66662E204D49F2
:101460004E54454D502074726967676572656420FB
:1014700021004572723A204D415854454D50003A72
:101480002045787472756465722073776974636837
:101490006564206F66662E204D415854454D50209E
:1014A000747269676765726564202100202D204988
:1014B0006E76616C696420657874727564657220FB
:1014C0006E756D62657220210070012C01900127FC
:1014D00001B0012201C0011D01F001180110021329
:1014E0000130020E016002090190020401C002FFF6
:1014F000000003FA004003F5008003F000D003EB86
:10150000002004E6007004E100E004DC004005D7A0
:1015100000C005D2004006CD00D006C8008007C339
:10152000003008BE00F008B900C009B400B00AAF2E
:1015300000B00BAA00D00CA500000EA000500F9B1D
:1015400000C01096005012910000148C00C0158746
:1015500000B0178200B0197D00D01B7800001E7308
:101560000040206E0090226900F024640040275F54
:101570000090295A00E02B5500102E500020304BCF
:101580000010324600E033410090353C0010373700
:101590000070383200A0392D00B03A2800A03B235B
:1015A00000603C1E00103D1900903D1400103E0FDD
:1015B00000703E0A00C03E0500003F000050494454
:1015C000204175746F74756E652066696E69736805
:1015D0006564212050757420746865204B702C2040
:1015E0004B6920616E64204B6420636F6E7374617D
:1015F0006E747320696E746F20436F6E66696775D1
:10160000726174696F6E2E68005049442041757490
:101610006F74756E65206661696C656421207469FC
:101620006D656F75740020403A006F6B20543A006E
:101630006F6B20423A00504944204175746F7475B5
:101640006E65206661696C6564212054656D706506
:1016500072617475726520746F6F206869676800C5
:10166000204B643A2000204B693A2000204B703A0E
:10167000200020436C61736963205049442000209E
:1016800054753A2000204B753A2000206D61783A5D
:101690002000206D696E3A200020643A200020620C
:1016A0006961733A20001000C90210012C01400149
:1016B000220170011801B0010E01F0010401500275
:1016C000FA00B002F0003003E600D003DC00900422
:1016D000D2007005C800A006BE000008B400B00922
:1016E000AA00D00BA000600E960060118C000015BF
:1016F000820020197800C01D6E00A0226400B0276F
:101700005A00902C500000314600E0343C00103864
:101710003200903A2800603C1E00A03D1400803E3C
:101720000A00203F00002D2D3A2D2D002D2D2D00DB
:101730005344002059000120000120004E6F205327
:10174000442063617264005072696E742066726F27
:101750006D2053440053746F70207072696E740072
:10176000526573756D65207072696E740050617595
:101770007365207072696E7400436F6E74726F6C63
:1017800000507265706172650054756E6500496E37
:10179000666F2073637265656E00052E2E004D61C5
:1017A000696E004D3234004D3233202573004D38C0
:1017B0003420582059205A204500526573746F72A6
:1017C00065206661696C73616665004C6F616420B9
:1017D0006D656D6F72790053746F7265206D656D04
:1017E0006F7279004D6F74696F6E0054656D70652E
:1017F000726174757265004D61696E004573746540
:1018000070732F6D6D004573746570732F6D6D006F
:101810005A73746570732F6D6D005A7374657073AD
:101820002F6D6D005973746570732F6D6D00597352
:10183000746570732F6D6D005873746570732F6DC0
:101840006D005873746570732F6D6D00412D726556
:10185000747261637400412D726574726163740007
:10186000416D6178206500416D6178206500416DB2
:101870006178207A00416D6178207A00416D61784D
:10188000207900416D6178207900416D6178207880
:1018900000416D61782078005654726176206D6940
:1018A0006E005654726176206D696E00566D696ED9
:1018B00000566D696E00566D6178206500566D6149
:1018C00078206500566D6178207A00566D61782029
:1018D0007A00566D6178207900566D617820790024
:1018E000566D6178207800566D61782078005665D5
:1018F0002D6A65726B0056652D6A65726B00567AAB
:101900002D6A65726B00567A2D6A65726B00567887
:10191000792D6A65726B005678792D6A65726B0055
:10192000416363656C00416363656C005A204F66D8
:1019300066736574005A204F666673657400436F62
:101940006E74726F6C0050726568656174204142FC
:101950005320636F6E660050726568656174205035
:101960004C4120636F6E66005049442D430050493E
:10197000442D43005049442D44005049442D440017
:101980005049442D49005049442D49005049442DA7
:1019900050005049442D50002002204661637400DD
:1019A00020022046616374002002204D61780020EF
:1019B00002204D6178002002204D696E0020022037
:1019C0004D696E004F6666004F6E20004F666600E0
:1019D0004F6E20004175746F74656D700046616EC6
:1019E0002073706565640046616E20737065656480
:1019F0000042656400426564004E6F7A7A6C65004F
:101A00004E6F7A7A6C6500436F6E74726F6C005320
:101A1000746F7265206D656D6F7279004265640048
:101A2000426564004E6F7A7A6C65004E6F7A7A6C0C
:101A3000650046616E2073706565640046616E20C6
:101A400073706565640054656D706572617475725C
:101A5000650053746F7265206D656D6F7279004219
:101A6000656400426564004E6F7A7A6C65004E6F63
:101A70007A7A6C650046616E207370656564004615
:101A8000616E2073706565640054656D7065726188
:101A900074757265004D6F76652061786973004DCD
:101AA00038300053776974636820706F77657220EF
:101AB0006F6E004D38310053776974636820706F22
:101AC000776572206F666600436F6F6C646F776E28
:101AD0000050726568656174204142530050726520
:101AE0006865617420504C4100473238004175747C
:101AF0006F20686F6D65004D383400446973616212
:101B00006C65207374657070657273004D61696EE9
:101B1000004D6F766520302E316D6D004D6F76650E
:101B200020316D6D004D6F76652031306D6D005048
:101B300072657061726500457874727564657200D3
:101B40004D6F7665205A004D6F76652059004D6FB8
:101B500076652058004D6F76652061786973004581
:101B600078747275646572005A00590058004D36D9
:101B70003030004368616E67652066696C616D6531
:101B80006E7400466C6F7700466C6F770046616E2E
:101B90002073706565640046616E207370656564CE
:101BA0000042656400426564004E6F7A7A6C65009D
:101BB0004E6F7A7A6C65005370656564005370658A
:101BC0006564004D61696E00436172642072656DE9
:101BD0006F766564004361726420696E7365727428
:101BE0006564000200002100240027002A002D0067
:101BF0003000330001010000040107010A01000068
:101C00002200250028002B002E00310034000201A4
:101C10000000050108010B01000020002300260040
:101C200029002C002F0032000001000003010601F2
:101C30000901050505050705080808080202020252
:101C40000A0A080804040404010101010101010158
:101C50000303030303030303040707070C0C0C0C23
:101C60000C0C0C0C0202020206060606060606060C
:101C70000B0B0B0B0B0B0B0B010210202008081099
:101C800020401020408002010201080402010102EC
:101C900004081020408080402010080402018004C5
:101CA0000201804020100804020108040201010220
:101CB0000408102040800102040810204080000029
:101CC000090A02080B0C0D070603040100000000BE
:101CD0000000000000000000000000000000000004
:101CE0000000000000000000000011100F000000C4
:101CF00000000000000000000000000000000000E4
:101D000000000000494E46494E4954594E414ECDBF
:101D1000CCCC3D0AD7233C17B7D13877CC2B3295A2
:101D200095E6241FB14F0A000020410000C8420080
:101D3000401C4620BCBE4CCA1B0E5AAEC59D74004A
:101D40009816F15190D5911611241FBECFEFD1E214
:101D5000DEBFCDBF00E00CBF14E0A0E0B2E0E6E7DC
:101D6000F6ED01E00BBF02C007900D92A23BB10758
:101D7000D9F71BBE14E1A2EBB4E001C01D92A7305D
:101D8000B107E1F71DE1C6E4DDE104C02297FE01E1
:101D90000E94E0EAC034D107C9F70E949FE20C9488
:101DA0002EEB0C940000A0E0B0E0E9EDFEE00C9416
:101DB000FDEAEC015B016115710519F0FB019183EE
:101DC0008083F9908F2D90E00E94E4EA892BC9F777
:101DD000FDE2FF1621F4F990EE24E39405C02BE216
:101DE000F21609F4F990EE248E0101501040C8015A
:101DF00064E07DE143E050E00E947211892B01F51F
:101E00008E010E5F1F4FC80167E07DE145E050E0A5
:101E10000E947211892B19F48E01095F1F4FA114C2
:101E2000B10419F0F50111830083E0FC04C070E0F7
:101E300090E080E814C070E090E080E86FEF08C1A7
:101E4000C8016CE07DE143E050E00E947211892BF3
:101E500069F4A114B10429F470E090E080EC6FE71C
:101E6000F7C02296F501D183C083F6CF8824992448
:101E700040E050E060E070E0EF2DE053EA30A0F584
:101E8000F2E0EF2A8E2D90E09C0128703070E2FE87
:101E900006C0232B79F50894811C911C2BC0232BA1
:101EA00019F0089481089108DB01CA0112E0880F3B
:101EB000991FAA1FBB1F1A95D1F7480F591F6A1FF8
:101EC0007B1F440F551F661F771F4E0F511D611D4D
:101ED000711D483929E9520729E9620729E172078A
:101EE00048F084E0E82A06C0EE3F31F4E3FC39C054
:101EF00098E0E92AF990C0CFE53311F0E53189F592
:101F000029912D3219F4E0E1EE2A05C02B3219F0A7
:101F100081E090E003C0299182E090E0E22FE0535D
:101F2000EA3018F0C81BD90B1CC020E030E0FCE000
:101F300020383F075CF4C901880F991F880F991F4B
:101F4000280F391F220F331F2E0F311DE991E05347
:101F5000EA3068F3E4FE03C0309521953F4F820ECE
:101F6000931ECE2CDD24E1FE07C0A114B10421F0A4
:101F70002197F501D183C083CB01BA010E9449E7C3
:101F80007B018C01F3E0CF22DD2423E0C216D104D3
:101F900021F417FB109517F9109557016801C80136
:101FA000B70120E030E040E050E00E94A9E688233D
:101FB00009F44AC097FE0DC023E2E22E2DE1F22E75
:101FC0009094819491089394C0E2D0E000E010E0F6
:101FD00012C09BE3E92E9DE1F92EF6CFF701259182
:101FE000359145915491C601B5010E9489E95B0183
:101FF0006C018C1A9D0A8C169D0684F7D595C795A1
:102000000F5F1F4F0630110529F08CEF9FEFE80E90
:10201000F91EF1CFC501D6017C018D018C2D880FF1
:102020008D2D881F8F3F51F0C601B50120E030E0B3
:1020300040E050E00E94A9E6882331F482E290E07B
:1020400090930614809305147E2D9F2D802F612F71
:10205000272F392F482F562FB901CA01CDB7DEB728
:10206000ECE00C9419EB2F923F925F926F927F926B
:102070008F929F92AF92BF92CF92DF92EF92FF9298
:102080000F931F93CF93DF938C011B01EA0161151E
:10209000710519F0FB0191838083209749F0CE01EF
:1020A0000297839728F020E030E040E050E0F6C04F
:1020B000F801A1908F018A2D90E00E94E4EA892B1B
:1020C000B9F7FDE2AF1631F4F801A1908F01552464
:1020D000539407C0FBE2AF1619F4F801A1908F01E9
:1020E0005524209719F0C031D105C1F4F0E3AF16A3
:1020F00079F4F8018081883711F0883549F4F801C6
:10210000A1800E5F1F4FF2E05F2AC0E1D0E006C061
:10211000209721F480E3A816E9F427C0C830D10540
:1021200031F1C930D10524F4C230D10531F50CC0EC
:10213000CA30D10589F0C031D105F9F4C12CD12CB8
:10214000E12CB8E0FB2E28C0C12CD12CE12CA0E45E
:10215000FA2E22C0CAE0D0E0FCECCF2EFCECDF2E41
:10216000FCECEF2EFCE0FF2E17C0C8E0D0E0C12C45
:10217000D12CE12CE0E1FE2E0FC09E01442737FD5B
:102180004095542F60E070E080E090E80E94A1EA62
:10219000C901DA016C017D0120E030E040E050E04F
:1021A00060E03E01882477FC8094982C70EDB72E77
:1021B000BA0CE9E0EB1570F48A2D81548A3118F4D9
:1021C00099ECB92E06C08A2D81568A3150F589EADC
:1021D000B82EBA0C8B2D90E08C179D0714F56F3F2D
:1021E000E1F0C216D306E406F506B0F0CA01B90163
:1021F000A40193010E945BEA9B01AC012B0D311DF0
:10220000411D511D2130F0E03F07F0E04F07F0E89D
:102210005F0710F461E001C06FEFF801A1908F013A
:10222000C5CF2114310481F0662331F001501040F4
:10223000F1011183008308C051FE1AC00250104002
:10224000F1011183008314C067FF12C050FC05C068
:102250002FEF3FEF4FEF5FE704C020E030E040E0BA
:1022600050E882E290E0909306148093051416C023
:1022700050FE08C050954095309521953F4F4F4FE7
:102280005F4F0CC057FF0AC082E290E090930614A3
:10229000809305142FEF3FEF4FEF5FE7B901CA01BD
:1022A000DF91CF911F910F91FF90EF90DF90CF9032
:1022B000BF90AF909F908F907F906F905F903F9076
:1022C0002F900895FB01DC0105900D920020E1F7AD
:1022D0000895FC0105900020E9F7809590958E0FF8
:1022E0009F1F0895FB01DC014150504088F08D9103
:1022F00081341CF08B350CF4805E659161341CF0E8
:102300006B350CF4605E861B611171F3990B0895B7
:10231000881BFCCFFB01DC014150504048F0059088
:102320000D920020C9F701C01D9241505040E0F7C6
:102330000895FB0155915523A9F0BF01DC014D9192
:1023400045174111E1F759F4CD010590002049F0FE
:102350004D9140154111C9F3FB014111EFCF81E0CF
:1023600090E001970895FB01DC0104C08D9101907C
:10237000801921F441505040C8F7881B990B0895EB
:10238000FB01DC0102C001900D9241505040D8F792
:102390000895FB01DC010D900020E9F711970190F1
:1023A0000D920020E1F70895FC018191861721F03C
:1023B0008823D9F7992708953197CF010895FB0114
:1023C000DC0101900D920020E1F70895FB01DC0192
:1023D0004150504030F08D910190801919F4002047
:1023E000B9F7881B990B0895FB01DC01415050405F
:1023F00048F001900D920020C9F701C01D92415094
:102400005040E0F70895AEE0B0E0E9E0F2E10C946E
:1024100005EB0E891F898EE08C831A8309838FEF69
:102420009FE79E838D839E01265E3F4FCE010196DE
:10243000688D798DA9010E9427122F813885020F9E
:10244000131FF80110822E96E4E00C9421EBABE010
:10245000B0E0EDE2F2E10C94F7EA3C012B015A0105
:10246000FC0117821682838181FD03C06FEF7FEF2D
:10247000C6C19AE0892E1E010894211C311CF3016B
:102480002381F20123FD859123FF81912F01882370
:1024900009F4B2C1853239F423FD859123FF81917E
:1024A0002F01853229F490E0B3010E941A14E7CF7E
:1024B000982FFF24EE249924FFE1FF15D0F09B32E2
:1024C00069F09C3228F4903259F0933291F40EC0A6
:1024D0009D3249F0903369F441E024C052E0F52A7E
:1024E00084E0F82A28C098E0F92A25C0E0E1FE2A15
:1024F00022C0F7FC29C0892F80538A3070F4F6FE81
:1025000005C0989C902C1124980E15C0E89CE02CD6
:102510001124E80EF0E2FF2A0EC09E3229F4F6FCE8
:102520006BC140E4F42A07C09C3619F450E8F52A40
:1025300002C0983649F4F20123FD959123FF919151
:102540002F01992309F0B8CF892F8554833018F0D3
:102550008052833038F444E050E0A40EB51E5FE3AF
:1025600059830FC0933631F0933779F0933509F0E2
:1025700056C020C0F5018081898342E050E0A40E5E
:10258000B51E610101E010E012C0F501C080D180EC
:10259000F6FC03C06FEF7FEF02C0692D70E042E0F0
:1025A00050E0A40EB51EC6010E940F148C015FE717
:1025B000F52214C0F501C080D180F6FC03C06FEF96
:1025C0007FEF02C0692D70E042E050E0A40EB51E1E
:1025D000C6010E9404148C0150E8F52AF3FE07C0DE
:1025E0001AC080E290E0B3010E941A14EA948E2D82
:1025F00090E008171907A8F30EC0F601F7FC8591C3
:10260000F7FE81916F0190E0B3010E941A14E1106E
:10261000EA94015010400115110579F7EAC094368B
:1026200011F0993669F5F7FE08C0F5012081318176
:102630004281538184E090E00AC0F501808191815C
:102640009C01442737FD4095542F82E090E0A80E6E
:10265000B91E9FE6F92257FF09C050954095309565
:1026600021953F4F4F4F5F4FE0E8FE2ACA01B90165
:10267000A1012AE030E00E944614D82ED21840C0B2
:10268000953729F41F2D1F7E2AE030E01DC01F2D35
:10269000197F9F3661F0903720F4983509F0ACC06F
:1026A0000FC0903739F0983709F0A6C004C028E071
:1026B00030E00AC0106114FD146020E130E004C075
:1026C00014FD166020E132E017FF08C0F5016081BB
:1026D00071818281938144E050E008C0F5018081DE
:1026E0009181BC0180E090E042E050E0A40EB51E74
:1026F000A1010E944614D82ED2188FE7F82EF1229D
:10270000F6FE0BC05EEFF522D91438F4F4FE07C0D4
:10271000F2FC05C08FEEF82202C01D2D01C0192D5C
:10272000F4FE0DC0FE01ED0DF11D8081803319F422
:1027300099EEF92208C01F5FF2FE05C003C08F2D7D
:10274000867809F01F5F0F2DF3FC14C0F0FE0FC058
:102750001E1510F09D2C0BC09D2C9E0C911A1E2D49
:1027600006C080E290E0B3010E941A141F5F1E159C
:10277000C0F304C01E1510F4E11A01C0EE2404FFDA
:102780000FC080E390E0B3010E941A1402FF1DC045
:1027900001FD03C088E790E00EC088E590E00BC023
:1027A000802F867891F001FF02C08BE201C080E2A9
:1027B000F7FC8DE290E0B3010E941A1406C080E39A
:1027C00090E0B3010E941A149A94D914C0F3DA94D9
:1027D000F101ED0DF11D808190E0B3010E941A140A
:1027E000DD20A9F706C080E290E0B3010E941A1430
:1027F000EA94EE20C1F743CEF30166817781CB01E5
:102800002B96E2E10C9413EBFC01059061507040B3
:102810000110D8F7809590958E0F9F1F0895FC01A9
:102820006150704001900110D8F7809590958E0FFF
:102830009F1F08950F931F93CF93DF938C01EB019C
:102840008B8181FF1BC082FF0DC02E813F818C8157
:102850009D812817390764F4E881F9810193F98390
:10286000E88306C0E885F985802F1995892B31F416
:102870008E819F8101969F838E8302C00FEF1FEF91
:10288000C801DF91CF911F910F910895FA01AA27F6
:10289000283051F1203181F1E8946F936E7F6E5FA3
:1028A0007F4F8F4F9F4FAF4FB1E03ED0B4E03CD051
:1028B000670F781F891F9A1FA11D680F791F8A1F34
:1028C000911DA11D6A0F711D811D911DA11D20D09B
:1028D00009F468943F912AE0269F11243019305D55
:1028E0003193DEF6CF010895462F4770405D419346
:1028F000B3E00FD0C9F7F6CF462F4F70405D4A3393
:1029000018F0495D31FD4052419302D0A9F7EACF5A
:10291000B4E0A6959795879577956795BA95C9F789
:1029200000976105710508959B01AC010A2E06947C
:102930005795479537952795BA95C9F7620F731F35
:10294000841F951FA01D08952F923F924F925F9272
:102950006F927F928F929F92AF92BF92CF92DF92AF
:10296000EF92FF920F931F93DF93CF9300D00F92BC
:10297000CDB7DEB79C838B837A8369838A01390163
:102980004C01880C991CE3E0880F991FEA95E1F748
:10299000880E991EFB01E80DF91DEE0FFF1FEE0FCB
:1029A000FF1FEC57F84F608171818281938120E095
:1029B00030E040E050E00E94A9E6882309F0F1C031
:1029C0008B819C81800F911F000F111F2B813C81F7
:1029D000020F131F6C0153E0CC0CDD1C5A95E1F77C
:1029E000880F991FC80ED91EE981FA81EC0DFD1DD3
:1029F000EE0FFF1FEE0FFF1FEC57F84F20813181C4
:102A000042815381CA01B9010E94D0E5780123E0D7
:102A1000EE0CFF1C2A95E1F7000F111FE00EF11ECE
:102A2000E981FA81EE0DFF1DEE0FFF1FEE0FFF1F74
:102A3000EC57F84F20813181428153810E94CFE5CC
:102A40001B012C01A980BA80A60CB71C8301000FC2
:102A5000111F89819A81080F191FF401EA0DFB1DCE
:102A6000EE0FFF1FEE0FFF1FEC57F84F2081318153
:102A700042815381CA01B9010E94D0E5F401E00FFF
:102A8000F11FEE0FFF1FEE0FFF1FEC57F84F2081D5
:102A90003181428153810E94CFE53B014C01CA0C38
:102AA000DB1CCC0CDD1CCC0CDD1CA4E8B7E0CA0E92
:102AB000DB1EF6012081318142815381CA01B901B7
:102AC0000E94D0E5E00EF11EEE0CFF1CEE0CFF1C88
:102AD00024E837E0E20EF31ED7012D913D914D9190
:102AE0005C910E94CFE57B018C01C201B101A40180
:102AF00093010E94A9E68823B4F4C401B301A8019C
:102B000097010E94A9E688232CF4B62CD72CA82C78
:102B1000C92C04C0BE2CDF2CA02EC12EC801B701C9
:102B2000A201910115C0C801B701A40193010E943F
:102B3000A9E688232CF4B62CD72CA82CC92C04C0C9
:102B4000BE2CDF2CA02EC12EC201B101A80197011D
:102B50000E94A9E6882324F4B22CD32CA42CC52CE3
:102B6000EB81FC8123E0EE0FFF1F2A95E1F72B811B
:102B70003C81220F331FE20FF31F89819A81E80FF6
:102B8000F91FEE0FFF1FEE0FFF1FEC57F84F2B2D15
:102B90003D2D4A2D5C2DC901DA0180839183A283EA
:102BA000B3830F900F900F900F90CF91DF911F91F3
:102BB0000F91FF90EF90DF90CF90BF90AF909F90DC
:102BC0008F907F906F905F904F903F902F900895DF
:102BD000EF92FF920F931F93CF93DF93EC01E0905E
:102BE0006D03F0906E0300916F0310917003688184
:102BF00079818A819B81A80197010E94B7E8181604
:102C000024F4E882F9820A831B83E0907103F09038
:102C1000720300917303109174036C817D818E8126
:102C20009F81A80197010E94B7E8181624F4EC824E
:102C3000FD820E831F83E0907503F0907603009170
:102C4000770310917803688579858A859B85A8012B
:102C500097010E94B7E8181624F4E886F9860A87D7
:102C60001B87DF91CF911F910F91FF90EF900895F7
:102C700080911C0908950F931F93CF93DF938130A8
:102C8000910549F46F5F7F4F09F046C082EB94E0F5
:102C90000E94A47141C0892B09F03EC06F5F7F4F35
:102CA000D9F58BE594E090937D0680937C06809126
:102CB0008306882321F080E896E00E94DC57C8E371
:102CC000D6E00BE514E005C06F9785E0C230D80769
:102CD00051F0198308838F818823B1F3CE010496C4
:102CE0000E94DC57F1CF8BE594E0998388838F8134
:102CF000882321F0CE0104960E94DC578BE594E0F6
:102D00009093E2048093E1048091E804882321F009
:102D100085EE94E00E94DC57DF91CF911F910F91D7
:102D2000089580E090E06FEF7FEF0E943B160895DA
:102D300081E090E06FEF7FEF0E943B1608950E94C4
:102D40007A9280911C09882309F03AC081E080932F
:102D50001C0980911F0990912009A0912109B0912F
:102D600022098093230990932409A0932509B09305
:102D70002609E5E3F1E0949108C08091C00085FF49
:102D8000FCCF9093C600319694919923B1F7E6E475
:102D9000F1E0949108C08091C00085FFFCCF909332
:102DA000C600319694919923B1F78091C00085FFB8
:102DB000FCCF8AE08093C6008CE391E00E94CDD5E1
:102DC000089589E260E00E94B8E4A09A0895F8941A
:102DD0000E947A925F9A10926E078A9A10926F07F9
:102DE0008FB7F894909108019160909308018FBF7C
:102DF00010927007129A8CE060E00E94B8E4E5E35C
:102E0000F1E0949108C08091C00085FFFCCF9093C1
:102E1000C600319694919923B1F7E5ECF1E09491D5
:102E200008C08091C00085FFFCCF9093C60031960A
:102E300094919923B1F78091C00085FFFCCF8AE07F
:102E40008093C6008CEB91E00E94DCD5FFCF0E94FE
:102E5000F6E26093270970932809809329099093DB
:102E60002A09E0915009F0915109EE5AF64F8081FC
:102E70008823A9F4E4EEF1E0949108C08091C000A9
:102E800085FFFCCF9093C600319694919923B1F7BA
:102E90008091C00085FFFCCF8AE08093C600089532
:102EA0000E94F6E26093270970932809809329090C
:102EB00090932A090895EF92FF920F931F930E9417
:102EC000F6E2E0902B09F0902C0900912D09109169
:102ED0002E09209127093091280940912909509104
:102EE0002A09621B730B840B950BE616F70608077D
:102EF000190738F4E114F1040105110511F00E94DD
:102F0000E71680917B0390917C03A0917D03B091A3
:102F10007E030097A105B10591F10E94F6E2209190
:102F20002709309128094091290950912A09621BEB
:102F3000730B840B950B20917B0330917C034091A4
:102F40007D0350917E032617370748075907B8F4C9
:102F50009091BC128091BD12981789F45F9A1092DB
:102F60006E078A9A10926F079FB7F89480910801B4
:102F70008160809308019FBF10927007129A909908
:102F800002C00E94E7160E94BF791F910F91FF9027
:102F9000EF9008956F927F928F929F92AF92BF921F
:102FA000CF92DF92EF92FF920F931F93F82E6091D2
:102FB0002F09709130098091310990913209209147
:102FC00033093091340940913509509136090E94F6
:102FD000C4E83B014C0100D000D00DB71EB70F5F15
:102FE0001F4F6091590370915A03882777FD809590
:102FF000982F0E944BE720917F03309180034091EE
:103000008103509182030E9489E920E030E040E78B
:1030100052E40E94B0E620E030E048EC52E40E9426
:10302000B0E65B016C01F80160827182828293825A
:10303000F48280917507858386E497E06BE379E0FD
:103040004FE259E020E001E0A2E0EA2E0E94407247
:1030500080913B0990913C09A0913D09B0913E09B6
:103060008093460790934707A0934807B09349077A
:1030700080913F0990914009A0914109B091420986
:1030800080934A0790934B07A0934C07B0934D074A
:103090008091430990914409A0914509B091460956
:1030A00080934E0790934F07A0935007B09351071A
:1030B0008091470990914809A0914909B0914A0926
:1030C0008093520790935307A0935407B0935507EA
:1030D0008DB79EB706960FB6F8949EBF0FBE8DBFF4
:1030E0000E94F6E2609327097093280980932909CA
:1030F00090932A091F910F91FF90EF90DF90CF904E
:10310000BF90AF909F908F907F906F9008958F9217
:103110009F92AF92BF92CF92DF92EF92FF920F9366
:103120001F934C016EE876E284EB92ECF40120816F
:103130003181428153810E94CFE57B018C016FE197
:1031400075E080E592ECF401248135814681578158
:103150000E94CFE55B016C01C801B701A80197018E
:103160000E9489E99B01AC0168EC7DE288E397E469
:103170000E94CFE57B018C01C601B501A601950136
:103180000E9489E99B01AC01C801B7010E94CFE50B
:103190000E94F6E9F40120853185428553850E941D
:1031A000D0E5609378077093790780937A079093BE
:1031B0007B076EE876E284EB92E4F40120813181B2
:1031C000428153810E94CFE57B018C016FE175E064
:1031D00080E592ECF40124813581468157810E947B
:1031E000CFE55B016C01C801B701A80197010E94FE
:1031F00089E99B01AC0168EC7DE288E397E40E94D9
:10320000CFE57B018C01C601B501A60195010E94A5
:1032100089E99B01AC01C801B7010E94CFE50E947A
:10322000F6E9F40120853185428553850E94D0E579
:1032300060937C0770937D0780937E0790937F0750
:1032400060E070E080E090E0F40120813181428113
:1032500053810E94CFE57B018C016FE175E080ED29
:1032600092E4F40124813581468157810E94CFE5A3
:103270005B016C01C801B701A80197010E9489E9AF
:103280009B01AC0168EC7DE288E397E40E94CFE506
:103290007B018C01C601B501A60195010E9489E957
:1032A0009B01AC01C801B7010E94CFE50E94F6E97D
:1032B000F40120853185428553850E94D0E56093D5
:1032C00080077093810780938207909383071F91F3
:1032D0000F91FF90EF90DF90CF90BF90AF909F90B5
:1032E0008F9008952F923F924F925F926F927F92AC
:1032F0008F929F92AF92BF92CF92DF92EF92FF9206
:103300000F931F93DF93CF9300D00F92CDB7DEB70B
:103310000E94F6E260932709709328098093290997
:1033200090932A09BBE3CB2EB9E0DB2EC6010E94A5
:1033300087180F920F922DB63EB60894211C311CAF
:10334000409078075090790760907A0770907B07DB
:1033500080917C0790917D07A0917E07B0917F07B7
:1033600089839A83AB83BC83E0908007F0908107C8
:103370000091820710918307ACE0B0E0CA0EDB1E1B
:103380006091590370915A03882777FD8095982F93
:103390000E944BE720917F0330918003409181038D
:1033A000509182030E9489E920E030E040E752E436
:1033B0000E94B0E620E030E048EC52E40E94B0E623
:1033C0004B015C0185E797E0F10191838083C301A4
:1033D000B20129813A814B815C810E94A87C809155
:1033E0003B0990913C09A0913D09B0913E09809321
:1033F000460790934707A0934807B09349078091E9
:103400003F0990914009A0914109B09142098093F0
:103410004A0790934B07A0934C07B0934D078091B8
:10342000430990914409A0914509B09146098093C0
:103430004E0790934F07A0935007B0935107809188
:10344000470990914809A0914909B0914A09809390
:10345000520790935307A0935407B09355070F90CA
:103460000F900F900F900F900F90CF91DF911F91C1
:103470000F91FF90EF90DF90CF90BF90AF909F9013
:103480008F907F906F905F904F903F902F90089516
:103490004F925F926F927F928F929F92AF92BF9264
:1034A000CF92DF92EF92FF920F931F93DF93CF9310
:1034B000CDB7DEB76C970FB6F894DEBF0FBECDBFA9
:1034C0003C01DC016D917D918D919C9120E030E07B
:1034D00040E451E40E94B0E669837A838B839C8345
:1034E0002EE93FEE4FE750E40E94B7E818168CF043
:1034F00069817A818B819C812EE93FEE4FE750EC08
:103500000E94A9E688236CF48EE99FEEAFE7B0EC49
:1035100004C08EE99FEEAFE7B0E489839A83AB8362
:10352000BC83D30114966D917D918D919C911797D9
:1035300020E030E040E451E40E94B0E62B013C0181
:103540002EE93FEE4FE750E40E94B7E81816ACF0C2
:10355000C301B2012EE93FEE4FE750EC0E94A9E60D
:103560008823ACF40F2EFEE94F2EFFEE5F2EFFE70F
:103570006F2EF0EC7F2EF02D0AC00F2EFEE94F2E9D
:10358000FFEE5F2EFFE76F2EF0E47F2EF02D6981B6
:103590007A818B819C810E9486E70E9418E76B01EB
:1035A0007C01C301B2010E9486E70E9418E74B012B
:1035B0005C01B601882777FD8095982F0E944BE724
:1035C0009B01AC0169817A818B819C810E94CFE54E
:1035D0006D837E838F839887B401882777FD8095DC
:1035E000982F0E944BE79B01AC01C301B2010E94DE
:1035F000CFE569877A878B879C87F4E06F2E712CE3
:103600006C0C7D1CE4E04E2E512C480C591CE5E05E
:10361000F0E08E0E9F1ECE0EDF1E60E070E080E8B0
:103620009FE329853A854B855C850E94CFE56D87B0
:103630007E878F87988B60E070E080E89FE32D8124
:103640003E814F8158850E94CFE5698B7A8B8B8BA9
:103650009C8B830173E0000F111F7A95E1F7660CD4
:10366000771C060D171DF801E40DF51DEE0FFF1F69
:10367000EE0FFF1FEC57F84F6D857E858F8598897B
:1036800020813181428153810E9489E96D8B7E8B3B
:103690008F8B988F080D191D000F111F000F111F20
:1036A0000C57184F69857A858B859C85D8012D919B
:1036B0003D914D915C910E9489E99B01AC016D891E
:1036C0007E898F89988D0E94D0E59B01AC01698924
:1036D0007A898B899C890E9489E9698F7A8F8B8F7F
:1036E0009C8F860133E0000F111F3A95E1F7CC0C57
:1036F000DD1C0C0D1D1D400E511E440C551C440CB0
:10370000551CE4E8F7E04E0E5F1E6D857E858F85C3
:103710009889D2012D913D914D915C910E9489E94A
:103720006B017C01080D191D000F111F000F111FE7
:103730000C57184F69857A858B859C85F801208107
:103740003181428153810E9489E99B01AC01C7010B
:10375000B6010E94D0E59B01AC016D817E818F8115
:1037600098850E9489E99B01AC01698D7A8D8B8DCA
:103770009C8D0E94D0E57B018C016091780770914F
:10378000790780917A0790917B07A80197010E94A1
:10379000D0E5609378077093790780937A079093C8
:1037A0007B0760917C0770917D0780917E079091E7
:1037B0007F07A80197010E94D0E560937C07709372
:1037C0007D0780937E0790937F07609180077091BB
:1037D00081078091820790918307A80197010E9439
:1037E000D0E5609380077093810780938207909360
:1037F00083076C960FB6F894DEBF0FBECDBFCF9196
:10380000DF911F910F91FF90EF90DF90CF90BF90CD
:10381000AF909F908F907F906F905F904F900895A2
:103820002F923F924F925F926F927F928F929F92D0
:10383000AF92BF92CF92DF92EF92FF920F931F93BE
:10384000DF93CF93CDB7DEB7A6970FB6F894DEBF60
:103850000FBECDBFE0906D03F0906E0300916F033B
:103860001091700360913B0970913C0980913D0972
:1038700090913E09A80197010E94B7E8181644F4F8
:10388000E0923B09F0923C0900933D0910933E09F8
:10389000E0907103F0907203009173031091740330
:1038A00060913F09709140098091410990914209CE
:1038B000A80197010E94B7E8181644F4E0923F0966
:1038C000F09240090093410910934209E09075037A
:1038D000F09076030091770310917803609143098B
:1038E000709144098091450990914609A80197017A
:1038F0000E94B7E8181644F4E0924309F092440994
:1039000000934509109346090E94F6E26093270947
:10391000709328098093290990932A09EE24FF24A3
:103920006E010894C11CD11C86010E0D1F1DF701EC
:10393000E55CF64FD701AA5BB84F60817181828147
:1039400093812D913D914D915C910E94CFE5D801DD
:103950006D937D938D939C931397E4E0F0E0EE0ECE
:10396000FF1EF0E1EF16F104F9F689819A81AB812F
:10397000BC818B8F9C8FAD8FBE8F8D819E81AF81DF
:10398000B8858F8B988FA98FBA8F89859A85AB85DB
:10399000BC858B8B9C8BAD8BBE8B6B8D7C8D8D8D0D
:1039A0009E8D9B01AC010E9489E97B018C016F898E
:1039B000788D898D9A8D9B01AC010E9489E99B01CC
:1039C000AC01C801B7010E94D0E57B018C016B8975
:1039D0007C898D899E899B01AC010E9489E99B01AC
:1039E000AC01C801B7010E94D0E50E94F6E97B0155
:1039F0008C012DEB37E346E855E30E94A9E68823C6
:103A000094F4ED84FE840F851889C801B70120E085
:103A100030E040E050E00E94B7E8181624F017FBB1
:103A2000109517F91095C801B7012DEB37E346E85B
:103A300055E30E94A9E687FD73C1C801B70120E0E4
:103A400030E84BEB55E40E9489E920917F033091E7
:103A5000800340918103509182030E94B0E67B0174
:103A60008C016091590370915A03882777FD8095E6
:103A7000982F0E944BE79B01AC01C801B7010E943F
:103A8000B0E620E030E040E253E40E9489E90E9481
:103A900018E77A8B698B1616170624F0A1E0B0E0C0
:103AA000BA8BA98BB1E02B2E312C89899A89AA2750
:103AB00097FDA095BA2F8BA39CA3ADA3BEA3EAC08C
:103AC000B101882777FD8095982F0E944BE77B01F5
:103AD0008C016BA17CA18DA19EA10E944BE79B0153
:103AE000AC01C801B7010E94B0E67B018C016B8D6F
:103AF0007C8D8D8D9E8DA80197010E9489E99B0187
:103B0000AC016091460770914707809148079091FA
:103B100049070E94D0E560933B0970933C0980936C
:103B20003D0990933E096F89788D898D9A8DA80102
:103B300097010E9489E99B01AC0160914A0770914D
:103B40004B0780914C0790914D070E94D0E5609300
:103B50003F097093400980934109909342096B8912
:103B60007C898D899E89A80197010E9489E99B0122
:103B7000AC0160914E0770914F0780915007909172
:103B800051070E94D0E560934309709344098093E4
:103B9000450990934609C801B7012D853E854F859B
:103BA00058890E9489E99B01AC016091520770918C
:103BB000530780915407909155070E94D0E5609378
:103BC0004709709348098093490990934A098BE308
:103BD00099E00E9487188BE399E00E94481A0F929F
:103BE0000F92CDB6DEB60894C11CD11C4090780768
:103BF0005090790760907A0770907B0780917C07DE
:103C000090917D07A0917E07B0917F078F8F98A339
:103C1000A9A3BAA3E0908007F090810700918207E2
:103C2000109183076091590370915A03882777FD9B
:103C30008095982F0E944BE720917F03309180035D
:103C400040918103509182030E9489E920E030E095
:103C500040E752E40E94B0E620E030E048EC52E455
:103C60000E94B0E64B015C01E5E7F7E0D601ED9379
:103C7000FC93C301B2012F8D38A149A15AA1A7E439
:103C8000CA2EA9E0DA2E0E94A87C0894211C311CBF
:103C90000F900F9089899A89821593050CF010CFA7
:103CA00080913B0990913C09A0913D09B0913E095A
:103CB0008093460790934707A0934807B09349071E
:103CC00080913F0990914009A0914109B09142092A
:103CD00080934A0790934B07A0934C07B0934D07EE
:103CE0008091430990914409A0914509B0914609FA
:103CF00080934E0790934F07A0935007B0935107BE
:103D00008091470990914809A0914909B0914A09C9
:103D10008093520790935307A0935407B09355078D
:103D2000A6960FB6F894DEBF0FBECDBFCF91DF9140
:103D30001F910F91FF90EF90DF90CF90BF90AF90C9
:103D40009F908F907F906F905F904F903F902F90BB
:103D500008958DE69BE00E94E851E7EEF1E0949132
:103D600008C08091C00085FFFCCF9093C6003196BB
:103D700094919923B1F740911F09509120096091C6
:103D80002109709122094F5F5F4F6F4F7F4F8DE682
:103D90009BE02AE030E00E94AB528091C00085FF9A
:103DA000FCCF8AE08093C6000E9427170895809177
:103DB000490390914A03A0914B03B0914C03809327
:103DC0007F0390938003A0938103B093820380E0EC
:103DD00090E0ACE0B2E480933B0990933C09A0935F
:103DE0003D09B0933E0980E090E0A0E9B2E4809301
:103DF0003F0990934009A0934109B093420980E0A4
:103E000090E0A8ECB2E48093430990934409A09316
:103E10004509B09346090E94721960914903709157
:103E20004A0380914B0390914C0320E030E040E244
:103E300051E40E94B0E660937F0370938003809307
:103E400081039093820380E090E0A0E0B0E0809353
:103E50003B0990933C09A0933D09B0933E090E9411
:103E600072190E943B8A08958091490390914A03F8
:103E7000A0914B03B0914C0380937F0390938003F8
:103E8000A0938103B093820360914E0770914F0716
:103E9000809150079091510720E030E040EA51E4D2
:103EA0000E94D0E5609343097093440980934509CB
:103EB000909346090E94721980E090E0A8E3B2EC6A
:103EC00080933B0990933C09A0933D09B0933E0930
:103ED00080E090E0ACE6B2E480933F099093400923
:103EE000A0934109B093420980E090E0A8E4B2E4D5
:103EF0008093430990934409A0934509B0934609E0
:103F00000E94721960915103709152038091530382
:103F10009091540320E030E040E251E40E94B0E68A
:103F200060937F0370938003809381039093820357
:103F300060914E0770914F07809150079091510703
:103F400020E030E040EA51E40E94CFE5609343096D
:103F50007093440980934509909346090E94721911
:103F60008091510390915203A0915303B091540357
:103F700080937F0390938003A0938103B093820387
:103F800060914E0770914F078091500790915107B3
:103F900020E030E040EF51E40E94D0E56093430917
:103FA0007093440980934509909346090E947219C1
:103FB0000E943B8A089580E00E942D8980915609D5
:103FC00090915709A0915809B091590980937F03A6
:103FD00090938003A0938103B09382038091440760
:103FE0009091450790935A03809359030E94F6E2FB
:103FF00060932709709328098093290990932A09CF
:1040000008952F923F924F925F926F927F928F927C
:104010009F92AF92BF92CF92DF92EF92FF920F9357
:104020001F93DF93CF93CDB7DEB7A0970FB6F89469
:10403000DEBF0FBECDBF9E838D838330910508F018
:10404000D4C2FC01EE5DFB4FB490880F991F880F1E
:10405000991F98A38F8FB6E42B2EB7E03B2E280E26
:10406000391E20E030E040E050E0D1012D933D9337
:104070004D935C9313976091460770914707809129
:1040800048079091490720914A0730914B0740918A
:104090004C0750914D07E0904E07F0904F0700916C
:1040A000500710915107A2E5CA2EA7E0DA2E0E9410
:1040B000507720E030E040E050E0D1012D933D9377
:1040C0004D935C93139760914607709147078091D9
:1040D00048079091490720914A0730914B0740913A
:1040E0004C0750914D07E0904E07F0904F0700911C
:1040F0005007109151070E945077EF8DF8A1EB5DAA
:10410000FB4FE590F590059114916B2D772767FD96
:104110007095882777FD8095982F0E944BE76983DB
:104120007A838B839C83EF8DF8A1E55CF64FF8874B
:10413000EF83C801B70120E030E040EC5FE30E946C
:1041400089E929813A814B815C810E9489E9AF81AB
:10415000B8856D937D938D939C931397EF8DF8A104
:10416000E75BFC4FFA87E9876081718182819381E7
:1041700060937F0370938003809381039093820305
:104180000F920F92CDB6DEB60894C11CD11C4090A0
:104190003B0950903C0960903D0970903E09209188
:1041A0003F093091400940914109509142092B87C4
:1041B0003C874D875E87E0904309F0904409009169
:1041C00045091091460920E030E040E752E40E94A2
:1041D000B0E64B015C01E5E7F7E0D601ED93FC9317
:1041E000C301B2012B853C854D855E85F7E4CF2E5A
:1041F000F9E0DF2E0E94A87C0F900F900E943B8A6E
:1042000080E00E942D8920E030E040E050E0D101C4
:104210002D933D934D935C93139760914607709156
:104220004707809148079091490720914A073091AC
:104230004B0740914C0750914D07E0904E07F0908E
:104240004F070091500710915107E2E5CE2EE7E0AD
:10425000DE2E0E945077EF8DF8A1EF5CFB4F45906A
:10426000559065907490C301B201905829813A81AC
:104270004B815C810E9489E9EF81F88560837183BD
:10428000828393830F920F92CDB6DEB60894C11C41
:10429000D11C20913B0930913C0940913D0950913E
:1042A0003E092F87388B498B5A8B80913F0990911B
:1042B0004009A0914109B09142098B8B9C8BAD8B39
:1042C000BE8BE0904309F09044090091450910919C
:1042D000460960917F0370918003809181039091E2
:1042E000820320E030E040E752E40E94B0E64B0158
:1042F0005C01E5E7F7E0D601ED93FC936F857889E3
:1043000089899A892B893C894D895E89B7E4CB2EAE
:10431000B9E0DB2E0E94A87C0F900F900E943B8A90
:1043200081E00E942D89C301B201A30192010E9484
:10433000D0E529813A814B815C810E9489E9AF8176
:10434000B8856D937D938D939C931397E985FA853A
:10435000608171818281938120E030E040E85EE3FA
:104360000E9489E960937F037093800380938103A7
:10437000909382030F920F92CDB6DEB60894C11CC3
:10438000D11C40903B0950903C0960903D097090D1
:104390003E0920913F0930914009409141095091D7
:1043A00042092F8B388F498F5A8FE0904309F09044
:1043B0004409009145091091460920E030E040E7AA
:1043C00052E40E94B0E64B015C01E5E7F7E0D6015C
:1043D000ED93FC93C301B2012F89388D498D5A8D1D
:1043E000A7E4CA2EA9E0DA2E0E94A87C0F900F90B5
:1043F0000E943B8AAF8CB8A022E637E0A20EB31E23
:1044000069817A818B819C81D5012D913D914D915E
:104410005C910E9489E920E030E040E050E00E9499
:10442000A9E688230CF071C0609146077091470798
:10443000809148079091490720914A0730914B0796
:1044400040914C0750914D07E0904E07F0904F0778
:104450000091500710915107F2E5CF2EF7E0DF2EC3
:104460000E945077F50180819181A281B381EF8113
:10447000F88580839183A283B3830F920F92CDB688
:10448000DEB60894C11CD11C40903B0950903C09F9
:1044900060903D0970903E0920913F09309140099C
:1044A00040914109509142092B8F3C8F4D8F5E8F77
:1044B000E0904309F09044090091450910914609A4
:1044C00060917F03709180038091810390918203BA
:1044D00020E030E040E752E40E94B0E64B015C018E
:1044E000E5E7F7E0D601ED93FC93C301B2012B8D14
:1044F0003C8D4D8D5E8DE7E4CE2EE9E0DE2E0E94F0
:10450000A87C0F900F900E943B8ACD80DE80CC0C5F
:10451000DD1CCC0CDD1CF601E35CFB4F6591759155
:1045200085919491F601EA5AF84F80809180A2809B
:10453000B380A50194010E94D0E57B018C01F601B6
:10454000EA5BF84FCB01D80180839183A283B383C8
:10455000F601E75BFB4F659175918591949131E68A
:10456000632E33E0732E6C0C7D1CA50194010E9418
:10457000D0E5D3016D937D938D939C931397F601B2
:10458000EB5AFB4F65917591859194912DE6622EC2
:1045900023E0722E6C0C7D1CA50194010E94D0E5D5
:1045A000F30160837183828393832BE339E0C20E2E
:1045B000D31EC701D801F60180839183A283B38300
:1045C00080E090E0A0E0B0E080937F0390938003D0
:1045D000A0938103B09382030E9426892D813E819E
:1045E0002259384F81E0D9018C93A0960FB6F894E8
:1045F000DEBF0FBECDBFCF91DF911F910F91FF9016
:10460000EF90DF90CF90BF90AF909F908F907F9072
:104610006F905F904F903F902F900895CF92DF92D0
:10462000EF92FF920F931F93CF93DF93EE24FF241B
:10463000E6E7F4E0D4908AE0C82E38C0488159817A
:104640006A817B818DE69BE022E030E00E94BB53D3
:104650009D2DE6E7F4E008C08091C00085FFFCCF07
:104660009093C600319694919923B1F70F5F1F4F35
:10467000A8960A30110511F7E0E0F2E007C080913A
:10468000C00085FFFCCF31969093C600908199239E
:10469000B1F78091C00085FFFCCFC092C60008949E
:1046A000E11CF11C8AE0E816F10451F0E701CC0F9F
:1046B000DD1FCC0FDD1FCC57D84F00E010E0BECF80
:1046C000DF91CF911F910F91FF90EF90DF90CF90EE
:1046D0000895FC01949108C08091C00085FFFCCF33
:1046E0009093C600319694919923B1F78DE69BE0A3
:1046F00022E030E00E94BB53089540915009509150
:10470000510920E630E0B901469F9001479F300DE6
:10471000569F300D1124682F772767FD7095C901CA
:10472000845A964F0E94D4119C0190935B09809308
:104730005A0980E0232B09F081E00895FC0194914F
:1047400008C08091C00085FFFCCF9093C6003196D1
:1047500094919923B1F78DE69BE02AE030E00E9426
:104760008C5208958F929F92AF92BF92CF92DF9218
:10477000EF92FF920F931F9383E893E00E9464DC13
:1047800081E00E942D899EE4C92E97E0D92E809069
:104790004E0790904F07A0905007B090510782E0CD
:1047A0000E94068A7B018C01609151037091520333
:1047B000809153039091540320E030E040E85EE3A1
:1047C0000E9489E960937F03709380038093810343
:1047D0009093820380E090E0A0E2B1EC80934309E3
:1047E00090934409A0934509B09346090E94721919
:1047F0000E943B8A0E94268980E00E942D8982E0E7
:104800000E94068AE61AF70A080B190BC801B701BD
:104810000E944BE72091970D3091980D4091990D92
:1048200050919A0D0E94B0E69B01AC01C501B40104
:104830000E94CFE560934E0770934F078093500717
:1048400090935107C60108970E94871860917807D6
:104850007091790780917A0790917B0720917C076E
:1048600030917D0740917E0750917F07E09080074F
:10487000F09081070091820710918307E4E0F0E057
:10488000CE0EDF1E0E9450771F910F91FF90EF9088
:10489000DF90CF90BF90AF909F908F9008952F9210
:1048A0003F924F925F926F927F928F929F92AF92C0
:1048B000BF92CF92DF92EF92FF920F931F93DF93FD
:1048C000CF9300D00F92CDB7DEB71B012C01298307
:1048D0003A834B835C838091460790914707A09170
:1048E0004807B091490720914A0730914B07409102
:1048F0004C0750914D0760907F037090800380902B
:104900008103909082030F2EF0E0AF2EF0E0BF2ED7
:10491000FAEFCF2EF5E4DF2EF02DA0927F03B092B8
:104920008003C0928103D092820380933B099093CD
:104930003C09A0933D09B0933E0920933F09309371
:1049400040094093410950934209E0924309F09293
:10495000440900934509109346090E9472190E9468
:104960003B8AE0904E07F0904F070091500710915E
:104970005107A0927F03B0928003C0928103D0922E
:104980008203C201B10120E030E040E951E40E941D
:10499000D0E560933B0970933C0980933D09909367
:1049A0003E0969817A818B819C8120E030E040E181
:1049B00052E40E94D0E560933F09709340098093D0
:1049C000410990934209E0924309F092440900930F
:1049D0004509109346090E9472190E943B8A609211
:1049E0007F037092800380928103909282030E94E1
:1049F000B22310914E0700914F07F0905007E090BE
:104A00005107E2E7F4E0949108C08091C00085FF6F
:104A1000FCCF9093C600319694919923B1F7EDE6BF
:104A2000F4E0949108C08091C00085FFFCCF909382
:104A3000C600319694919923B1F78DE69BE0B201BF
:104A4000A10122E030E00E94BB53E8E6F4E094913B
:104A500008C08091C00085FFFCCF9093C6003196BE
:104A600094919923B1F78DE69BE049815A816B813E
:104A70007C8122E030E00E94BB53E3E6F4E09491B5
:104A800008C08091C00085FFFCCF9093C60031968E
:104A900094919923B1F78DE69BE0212F302FEF2DD4
:104AA000FE2DA901BF0122E030E00E94BB53E1E6E8
:104AB000F4E0949108C08091C00085FFFCCF9093F2
:104AC000C600319694919923B1F7212F302F4F2DA5
:104AD0005E2DB901CA010F900F900F900F90CF91EA
:104AE000DF911F910F91FF90EF90DF90CF90BF90DB
:104AF000AF909F908F907F906F905F904F903F907E
:104B00002F90089580915A0990915B09019660E079
:104B100070E04AE050E00E943310089580915A09F5
:104B200090915B09019660E070E00E94D30E0895B9
:104B3000CF93DF93EC018091750780931E0984E584
:104B40000E947D23882309F46FC00E948E250E9455
:104B50001DE7262F60931E09662309F465C0EFE266
:104B6000F1E0949108C08091C00085FFFCCF909344
:104B7000C600319694919923B1F7C936D10599F0C1
:104B8000CA36D10524F4C836D105F1F50FC0CD36AB
:104B9000D10531F0CA3DD105B9F5E1E0F2E031C00F
:104BA000E8E1F2E023C0EFE2F2E015C0E6E4F2E073
:104BB00007C08091C00085FFFCCF31969093C6005E
:104BC00090819923B1F720C08091C00085FFFCCF70
:104BD00031969093C60090819923B1F715C08091CA
:104BE000C00085FFFCCF31969093C6009081992339
:104BF000B1F70AC08091C00085FFFCCF3196909339
:104C0000C60090819923B1F78DE69BE0622F40E0CA
:104C100050E00E9499528091C00085FFFCCF8AE04D
:104C20008093C60081E001C080E0DF91CF910895BC
:104C3000AF92BF92CF92DF92EF92FF920F931F93AA
:104C4000CF93DF9326E4E22E27E0F22ECBE3D9E0E8
:104C500000E010E0F801E551FC4F80810E947D23C7
:104C6000882339F10E948E255B016C01F801E05C1C
:104C7000F84F8081882311F061E002C060914B09F8
:104C800070E0882777FD8095982F0E944BE7F70109
:104C900020813181428153810E9489E99B01AC01CD
:104CA000C601B5010E94D0E5688379838A839B831E
:104CB00009C0F70180819181A281B38188839983A2
:104CC000AA83BB830F5F1F4F84E090E0E80EF91EBC
:104CD00024960430110509F0BDCF86E40E947D239F
:104CE0008823E1F00E948E257B018C0160934C09A2
:104CF00070934D0980934E0990934F0920E030E066
:104D000040E050E00E94B7E8181644F4E0927F03B8
:104D1000F09280030093810310938203DF91CF917F
:104D20001F910F91FF90EF90DF90CF90BF90AF90C9
:104D300008950E94182689E40E947D23882359F053
:104D40000E948E2560932F0970933009809331095A
:104D5000909332090CC080E090E0A0E0B0E0809336
:104D60002F0990933009A0933109B09332098AE456
:104D70000E947D23882359F00E948E256093330979
:104D8000709334098093350990933609089580E033
:104D900090E0A0E0B0E08093330990933409A093B1
:104DA0003509B093360908952F923F924F925F9242
:104DB0006F927F928F929F92AF92BF92CF92DF922B
:104DC000EF92FF920F931F93DF93CF93CDB7DEB790
:104DD000C257D0400FB6F894DEBF0FBECDBF87E4F8
:104DE0000E947D23882309F477C50E948E250E94A6
:104DF00018E76C31710509F496C06D3171059CF4AA
:104E000062307105A9F16330710524F4772334F51C
:104E10000C94FE3F6330710599F16430710511F017
:104E20000C94FE3F38C06A35710509F4E6C46B3551
:104E3000710554F46D31710509F417C26E317105B5
:104E400011F00C94FE3F25C46B35710509F4D9C4EB
:104E50006C35710511F00C94FE3FD8C480911C098B
:104E6000882331F40E9418260E94101C0C942540BF
:104E700080911C09882321F40E94992681E007C0B3
:104E800080911C09882339F40E94992680E00E94B1
:104E9000CA170C94254089E194E00E94CDD580E5A5
:104EA0000E947D23882321F4EE24FF24870106C07D
:104EB0000E948E250E941DE77B018C0183E50E94E4
:104EC0007D23882361F00E948E2520E030E04AE7B0
:104ED00054E40E9489E90E941DE77B018C010E9435
:104EE0003B8A0E94F6E25B016C01AE0CBF1CC01E47
:104EF000D11E0E94F6E260932709709328098093DF
:104F0000290990932A0906C00E94DE960E945B1729
:104F10000E94A7D60E94F6E26A157B058C059D05C6
:104F200098F30C94FE3F83E893E00E9464DC20E059
:104F300030E00F2EF0E0EF2EF0E0FF2EF0E00F2F2C
:104F4000F0E01F2FF02D0EC0E082F1820283138368
:104F50000196B8968A309105B9F72F5F3F4F2A30F6
:104F6000310551F0F901EE0FFF1FEE0FFF1FEC5757
:104F7000F84F80E090E0E8CF80917F03909180032C
:104F8000A0918103B09182038093560990935709B1
:104F9000A0935809B09359098091590390915A03ED
:104FA000909345078093440784E690E090935A03DA
:104FB000809359030E94F6E26093270970932809B1
:104FC0008093290990932A0981E00E942D8980917C
:104FD000460790914707A0914807B09149078093F1
:104FE0003B0990933C09A0933D09B0933E09809101
:104FF0004A0790914B07A0914C07B0914D078093C1
:105000003F0990934009A0934109B09342098091D0
:105010004E0790914F07A0915007B0915107809390
:10502000430990934409A0934509B09346098091A0
:10503000520790915307A0915407B0915507809360
:10504000470990934809A0934909B0934A09E0920F
:105050007F03F09280030093810310938203E09218
:105060004607F09247070093480710934907E092DC
:105070004A07F0924B0700934C0710934D07E092BC
:105080004E07F0924F07009350071093510760E0CE
:1050900070E080E090E09B01AC017B018C01F2E5C7
:1050A000CF2EF7E0DF2E0E94507780E090E4A0E35F
:1050B000B4E480933B0990933C09A0933D09B093DD
:1050C0003E0980933F0990934009A0934109B09312
:1050D00042098093430990934409A0934509B093F2
:1050E00046096091490370914A0380914B03909166
:1050F0004C032DE232EB4DED5FE30E9489E96093B2
:105100007F037093800380938103909382030F92B7
:105110000F920DB71EB70F5F1F4F20E030E040E742
:1051200052E40E94B0E64B015C0185E797E0D801AC
:105130008D939C9360E070E480E394E49B01AC0168
:105140007B018C01E7E4CE2EE9E0DE2E0E94A87CF4
:105150000F900F900E943B8A0E94268980913B0904
:1051600090913C09A0913D09B0913E09809346077A
:1051700090934707A0934807B093490780913F0950
:1051800090914009A0914109B091420980934A074A
:1051900090934B07A0934C07B0934D078091430920
:1051A00090914409A0914509B091460980934E071A
:1051B00090934F07A0935007B093510780E090E081
:1051C0000E94012081E090E00E94012082E090E0B6
:1051D0000E94012086E497E00E948718609178077A
:1051E0007091790780917A0790917B0720917C07D5
:1051F00030917D0740917E0750917F07E0908007B6
:10520000F09081070091820710918307B2E5CB2EC1
:10521000B7E0DB2E0E94507780E00E942D898091BC
:10522000560990915709A0915809B0915909809356
:105230007F0390938003A0938103B09382038091B6
:1052400044079091450790935A03809359030E9415
:10525000F6E26093270970932809809329099093B7
:105260002A090E9426890C94FE3F0E943B8A83E80B
:1052700093E00E9464DC20E030E040E050E060E039
:1052800070E00EC040835183628373830196B896A9
:105290008A309105B9F72F5F3F4F2A30310551F021
:1052A000F901EE0FFF1FEE0FFF1FEC57F84F80E0E4
:1052B00090E0E8CF0E94D71E80917F0390918003F9
:1052C000A0918103B091820380935609909357096E
:1052D000A0935809B09359098091590390915A03AA
:1052E000909345078093440784E690E090935A0397
:1052F000809359030E94F6E260932709709328096E
:105300008093290990932A09809151039091520327
:10531000A0915303B091540380937F039093800333
:10532000A0938103B09382038AE50E947D238823A2
:1053300059F426E636E646E150EC63962CAF3DAFD5
:105340004EAF5FAF63970EC00E948E2526E636E60D
:1053500046E150E40E94CFE563966CAF7DAF8EAF1F
:105360009FAF63972F961FAE1EAE2F972D961FAE41
:105370001EAE2D9749EC5FEF25965FAF4EAF259798
:105380002596AEADBFAD2597BD01882777FD8095E9
:10539000982F0E944BE71B012C012C96BFAD2C9738
:1053A000B0FD0DC029E030E0EFEFFFEF2B96FFAF2F
:1053B000EEAF2B972996FFAFEEAF29970EC020E0F6
:1053C00030E04AE050E02B965FAF4EAF2B9761E0A4
:1053D00070E029967FAF6EAF299729968EAD9FAD6D
:1053E0002997880F991F2996AEADBFAD29978A0FCF
:1053F0009B1F880F991F880F991F21969FAF8EAF13
:105400002197C901880F991F3C01620E731E660C1B
:10541000771C660C771CE9ECFFEF6E0E7F1E68E2CE
:1054200070E0A69FA001A79F500DB69F500D1124BC
:1054300023965FAF4EAF2397690153E0CC0CDD1C80
:105440005A95E1F7C80ED91E2D968EAD9FAD2D97BA
:10545000C80ED91ECC0CDD1CCC0CDD1CA4E8B7E0BA
:10546000CA0EDB1E27963FAF2EAF279777C0B3013A
:10547000882777FD8095982F0E944BE74B015C01B0
:10548000A50194010E9489E97B018C01C201B1014F
:10549000A20191010E9489E99B01AC01C801B701F9
:1054A0000E94D0E50E94F6E920E030E04AEA52E4AA
:1054B0000E94B7E81816C4F12F96EEADFFAD2F97F6
:1054C000EF2B29F4EE24FF2408EC12E410C06091C5
:1054D0004E0770914F07809150079091510720E03F
:1054E00030E040EA50E40E94D0E57B018C01C50128
:1054F000B401A20191010E944F2463962CAD3DADF1
:105500004EAD5FAD63970E94D0E5D6016D937D935C
:105510008D939C9313972F96EEADFFAD2F973196F9
:105520002F96FFAFEEAF2F9727962EAD3FAD279763
:1055300029964EAD5FAD2997240F351F27963FAFB3
:105540002EAF279721966EAD7FAD2197660E771E01
:1055500023968EAD9FAD2397C80ED91E2796AEAD6C
:10556000BFAD27972B96EEADFFAD2B97AE17BF07BC
:1055700009F07DCF2D962EAD3FAD2D972F5F3F4F7C
:105580002D963FAF2EAF2D9725964EAD5FAD25974B
:10559000445F5F4F25965FAF4EAF25972A303105A8
:1055A00009F0EECE0E94DB1FEE24FF2494E0292EAA
:1055B000312C5CC0C8018E0D9F1D03970CF449C0AF
:1055C0005101A01AB10ADD240230110514F0DD24C6
:1055D000D394CC2452E0E516F10414F0CC24C39407
:1055E000C501B2014D2D50E02C2D30E00E94A414D5
:1055F00084E0882E912C800E911EDD2019F440E06D
:1056000050E002C04FEF5FEFC401B2012C2D30E03B
:105610000E94A414CC2019F420E030E002C02FEF47
:105620003FEFC501B3014D2D50E00E94A414DD20D1
:1056300019F440E050E002C04FEF5FEFCC2019F4C6
:1056400020E030E002C02FEF3FEFC401B3010E9421
:10565000A4140F5F1F4F0530110509F0ABCF08945C
:10566000E11CF11C65E0E616F10459F000E010E0E1
:1056700021014E185F08B4E06B2E712C6E0C7F1C5C
:1056800099CF0E940E230E943B8A0E94341F0C94E3
:10569000FE3F0E94D71E0E943B8A80917F0390911B
:1056A0008003A0918103B091820380935609909367
:1056B0005709A0935809B0935909809159039091C3
:1056C0005A03909345078093440784E690E09093B3
:1056D0005A03809359030E94F6E26093270970935E
:1056E00028098093290990932A0980915103909168
:1056F0005203A0915303B091540380937F0390937E
:105700008003A0938103B09382030E94B223E5E15A
:10571000F4E0949108C08091C00085FFFCCF909385
:10572000C600319694919923B1F7E0E1F4E09491A9
:1057300008C08091C00085FFFCCF9093C6003196D1
:1057400094919923B1F74091460750914707609192
:105750004807709149078DE69BE022E030E00E9407
:10576000BB53EBE0F4E0949108C08091C00085FF4A
:10577000FCCF9093C600319694919923B1F7409154
:105780004A0750914B0760914C0770914D078DE689
:105790009BE022E030E00E94BB53E6E0F4E094910D
:1057A00008C08091C00085FFFCCF9093C600319661
:1057B00094919923B1F740914E0750914F07609112
:1057C0005007709151078DE69BE022E030E00E9487
:1057D000BB53E4E0F4E0949108C08091C00085FFE1
:1057E000FCCF9093C600319694919923B1F70E9413
:1057F000DB1F0E94341F0C94FE3F10924B090C9447
:10580000FE3F81E080934B090C94FE3F85E40E94AB
:105810007D23882311F40E943B8AA6E48A2EA7E008
:105820009A2EF6E56F2EF7E07F2EAA24BB24F50111
:10583000E551FC4F80810E947D238823E9F173E0CC
:10584000A71669F40E948E25D4016D937D938D93E4
:105850009C93139782E597E00E9432772DC00E94B7
:105860008E25F30120813181428153810E94D0E550
:10587000D4016D937D938D939C931397609146070C
:1058800070914707809148079091490720914A07F6
:1058900030914B0740914C0750914D07E0904E07D7
:1058A000F0904F070091500710915107E2E5CE2E7E
:1058B000E7E0DE2E0E9450770894A11CB11CE4E0C2
:1058C000F0E08E0E9F1E6E0E7F1EF4E0AF16B10448
:1058D00009F0ADCF0C94FE3F8DE40E947D23882318
:1058E00011F40C94203F0E948E250E9418E7623725
:1058F000710511F40C94DF36633771050CF096C016
:105900006F31710509F486C3603271050CF041C036
:105910006631710509F4F3C167317105E4F4613151
:10592000710509F4A5C16231710534F46230710565
:1059300010F00C94FE3F3DC16431710509F4A9C11A
:10594000653171050CF0D5C16231710511F00C940F
:10595000FE3F0C94B8356A31710509F408C26B3109
:1059600071054CF46831710509F4EBC169317105B9
:105970000CF0F7C1CAC16C31710509F41DC26C315C
:1059800071050CF413C26E31710511F00C94FE3FD9
:1059900050C26435710511F40C94B8356535710544
:1059A000F4F46035710511F40C9485356135710599
:1059B00054F46032710509F482C26A32710511F043
:1059C0000C94FE3FD7C36235710511F40C94AF35CA
:1059D0006335710514F00C94B3350C949235693627
:1059E000710509F442C46A36710584F46C35710599
:1059F00011F40C942F366836710509F405C4653529
:105A0000710511F00C94FE3F0C9418366B3671053D
:105A100011F40C947F356B36710514F40C944E35EB
:105A20006D36710511F00C94FE3F43C56D3D710557
:105A300011F40C94213A6E3D71050CF054C06E3B8C
:105A4000710509F418C76F3B71051CF567377105BF
:105A500009F4ABC06837710564F46337710511F45C
:105A60000C94B8366537710511F00C94FE3F0C9418
:105A7000C8366937710511F40C94D9376937710547
:105A800014F40C94D4376C38710511F00C94FE3F6B
:105A9000DBC36C3C710511F40C9458396D3C7105F5
:105AA0008CF4693C710511F40C9417396B3C710549
:105AB00011F40C943A39683C710511F00C94FE3FD6
:105AC0000C948E386E3C710511F40C94D6396E3CF2
:105AD000710514F40C9478396C3D710511F00C9437
