:100000000C942F070C945C070C945C070C945C0711
:100010000C945C070C945C070C945C070C945C07D4
:100020000C945C070C945C070C945C070C945C07C4
:100030000C945C070C945C070C945C070C94F034F3
:100040000C945C070C94A22D0C945C070C945C0738
:100050000C947A340C945C070C945C070C94AE39C5
:100060000C945C070C9488360C940F370C945C0746
:100070000C945C070C945C070C945C070C945C0774
:100080000C945C070C945C070C945C070C945C0764
:100090000C945C070C945C070C945C070C945C0754
:1000A0000C945C070C945C070C945C070C945C0744
:1000B0000C945C070C945C070C945C070C945C0734
:1000C0000C945C070C945C070C945C070C945C0724
:1000D0000C945C070C945C070C945C070C945C0714
:1000E0000C945C076563686F3A0048617264636FE3
:1000F0006465642044656661756C7420536574742E
:10010000696E6773204C6F6164656400205A00203B
:10011000590020204D323036205800486F6D652040
:100120006F666673657420286D6D293A002045005E
:10013000205A0020580020420020540020204D3238
:100140003035205300416476616E636564207661CA
:10015000726961626C65733A20533D4D696E206629
:100160006565647261746520286D6D2F73292C207C
:10017000543D4D696E2074726176656C20666565CC
:10018000647261746520286D6D2F73292C20423DA7
:100190006D696E696D756D207365676D656E742030
:1001A00074696D6520286D73292C20583D6D617828
:1001B000696D756D205859206A65726B20286D6DC8
:1001C0002F73292C20205A3D6D6178696D756D2043
:1001D0005A206A65726B20286D6D2F73292C2020A0
:1001E000453D6D6178696D756D2045206A65726B5E
:1001F00020286D6D2F73290020540020204D3230AF
:1002000034205300416363656C65726174696F6E7D
:100210003A20533D616363656C65726174696F6E0A
:100220002C20543D72657472616374206163636550
:100230006C65726174696F6E00204500205A002061
:10024000590020204D3230312058004D6178696DC1
:10025000756D20416363656C65726174696F6E20B2
:10026000286D6D2F7332293A00204500205A002056
:10027000590020204D3230332058004D6178696D8F
:10028000756D2066656564726174657320286D6D97
:100290002F73293A00204500205A002059002020C1
:1002A0004D39322058005374657073207065722088
:1002B000756E69743A006F6B000A002077616C6B91
:1002C0005F616E676C655F64697374696E617469A0
:1002D0006F6E3D0077616C6B5F64697374616E6310
:1002E00065203D0053544F502100206465677265BE
:1002F00065202020002057414C4B20414E474C4563
:10030000203A00206D6D202020002057414C4B20CA
:10031000504F534954494F4E203A00205A3A00203A
:10032000593A0020436F756E7420583A20002045DA
:100330003A00205A3A0020593A00583A00206465A1
:1003400073696E6174696F6E5B585F415849535DA4
:1003500020203D0020646573696E6174696F6E5B77
:10036000585F415849535D20203D00206465736902
:100370006E6174696F6E5B585F415849535D202010
:100380003D0020646573696E6174696F6E5B585FD0
:10039000415849535D2D6F7574657220203D0020D2
:1003A000646573696E6174696F6E5B585F4158492B
:1003B000535D20203D004572726F723A004D31311D
:1003C000300046726F6E742D4C6566742D456E64F8
:1003D00053746F70203D200046726F6E742D526909
:1003E0006768742D456E6453746F70203D20200043
:1003F0004C4946545F424F54544F4D5F454E445311
:10040000544F50203D202000534C4944455F424FFB
:1004100054544F4D5F454E4453544F50203D20207F
:1004200000534C4944455F544F505F454E4453542C
:100430004F5020203D202000534C4944455F5452EA
:10044000494745525F454E4453544F5020203D206C
:100450002000416E676C6520486F6D6520436F6DAD
:10046000706C65746521004E4F5420434845434BE2
:10047000454421205455524E20494E564552542150
:10048000005455524E2053544F50210045313A20CC
:100490000045303A20005A3A2000593A2000583A94
:1004A00020004D53312C4D53322050696E730A0099
:1004B00024F404D9201BC40C5C0E9804C4095F0208
:1004C00065077101F405F900FB04B30048048700D7
:1004D000C10369005803550003034500BE023A00FA
:1004E0008402310053022A00290225000402200060
:1004F000E4011C00C8011900AF01170098011400A5
:1005000084011300710110006101100051010E00FF
:1005100043010D0036010B002B010B0020010B00E5
:10052000150109000C01090003010800FB00080087
:10053000F3000800EB000700E4000600DE00060000
:10054000D8000600D2000600CC000500C700050058
:10055000C2000500BD000400B9000400B50004009D
:10056000B1000400AD000400A9000400A5000300D0
:10057000A20003009F0004009B00030098000300FA
:100580009500020093000300900003008D0002001C
:100590008B00030088000200860002008400030034
:1005A000810002007F0002007D0002007B0002004B
:1005B000790002007700010076000200740002005A
:1005C00072000100710002006F0002006D00010066
:1005D0006C0002006A00010069000200670001006F
:1005E0006600010065000100640002006200010075
:1005F00061000100600001005F0002005D00010079
:100600005C0001005B0001005A000100590001007C
:10061000580001005700010056000100550001007C
:10062000540001005300000053000100520001007B
:1006300051000100500001004F0001004E00000079
:100640004E0001004D0001004C0001004B00000075
:100650004B0001004A000100490001004800000071
:10066000480001004700010046000000460001006C
:100670004500000045000100440001004300000067
:100680004300010042000000420001004100000060
:1006900041000100400001003F0000003F00010058
:1006A0003E0000003E0001003D0000003D00010052
:1006B0003C0000003C0000003C0001003B0000004A
:1006C0003B0001003A0000003A0001003900000040
:1006D0003900010038000000380000003800010037
:1006E000370000003700010036000000360000002F
:1006F0003600010035000000350000003500010023
:100700003400000034000000340001003300000019
:10071000330000003300010032000000320000000E
:100720003200010031000000310000003100010002
:100730003000000030000000300001002F000000F9
:100740002F0000002F0000002F0001002E000000ED
:100750002E0000002E0001002D0000002D000000E2
:100760002D0000002D0001002C0000002C000000D6
:100770002C0000002C0001002B0000002B000000CA
:100780002B0000002B0001002A0000002A000000BE
:100790002A0000002A0001002900000029000000B2
:1007A00029000000290000002900010028000000A5
:1007B0002800000028000000280000002800010098
:1007C000270000002700000027000000270000008D
:1007D000270001002600000026000000260000007F
:1007E0002600000026000100250000002500000072
:1007F0002500000025000000250000002500010064
:100800002400000024000000240000002400000058
:10081000240001002300000023000000230000004A
:10082000230000002300000023000000230001003B
:100830002200000022000000220000002200000030
:100840002200000022000100210000002100000021
:100850002100000021000000210000002100000014
:100860002100010020000000200000002000000006
:1008700020000000200000002000000020000000F8
:10088000200001001F0000001F0000001F000000EA
:100890001F0000001F0000001F0000001F000100DB
:1008A0001E0000001E0000001E0000001E000000D0
:1008B00024F4D43050C38E20C2A24017828B701112
:1008C000127A910D816CD90AA861E108C7586607B0
:1008D000615143061E4B5D05C145A7041A41110431
:1008E000093D9803713931034036DB0265339102CB
:1008F000D4305402802E1D02632CEE01752AC501EE
:10090000B028A001102781018F2564012B244B0101
:10091000E0223401AC211F018D200D01801FFC005D
:10092000841EED00971DDF00B81CD200E61BC60038
:10093000201BBC00641AB200B219A8000A19A0005A
:100940006A189900D117910040178B00B5168400E2
:1009500031167E00B31579003A157300C7146F0085
:1009600058146A00EE1366008813630025135E00B6
:10097000C7125B006C12570015125400C1115100D0
:1009800070114F0021114B00D61049008D10470007
:100990004610440002104200C00F4000800F3E008D
:1009A000420F3C00060F3B00CB0E3800930E370081
:1009B0005C0E3500270E3400F30D3200C10D3100FE
:1009C000900D3000600D2E00320D2D00050D2C0015
:1009D000D90C2B00AE0C2900850C29005C0C2700DB
:1009E000350C27000E0C2600E80B2400C40B240055
:1009F000A00B23007D0B23005A0B2100390B210093
:100A0000180B2000F80A1F00D90A1E00BB0A1E009E
:100A10009D0A1D00800A1D00630A1C00470A1B0076
:100A20002C0A1B00110A1A00F7091A00DD09190027
:100A3000C4091900AB091900920917007B091800B5
:100A4000630917004C091600360916002009160024
:100A50000A091500F5081500E0081400CC08140078
:100A6000B8081400A4081400900813007D081200B0
:100A70006B081300580812004608120034081100D1
:100A8000230811001208110001081100F0071000DE
:100A9000E0071000D0071000C0071000B0070F00DB
:100AA000A107100091070E0083070F0074070F00C5
:100AB00065070E0057070E0049070E003B070D00A3
:100AC0002E070E0020070D0013070D0006070D006E
:100AD000F9060C00ED060D00E0060C00D4060C0033
:100AE000C8060C00BC060C00B0060C00A4060B00E7
:100AF00099060C008D060B0082060B0077060B0092
:100B00006C060B0061060A0057060B004C060A0033
:100B100042060A0038060A002E060A0024060A00C9
:100B20001A060A001006090007060A00FD0509005A
:100B3000F4050900EB050900E2050900D9050900E3
:100B4000D0050900C7050900BE050900B505080064
:100B5000AD050800A50509009C05080094050800DE
:100B60008C050800840508007C0508007405080051
:100B70006C050700650508005D05070056050800BF
:100B80004E05070047050700400508003805070027
:100B9000310507002A050700230507001C0506008C
:100BA000160507000F0507000805060002050700E7
:100BB000FB040600F5040700EE040600E804060046
:100BC000E2040700DB040600D5040600CF0406009B
:100BD000C9040600C3040600BD040600B7040600ED
:100BE000B1040500AC040600A6040600A00405003C
:100BF0009B04060095040500900406008A04050085
:100C000085040500800406007A04050075040500CB
:100C1000700405006B04050066040500610405000E
:100C20005C04050057040500520405004D0405004E
:100C300048040500430405003E0404003A0405008E
:100C400035040500300404002C04050027040400CA
:100C5000230405001E0404001A0404001604050001
:100C6000110404000D040400090405000404040038
:100C700000040400FC030400F8030400F40304006F
:100C8000F0030400EC030400E8030400E4030400A0
:100C9000E0030400DC030400D8030400D4030400D0
:100CA000D0030400CC030400C8030300C503030001
:100CB0006563686F3A00656E6473746F7073206863
:100CC00069743A205A00205A3A00656E6473746F52
:100CD0007073206869743A20590020593A00656E93
:100CE0006473746F7073206869743A2058002058D8
:100CF0003A00656E6473746F7073206869743A208B
:100D00000000002100240027002A002D00300033BD
:100D10000001010000040107010A01000022002572
:100D20000028002B002E00310034000201000005D5
:100D30000108010B01000020002300260029002CDF
:100D4000002F003200000100000301060109010527
:100D5000050505070508080808020202020A0A0834
:100D6000080404040401010101010101010303035A
:100D70000303030303040707070C0C0C0C0C0C0CF7
:100D80000C0202020206060606060606060B0B0BFE
:100D90000B0B0B0B0B010210202008081020401039
:100DA000204080020102010804020101020408102F
:100DB000204080804020100804020180040201804D
:100DC0004020100804020108040201010204081076
:100DD00020408001020408102040800000090A021F
:100DE000080B0C0D070603040100000000000000C2
:100DF00000000000000000000000000000000000F3
:100E00000000000000000011100F000000000000B2
:100E100000000000000000000000000000000000D2
:100E200000494E46494E4954594E414ECDCCCC3DD9
:100E30000AD7233C17B7D13877CC2B329595E624C7
:100E40001FB14F0A000020410000C84200401C466C
:100E500020BCBE4CCA1B0E5AAEC59D74C2361124AE
:100E60001FBECFEFD1E2DEBFCDBF00E00CBF14E06C
:100E7000A0E0B2E0E4ECFEE700E00BBF02C00790A8
:100E80000D92A639B107D9F71BBE1CE1A6E9B4E063
:100E900001C01D92A334B107E1F71EE0CEE5DEE00C
:100EA00004C02297FE010E941A3FCC35D107C9F732
:100EB0000E949F390C94603F0C940000A0E0B0E0C9
:100EC000E4E6F7E00C942F3FEC015B01611571053E
:100ED00019F0FB0191838083F9908F2D90E00E949F
:100EE0001E3F892BC9F7FDE2FF1621F4F990EE248D
:100EF000E39405C02BE2F21609F4F990EE248E017A
:100F000001501040C80161E27EE043E050E00E94E1
:100F1000ED09892B01F58E010E5F1F4FC80164E2B8
:100F20007EE045E050E00E94ED09892B19F48E0126
:100F3000095F1F4FA114B10419F0F501118300835B
:100F4000E0FC04C070E090E080E814C070E090E045
:100F500080E86FEF08C1C80169E27EE043E050E03D
:100F60000E94ED09892B69F4A114B10429F470E001
:100F700090E080EC6FE7F7C02296F501D183C08343
:100F8000F6CF8824992440E050E060E070E0EF2D37
:100F9000E053EA30A0F5F2E0EF2A8E2D90E09C01BC
:100FA00028703070E2FE06C0232B79F50894811C6E
:100FB000911C2BC0232B19F0089481089108DB01A8
:100FC000CA0112E0880F991FAA1FBB1F1A95D1F7FB
:100FD000480F591F6A1F7B1F440F551F661F771F3D
:100FE0004E0F511D611D711D483929E9520729E92C
:100FF000620729E1720748F084E0E82A06C0EE3F64
:1010000031F4E3FC39C098E0E92AF990C0CFE53328
:1010100011F0E53189F529912D3219F4E0E1EE2A3C
:1010200005C02B3219F081E090E003C0299182E0E5
:1010300090E0E22FE053EA3018F0C81BD90B1CC037
:1010400020E030E0FCE020383F075CF4C901880F65
:10105000991F880F991F280F391F220F331F2E0F3A
:10106000311DE991E053EA3068F3E4FE03C03095A6
:1010700021953F4F820E931ECE2CDD24E1FE07C04A
:10108000A114B10421F02197F501D183C083CB01D4
:10109000BA010E949B3C7B018C01F3E0CF22DD244E
:1010A00023E0C216D10421F417FB109517F910950F
:1010B00057016801C801B70120E030E040E050E08E
:1010C0000E94FE3B882309F44AC097FE0DC020E42D
:1010D000E22E2EE0F22E9094819491089394C0E237
:1010E000D0E000E010E012C098E5E92E9EE0F92E75
:1010F000F6CFF7012591359145915491C601B5017F
:101100000E94D63D5B016C018C1A9D0A8C169D06CF
:1011100084F7D595C7950F5F1F4F0630110529F04D
:101120008CEF9FEFE80EF91EF1CFC501D6017C01CF
:101130008D018C2D880F8D2D881F8F3F51F0C6019A
:10114000B50120E030E040E050E00E94FE3B882303
:1011500031F482E290E09093421C8093411C7E2DFA
:101160009F2D802F612F272F392F482F562FB90100
:10117000CA01CDB7DEB7ECE00C944B3F2F923F9203
:101180005F926F927F928F929F92AF92BF92CF9217
:10119000DF92EF92FF920F931F93CF93DF938C0117
:1011A0001B01EA016115710519F0FB019183808330
:1011B000209749F0CE010297839728F020E030E095
:1011C00040E050E0F6C0F801A1908F018A2D90E038
:1011D0000E941E3F892BB9F7FDE2AF1631F4F801EA
:1011E000A1908F015524539407C0FBE2AF1619F468
:1011F000F801A1908F015524209719F0C031D10535
:10120000C1F4F0E3AF1679F4F8018081883711F06A
:10121000883549F4F801A1800E5F1F4FF2E05F2A84
:10122000C0E1D0E006C0209721F480E3A816E9F4DD
:1012300027C0C830D10531F1C930D10524F4C230FE
:10124000D10531F50CC0CA30D10589F0C031D105C6
:10125000F9F4C12CD12CE12CB8E0FB2E28C0C12C14
:10126000D12CE12CA0E4FA2E22C0CAE0D0E0FCECA4
:10127000CF2EFCECDF2EFCECEF2EFCE0FF2E17C097
:10128000C8E0D0E0C12CD12CE12CE0E1FE2E0FC053
:101290009E01442737FD4095542F60E070E080E0C8
:1012A00090E80E94C73EC901DA016C017D0120E08F
:1012B00030E040E050E060E03E01882477FC80941C
:1012C000982C70EDB72EBA0CE9E0EB1570F48A2D6E
:1012D00081548A3118F499ECB92E06C08A2D8156B2
:1012E0008A3150F589EAB82EBA0C8B2D90E08C1714
:1012F0009D0714F56F3FE1F0C216D306E406F5062C
:10130000B0F0CA01B901A40193010E94953E9B016E
:10131000AC012B0D311D411D511D2130F0E03F0767
:10132000F0E04F07F0E85F0710F461E001C06FEFF5
:10133000F801A1908F01C5CF2114310481F06623FB
:1013400031F001501040F1011183008308C051FEBB
:101350001AC002501040F1011183008314C067FFCE
:1013600012C050FC05C02FEF3FEF4FEF5FE704C006
:1013700020E030E040E050E882E290E09093421CB0
:101380008093411C16C050FE08C050954095309582
:1013900021953F4F4F4F5F4F0CC057FF0AC082E26D
:1013A00090E09093421C8093411C2FEF3FEF4FEF52
:1013B0005FE7B901CA01DF91CF911F910F91FF90B3
:1013C000EF90DF90CF90BF90AF909F908F907F90E5
:1013D0006F905F903F902F900895FB01DC0141508A
:1013E000504088F08D9181341CF08B350CF4805E78
:1013F000659161341CF06B350CF4605E861B6111E5
:1014000071F3990B0895881BFCCFFB01559155236F
:10141000A9F0BF01DC014D9145174111E1F759F4E5
:10142000CD010590002049F04D9140154111C9F3BF
:10143000FB014111EFCF81E090E001970895FC019D
:101440008191861721F08823D9F79927089531973C
:10145000CF0108950F931F93DF93CF93CDB7DEB7DE
:10146000EC970FB6F894DEBF0FBECDBFDE011D9620
:10147000E1E7F4E080E101900D928150E1F7DE01B7
:101480005D96E1E6F4E080E101900D928150E1F794
:10149000DE019D96E1E5F4E080E101900D9281503E
:1014A000E1F78D859E85AF85B88980938F079093EE
:1014B0009007A0939107B09392078D8D9E8DAF8D6D
:1014C000B8A180939F079093A007A093A107B09322
:1014D000A2078DA59EA5AFA5B8A980937F0790937D
:1014E0008007A0938107B093820789899A89AB8985
:1014F000BC898093930790939407A0939507B0932A
:10150000960789A19AA1ABA1BCA18093A307909350
:10151000A407A093A507B093A60789A99AA9ABA988
:10152000BCA98093830790938407A0938507B09309
:1015300086078D899E89AF89B88D80939707909390
:101540009807A0939907B0939A078DA19EA1AFA188
:10155000B8A58093A7079093A807A093A907B09375
:10156000AA078DA99EA9AFA9B8AD809387079093CC
:101570008807A0938907B0938A07898D9A8DAB8DD0
:10158000BC8D80939B0790939C07A0939D07B0937D
:101590009E0789A59AA5ABA5BCA58093AB079093A0
:1015A000AC07A093AD07B093AE0789AD9AADABADD4
:1015B000BCAD80938B0790938C07A0938D07B0935D
:1015C0008E070E94981D80E090E8ABE3B5E480931D
:1015D000B3079093B407A093B507B093B607809371
:1015E000B7079093B807A093B907B093BA0720E064
:1015F00030E040E050E02093AF073093B0074093D5
:10160000B1075093B20780E29EE4A0E0B0E080937F
:101610007B0790937C07A0937D07B0937E07209370
:10162000C7073093C8074093C9075093CA0780E0A3
:1016300090E0A0EAB1E48093BB079093BC07A0932D
:10164000BD07B093BE078093BF079093C007A093D8
:10165000C107B093C2078093C3079093C407A093B8
:10166000C507B093C607DE011196E5E4F4E08CE00F
:1016700001900D928150E1F789819A81AB81BC8103
:101680008093AD049093AE04A093AF04B093B004E4
:101690008D819E81AF81B8858093B1049093B2040F
:1016A000A093B304B093B40489859A85AB85BC85B7
:1016B0008093B5049093B604A093B704B093B80494
:1016C000E4EEF0E064918F010BC0772767FD709521
:1016D0008BE99BE10E940F360F5F1F4FF801649169
:1016E000662399F7EAEEF0E064918F010BC077274B
:1016F00067FD70958BE99BE10E940F360F5F1F4FCE
:10170000F8016491662399F78BE99BE16AE00E94F6
:101710000F36EC960FB6F894DEBF0FBECDBFCF915B
:10172000DF911F910F9108950F931F93CF93DF9334
:1017300004EE10E0F8016491E8010AC0772767FD24
:1017400070958BE99BE10E940F362196FE01649112
:101750006623A1F7E6EAF2E06491EF010AC0772779
:1017600067FD70958BE99BE10E940F362196FE0183
:1017700064916623A1F78BE99BE16AE00E940F3632
:10178000F8016491C4EED0E00AC0772767FD709538
:101790008BE99BE10E940F362196FE01649166233E
:1017A000A1F740918F075091900760919107709138
:1017B00092078EE992E00E94AA11409193075091FE
:1017C000940760919507709196078BE992E00E94CB
:1017D000AA114091970750919807609199077091CD
:1017E0009A0788E992E00E94AA1140919B075091C4
:1017F0009C0760919D0770919E0785E992E00E9489
:10180000AA118BE99BE160E072E00E94A2388BE9AB
:101810009BE16AE00E940F36F8016491C4EED0E0CB
:101820000AC0772767FD70958BE99BE10E940F3610
:101830002196FE0164916623A1F7EBE7F2E0649143
:10184000EF010AC0772767FD70958BE99BE10E9445
:101850000F362196FE0164916623A1F78BE99BE187
:101860006AE00E940F36F8016491C4EED0E00AC02D
:10187000772767FD70958BE99BE10E940F362196D3
:10188000FE0164916623A1F740919F075091A00744
:101890006091A1077091A20782E792E00E94AA11CD
:1018A0004091A3075091A4076091A5077091A607E6
:1018B0008FE692E00E94AA114091A7075091A807D5
:1018C0006091A9077091AA078CE692E00E94AA1184
:1018D0004091AB075091AC076091AD077091AE0796
:1018E00089E692E00E94AA118BE99BE160E072E038
:1018F0000E94A2388BE99BE16AE00E940F36F80152
:101900006491C4EED0E00AC0772767FD70958BE93B
:101910009BE10E940F362196FE0164916623A1F798
:10192000EBE4F2E06491EF010AC0772767FD709560
:101930008BE99BE10E940F362196FE01649166239C
:10194000A1F78BE99BE16AE00E940F36F8016491F0
:10195000C4EED0E00AC0772767FD70958BE99BE164
:101960000E940F362196FE0164916623A1F74091F3
:101970007F0750918007609181077091820782E410
:1019800092E00E94831140918307509184076091F7
:101990008507709186078FE392E00E948311409142
:1019A0008707509188076091890770918A078CE3B7
:1019B00092E00E94831140918B0750918C076091B7
:1019C0008D0770918E0789E392E00E9483118BE965
:1019D0009BE160E072E00E94A2388BE99BE16AE043
:1019E0000E940F36F8016491C4EED0E00AC0772758
:1019F00067FD70958BE99BE10E940F362196FE01F1
:101A000064916623A1F7E4E0F2E06491EF010AC07B
:101A1000772767FD70958BE99BE10E940F36219631
:101A2000FE0164916623A1F78BE99BE16AE00E94C5
:101A30000F36F8016491C4EED0E00AC0772767FD45
:101A400070958BE99BE10E940F362196FE0164910F
:101A50006623A1F74091B3075091B4076091B50791
:101A60007091B6078BEF91E00E94AA114091B707E1
:101A70005091B8076091B9077091BA0788EF91E06B
:101A80000E94AA118BE99BE160E072E00E94A238FB
:101A90008BE99BE16AE00E940F36F8016491C4EE85
:101AA000D0E00AC0772767FD70958BE99BE10E9423
:101AB0000F362196FE0164916623A1F7E5E4F1E07B
:101AC0006491EF010AC0772767FD70958BE99BE170
:101AD0000E940F362196FE0164916623A1F78BE9DF
:101AE0009BE16AE00E940F36F8016491C4EED0E0F9
:101AF0000AC0772767FD70958BE99BE10E940F363E
:101B00002196FE0164916623A1F74091AF075091A1
:101B1000B0076091B1077091B2078CE391E00E9429
:101B2000AA114091C7075091C8076091C9077091E9
:101B3000CA0789E391E00E94AA1140917B07509166
:101B40007C0760917D0770917E0786E391E00E949B
:101B500083114091BB075091BC076091BD07709104
:101B6000BE0783E391E00E94AA114091BF07509104
:101B7000C0076091C1077091C20780E391E00E94A5
:101B8000AA114091C3075091C4076091C507709195
:101B9000C6078DE291E00E94AA118BE99BE160E00B
:101BA00072E00E94A2388BE99BE16AE00E940F3646
:101BB000F8016491C4EED0E00AC0772767FD709504
:101BC0008BE99BE10E940F362196FE01649166230A
:101BD000A1F7EBE1F1E06491EF010AC0772767FD1F
:101BE00070958BE99BE10E940F362196FE0164916E
:101BF0006623A1F78BE99BE16AE00E940F36F801AA
:101C00006491C4EED0E00AC0772767FD70958BE938
:101C10009BE10E940F362196FE0164916623A1F795
:101C20004091AD045091AE046091AF047091B00446
:101C300082E191E00E94AA114091B1045091B20456
:101C40006091B3047091B4048FE091E00E94AA11F6
:101C50004091B5045091B6046091B7047091B804F6
:101C60008CE091E00E94AA118BE99BE160E072E0B8
:101C70000E94A2388BE99BE16AE00E940F36DF9157
:101C8000CF911F910F910895FC0110821182128251
:101C9000138214821582168217821086118612868C
:101CA00013861486158616861786108A118A128A5C
:101CB000138A148A8BEC9DEDA0E1B3E4858B968B9F
:101CC000A78BB08F80E090E0A0E0B0E0818F928F92
:101CD000A38FB48F858F968FA78FB0A381A392A374
:101CE000A3A3B4A385A396A3A7A3B0A780E494E578
:101CF000A9E0BBE481A792A7A3A7B4A780E090E4E2
:101D0000ACE1B8E485A796A7A7A7B0AB80E090E0C8
:101D1000A8E4B3E481AB92ABA3ABB4AB15AA16AA0B
:101D200017AA10AE0895FC0183E08083118212820D
:101D300013821482158216821782108611861286EB
:101D400013861486158616861786108A118A128ABB
:101D5000138A148A87E69AEFAEE2B3E4858B968BFA
:101D6000A78BB08F20E030E040E050E0218F328F31
:101D7000438F548F80E391EAADEBB2E4858F968F69
:101D8000A78FB0A321A332A343A354A325A336A3B3
:101D900047A350A780E090EAACE0B6E481A792A701
:101DA000A3A7B4A780E090E4ACE1B8E485A796A728
:101DB000A7A7B0AB80E090E0AAE7B4E481AB92AB18
:101DC000A3ABB4AB15AA16AA17AA81E080AF0895F9
:101DD0004091AE055091AF0520E630E0B901469F35
:101DE0009001479F300D569F300D1124682F7727A3
:101DF00067FD7095C90180559A4F0E941F0A9C018A
:101E0000909331078093300780E0232B09F081E025
:101E100008958091300790913107019660E070E05D
:101E20000E945E070895AF92BF92CF92DF92EF9229
:101E3000FF920F931F93CF93DF939DE9A92E94E018
:101E4000B92E82E3C82E87E0D82EC0E0D0E0FE0194
:101E5000EF57FB4F80810E94E80E882311F10E940A
:101E6000090F7B018C01FE01EA56FB4F608170E097
:101E7000882777FD8095982F0E949D3CF501208151
:101E80003181428153810E94D63D9B01AC01C80142
:101E9000B7010E94873BF60160837183828393833D
:101EA0000AC0F50180819181A281B381F60180830E
:101EB0009183A283B383219684E090E0A80EB91E9B
:101EC000C80ED91EC430D10511F686E40E94E80E72
:101ED0008823E1F00E94090F7B018C016093420787
:101EE00070934307809344079093450720E030E0C8
:101EF00040E050E00E94A23D181644F4E0922F0406
:101F0000F09230040093310410933204DF91CF91AA
:101F10001F910F91FF90EF90DF90CF90BF90AF9007
:101F200008958AE160E00E94233B089587E160E024
:101F30000E94233B089587E161E00E94233B0895BE
:101F40004F925F926F927F929F92AF92BF92CF9289
:101F5000DF92EF92FF920F931F93982E5A016B011D
:101F6000780189010E94960FC801B70120914905A7
:101F700030914A0540914B0550914C050E94D63D49
:101F80000E946A3C2B013C0188E1692D0E94233BA1
:101F900061E069258EE10E94233BC601B5012091D5
:101FA000490530914A0540914B0550914C050E94DE
:101FB000D63D9B01AC0160E074E284E799E40E94A5
:101FC000023C5B016C0127C086E161E00E94233B7B
:101FD0008CE161E00E94233BC601B50120E030E0C6
:101FE00040E05FE30E94D63D0E946F3C7B018C0184
:101FF000CB010E94043A86E160E00E94233B8CE121
:1020000060E00E94233BC7010E94043A0894410803
:102010005108610871081414150416041704A4F279
:102020001F910F91FF90EF90DF90CF90BF90AF90F6
:102030009F907F906F905F904F9008954F925F9226
:102040006F927F929F92AF92BF92CF92DF92EF9268
:10205000FF920F931F93982E5A016B01780189010B
:102060000E94960FC801B7012091490530914A0599
:1020700040914B0550914C050E94D63D0E946A3C10
:102080002B013C0188E1692D0E94233B8EE1692DE3
:102090000E94233BC601B5012091490530914A05B4
:1020A00040914B0550914C050E94D63D9B01AC01DF
:1020B00060E074E284E799E40E94023C5B016C01F9
:1020C00027C086E161E00E94233B8CE161E00E9431
:1020D000233BC601B50120E030E040E05FE30E9411
:1020E000D63D0E946F3C7B018C01CB010E94043ADB
:1020F00086E160E00E94233B8CE160E00E94233B8C
:10210000C7010E94043A0894410851086108710807
:102110001414150416041704A4F21F910F91FF90D4
:10212000EF90DF90CF90BF90AF909F907F906F9097
:102130005F904F90089586E161E00E94703A87E1D8
:1021400061E00E94703A88E161E00E94703A8CE19F
:1021500061E00E94703A8DE161E00E94703A8EE188
:1021600061E00E94703A89E161E00E94703A8AE180
:1021700061E00E94703A8BE161E00E94703A82E077
:1021800061E00E94703A83E061E00E94703A84E06E
:1021900061E00E94703A85E061E00E94703A86E05A
:1021A00061E00E94703A87E061E00E94703A89E243
:1021B00060E00E94703A8DE260E00E94703A81E334
:1021C00060E00E94703A80E360E00E94703A8FE223
:1021D00060E00E94703A8BE260E00E94703A85E312
:1021E00060E00E94703A87E260E00E94703A84E307
:1021F00060E00E94703A83E360E00E94703A82E3FC
:1022000060E00E94703A89E261E00E94233B8DE227
:1022100061E00E94233B81E361E00E94233B80E375
:1022200061E00E94233B8FE261E00E94233B8BE24E
:1022300061E00E94233B85E361E00E94233B84E34D
:1022400061E00E94233B87E261E00E94233B83E33D
:1022500061E00E94233B82E361E00E94233B80E235
:1022600061E00E94703A84E261E00E94703A88E284
:1022700061E00E94703A8FE161E00E94703A83E26F
:1022800061E00E94703A82E260E00E94703A86E269
:1022900060E00E94703A8AE260E00E94703A81E257
:1022A00060E00E94703A85E260E00E94703A8DE042
:1022B00061E00E94703A08950E949B100E949B0F5B
:1022C0008BE99BE140E052EC61E070E026E00E9487
:1022D0004E3584E395E00E94440E8DE695E00E9421
:1022E000440E8BEF94E00E94930E82EC94E00E94E7
:1022F000930E0E942A0A0E94940B0E94371F0E948C
:102300001B2DA5980895EF92FF920F931F93CF93E3
:10231000DF93EC017A018B01FC0164910AC07727FD
:1023200067FD70958BE99BE10E940F362196FE01B7
:1023300064916623A1F78BE99BE1B801A7012AE02C
:1023400030E00E940338DF91CF911F910F91FF90F1
:10235000EF900895EF92FF920F931F93CF93DF9327
:10236000EC017A018B01FC0164910AC0772767FDBB
:1023700070958BE99BE10E940F362196FE016491D6
:102380006623A1F78BE99BE1B801A70122E030E0C9
:102390000E948939DF91CF911F910F91FF90EF90AB
:1023A00008950F931F930BE91BE1C8010E94EC35C0
:1023B0004091A6055091A7056091A8057091A905C7
:1023C0004F5F5F4F6F4F7F4FC8012AE030E00E94A0
:1023D0002F38C8016AE00E940F361F910F910895AF
:1023E000CF93DF930E94F6396093AA057093AB05F3
:1023F0008093AC059093AD05E6EBF2E06491EF01BC
:102400000AC0772767FD70958BE99BE10E940F3624
:102410002196FE0164916623A1F78BE99BE16AE0B6
:102420000E940F36DF91CF910895CF93DF9383E51C
:102430000E94E80E882351F00E94090F609346071E
:1024400070934707809348079093490781E40E945F
:10245000E80E882351F00E94090F60934A07709399
:102460004B0780934C0790934D07E4EDF2E06491A5
:10247000EF010AC0772767FD70958BE99BE10E9409
:102480000F362196FE0164916623A1F7409146071D
:102490005091470760914807709149078BE99BE18C
:1024A00022E030E00E948939EBEBF2E06491EF0129
:1024B0000AC0772767FD70958BE99BE10E940F3674
:1024C0002196FE0164916623A1F740914A0750913D
:1024D0004B0760914C0770914D078BE99BE122E01F
:1024E00030E00E948939E9EBF2E06491EF010AC023
:1024F000772767FD70958BE99BE10E940F36219647
:10250000FE0164916623A1F7DF91CF9108952F9288
:102510003F924F925F926F927F928F929F92AF9273
:10252000BF92CF92DF92EF92FF920F931F93DF93B0
:10253000CF93CDB7DEB7A4970FB6F894DEBF0FBE2A
:10254000CDBF0E94F6396093AA057093AB058093C6
:10255000AC059093AD05EE24FF246E010894C11CD8
:10256000D11C86010E0D1F1DF701EE5CF84FD7013F
:10257000A356BB4F60817181828193812D913D91E2
:102580004D915C910E94863BD8016D937D938D9314
:102590009C931397E4E0F0E0EE0EFF1EF0E1EF16DF
:1025A000F104F9F689819A81AB81BC818D8F9E8F70
:1025B000AF8FB8A38D819E81AF81B885898F9A8FA7
:1025C000AB8FBC8F89859A85AB85BC858D8B9E8BA7
:1025D000AF8BB88F6D8D7E8D8F8D98A19B01AC01D7
:1025E0000E94D63D7B018C01698D7A8D8B8D9C8DEF
:1025F0009B01AC010E94D63D9B01AC01C801B70113
:102600000E94873B7B018C016D897E898F89988D23
:102610009B01AC010E94D63D9B01AC01C801B701F2
:102620000E94873B0E943D3E7B018C012DEB37E3EE
:1026300046E855E30E94FE3B882394F4ED84FE8433
:102640000F851889C801B70120E030E040E050E074
:102650000E94A23D181624F017FB109517F910954B
:10266000C801B7012DEB37E346E855E30E94FE3B76
:1026700087FD98C160912A0470912B04882777FD0B
:102680008095982F0E949D3C5B016C01C801B701A9
:1026900020E030E84BEB55E40E94D63D20912F041A
:1026A0003091300440913104509132040E94023C38
:1026B0007B018C016091220470912304882777FDAF
:1026C0008095982F0E949D3C9B01AC01C801B701E9
:1026D0000E94023C9B01AC01C601B5010E94D63D9F
:1026E0000E946A3C7C8B6B8B1616170624F0A1E0C7
:1026F000B0E0BC8BAB8BE1E0F0E0FA8BE98B8B892F
:102700009C89AA2797FDA095BA2F89A39AA3ABA36A
:10271000BCA33FC10E94FA2C833008F058C0E4EEFD
:10272000F2E064918F010BC0772767FD70958BE90C
:102730009BE10E940F360F5F1F4FF80164916623E3
:1027400099F78BE99BE16AE00E940F36809132078E
:1027500090913307A0913407B091350780939D0481
:1027600090939E04A0939F04B093A0048091360799
:1027700090913707A0913807B09139078093A10451
:102780009093A204A093A304B093A40480913A0769
:1027900090913B07A0913C07B0913D078093A50421
:1027A0009093A604A093A704B093A80480913E0739
:1027B00090913F07A0914007B09141078093A904F1
:1027C0009093AA04A093AB04B093AC04EBC0298906
:1027D0003A89B901882777FD8095982F0E949D3C02
:1027E0007B018C0169A17AA18BA19CA10E949D3CD7
:1027F0009B01AC01C801B7010E94023C1B012C01E6
:102800006D8D7E8D8F8D98A1A20191010E94D63D84
:1028100020919D0430919E0440919F045091A0040A
:102820000E94873B3B014C01CB01D40180933207CE
:1028300090933307A0933407B0933507698D7A8D51
:102840008B8D9C8DA20191010E94D63D2091A10407
:102850003091A2044091A3045091A4040E94873BAC
:102860005B016C01CB01D60180933607909337074B
:10287000A0933807B09339076D897E898F89988D29
:10288000A20191010E94D63D2091A5043091A60499
:102890004091A7045091A8040E94873B7B018C01C2
:1028A000CB01D80180933A0790933B07A0933C0754
:1028B000B0933D07C201B1012D853E854F855889F2
:1028C0000E94D63D9B01AC016091A9047091AA04BD
:1028D0008091AB049091AC040E94873B60933E07CB
:1028E00070933F078093400790934107C301D40141
:1028F00080934E0790934F07A0935007B0935107D2
:10290000C501D6018093520790935307A0935407B3
:10291000B0935507C701D801809356079093570786
:10292000A0935807B0935907609122047091230433
:10293000882777FD8095982F0E949D3C20912F0439
:102940003091300440913104509132040E94D63DC0
:1029500020E030E040E752E40E94023C20E030E01A
:1029600048EC52E40E94023C7B018C018EE497E02B
:1029700062E577E046E557E02EE337E0ECE9CE2E5E
:10298000E4E0DE2E0E94FA2189899A8901969A8BC9
:10299000898BA989BA89EB89FC89EA17FB070CF0B6
:1029A000B9CED4CEA4960FB6F894DEBF0FBECDBF7D
:1029B000CF91DF911F910F91FF90EF90DF90CF901B
:1029C000BF90AF909F908F907F906F905F904F904F
:1029D0003F902F900895DF92EF92FF920F931F93F5
:1029E000CF93DF93F0E6EF2EF12CDD24D394AAC130
:1029F0004D3071F04A3321F480916B07882341F008
:102A000020916C0730916D072F3531050CF47CC196
:102A1000E0916C07F0916D07309719F410926B07F5
:102A2000C3C1A0916E07B0916F07AE9D8001AF9DAD
:102A3000100DBE9D100D1124E00FF11FE055FA4F4F
:102A4000108280916B07882309F059C110926B079F
:102A5000A059B84F1C92E801C055DA4FCE016EE480
:102A600070E00E941F0A9C01009709F4DFC0909358
:102A70003107809330072F5F3F4F2C1B3D0B200FFA
:102A8000311FC90180559A4F60E070E04AE050E084
:102A90000E94BE0860937407709375078093760751
:102AA000909377072091A6053091A7054091A8053E
:102AB0005091A9052F5F3F4F4F4F5F4F621773072C
:102AC0008407950709F456C180916E0790916F07AE
:102AD0009C012E9DC0012F9D900D3E9D900D1124B7
:102AE00080559A4F6DEB73E00E94050A892B09F01F
:102AF00041C1E6EBF3E06491EF010AC0772767FD7F
:102B000070958BE99BE10E940F362196FE0164913E
:102B10006623A1F74091A6055091A7056091A805ED
:102B20007091A9058BE99BE12AE030E00E942F38E3
:102B30008BE99BE16AE00E940F3640917407509147
:102B4000750760917607709177078BE99BE12AE022
:102B500030E00E946F3840C01E274F5FFC01E40F39
:102B6000F11DE055FA4FE081EA32B1F730933107B9
:102B700020933007C901019660E070E00E945E0773
:102B80000E946A3C212F30E02617370709F43DC028
:102B9000E6EBF3E06491EF010AC0772767FD7095DB
:102BA0008BE99BE10E940F362196FE01649166231A
:102BB000A1F74091A6055091A7056091A8057091D5
:102BC000A9058BE99BE12AE030E00E942F388BE9D0
:102BD0009BE16AE00E940F360E94D11110926D07AE
:102BE00010926C07E1C0E6EBF3E06491EF010AC0DC
:102BF000772767FD70958BE99BE10E940F36219640
:102C0000FE0164916623A1F7D4CF8091740790915F
:102C10007507A0917607B09177078093A6059093EA
:102C2000A705A093A805B093A9052CC0CE016AE220
:102C300070E00E941F0A009729F1E6EBF3E064912F
:102C4000EF010AC0772767FD70958BE99BE10E9431
:102C50000F362196FE0164916623A1F74091A605E7
:102C60005091A7056091A8057091A9058BE99BE19A
:102C70002AE030E00E942F388BE99BE16AE00E9455
:102C80000F36ACCF80916E0790916F078E9D8001BB
:102C90008F9D100D9E9D100D1124E801C055DA4F37
:102CA000CE0167E470E00E941F0A9C01009789F042
:102CB00090933107809330072F5F3F4F2C1B3D0BC4
:102CC000200F311FC90180559A4F60E070E00E94CB
:102CD0005E0780916E0790916F07019664E070E047
:102CE0000E94B43E90936F0780936E07809178079F
:102CF00090917907019690937907809378071092C5
:102D00006D0710926C071EC04B3311F4D0926B0705
:102D100080916B078823B1F480916E0790916F07C3
:102D20008E9DF0018F9DF00D9E9DF00D1124E20F00
:102D3000F31FE055FA4F40832F5F3F4F30936D07ED
:102D400020936C078BE99BE10E94B2351816190697
:102D50005CF5809178079091790704972CF58BE9C1
:102D60009BE10E94CE35482F80936A078A3009F094
:102D70003FCE4ECE80916E0790916F078E9DE00101
:102D80008F9DD00D9E9DD00D1124CE0180559A4F60
:102D90006AE270E00E941F0A9C01009709F423CFA9
:102DA00010E040E0CE01DACEDF91CF911F910F917C
:102DB000FF90EF90DF9008953F924F925F926F9255
:102DC0007F928F929F92AF92BF92CF92DF92EF92BB
:102DD000FF920F931F93DF93CF9300D00F92CDB745
:102DE000DEB7382E6A017B01280139010E94910F5C
:102DF0000E94960FC301B201209118053091190568
:102E000040911A0550911B050E94D63D0E946A3CD4
:102E10004B015C0161E063258BE10E94233BC7010C
:102E2000B601209118053091190540911A0550916D
:102E30001B050E94D63D9B01AC0160E074E284E773
:102E400099E40E94023C69837A838B839C83CC241F
:102E5000C39448C080917A078C2590E020913F046C
:102E600030E082239323892BE1F08091090186FFD2
:102E700018C0E1E8F4E064918F010BC0772767FD8B
:102E800070958BE99BE10E940F360F5F1F4FF80191
:102E90006491662399F78BE99BE16AE00E940F3603
:102EA00027C089E161E00E94233B69817A818B819F
:102EB0009C8120E030E040E05FE30E94D63D0E942C
:102EC0006F3C7B018C01CB010E94043A89E160E0F8
:102ED0000E94233BC7010E94043A0894810891088C
:102EE000A108B108181419041A041B040CF4B2CF79
:102EF000332069F4609114057091150580911605D1
:102F000090911705A30192010E94863B0CC060912D
:102F10001405709115058091160590911705A30170
:102F200092010E94873B609314057093150580936E
:102F30001605909317050F900F900F900F90CF915B
:102F4000DF911F910F91FF90EF90DF90CF90BF9096
:102F5000AF909F908F907F906F905F904F903F9039
:102F60000895FF920F931F93F82E10927A07809185
:102F7000090186FF11C010923F044091370450911F
:102F800038046091390470913A048F2D00E010E00C
:102F900028EB31E40E94DC1681E080933F044091ED
:102FA0003704509138046091390470913A048F2DA0
:102FB00000E010E024E333E40E94DC16E7E6F4E0EE
:102FC00064918F010BC0772767FD70958BE99BE1BA
:102FD0000E940F360F5F1F4FF8016491662399F727
:102FE0008BE99BE16AE00E940F368091090186FF20
:102FF00046C08091090186FF22C081E080937A0754
:1030000010923F0440913704509138046091390484
:1030100070913A04FF2009F480E000E010E028E31A
:1030200031E40E94DC1680E090E0A0E0B0E0809304
:10303000BD049093BE04A093BF04B093C00410924B
:103040003F04E2E5F4E064918F010BC0772767FD50
:1030500070958BE99BE10E940F360F5F1F4FF801BF
:103060006491662399F78BE99BE16AE00E940F3631
:1030700081E080937A071F910F91FF90089581E07E
:10308000F8264091370450913804609139047091CA
:103090003A048F2D00E010E024EB33E40E94DC16AC
:1030A000A8CFCF93DF93E8E3F4E06491EF010AC087
:1030B000772767FD70958BE99BE10E940F3621967B
:1030C000FE0164916623A1F787E20E94563BBC0192
:1030D0008BE99BE14AE050E00E948338E1E2F4E0B2
:1030E0006491EF010AC0772767FD70958BE99BE13A
:1030F0000E940F362196FE0164916623A1F785E3B5
:103100000E94563BBC018BE99BE14AE050E00E94E3
:103110008338E8E0F4E06491EF010AC0772767FDA7
:1031200070958BE99BE10E940F362196FE01649118
:103130006623A1F784E30E94563BBC018BE99BE127
:103140004AE050E00E948338E0EFF3E06491EF0141
:103150000AC0772767FD70958BE99BE10E940F36C7
:103160002196FE0164916623A1F782E30E94563BFB
:10317000BC018BE99BE14AE050E00E948338E8ED16
:10318000F3E06491EF010AC0772767FD70958BE942
:103190009BE10E940F362196FE0164916623A1F700
:1031A00089E20E94563BBC018BE99BE14AE050E07A
:1031B0000E948338E2ECF3E06491EF010AC07727C4
:1031C00067FD70958BE99BE10E940F362196FE0109
:1031D00064916623A1F78DE20E94563BBC018BE906
:1031E0009BE14AE050E00E948338DF91CF9108953F
:1031F0008F929F92AF92BF92CF92DF92EF92FF9207
:103200000F931F9387E40E94E80E882309F494C269
:103210000E94090F0E946A3C62307105A9F0633078
:1032200071051CF4772334F443C46C31710509F043
:103230003FC41AC18091C104882309F039C40E9497
:10324000130F0E94871234C48091C104882309F0AF
:103250002FC40E94151286E40E94E80E8823E1F034
:103260000E94090F7B018C0160935A0770935B07E2
:1032700080935C0790935D0720E030E040E050E0F1
:103280000E94A23D181644F4E0923304F0923404F4
:10329000009335041093360486E50E94E80E8823D7
:1032A000E1F00E94090F7B018C0160935E0770932F
:1032B0005F07809360079093610720E030E040E073
:1032C00050E00E94A23D181644F4E0923704F092B8
:1032D00038040093390410933A0481E60E94E80E02
:1032E0008823E1F00E94090F7B018C016093620743
:1032F00070936307809364079093650720E030E044
:1033000040E050E00E94A23D181644F4E0923B04D5
:10331000F0923C0400933D0410933E0460914A07F0
:1033200070914B0780914C0790914D072091BD04FF
:103330003091BE044091BF045091C0040E94863B6E
:103340004B015C01609146077091470780914807E7
:10335000909149072091B9043091BA044091BB047F
:103360005091BC040E94863B6B017C01C501B401F5
:1033700020E030E040E050E00E94A23D4091370460
:10338000509138046091390470913A04181614F47D
:1033900080E005C0B7FAB094B7F8B09481E0950129
:1033A00084010E94DC1680914A0790914B07A091FE
:1033B0004C07B0914D078093BD049093BE04A09339
:1033C000BF04B093C00488E50E94E80E8823F1F0A2
:1033D000C701B60120E030E040E050E00E94A23D8D
:1033E0004091330450913404609135047091360457
:1033F000181614F481E005C0F7FAF094F7F8F09489
:1034000080E0970186010E94A00F52C3C701B60158
:1034100020E030E040E050E00E94A23D40913304C3
:10342000509134046091350470913604181614F4E8
:1034300081E005C0F7FAF094F7F8F09480E0970186
:1034400086010E941E108091460790914707A09127
:103450004807B09149078093B9049093BA04A093A8
:10346000BB04B093BC0424C38BE99BE16EED73E015
:103470000E94A2388BE99BE16AE00E940F3681E44A
:103480000E94E80E882309F053C180912F04909187
:103490003004A0913104B091320480936607909378
:1034A0006707A0936807B093690780E090E0A6E102
:1034B000B4E480932F0490933004A0933104B0932C
:1034C00032040E94FA2CF82E80E00E94122D80E037
:1034D00090E0A0E2B1E48093320790933307A09389
:1034E0003407B0933507EFE9F3E064918F010BC027
:1034F000772767FD70958BE99BE10E940F360F5F80
:103500001F4FF8016491662399F74091320750915B
:10351000330760913407709135078BE99BE122E016
:1035200030E00E948C390E94871281E00E94122DA7
:103530001EC00E94FA2CF82E60913207709133075A
:10354000809134079091350720E030E040E85FE358
:103550000E94863B60933207709333078093340751
:1035600090933507F2E0FF1528F40E9487128FEF41
:10357000F816F9F2E2E8F3E064918F010BC07727C7
:1035800067FD70958BE99BE10E940F360F5F1F4F1F
:10359000F8016491662399F74091320750913307FF
:1035A00060913407709135078BE99BE122E030E0B0
:1035B0000E948C3980E090E0A0E0B0E080939D0410
:1035C00090939E04A0939F04B093A00480E00E9477
:1035D000122D80E090E0A0E2B1E480933207909356
:1035E0003307A0933407B0933507EBE6F3E064911B
:1035F0008F010BC0772767FD70958BE99BE10E94D7
:103600000F360F5F1F4FF8016491662399F74091C1
:1036100032075091330760913407709135078BE979
:103620009BE122E030E00E948C390E94871281E009
:103630000E94122D80E090E0A0E8BFEB809332075B
:1036400090933307A0933407B0933507E4E5F3E094
:1036500064918F010BC0772767FD70958BE99BE123
:103660000E940F360F5F1F4FF8016491662399F790
:1036700040913207509133076091340770913507BC
:103680008BE99BE122E030E00E948C390E94871296
:1036900080E00E94122D80E090E0A0E2B1E48093EF
:1036A000320790933307A0933407B0933507EDE3C7
:1036B000F3E064918F010BC0772767FD70958BE96C
:1036C0009BE10E940F360F5F1F4FF8016491662344
:1036D00099F7409132075091330760913407709108
:1036E00035078BE99BE122E030E00E948C390E9493
:1036F000871280E090E0A0E2B1E480939D04909373
:103700009E04A0939F04B093A00481E00E94122D18
:103710008091660790916707A0916807B09169074B
:1037200080932F0490933004A0933104B09332041B
:1037300081E00E94B117BCC18DE40E94E80E88238D
:1037400009F4B6C10E94090F0E946A3C62317105FA
:10375000E9F0633171052CF46131710509F0A8C1FC
:1037600008C06237710509F16737710509F0A0C11A
:1037700092C18BE99BE163EE73E00E94A2388BE972
:103780009BE16AE00E940F36A59892C18BE99BE10C
:103790006AEE73E00E94A2388BE99BE16AE00E9426
:1037A0000F36A59A10922C0483C1EAE3F3E06491EA
:1037B0008F010BC0772767FD70958BE99BE10E9415
:1037C0000F360F5F1F4FF8016491662399F7409100
:1037D0009D0450919E0460919F047091A0048BE918
:1037E0009BE122E030E00E948939E6E3F3E0649156
:1037F0008F010BC0772767FD70958BE99BE10E94D5
:103800000F360F5F1F4FF8016491662399F74091BF
:10381000A1045091A2046091A3047091A4048BE9C7
:103820009BE122E030E00E948939E2E3F3E0649119
:103830008F010BC0772767FD70958BE99BE10E9494
:103840000F360F5F1F4FF8016491662399F740917F
:10385000A5045091A6046091A7047091A8048BE977
:103860009BE122E030E00E948939EEE2F3E06491CE
:103870008F010BC0772767FD70958BE99BE10E9454
:103880000F360F5F1F4FF8016491662399F740913F
:10389000A9045091AA046091AB047091AC048BE927
:1038A0009BE122E030E00E948939E3E2F3E0649199
:1038B0008F010BC0772767FD70958BE99BE10E9414
:1038C0000F360F5F1F4FF8016491662399F780E070
:1038D0000E94902D0E949D3C20918F07309190076F
:1038E00040919107509192070E94023CAB01BC01AC
:1038F0008BE99BE122E030E00E948939EFE1F3E0BF
:1039000064918F010BC0772767FD70958BE99BE170
:103910000E940F360F5F1F4FF8016491662399F7DD
:1039200081E00E94902D0E949D3C20919307309150
:10393000940740919507509196070E94023CAB0175
:10394000BC018BE99BE122E030E00E948939EBE188
:10395000F3E064918F010BC0772767FD70958BE9C9
:103960009BE10E940F360F5F1F4FF80164916623A1
:1039700099F782E00E94902D0E949D3C209197072C
:10398000309198074091990750919A070E94023C04
:10399000AB01BC018BE99BE122E030E00E94893958
:1039A0008BE99BE16BE072E00E94A2388BE99BE11E
:1039B0006AE00E940F36EAE0F3E064918F010BC0E9
:1039C000772767FD70958BE99BE10E940F360F5FAB
:1039D0001F4FF8016491662399F74091B904509103
:1039E000BA046091BB047091BC048BE99BE122E0B6
:1039F00030E00E948939E3E0F3E064918F010BC06D
:103A0000772767FD70958BE99BE10E940F360F5F6A
:103A10001F4FF8016491662399F7E5EFF2E0649196
:103A20008F010BC0772767FD70958BE99BE10E94A2
:103A30000F360F5F1F4FF8016491662399F740918D
:103A4000BD045091BE046091BF047091C0048BE925
:103A50009BE122E030E00E948939EAEEF2E06491D5
:103A60008F010BC0772767FD70958BE99BE10E9462
:103A70000F360F5F1F4FF8016491662399F78BE9AA
:103A80009BE16BE072E00E94A2388BE99BE16AE067
:103A90000E940F360DC08BE99BE162EF73E00E943C
:103AA000A2388BE99BE16AE00E940F360E94511810
:103AB0000E94F6396093AA057093AB058093AC051C
:103AC0009093AD050E94F0111F910F91FF90EF9020
:103AD000DF90CF90BF90AF909F908F90089580918E
:103AE000780790917907039714F40E94EB14809162
:103AF000780790917907892BC1F00E94F81880917E
:103B000078079091790701979093790780937807C8
:103B10008091AE059091AF05019664E070E00E943F
:103B2000B43E9093AF058093AE050E94A8330895EC
:103B30000F931F93CF93DF93C0E0D0E08E01055326
:103B4000184FFE01E158F84F6081718182819381A5
:103B50000E949B3CFE01E157F84F20813181428158
:103B600053810E94D63D0E946F3CF80160837183AF
:103B7000828393832496C031D10501F7DF91CF91E1
:103B80001F910F9108958F929F92AF92BF92CF9203
:103B9000DF92EF92FF920F931F93CF93DF93EC018D
:103BA0006B01009709F45CC08FA9882309F058C005
:103BB000EEA0FFA008A519A5FB01B6A0A7A090A4A0
:103BC00081A4C801B7012B2D3A2D492D582D0E94F3
:103BD000FE3B88230CF044C0C801B701A80197013F
:103BE0000E94D63D7B018C016AA97BA98CA99DA965
:103BF000905820E030E040E050EC0E94D63D2EA5E9
:103C00003FA548A959A90E94D63D9B01AC01C80116
:103C1000B7010E94873B0E943D3E7B018C016B2DCA
:103C20007A2D892D982D9701A8010E94FE3B8823AB
:103C300024F4EB2CFA2C092D182D6B2D7A2D892DBF
:103C4000982D9701A8010E94FE3B882349F0C701E7
:103C5000D801F60186A397A3A0A7B1A781E086AB00
:103C6000DF91CF911F910F91FF90EF90DF90CF9058
:103C7000BF90AF909F908F900895EF92FF920F9317
:103C80001F93CF93DF93F0902C1B00E010E020E017
:103C900030E04DE4E42E12C0FE9CE0011124C55139
:103CA000D84FC901B801AE010E94C31D8F2D8F5F8F
:103CB000803409F480E0F82E98018E0180912B1B4E
:103CC000F81651F7C901B80140E050E00E94C31D49
:103CD000DF91CF911F910F91FF90EF900895AF92D8
:103CE000BF92CF92DF92EF92FF920F931F93CF93E9
:103CF000DF93EB018A016115710509F466C0411576
:103D0000510509F462C0DAA4CBA4BCA4ADA46EA191
:103D10007FA188A599A52D2D3C2D4B2D5A2D0E94B4
:103D2000FE3B882309F451C08FA9882309F043C0C2
:103D3000F801E6A0F7A000A511A56D2D7C2D8B2D17
:103D40009A2DA80197010E94A23D1816A4F5C8015A
:103D5000B701A80197010E94D63D7B018C016AA999
:103D60007BA98CA99DA9905820E030E040E050EC60
:103D70000E94D63D2EA53FA548A959A90E94D63D2F
:103D80009B01AC01C801B7010E94873B0E943D3EE8
:103D90007B018C016D2D7C2D8B2D9A2D9701A80117
:103DA0000E94FE3B882324F4ED2CFC2C0B2D1A2DB5
:103DB000C701D80104C08D2D9C2DAB2DBA2D8EA32B
:103DC0009FA3A8A7B9A781E08EABDF91CF911F91E8
:103DD0000F91FF90EF90DF90CF90BF90AF9008953C
:103DE000CF92DF92EF92FF920F93DF93CF930F92D8
:103DF0000F92CDB7DEB780912B1B8FB7F894F09060
:103E00002C1B8FBF80912B1B90E0805C9F4F8F19E4
:103E100091098F739070049704F100912B1B03504C
:103E20000F73CC24DD2440E050E06DE4E62E13C097
:103E3000802F002309F480E4082F01500E9DC0015B
:103E400011248551984F9A838983B6010E946F1E71
:103E5000A601C980DA800F1559F70F900F90CF9106
:103E6000DF910F91FF90EF90DF90CF900895109227
:103E70002B1B10922C1B80E1EBEDF7E0DF011D9274
:103E80008A95E9F780E090E0A0E0B0E08093311BF4
:103E90009093321BA093331BB093341B8093351B3C
:103EA0009093361BA093371BB093381B8093391B1C
:103EB00090933A1BA0933B1BB0933C1B80933D1BFC
:103EC00090933E1BA0933F1BB093401B80932D1BF0
:103ED00090932E1BA0932F1BB093301B08952F920D
:103EE0003F924F925F926F927F928F929F92AF928A
:103EF000BF92CF92DF92EF92FF920F931F93DF93C7
:103F0000CF93CDB7DEB766970FB6F894DEBF0FBE7E
:103F1000CDBF9E8B8D8B6A017B0148015901DC016D
:103F2000D8966D917D918D919C91DB970E949B3CE1
:103F3000698B7A8B8B8B9C8BA70196010E94D63D57
:103F40000E94EB3B0E946F3C6D837E838F8398873A
:103F500069897A898B899C89A50194010E94D63D43
:103F60000E94EB3B0E946F3C69837A838B839C8326
:103F70002D813E814F8158852837310541055105F6
:103F800040F448E750E060E070E04D835E836F836B
:103F9000788769817A818B819C8168377105810579
:103FA000910540F488E790E0A0E0B0E089839A832F
:103FB000AB83BC83AD89BE89AC5BBF4FAD90BD9078
:103FC000CD90DC901397A454B040BE8BAD8B6D8127
:103FD0007E818F8198850E949B3C6D877E878F872D
:103FE000988BC601B5010E949D3C1B012C0120E06D
:103FF00030E040E050E00E94FE3B882321F4E0E006
:1040000070E060E028C069897A898B899C899B016E
:10401000AC010E94D63D7B018C016D857E858F852C
:1040200098899B01AC010E94D63D9B01AC01C8015F
:10403000B7010E94863B7B018C01C201B101A20144
:1040400091010E94873B9B01AC01C801B7010E940E
:10405000023CE62F692F2E2F372F482F562FB901FC
:10406000CA010E94EB3B0E946A3C3B014C01698102
:104070007A818B819C810E949B3C69877A878B87A0
:104080009C8766277727CB016A197B098C099D09D4
:104090000E949D3C5B016C0120E030E040E050E07C
:1040A0000E94FE3B882321F4E0E070E060E028C03D
:1040B00069857A858B859C859B01AC010E94D63DE4
:1040C0007B018C0169897A898B899C899B01AC0170
:1040D0000E94D63D9B01AC01C801B7010E94863BFE
:1040E0007B018C01C601B501A60195010E94873BA9
:1040F0009B01AC01C801B7010E94023CE62F692F69
:104100002E2F372F482F562FB901CA010E94D83CB5
:10411000ED89FE89A088B188C288D388860175019F
:10412000E618F708080919090E946A3CA8019701D6
:10413000261B370B480B590B57FF71C0C201B10149
:1041400020E030E040E050E00E94FE3B882321F474
:10415000E0E070E060E044C0C201B101A201910161
:104160000E94873B7B018C01C601B5010E949B3CEC
:104170009B01AC01C801B7010E94D63D7B018C01B7
:104180006D857E858F8598899B01AC010E94D63D07
:104190009B01AC01C801B7010E94863B7B018C01E9
:1041A00069857A858B859C859B01AC010E94D63DF3
:1041B0009B01AC01C801B7010E94873B7B018C01C8
:1041C000C201B10120E030E040E850E40E94D63D59
:1041D0009B01AC01C801B7010E94023CE62F692F88
:1041E0002E2F372F482F562FB901CA010E94EB3BC3
:1041F0000E946A3CAC01CB01DA013C014D0197FE03
:1042000003C06624772443016A147B048C049D0454
:1042100010F03501460120E030E040E050E09FB76B
:10422000F8946D897E89645B7F4FDB018C91AC547F
:10423000B040BE8BAD8B882321F5FD01648A758A61
:10424000868A978A260D371D481D591D58962D932D
:104250003D934D935C935B972D813E814F815885B3
:10426000DC962D933D934D935C93DF97A05CBF4FFD
:1042700029813A814B815C812D933D934D935C93D1
:1042800013979FBF66960FB6F894DEBF0FBECDBFE3
:10429000CF91DF911F910F91FF90EF90DF90CF9022
:1042A000BF90AF909F908F907F906F905F904F9056
:1042B0003F902F9008954F925F927F928F929F929E
:1042C000AF92BF92CF92DF92EF92FF920F931F9324
:1042D000CF93DF9370902C1BC0E0D0E07DE4472E9D
:1042E000512C46C02097B1F18EA9882361F4849C9B
:1042F000F001859CF00D949CF00D1124E551F84FD0
:1043000086A9882339F1EAA0FBA00CA11DA16EA10A
:104310007FA188A599A5A80197010E94023C5B0195
:104320006C01849CF001859CF00D949CF00D11248F
:10433000E551F84F66A177A180A591A5A801970145
:104340000E94023C8B019C01CE01B601A5010E9496
:104350006F1F1EAA739480E4781609F47724849C56
:10436000E001859CD00D949CD00D1124C551D84FEF
:10437000872C992487FC909480912B1B90E08816C1
:10438000990609F0AFCF2097F1F0EAA0FBA00CA1AD
:104390001DA16EA17FA188A599A5A80197010E94E2
:1043A000023C5B016C016DEC7CEC8CE49DE3A801AC
:1043B00097010E94023C8B019C01CE01B601A50130
:1043C0000E946F1F1EAADF91CF911F910F91FF9046
:1043D000EF90DF90CF90BF90AF909F908F907F90A5
:1043E0005F904F9008950E94F01E0E943D1E0E9413
:1043F0005B2108952F923F924F925F926F927F922E
:104400008F929F92AF92BF92CF92DF92EF92FF92E4
:104410000F931F93DF93CF93CDB7DEB7C459D0402E
:104420000FB6F894DEBF0FBECDBFFC015B014A01A1
:104430003901CF56DF4FE882C159D040CE56DF4F09
:10444000F882C259D040CD56DF4F0883C359D040BF
:10445000CC56DF4F1883C459D040AF96DFAECEAEF6
:10446000AF9780912B1B8F5F803409F480E0282F59
:10447000332727FD30953EA32DA380912C1B90E080
:104480004DA15EA184179507C1F360918F077091CC
:1044900090078091910790919207AD966CAF7DAF98
:1044A0008EAF9FAFAD9720813181428153810E94B1
:1044B000D63D0E94A63DEC966FAFEC97ED967FAF90
:1044C000ED97EE968FAFEE97EF969FAFEF978091B7
:1044D000930790919407A0919507B0919607A9969C
:1044E0008CAF9DAFAEAFBFAFA997BC01CD01D501D9
:1044F0002D913D914D915C910E94D63D0E94A63D2B
:10450000C158DF4F6883CF57D040C058DF4F788302
:10451000C058D040CF57DF4F8883C158D040CE57C6
:10452000DF4F9883C258D040209197073091980769
:104530004091990750919A07A5962CAF3DAF4EAF89
:104540005FAFA597CA01B901D4012D913D914D915D
:104550005C910E94D63D0E94A63DCD57DF4F6883F7
:10456000C358D040CC57DF4F7883C458D040CB5786
:10457000DF4F8883C558D040CA57DF4F9883C6584D
:10458000D04020919B0730919C0740919D0750910E
:104590009E07A1962CAF3DAF4EAF5FAFA197CA016A
:1045A000B901D3012D913D914D915C910E94D63D71
:1045B0000E94A63DC957DF4F6883C758D040C857EF
:1045C000DF4F7883C858D040C757DF4F8883C9581A
:1045D000D040C657DF4F9883CA58D04080912B1BDC
:1045E000E82FF0E06D96FFAFEEAF6D978DE490E0B1
:1045F0009F01289FF001299FF00D389FF00D112495
:10460000E551F84FE45BFF4F1082EC54F0404091CD
:10461000DB075091DC076091DD077091DE076B9638
:104620004CAF5DAF6EAF7FAF6B97EF968CAD9DAD2E
:10463000AEADBFADEF97841B950BA60BB70B67967E
:104640008CAF9DAFAEAFBFAF679780839183A283DE
:10465000B383B7FF0BC0B095A095909581959F4F00
:10466000AF4FBF4F80839183A283B3832091DF0735
:104670003091E0074091E1075091E20763962CAF3B
:104680003DAF4EAF5FAF6397C158DF4F688179810F
:104690008A819B81CF57D040621B730B840B950B93
:1046A0002F966CAF7DAF8EAF9FAF2F978DE490E0CC
:1046B0006D96AEADBFAD6D97A89FF001A99FF00DAF
:1046C000B89FF00D1124E551F84F2F962CAD3DAD5C
:1046D0004EAD5FAD2F97248335834683578357FFB5
:1046E0000DC0DA01C901B095A095909581959F4FB5
:1046F000AF4FBF4F84839583A683B7834091E30771
:104700005091E4076091E5077091E6072B964CAF56
:104710005DAF6EAF7FAF2B97CD57DF4F888199810B
:10472000AA81BB81C358D040841B950BA60BB70B45
:1047300027968CAF9DAFAEAFBFAF27978DE490E0CB
:104740006D96AEADBFAD6D97A89FF001A99FF00D1E
:10475000B89FF00D1124E551F84F27962CAD3DADD3
:104760004EAD5FAD2797208731874287538757FF2C
:104770000DC0DA01C901B095A095909581959F4F24
:10478000AF4FBF4F80879187A287B3872090E707FD
:104790003090E8074090E9075090EA07C957DF4F8B
:1047A000488159816A817B81C758D0404219530999
:1047B0006409750923964CAF5DAF6EAF7FAF239749
:1047C000E0919C04F0E0EE0FFF1FEE0FFF1FEA5D8B
:1047D000FB4F60817181828193816BAF7CAF8DAF24
:1047E0009EAF80912404909125049AAF89AF2396BF
:1047F0006CAD7DAD8EAD9FAD239797FF07C09095B3
:104800008095709561957F4F8F4F9F4F0E949D3C83
:104810002BAD3CAD4DAD5EAD0E94D63D0E946A3CD5
:10482000A9ADBAAD9D01442737FD4095542F0E9494
:10483000953E24E630E040E050E00E94E93E8DE401
:1048400090E06D966EAD7FAD6D97689FF001699FAA
:10485000F00D789FF00D1124E551F84FDF011C9603
:10486000248711963C93119712964C9312971396A6
:104870005C93E080F1800281138164807580868082
:104880009780A084B184C284D384C901DA018A15D7
:104890009B05AC05BD0514F4D601C5018615970529
:1048A000A805B90514F4D401C3019C01AD018E150E
:1048B0009F05A007B10714F4A80197018DE490E0CB
:1048C0006D96AEADBFAD6D97A89FB001A99F700D5D
:1048D000B89F700D11246551784FFB01208B318BEF
:1048E000428B538B263031054105510510F40C9451
:1048F000E02CE85BFF4F80919A0490919B04AA27DB
:1049000097FDA095BA2F80839183A283B383DB01A7
:1049100090961C92EF962CAD3DAD4EAD5FADEF97EE
:104920006B968CAD9DADAEADBFAD6B9728173907BB
:104930004A075B0724F481E0DB0190968C93C15811
:10494000DF4F288139814A815B81CF57D040639600
:104950006CAD7DAD8EAD9FAD6397261737074807C9
:10496000590794F48DE490E06D96AEADBFAD6D97B0
:10497000A89FF001A99FF00DB89FF00D1124E551FB
:10498000F84F80A1826080A3CD57DF4F2881398105
:104990004A815B81C358D0402B966CAD7DAD8EAD06
:1049A0009FAD2B97261737074807590794F48DE4D6
:1049B00090E06D96AEADBFAD6D97A89FF001A99F39
:1049C000F00DB89FF00D1124E551F84F80A18460DF
:1049D00080A3C957DF4F288139814A815B81C7583D
:1049E000D040221533054405550594F48DE490E03C
:1049F0006D964EAD5FAD6D97489FF001499FF00DEC
:104A0000589FF00D1124E551F84F80A1886080A3D4
:104A10008DE490E06D966EAD7FAD6D97689FF0016F
:104A2000699FF00D789FF00D1124E551F84FAF9676
:104A3000AEADBFADAF978C9181A3A080B180C28095
:104A4000D380A114B104C104D10409F0A5988DE468
:104A500090E06D962EAD3FAD6D97289FF001299F98
:104A6000F00D389FF00D1124E551F84F60847184EA
:104A700082849384611471048104910441F09FB78E
:104A8000F894809108018E7F809308019FBF8DE488
:104A900090E06D964EAD5FAD6D97489FF001499FD8
:104AA000F00D589FF00D1124E551F84F8485958540
:104AB000A685B7850097A105B10551F01298209001
:104AC000AF073090B0074090B1075090B20708C0D0
:104AD0002090C7073090C8074090C9075090CA0778
:104AE000CF56DF4F6881C159D040CE56DF4F788115
:104AF000C259D040CD56DF4F8881C359D040CC56E3
:104B0000DF4F9881C459D040A20191010E94FE3B21
:104B100087FD16C0CF56DF4F8881C159D040CE5691
:104B2000DF4F9881C259D040CD56DF4FA881C3597D
:104B3000D040CC56DF4FB881C459D0401C012D0164
:104B400067966CAD7DAD8EAD9FAD67970E949D3C25
:104B5000AD962CAD3DAD4EAD5FADAD970E94023C24
:104B6000E8966FAFE897E9967FAFE997EA968FAF3F
:104B7000EA97EB969FAFEB97AC01CB01DA01898303
:104B80009A83AB83BC832F966CAD7DAD8EAD9FAD0C
:104B90002F970E949D3CA9962CAD3DAD4EAD5FADCB
:104BA000A9970E94023CE4966FAFE497E5967FAF29
:104BB000E597E6968FAFE697E7969FAFE797AC014C
:104BC000CB01DA018D839E83AF83B88727966CADC6
:104BD0007DAD8EAD9FAD27970E949D3CA5962CADD7
:104BE0003DAD4EAD5FADA5970E94023CE0966FAF24
:104BF000E097E1967FAFE197E2968FAFE297E39679
:104C00009FAFE397AC01CB01DA0189879A87AB8725
:104C1000BC8723966CAD7DAD8EAD9FAD23970E9472
:104C20009D3CA1962CAD3DAD4EAD5FADA1970E94D0
:104C3000023C2BAD3CAD4DAD5EAD0E94D63D7B013F
:104C40008C01A9ADBAADBD01882777FD8095982F5D
:104C50000E949D3C9B01AC01C801B7010E94D63D5A
:104C600020E030E048EC52E40E94023C9B01AC01A1
:104C70006D877E878F87988BB6E0AB16B104C10431
:104C8000D1042CF58DE490E06D966EAD7FAD6D97FF
:104C9000689FF001699FF00D789FF00D1124E55198
:104CA000F84F84819581A681B7810697A105B1054A
:104CB00074F476E0671671048104910444F4DA0117
:104CC000C901BF7786A797A7A0ABB1AB55C0E8963F
:104CD0002FADE897E9963FADE997EA964FADEA9791
:104CE000EB965FADEB97B901CA010E94873E3B018D
:104CF0004C01E4962FADE497E5963FADE597E69637
:104D00004FADE697E7965FADE797B901CA010E94FC
:104D1000873E5B016C01E0962FADE097E1963FADD9
:104D2000E197E2964FADE297E3965FADE397B90165
:104D3000CA010E94873E7B018C01C401B301A60118
:104D400095010E94873BA80197010E94873B0E9422
:104D50003D3E2DE430E06D96AEADBFAD6D97A29FA8
:104D6000F001A39FF00DB29FF00D1124E551F84F13
:104D700066A777A780AB91AB8DE490E06D96EEAD22
:104D8000FFAD6D97E89F6001E99FD00CF89FD00CB4
:104D900011242BEE37E0C20ED31ED6019E96ED9065
:104DA000FD900D911C91D19760E070E080E89FE349
:104DB000A80197010E94023C9B01AC01C201B10114
:104DC0000E94D63D2B013C01B0912B1BB8AFE09166
:104DD0002C1BEFABC801B701A30192010E94D63D85
:104DE000D60192966D937D938D939C939597509653
:104DF0006D917D918D919C9153970E949B3CA30155
:104E000092010E94D63D0E94EB3B0E946F3CF6014E
:104E100060AF71AF82AF93AFC557DF4F1882CB58E9
:104E2000D040C457DF4F1882CC58D04020E8222E03
:104E30009FE3392E88249924E1E0F0E0EC0FFD1F78
:104E4000E80DF91DC301B2012081318142815381F6
:104E50000E94D63DE1E1F0E0EC0FFD1FE80DF91DE9
:104E600060837183828393835B016C01E894D7F83C
:104E7000F401E156F84FE080F18002811381C60110
:104E8000B501A80197010E94A23D1816CCF4C801F3
:104E9000B701A60195010E94023C6B017C01C55738
:104EA000DF4F6881CB58D040C457DF4F7881CC5852
:104EB000D040C101A70196010E94FE3B88236CF4FB
:104EC000C557DF4F8881CB58D040C457DF4F9881FA
:104ED000CC58D040D1016C017D0124E030E0820E3D
:104EE000931E30E18316910471F0D701C601C557B6
:104EF000DF4FC882CB58D040C457DF4F9883CC587F
:104F0000D0401D0199CFC701B60120E030E040E854
:104F10005FE30E94FE3B88230CF04CC08E010F5EC5
:104F20001F4F81E2A82EB12CAC0EBD1ED8016D9191
:104F30007D918D919C91A70196010E94D63DF8012B
:104F400061937193819391938F01EA15FB0571F73A
:104F50008DE490E06D962EAD3FAD6D97289F80015A
:104F6000299F100D389F100D11240551184FD8019D
:104F700092966D917D918D919C919597A701960147
:104F80000E94D63DF80162A373A384A395A360ADEC
:104F900071AD82AD93AD0E949B3CA70196010E942A
:104FA000D63D0E946F3CD801D8966D937D938D932A
:104FB0009C93DB978DE490E06D96EEADFFAD6D9721
:104FC000E89F8001E99F100DF89F100D11240551F5
:104FD000184FD80150966D917D918D919C9153976A
:104FE0000E949B3CF80126A537A540A951A90E9423
:104FF000023C1B012C01F80180819181A281B381C7
:105000000097A105B10549F584819581A681B781F5
:105010000097A105B10509F580859185A285B38525
:105020000097A105B105C9F4C201B1012091B707EC
:105030003091B8074091B9075091BA070E94D63D08
:105040000E94EB3B0C5B1F4F0E946F3CD8016D939D
:105050007D938D939C93139771C1C201B1012091EF
:10506000B3073091B4074091B5075091B6070E943D
:10507000D63D0E94EB3B0E946F3C2DE430E06D96E4
:10508000EEADFFAD6D97E29F6001E39FD00CF29F04
:10509000D00C11242BEE37E0C20ED31EB4E46B2EDD
:1050A000712C6C0C7D1CD3016D937D938D939C931F
:1050B00013978090CB079090CC07A090CD07B0902D
:1050C000CE070E949B3C7B018C01F60160817181BF
:1050D000828193810E949D3C9B01AC01C801B70174
:1050E0000E94D63D7B018C01D60150966D917D9139
:1050F0008D919C9153970E949B3C9B01AC01C801F0
:10510000B7010E94023C7B018C01C501B4010E94E1
:105110009B3C9B01AC01C801B7010E94A23D18163F
:105120002CF4F30180829182A282B3828090CF0717
:105130009090D007A090D107B090D2078DE490E076
:105140006D962EAD3FAD6D97289F6001299FD00CC5
:10515000389FD00C11244BEE57E0C40ED51EA4E4AA
:105160006A2E712C6C0C7D1CD3016D917D918D91FB
:105170009C910E949B3C7B018C01F60164817581AE
:10518000868197810E949D3C9B01AC01C801B701BB
:105190000E94D63D7B018C01D60150966D917D9188
:1051A0008D919C9153970E949B3C9B01AC01C8013F
:1051B000B7010E94023C7B018C01C501B4010E9431
:1051C0009B3C9B01AC01C801B7010E94A23D18168F
:1051D0002CF4F30180829182A282B3828090D7075F
:1051E0009090D807A090D907B090DA078DE490E0AE
:1051F0006D962EAD3FAD6D97289F6001299FD00C15
:10520000389FD00C11244BEE57E0C40ED51EF4E4A9
:105210006F2E712C6C0C7D1CD3016D917D918D9145
:105220009C910E949B3C7B018C01F60164857585F5
:10523000868597850E949D3C9B01AC01C801B70102
:105240000E94D63D7B018C01D60150966D917D91D7
:105250008D919C9153970E949B3C9B01AC01C8018E
:10526000B7010E94023C7B018C01C501B4010E9480
:105270009B3C9B01AC01C801B7010E94A23D1816DE
:105280002CF4F30180829182A282B3828090D307B2
:105290009090D407A090D507B090D6078DE490E009
:1052A0006D962EAD3FAD6D97289F6001299FD00C64
:1052B000389FD00C11244BEE57E0C40ED51EE4E409
:1052C0006E2E712C6C0C7D1CD3016D917D918D9196
:1052D0009C910E949B3C7B018C01F601608571854D
:1052E000828593850E949D3C9B01AC01C801B7015A
:1052F0000E94D63D7B018C01D60150966D917D9127
:105300008D919C9153970E949B3C9B01AC01C801DD
:10531000B7010E94023C7B018C01C501B4010E94CF
:105320009B3C9B01AC01C801B7010E94A23D18162D
:105330002CF4F30180829182A282B3828DE490E00A
:105340006D962EAD3FAD6D97289F6001299FD00CC3
:10535000389FD00C11244BEE57E0C40ED51EF60139
:10536000EC5BFF4F60817181828193810E949B3C45
:105370007B018C01A20191010E94023CD601D296D0
:105380006D937D938D939C93D597C801B7012DEBB9
:1053900037E346E051E40E94D63D0E946A3CF601A4
:1053A000648F758F868F978F6090BB077090BC0756
:1053B0008090BD079090BE07C401B30120E030E0AB
:1053C00040E05FE30E94D63D5B016C01298D3A8D80
:1053D0004B8D5C8D2BAB3CAB4DAB5EAB4091BF07B7
:1053E0005091C0076091C1077091C2074FA758AB99
:1053F00069AB7AABCB01BA0120E030E040E05FE37B
:105400000E94D63D7B018C016BA97CA98DA99EA928
:105410009F77A80197010E94A23D181644F4C60187
:10542000B501A80197010E94FE3B882314F4860170
:1054300075016D8D7E8D8F8D98A16BA77CA78DA733
:105440009EA78091C3079091C407A091C507B09112
:10545000C6078FA398A7A9A7BAA7BC01CD0120E0D2
:1054600030E040E05FE30E94D63D1B012C016BA5BC
:105470007CA58DA59EA59F77A20191010E94A23DCA
:10548000181644F4C801B701A20191010E94FE3B25
:10549000882314F4170128018DE490E06D96AEADD9
:1054A000BFAD6D97A89FF001A99FF00DB89FF00DBB
:1054B0001124E551F84F22A133A144A155A129A3FC
:1054C0003AA34BA35CA3C201B1010E94FE3B87FD3E
:1054D00004C029A03AA04BA05CA038AD832F90E077
:1054E000805C9F4F4FA9841B91098F739070029726
:1054F0000CF405C150912D1BC357DF4F5883CD5875
:10550000D04060912E1BC257DF4F6883CE58D040E9
:1055100070912F1BC157DF4F7883CF58D0408091B7
:10552000301BC057DF4F8883C059D040652FC2570A
:10553000DF4F7881CE58D040C157DF4F8881CF5898
:10554000D040C057DF4F9881C059D04027E137EB9A
:1055500041ED58E30E94A23D18160CF0D0C06989B5
:105560007A898B899C892091311B3091321B409123
:10557000331B5091341B0E94863B9B01AC010E945F
:10558000D63D7B018C016D897E898F89988D209114
:10559000351B3091361B4091371B5091381B0E94B0
:1055A000863B9B01AC010E94D63D9B01AC01C8012A
:1055B000B7010E94873B0E943D3E7B018C01A40104
:1055C00093010E94A23D18165CF00F2EF0E06F2EA2
:1055D000F0E07F2EF0E88F2EFFE39F2EF02D08C025
:1055E000C401B301A80197010E94023C3B014C0198
:1055F0006BA97CA98DA99EA92091391B30913A1BDA
:1056000040913B1B50913C1B0E94863B7B018C01CF
:10561000E89417F9C801B7012FA538A949A95AA9D3
:105620000E94A23D181694F46FA578A989A99AA999
:10563000A80197010E94023C5B016C01C401B30107
:10564000A60195010E94FE3B882314F464015301D6
:105650006BA57CA58DA59EA520913D1B30913E1B81
:1056600040913F1B5091401B0E94863B7B018C0167
:10567000E89417F9C801B7012FA138A549A55AA583
:105680000E94A23D181694F46FA178A589A59AA549
:10569000A80197010E94023C7B018C01C601B50163
:1056A000A80197010E94FE3B882314F4860175012E
:1056B00069A17AA18BA19CA1A80197010E94D63D66
:1056C0007B018C01C357DF4F6881CD58D040C25752
:1056D000DF4F7881CE58D040C157DF4F8881CF58F7
:1056E000D040C057DF4F9881C059D040A8019701E2
:1056F0000E94FE3B87FD19C0D801C70102C0D2013C
:10570000C101C357DF4F8883CD58D040C257DF4F08
:105710009883CE58D040C157DF4FA883CF58D04090
:10572000C057DF4FB883C059D0408DE490E06D96EC
:10573000AEADBFAD6D97A89F8001A99F100DB89F1A
:10574000100D11240551184FC357DF4F8881CD58D4
:10575000D040C257DF4F9881CE58D040C157DF4F5D
:10576000A881CF58D040C057DF4FB881C059D04032
:10577000F80182A793A7A4A7B5A762A973A984A9D2
:1057800095A9905820E030E040E050EC0E94D63DD2
:10579000D8019E962D913D914D915C91D1970E949B
:1057A000D63D2BE037ED43E25BE30E94873B0E944E
:1057B0003D3EF62EE72ED82EC92EC357DF4F688107
:1057C000CD58D040C257DF4F7881CE58D040C15716
:1057D000DF4F8881CF58D040C057DF4F9881C059E4
:1057E000D0402F2D3E2D4D2D5C2D0E94FE3B87FD80
:1057F00014C0C357DF4FF882CD58D040C257DF4F97
:10580000E882CE58D040C157DF4FD882CF58D04021
:10581000C057DF4FC882C059D0408DE490E06D96EC
:10582000EEADFFAD6D97E89F8001E99F100DF89FE9
:10583000100D11240551184FC357DF4F8881CD58E3
:10584000D040C257DF4F9881CE58D040C157DF4F6C
:10585000A881CF58D040C057DF4FB881C059D04041
:10586000F80186A397A3A0A7B1A762A173A184A101
:1058700095A12F2D3E2D4D2D5C2D0E94FE3B18161F
:105880002CF081E0D801D7968C9302C0F80117AABA
:105890008DE490E06D962EAD3FAD6D97289FF001A1
:1058A000299FF00D389FF00D1124E551F84F81E04C
:1058B00086ABA1E3BBE1FE01719680E101900D9200
:1058C0008150E1F78DE490E06D964EAD5FAD6D9740
:1058D000489F6001499FD00C589FD00C11246BEE5B
:1058E00077E0C60ED71ED6019296ED90FD900D91F1
:1058F0001C919597E0922D1BF0922E1B00932F1B6D
:105900001093301B96966D917D918D919C919997F6
:10591000A80197010E94023C4B015C01C201B10148
:10592000A80197010E94023C8B019C01C601B501B0
:10593000A4010E946F1FBDA1B0932B1BC957DF4F5D
:10594000288139814A815B81C758D0402093E7077D
:105950003093E8074093E9075093EA07CD57DF4FAC
:10596000488159816A817B81C358D0404093E307C5
:105970005093E4076093E5077093E607C158DF4F43
:10598000688179818A819B81CF57D0406093DF07FE
:105990007093E0078093E1079093E207EF968CAD58
:1059A0009DADAEADBFADEF978093DB079093DC0765
:1059B000A093DD07B093DE070E94F3210E94152D0E
:1059C000CC56DF4F0FB6F894DEBF0FBECDBFCF91E0
:1059D000DF911F910F91FF90EF90DF90CF90BF90DC
:1059E000AF909F908F907F906F905F904F903F907F
:1059F0002F90089580914404882391F08091751B25
:105A0000882311F080E008958091861B882311F08F
:105A100081E008958091871B882311F082E008952A
:105A20008FEF0895809344040895EFE6F0E08081BD
:105A30008260808308956D9AE1E0F1E08081886062
:105A40008083EAE0F1E08081826080830E9A3B9A55
:105A50009D9AA59AE7E0F1E08081816080839FB7FD
:105A6000F894E8E0F1E08081816080839FBF0A9A2A
:105A7000129A3F9A479A2198299A9A98A29A6C9AD0
:105A80007498A59A10922C046B9A7398EAE0F1E04E
:105A90008081886080839FB7F894EBE0F1E080819B
:105AA000877F80839FBF9FB7F894E8E0F1E0808113
:105AB000816080839FBF10922E040C9A1498129AD2
:105AC000399A4198A1E8B0E08C918F7E8C938C91AB
:105AD00088608C93E0E8F0E080818D7F8083808116
