:100000000C944A060C9477060C9477060C947706A9
:100010000C9477060C9477060C9477060C9477066C
:100020000C9477060C9477060C9477060C9477065C
:100030000C9477060C9477060C9477060C945C2B42
:100040000C9477060C945D250C9477060C94770637
:100050000C94E62A0C9477060C9477060C94E82FFF
:100060000C9477060C94F42C0C947B2D0C9477064E
:100070000C9477060C9477060C9477060C9477060C
:100080000C9477060C9477060C9477060C947706FC
:100090000C9477060C9477060C9477060C947706EC
:1000A0000C9477060C9477060C9477060C947706DC
:1000B0000C9477060C9477060C9477060C947706CC
:1000C0000C9477060C9477060C9477060C947706BC
:1000D0000C9477060C9477060C9477060C947706AC
:1000E0000C9477066563686F3A0048617264636FC9
:1000F0006465642044656661756C7420536574742E
:10010000696E6773204C6F6164656400205A00203B
:10011000590020204D323036205800486F6D652040
:100120006F666673657420286D6D293A002045005E
:10013000205A0020580020420020540020204D3238
:100140003035205300416476616E636564207661CA
:10015000726961626C65733A20533D4D696E206629
:100160006565647261746520286D6D2F73292C207C
:10017000543D4D696E2074726176656C20666565CC
:10018000647261746520286D6D2F73292C20423DA7
:100190006D696E696D756D207365676D656E742030
:1001A00074696D6520286D73292C20583D6D617828
:1001B000696D756D205859206A65726B20286D6DC8
:1001C0002F73292C20205A3D6D6178696D756D2043
:1001D0005A206A65726B20286D6D2F73292C2020A0
:1001E000453D6D6178696D756D2045206A65726B5E
:1001F00020286D6D2F73290020540020204D3230AF
:1002000034205300416363656C65726174696F6E7D
:100210003A20533D616363656C65726174696F6E0A
:100220002C20543D72657472616374206163636550
:100230006C65726174696F6E00204500205A002061
:10024000590020204D3230312058004D6178696DC1
:10025000756D20416363656C65726174696F6E20B2
:10026000286D6D2F7332293A00204500205A002056
:10027000590020204D3230332058004D6178696D8F
:10028000756D2066656564726174657320286D6D97
:100290002F73293A00204500205A002059002020C1
:1002A0004D39322058005374657073207065722088
:1002B000756E69743A004572726F723A004D313151
:1002C000300045313A200045303A20005A3A2000AB
:1002D000593A2000583A20004D53312C4D533220CA
:1002E00050696E730A0024F404D9201BC40C5C0E00
:1002F0009804C4095F0265077101F405F900FB0465
:10030000B30048048700C103690058035500030384
:100310004500BE023A008402310053022A0029023D
:10032000250004022000E4011C00C8011900AF01EF
:10033000170098011400840113007101100061017D
:10034000100051010E0043010D0036010B002B017E
:100350000B0020010B00150109000C01090003012D
:100360000800FB000800F3000800EB000700E400B1
:100370000600DE000600D8000600D2000600CC0011
:100380000500C7000500C2000500BD000400B9005B
:100390000400B5000400B1000400AD000400A90091
:1003A0000400A5000300A20003009F0004009B00BE
:1003B00003009800030095000200930003009000E2
:1003C00003008D0002008B000300880002008600FD
:1003D000020084000300810002007F0002007D0013
:1003E00002007B0002007900020077000100760025
:1003F00002007400020072000100710002006F0030
:1004000002006D0001006C0002006A00010069003A
:100410000200670001006600010065000100640041
:1004200002006200010061000100600001005F0045
:1004300002005D0001005C0001005B0001005A0049
:10044000010059000100580001005700010056004A
:10045000010055000100540001005300000053004A
:1004600001005200010051000100500001004F0046
:1004700001004E0000004E0001004D0001004C0044
:1004800001004B0000004B0001004A000100490040
:10049000010048000000480001004700010046003C
:1004A0000000460001004500000045000100440036
:1004B0000100430000004300010042000000420030
:1004C00001004100000041000100400001003F0028
:1004D00000003F0001003E0000003E0001003D0022
:1004E00000003D0001003C0000003C0000003C001A
:1004F00001003B0000003B0001003A0000003A0010
:100500000100390000003900010038000000380007
:1005100000003800010037000000370001003600FD
:1005200000003600000036000100350000003500F4
:1005300000003500010034000000340000003400E9
:1005400001003300000033000000330001003200DE
:1005500000003200000032000100310000003100D4
:1005600000003100010030000000300000003000C9
:1005700001002F0000002F0000002F0000002F00BE
:1005800001002E0000002E0000002E0001002D00B2
:1005900000002D0000002D0000002D0001002C00A7
:1005A00000002C0000002C0000002C0001002B009B
:1005B00000002B0000002B0000002B0001002A008F
:1005C00000002A0000002A0000002A000100290083
:1005D0000000290000002900000029000000290077
:1005E000010028000000280000002800000028006A
:1005F000000028000100270000002700000027005D
:10060000000027000000270001002600000026004F
:100610000000260000002600000026000100250042
:100620000000250000002500000025000000250036
:100630000000250001002400000024000000240028
:10064000000024000000240001002300000023001B
:10065000000023000000230000002300000023000E
:100660000000230001002200000022000000220000
:1006700000002200000022000000220001002100F2
:1006800000002100000021000000210000002100E6
:1006900000002100000021000100200000002000D7
:1006A00000002000000020000000200000002000CA
:1006B000000020000000200001001F0000001F00BB
:1006C00000001F0000001F0000001F0000001F00AE
:1006D00000001F0001001E0000001E0000001E00A0
:1006E00000001E00000024F4D43050C38E20C2A2AB
:1006F0004017828B7011127A910D816CD90AA86112
:10070000E108C7586607615143061E4B5D05C145A8
:10071000A7041A411104093D980371393103403689
:10072000DB0265339102D4305402802E1D02632C0B
:10073000EE01752AC501B028A001102781018F257F
:1007400064012B244B01E0223401AC211F018D20D8
:100750000D01801FFC00841EED00971DDF00B81CFA
:10076000D200E61BC600201BBC00641AB200B219FE
:10077000A8000A19A0006A189900D1179100401723
:100780008B00B516840031167E00B31579003A153A
:100790007300C7146F0058146A00EE1366008813C4
:1007A000630025135E00C7125B006C125700151220
:1007B0005400C111510070114F0021114B00D6108F
:1007C00049008D1047004610440002104200C00F3F
:1007D0004000800F3E00420F3C00060F3B00CB0E56
:1007E0003800930E37005C0E3500270E3400F30DF1
:1007F0003200C10D3100900D3000600D2E00320D21
:100800002D00050D2C00D90C2B00AE0C2900850CF9
:1008100029005C0C2700350C27000E0C2600E80B85
:100820002400C40B2400A00B23007D0B23005A0BD3
:100830002100390B2100180B2000F80A1F00D90AEB
:100840001E00BB0A1E009D0A1D00800A1D00630ACF
:100850001C00470A1B002C0A1B00110A1A00F7098A
:100860001A00DD091900C4091900AB091900920921
:1008700017007B091800630917004C091600360998
:100880001600200916000A091500F5081500E008F1
:100890001400CC081400B8081400A4081400900830
:1008A00013007D0812006B08130058081200460858
:1008B0001200340811002308110012081100010869
:1008C0001100F0071000E0071000D0071000C0076B
:1008D0001000B0070F00A107100091070E0083075A
:1008E0000F0074070F0065070E0057070E00490739
:1008F0000E003B070D002E070E0020070D0013070A
:100900000D0006070D00F9060C00ED060D00E006CF
:100910000C00D4060C00C8060C00BC060C00B00687
:100920000C00A4060B0099060C008D060B00820635
:100930000B0077060B006C060B0061060A005706D9
:100940000B004C060A0042060A0038060A002E0672
:100950000A0024060A001A060A0010060900070603
:100960000A00FD050900F4050900EB050900E20590
:100970000900D9050900D0050900C7050900BE0511
:100980000900B5050800AD050800A50509009C058E
:100990000800940508008C050800840508007C0503
:1009A0000800740508006C050700650508005D0572
:1009B0000700560508004E050700470507004005DB
:1009C000080038050700310507002A050700230540
:1009D00007001C050600160507000F05070008059F
:1009E000060002050700FB040600F5040700EE04FC
:1009F0000600E8040600E2040700DB040600D50454
:100A00000600CF040600C9040600C3040600BD04A6
:100A10000600B7040600B1040500AC040600A604F5
:100A20000600A00405009B04060095040500900440
:100A300006008A04050085040500800406007A0487
:100A4000050075040500700405006B0405006604CC
:100A50000500610405005C0405005704050052040C
:100A600005004D04050048040500430405003E044C
:100A700004003A04050035040500300404002C0489
:100A8000050027040400230405001E0404001A04C2
:100A9000040016040500110404000D0404000904F8
:100AA00005000404040000040400FC030400F8032F
:100AB0000400F4030400F0030400EC030400E80362
:100AC0000400E4030400E0030400DC030400D80392
:100AD0000400D4030400D0030400CC030400C803C2
:100AE0000300C50303006563686F3A00656E6473B5
:100AF000746F7073206869743A205A00205A3A0063
:100B0000656E6473746F7073206869743A2059005D
:100B100020593A00656E6473746F7073206869744D
:100B20003A20580020583A00656E6473746F7073F1
:100B3000206869743A200000002100240027002A60
:100B4000002D003000330001010000040107010AFC
:100B50000100002200250028002B002E0031003467
:100B60000002010000050108010B01000020002324
:100B700000260029002C002F003200000100000395
:100B80000106010901050505050705080808080211
:100B90000202020A0A080804040404010101010116
:100BA0000101010303030303030303040707070C05
:100BB0000C0C0C0C0C0C0C020202020606060606BB
:100BC0000606060B0B0B0B0B0B0B0B010210202068
:100BD0000808102040102040800201020108040291
:100BE0000101020408102040808040201008040207
:100BF0000180040201804020100804020108040260
:100C00000101020408102040800102040810204065
:100C1000800000090A02080B0C0D070603040100FE
:100C200000000000000000000000000000000000C4
:100C30000000000000000000000000000011100F84
:100C400000000000000000000000000000000000A4
:100C500000000000000000494E46494E4954594EDC
:100C6000414ECDCCCC3D0AD7233C17B7D13877CCF9
:100C70002B329595E6241FB14F0A00002041000059
:100C8000C84200401C4620BCBE4CCA1B0E5AAEC512
:100C90009D742E2D11241FBECFEFD1E2DEBFCDBF3C
:100CA00000E00CBF15E0A0E0B2E0E4ECFAE600E002
:100CB0000BBF02C007900D92AC36B107D9F71BBE2F
:100CC0001CE1ACE6B5E001C01D92A73EB107E1F71B
:100CD0001CE0C4E9DCE004C02297FE010E941A3542
:100CE000C239D107C9F70E94D92F0C9460350C94F2
:100CF0000000A0E0B0E0EFE7F6E00C942F35EC0147
:100D00005B016115710519F0FB0191838083F990F6
:100D10008F2D90E00E941E35892BC9F7FDE2FF164A
:100D200021F4F990EE24E39405C02BE2F21609F4C5
:100D3000F990EE248E0101501040C80167E57CE077
:100D400043E050E00E940809892B01F58E010E5FF7
:100D50001F4FC8016AE57CE045E050E00E940809A9
:100D6000892B19F48E01095F1F4FA114B10419F0EA
:100D7000F50111830083E0FC04C070E090E080E89E
:100D800014C070E090E080E86FEF08C1C8016FE523
:100D90007CE043E050E00E940809892B69F4A1142B
:100DA000B10429F470E090E080EC6FE7F7C0229680
:100DB000F501D183C083F6CF8824992440E050E028
:100DC00060E070E0EF2DE053EA30A0F5F2E0EF2AAA
:100DD0008E2D90E09C0128703070E2FE06C0232B1F
:100DE00079F50894811C911C2BC0232B19F00894D1
:100DF00081089108DB01CA0112E0880F991FAA1F20
:100E0000BB1F1A95D1F7480F591F6A1F7B1F440F4C
:100E1000551F661F771F4E0F511D611D711D4839EB
:100E200029E9520729E9620729E1720748F084E0BD
:100E3000E82A06C0EE3F31F4E3FC39C098E0E92A25
:100E4000F990C0CFE53311F0E53189F529912D32C4
:100E500019F4E0E1EE2A05C02B3219F081E090E0B0
:100E600003C0299182E090E0E22FE053EA3018F0CD
:100E7000C81BD90B1CC020E030E0FCE020383F0745
:100E80005CF4C901880F991F880F991F280F391F1B
:100E9000220F331F2E0F311DE991E053EA3068F322
:100EA000E4FE03C0309521953F4F820E931ECE2C59
:100EB000DD24E1FE07C0A114B10421F02197F50162
:100EC000D183C083CB01BA010E949B327B018C018C
:100ED000F3E0CF22DD2423E0C216D10421F417FB76
:100EE000109517F9109557016801C801B70120E066
:100EF00030E040E050E00E94FE31882309F44AC00F
:100F000097FE0DC026E7E22E2CE0F22E90948194FD
:100F100091089394C0E2D0E000E010E012C09EE897
:100F2000E92E9CE0F92EF6CFF701259135914591F8
:100F30005491C601B5010E94D6335B016C018C1A35
:100F40009D0A8C169D0684F7D595C7950F5F1F4F98
:100F50000630110529F08CEF9FEFE80EF91EF1CF56
:100F6000C501D6017C018D018C2D880F8D2D881F28
:100F70008F3F51F0C601B50120E030E040E050E085
:100F80000E94FE31882331F482E290E09093E61CC7
:100F90008093E51C7E2D9F2D802F612F272F392FC9
:100FA000482F562FB901CA01CDB7DEB7ECE00C943B
:100FB0004B352F923F925F926F927F928F929F92CA
:100FC000AF92BF92CF92DF92EF92FF920F931F9357
:100FD000CF93DF938C011B01EA016115710519F0B4
:100FE000FB0191838083209749F0CE01029783977C
:100FF00028F020E030E040E050E0F6C0F801A19099
:101000008F018A2D90E00E941E35892BB9F7FDE2F1
:10101000AF1631F4F801A1908F015524539407C005
:10102000FBE2AF1619F4F801A1908F015524209727
:1010300019F0C031D105C1F4F0E3AF1679F4F8012D
:101040008081883711F0883549F4F801A1800E5F5E
:101050001F4FF2E05F2AC0E1D0E006C0209721F4E4
:1010600080E3A816E9F427C0C830D10531F1C930B2
:10107000D10524F4C230D10531F50CC0CA30D105F8
:1010800089F0C031D105F9F4C12CD12CE12CB8E0A4
:10109000FB2E28C0C12CD12CE12CA0E4FA2E22C0BA
:1010A000CAE0D0E0FCECCF2EFCECDF2EFCECEF2E07
:1010B000FCE0FF2E17C0C8E0D0E0C12CD12CE12C01
:1010C000E0E1FE2E0FC09E01442737FD4095542FCE
:1010D00060E070E080E090E80E94C734C901DA0166
:1010E0006C017D0120E030E040E050E060E03E0136
:1010F000882477FC8094982C70EDB72EBA0CE9E028
:10110000EB1570F48A2D81548A3118F499ECB92EBC
:1011100006C08A2D81568A3150F589EAB82EBA0C5C
:101120008B2D90E08C179D0714F56F3FE1F0C216F0
:10113000D306E406F506B0F0CA01B901A401930193
:101140000E9495349B01AC012B0D311D411D511D99
:101150002130F0E03F07F0E04F07F0E85F0710F4C0
:1011600061E001C06FEFF801A1908F01C5CF21149C
:10117000310481F0662331F001501040F1011183F8
:10118000008308C051FE1AC002501040F1011183C3
:10119000008314C067FF12C050FC05C02FEF3FEF63
:1011A0004FEF5FE704C020E030E040E050E882E22B
:1011B00090E09093E61C8093E51C16C050FE08C09A
:1011C00050954095309521953F4F4F4F5F4F0CC044
:1011D00057FF0AC082E290E09093E61C8093E51CE2
:1011E0002FEF3FEF4FEF5FE7B901CA01DF91CF91DA
:1011F0001F910F91FF90EF90DF90CF90BF90AF9035
:101200009F908F907F906F905F903F902F90089568
:10121000FB01DC014150504088F08D9181341CF07D
:101220008B350CF4805E659161341CF06B350CF4E9
:10123000605E861B611171F3990B0895881BFCCFCA
:10124000FB0155915523A9F0BF01DC014D914517D4
:101250004111E1F759F4CD010590002049F04D917D
:1012600040154111C9F3FB014111EFCF81E090E03E
:1012700001970895FC018191861721F08823D9F701
:10128000992708953197CF0108950F931F93DF9306
:10129000CF93CDB7DEB7E0970FB6F894DEBF0FBEA1
:1012A000CDBFDE011196E8E4F5E080E101900D92FA
:1012B0008150E1F7DE015196E8E3F5E080E101902D
:1012C0000D928150E1F7DE019196E8E2F5E080E1D0
:1012D00001900D928150E1F789819A81AB81BC81A7
:1012E0008093440890934508A0934608B09347081C
:1012F00089899A89AB89BC89809354089093550851
:10130000A0935608B093570889A19AA1ABA1BCA19C
:101310008093340890933508A0933608B09337082B
:101320008D819E81AF81B88580934808909349084C
:10133000A0934A08B0934B088D899E89AF89B88DD8
:101340008093580890935908A0935A08B0935B086B
:101350008DA19EA1AFA1B8A58093380890933908BC
:10136000A0933A08B0933B0889859A85AB85BC85E4
:1013700080934C0890934D08A0934E08B0934F086B
:10138000898D9A8DAB8DBC8D80935C0890935D08A0
:10139000A0935E08B0935F0889A59AA5ABA5BCA5EC
:1013A00080933C0890933D08A0933E08B0933F087B
:1013B0008D859E85AF85B88980935008909351089C
:1013C000A0935208B09353088D8D9E8DAF8DB8A118
:1013D0008093600890936108A0936208B0936308BB
:1013E0008DA59EA5AFA5B8A980934008909341080C
:1013F000A0934208B09343080E94331580E090E820
:10140000ABE3B5E48093680890936908A0936A08F9
:10141000B0936B0880936C0890936D08A0936E084E
:10142000B0936F0820E030E040E050E02093640883
:1014300030936508409366085093670880E29EE405
:10144000A0E0B0E08093300890933108A093320878
:10145000B093330820937C0830937D0840937E0836
:1014600050937F0880E090E0A0EAB1E48093700898
:1014700090937108A0937208B093730880937408D6
:1014800090937508A0937608B093770880937808B6
:1014900090937908A0937A08B0937B0820938B05EA
:1014A00030938C0540938D0550938E0520938705CE
:1014B000309388054093890550938A0520938305CE
:1014C000309384054093850550938605E4EEF0E063
:1014D00064918F010BC0772767FD70958FE39CE1C6
:1014E0000E947B2C0F5F1F4FF8016491662399F7D0
:1014F000EAEEF0E064918F010BC0772767FD7095ED
:101500008FE39CE10E947B2C0F5F1F4FF8016491D9
:10151000662399F78FE39CE16AE00E947B2CE096BA
:101520000FB6F894DEBF0FBECDBFCF91DF911F91F4
:101530000F9108950F931F93CF93DF9304EE10E064
:10154000F8016491E8010AC0772767FD70958FE381
:101550009CE10E947B2C2196FE0164916623A1F7F9
:10156000E6EAF2E06491EF010AC0772767FD709523
:101570008FE39CE10E947B2C2196FE0164916623FF
:10158000A1F78FE39CE16AE00E947B2CF801649153
:10159000C4EED0E00AC0772767FD70958FE39CE129
:1015A0000E947B2C2196FE0164916623A1F7409155
:1015B00044085091450860914608709147088EE9AB
:1015C00092E00E9451124091480850914908609160
:1015D0004A0870914B088BE992E00E9451124091A9
:1015E0004C0850914D0860914E0870914F0888E961
:1015F00092E00E9451124091500850915108609120
:1016000052087091530885E992E00E9451128FE3CD
:101610009CE160E072E00E94EF2E8FE39CE16AE0C3
:101620000E947B2CF8016491C4EED0E00AC07727B9
:1016300067FD70958FE39CE10E947B2C2196FE0153
:1016400064916623A1F7EBE7F2E06491EF010AC031
:10165000772767FD70958FE39CE10E947B2C219694
:10166000FE0164916623A1F78FE39CE16AE00E948A
:101670007B2CF8016491C4EED0E00AC0772767FDA7
:1016800070958FE39CE10E947B2C2196FE01649172
:101690006623A1F74091540850915508609156086F
:1016A0007091570882E792E00E94511240915808C9
:1016B0005091590860915A0870915B088FE692E04A
:1016C0000E94511240915C0850915D0860915E0843
:1016D00070915F088CE692E00E9451124091600880
:1016E00050916108609162087091630889E692E008
:1016F0000E9451128FE39CE160E072E00E94EF2EA5
:101700008FE39CE16AE00E947B2CF8016491C4EEB7
:10171000D0E00AC0772767FD70958FE39CE10E94B7
:101720007B2C2196FE0164916623A1F7EBE4F2E0A5
:101730006491EF010AC0772767FD70958FE39CE104
:101740000E947B2C2196FE0164916623A1F78FE312
:101750009CE16AE00E947B2CF8016491C4EED0E029
:101760000AC0772767FD70958FE39CE10E947B2C70
:101770002196FE0164916623A1F7409134085091AF
:101780003508609136087091370882E492E00E9433
:101790002A12409138085091390860913A087091A6
:1017A0003B088FE392E00E942A1240913C0850913E
:1017B0003D0860913E0870913F088CE392E00E94E2
:1017C0002A1240914008509141086091420870915E
:1017D000430889E392E00E942A128FE39CE160E0D3
:1017E00072E00E94EF2E8FE39CE16AE00E947B2C66
:1017F000F8016491C4EED0E00AC0772767FD7095C8
:101800008FE39CE10E947B2C2196FE01649166236C
:10181000A1F7E4E0F2E06491EF010AC0772767FDE9
:1018200070958FE39CE10E947B2C2196FE016491D0
:101830006623A1F78FE39CE16AE00E947B2CF8010C
:101840006491C4EED0E00AC0772767FD70958FE3FE
:101850009CE10E947B2C2196FE0164916623A1F7F6
:10186000409168085091690860916A0870916B080E
:101870008BEF91E00E94511240916C0850916D08DD
:1018800060916E0870916F0888EF91E00E9451128C
:101890008FE39CE160E072E00E94EF2E8FE39CE119
:1018A0006AE00E947B2CF8016491C4EED0E00AC08B
:1018B000772767FD70958FE39CE10E947B2C219632
:1018C000FE0164916623A1F7E5E4F1E06491EF0184
:1018D0000AC0772767FD70958FE39CE10E947B2CFF
:1018E0002196FE0164916623A1F78FE39CE16AE0F3
:1018F0000E947B2CF8016491C4EED0E00AC07727E7
:1019000067FD70958FE39CE10E947B2C2196FE0180
:1019100064916623A1F74091640850916508609135
:101920006608709167088CE391E00E945112409123
:101930007C0850917D0860917E0870917F0889E352
:1019400091E00E945112409130085091310860910D
:1019500032087091330886E391E00E942A12409188
:10196000700850917108609172087091730883E358
:1019700091E00E9451124091740850917508609155
:1019800076087091770880E391E00E9451124091AF
:1019900078085091790860917A0870917B088DE2FF
:1019A00091E00E9451128FE39CE160E072E00E949E
:1019B000EF2E8FE39CE16AE00E947B2CF80164919A
:1019C000C4EED0E00AC0772767FD70958FE39CE1F5
:1019D0000E947B2C2196FE0164916623A1F7EBE126
:1019E000F1E06491EF010AC0772767FD70958FE3FE
:1019F0009CE10E947B2C2196FE0164916623A1F755
:101A00008FE39CE16AE00E947B2CF8016491C4EEB4
:101A1000D0E00AC0772767FD70958FE39CE10E94B4
:101A20007B2C2196FE0164916623A1F740918305EA
:101A300050918405609185057091860582E191E061
:101A40000E94511240918705509188056091890547
:101A500070918A058FE091E00E94511240918B05B0
:101A600050918C0560918D0570918E058CE091E010
:101A70000E9451128FE39CE160E072E00E94EF2E21
:101A80008FE39CE16AE00E947B2CDF91CF911F9154
:101A90000F910895FC011082118212821382148228
:101AA0001582168217821086118612861386148676
:101AB000158616861786108A118A128A138A148A46
:101AC0008BEC9DEDA0E1B3E4858B968BA78BB08F5B
:101AD00080E090E0A0E0B0E0818F928FA38FB48F80
:101AE000858F968FA78FB0A381A392A3A3A3B4A33E
:101AF00085A396A3A7A3B0A780E494E5A9E0BBE4DF
:101B000081A792A7A3A7B4A780E090E4ACE1B8E4D2
:101B100085A796A7A7A7B0AB80E090E0A8E4B3E4C0
:101B200081AB92ABA3ABB4AB15AA16AA17AA10AEA1
:101B30000895FC0183E08083118212821382148253
:101B400015821682178210861186128613861486D5
:101B5000158616861786108A118A128A138A148AA5
:101B600087E69AEFAEE2B3E4858B968BA78BB08FB6
:101B700020E030E040E050E0218F328F438F548FDF
:101B800080E391EAADEBB2E4858F968FA78FB0A387
:101B900021A332A343A354A325A336A347A350A74D
:101BA00080E090EAACE0B6E481A792A7A3A7B4A72F
:101BB00080E090E4ACE1B8E485A796A7A7A7B0AB16
:101BC00080E090E0AAE7B4E481AB92ABA3ABB4AB06
:101BD00015AA16AA17AA81E080AF08954091780649
:101BE0005091790620E630E0B901469F9001479F69
:101BF000300D569F300D1124682F772767FD7095A3
:101C0000C9018658994F0E943A099C019093FB079D
:101C10008093FA0780E0232B09F081E008958091FA
:101C2000FA079091FB07019660E070E00E94790648
:101C30000895AF92BF92CF92DF92EF92FF920F93EF
:101C40001F93CF93DF9393E7A92E95E0B92E8CEFE6
:101C5000C82E87E0D82EC0E0D0E0FE01E85AFA4F47
:101C600080810E94EE0D882311F10E940F0E7B01EE
:101C70008C01FE01E459FA4F608170E0882777FDFE
:101C80008095982F0E949D32F501208131814281FB
:101C900053810E94D6339B01AC01C801B7010E9459
:101CA0008731F60160837183828393830AC0F501D3
:101CB00080819181A281B381F60180839183A28387
:101CC000B383219684E090E0A80EB91EC80ED91EF9
:101CD000C430D10511F686E40E94EE0D8823E1F0B0
:101CE0000E940F0E7B018C0160930C0870930D080D
:101CF00080930E0890930F0820E030E040E050E021
:101D00000E94A233181644F4E0921F05F0922005B9
:101D10000093210510932205DF91CF911F910F9120
:101D2000FF90EF90DF90CF90BF90AF9008952F92EB
:101D30003F924F925F926F927F928F929F92AF925B
:101D4000BF92CF92DF92EF92FF920F931F93DF9398
:101D5000CF93CDB7DEB7A4970FB6F894DEBF0FBE12
:101D6000CDBF0E94303060931C0870931D08809393
:101D70001E0890931F08EE24FF246E010894C11CD6
:101D8000D11C86010E0D1F1DF701E450F84FD7013D
:101D9000AD58BA4F60817181828193812D913D91BF
:101DA0004D915C910E948631D8016D937D938D9306
:101DB0009C931397E4E0F0E0EE0EFF1EF0E1EF16C7
:101DC000F104F9F689819A81AB81BC818D8F9E8F58
:101DD000AF8FB8A38D819E81AF81B885898F9A8F8F
:101DE000AB8FBC8F89859A85AB85BC858D8B9E8B8F
:101DF000AF8BB88F6D8D7E8D8F8D98A19B01AC01BF
:101E00000E94D6337B018C01698D7A8D8B8D9C8DE0
:101E10009B01AC010E94D6339B01AC01C801B70104
:101E20000E9487317B018C016D897E898F89988D15
:101E30009B01AC010E94D6339B01AC01C801B701E4
:101E40000E9487310E943D347B018C012DEB37E3EA
:101E500046E855E30E94FE31882394F4ED84FE8425
:101E60000F851889C801B70120E030E040E050E05C
:101E70000E94A233181624F017FB109517F910953D
:101E8000C801B7012DEB37E346E855E30E94FE3168
:101E900087FDDFC160911A0570911B05882777FDCA
:101EA0008095982F0E949D325B016C01C801B7019B
:101EB00020E030E84BEB55E40E94D63320911F051B
:101EC0003091200540912105509122050E94023257
:101ED0007B018C016091120570911305882777FDB5
:101EE0008095982F0E949D329B01AC01C801B701DB
:101EF0000E9402329B01AC01C601B5010E94D6339B
:101F00000E946A327C8B6B8B1616170624F0A1E0B8
:101F1000B0E0BC8BAB8BE1E0F0E0FA8BE98B8B8916
:101F20009C89AA2797FDA095BA2F89A39AA3ABA352
:101F3000BCA347C1A989BA89BD01882777FD8095CF
:101F4000982F0E949D327B018C0169A17AA18BA1FF
:101F50009CA10E949D329B01AC01C801B7010E9467
:101F600002321B012C016D8D7E8D8F8D98A1A201F7
:101F700091010E94D63320917305309174054091F0
:101F80007505509176050E9487313B014C01CB01CC
:101F9000D4018093FC079093FD07A093FE07B093B4
:101FA000FF07698D7A8D8B8D9C8DA20191010E9416
:101FB000D63320917705309178054091790550917D
:101FC0007A050E9487315B016C01CB01D6018093B9
:101FD000000890930108A0930208B09303086D894C
:101FE0007E898F89988DA20191010E94D63320911C
:101FF0007B0530917C0540917D0550917E050E94C6
:1020000087317B018C01CB01D80180930408909328
:102010000508A0930608B0930708C201B1012D85F9
:102020003E854F8558890E94D6339B01AC01609153
:102030007F057091800580918105909182050E94B5
:102040008731609308087093090880930A08909379
:102050000B08C301D4018093100890931108A0933A
:102060001208B0931308C501D60180931408909309
:102070001508A0931608B0931708C701D8018093DC
:10208000180890931908A0931A08B0931B08609140
:10209000120570911305882777FD8095982F0E946F
:1020A0009D3220911F0530912005409121055091CE
:1020B00022050E94D63320E030E040E752E40E943F
:1020C000023220E030E048EC52E40E9402327B0110
:1020D0008C0180E198E064E178E048E158E028E094
:1020E00038E0F2E7CF2EF5E0DF2E0E9495196091DF
:1020F0007305709174058091750590917605209116
:10210000FC073091FD074091FE075091FF070E94A8
:10211000FE31882309F560917705709178058091EB
:10212000790590917A05209100083091010840913D
:102130000208509103080E94FE31882369F46091DF
:102140001F0570912005809121059091220520E0C6
:1021500030E040E752E41EC0609112057091130513
:10216000882777FD8095982F0E949D3220911F052A
:102170003091200540912105509122050E94D633CF
:1021800020E030E040E752E40E94023220E030E0FC
:1021900048EC52E40E9402327B018C018CEF97E004
:1021A00060E078E044E058E028E038E0E2E7CE2E56
:1021B000E5E0DE2E0E949519E989FA893196FA8BBD
:1021C000E98B29893A898B899C89821793070CF0BE
:1021D000B1CE8091FC079091FD07A091FE07B091D0
:1021E000FF078093730590937405A0937505B093D2
:1021F00076058091000890910108A0910208B091A5
:1022000003088093770590937805A0937905B093A0
:102210007A058091040890910508A0910608B09174
:10222000070880937B0590937C05A0937D05B09370
:102230007E058091080890910908A0910A08B09144
:102240000B0880937F0590938005A0938105B09340
:102250008205A4960FB6F894DEBF0FBECDBFCF9116
:10226000DF911F910F91FF90EF90DF90CF90BF9083
:10227000AF909F908F907F906F905F904F903F9026
:102280002F90089587E161E00E945331089586E11F
:1022900061E00E94A03087E161E00E94A03088E107
:1022A00061E00E94A0308CE161E00E94A0308DE1ED
:1022B00061E00E94A0308EE161E00E94A03089E1DF
:1022C00061E00E94A0308AE161E00E94A0308BE1D1
:1022D00061E00E94A03082E061E00E94A03083E0D3
:1022E00061E00E94A03084E061E00E94A03085E0BF
:1022F00061E00E94A03086E061E00E94A03087E0AB
:1023000061E00E94A03089E260E00E94A0308DE28E
:1023100060E00E94A03081E360E00E94A03080E392
:1023200060E00E94A0308FE260E00E94A0308BE26B
:1023300060E00E94A03085E360E00E94A03087E268
:1023400060E00E94A03084E360E00E94A03083E35C
:1023500060E00E94A03082E360E00E94A03089E249
:1023600061E00E9453318DE261E00E94533181E3CC
:1023700061E00E94533180E361E00E9453318FE2BB
:1023800061E00E9453318BE261E00E94533185E3AA
:1023900061E00E94533184E361E00E94533183E3A2
:1023A00061E00E94533182E361E00E94533180E298
:1023B00061E00E94A03084E261E00E94A03088E2E7
:1023C00061E00E94A0308FE161E00E94A03083E2D2
:1023D00061E00E94A03082E260E00E94A03086E2CC
:1023E00060E00E94A0308AE260E00E94A03081E2BA
:1023F00060E00E94A03085E260E00E94A0308DE0A5
:1024000061E00E94A03008950E9447110E9442118D
:102410008FE39CE140E052EC61E070E026E00E9436
:10242000BA2B82E096E00E944A0D8BE396E00E9470
:102430004A0D89EC95E00E94990D80E995E00E9493
:10244000990D0E9445090E949A0A0E94D2160E9484
:10245000D7240895EF92FF920F931F93CF93DF93AA
:10246000EC017A018B01FC0164910AC0772767FDBA
:1024700070958FE39CE10E947B2C2196FE01649174
:102480006623A1F78FE39CE1B801A7012AE030E0C1
:102490000E946F2EDF91CF911F910F91FF90EF90CF
:1024A0000895EF92FF920F931F93CF93DF93EC0168
:1024B0007A018B01FC0164910AC0772767FD709552
:1024C0008FE39CE10E947B2C2196FE0164916623A0
:1024D000A1F78FE39CE1B801A70122E030E00E9460
:1024E000D62FDF91CF911F910F91FF90EF9008951C
:1024F0000F931F930FE31CE1C8010E94582C4091D9
:1025000074065091750660917606709177064F5F5C
:102510005F4F6F4F7F4FC8012AE030E00E949B2E33
:10252000C8016AE00E947B2C1F910F91089587E4F7
:102530000E94EE0D882339F10E940F0E0E946A322C
:1025400077FD6DC0623071052CF06C31710509F0BA
:1025500066C00DC080918F05882309F060C00E947D
:10256000190E80E00E94CE240E94970E08958FE3FA
:102570009CE162EB74E00E94EF2E8FE39CE16AE045
:102580000E947B2C08958DE40E94EE0D882309F4AF
:1025900046C00E940F0E0E946A3262317105D9F066
:1025A0006737710589F161317105C9F58FE39CE1E8
:1025B00060ED74E00E94EF2E8FE39CE16AE00E94E0
:1025C0007B2CA5989FB7F894809102018F7E809311
:1025D00002019FBF08958FE39CE167ED74E00E94C4
:1025E000EF2E8FE39CE16AE00E947B2CA59A10926B
:1025F0001C059FB7F89480910201806180930201CD
:102600009FBF10921D0508958FE39CE16FED74E06C
:102610000E94EF2E8FE39CE16AE00E947B2C0895DC
:10262000DF92EF92FF920F931F93CF93DF9330E6E9
:10263000E32EF12CDD24D394B5C14D3071F04A3333
:1026400021F480912108882341F0209122083091C3
:1026500023082F3531050CF487C1E0912208F09151
:102660002308309719F410922108CEC1A0912408B4
:10267000B0912508AE9D8001AF9D100DBE9D100D3F
:102680001124E00FF11FE658F94F108280912108C4
:10269000882309F064C110922108AA5DB74F1C92EB
:1026A000E801C658D94FCE016EE470E00E943A09A5
:1026B0009C01009709F4DFC09093FB078093FA0711
:1026C0002F5F3F4F2C1B3D0B200F311FC901865838
:1026D000994F60E070E04AE050E00E94D9076093B3
:1026E0002A0870932B0880932C0890932D08209132
:1026F00074063091750640917606509177062F5FEB
:102700003F4F4F4F5F4F621773078407950709F4D8
:1027100061C180912408909125089C012E9DC001E3
:102720002F9D900D3E9D900D11248658994F6DEB75
:1027300072E00E942009892B09F04CC1E6EBF2E01F
:102740006491EF010AC0772767FD70958FE39CE1E4
:102750000E947B2C2196FE0164916623A1F7409193
:1027600074065091750660917606709177068FE336
:102770009CE12AE030E00E949B2E8FE39CE16AE01E
:102780000E947B2C40912A0850912B0860912C08C4
:1027900070912D088FE39CE12AE030E00E94DB2E4F
:1027A00040C01E274F5FFC01E40FF11DE658F94FB2
:1027B000E081EA32B1F73093FB072093FA07C901B1
:1027C000019660E070E00E9479060E946A32212F33
:1027D00030E02617370709F43DC0E6EBF2E06491DC
:1027E000EF010AC0772767FD70958FE39CE10E9497
:1027F0007B2C2196FE0164916623A1F7409174061B
:102800005091750660917606709177068FE39CE192
:102810002AE030E00E949B2E8FE39CE16AE00E9458
:102820007B2C0E9478121092230810922208ECC090
:10283000E6EBF2E06491EF010AC0772767FD70953F
:102840008FE39CE10E947B2C2196FE01649166231C
:10285000A1F7D4CF80912A0890912B08A0912C0841
:10286000B0912D088093740690937506A093760618
:10287000B09377062CC0CE016AE270E00E943A095C
:10288000009729F1E6EBF2E06491EF010AC07727A7
:1028900067FD70958FE39CE10E947B2C2196FE01E1
:1028A00064916623A1F7409174065091750660917A
:1028B0007606709177068FE39CE12AE030E00E9473
:1028C0009B2E8FE39CE16AE00E947B2CACCF809131
:1028D0002408909125088E9D80018F9D100D9E9D4E
:1028E000100D1124E801C658D94FCE0167E470E0FD
:1028F0000E943A099C01009789F09093FB0780930E
:10290000FA072F5F3F4F2C1B3D0B200F311FC901D2
:102910008658994F60E070E00E9479068FE39CE151
:102920006CEE74E00E94EF2E8FE39CE16AE00E945F
:102930007B2C8091240890912508019664E070E03A
:102940000E94B434909325088093240880912E0827
:1029500090912F08019690932F0880932E08109243
:102960002308109222081EC04B3311F4D092210884
:10297000809121088823B1F4809124089091250842
:102980008E9DF0018F9DF00D9E9DF00D1124E20FA4
:10299000F31FE658F94F40832F5F3F4F30932308D2
:1029A000209322088FE39CE10E941E2C1816190622
:1029B0005CF580912E0890912F0804972CF58FE3F9
:1029C0009CE10E943A2C482F809320088A3009F01D
:1029D00034CE43CE80912408909125088E9DE0014D
:1029E0008F9DD00D9E9DD00D1124CE018658994FFC
:1029F0006AE270E00E943A099C01009709F418CF3E
:102A000010E040E0CE01CFCEDF91CF911F910F912A
:102A1000FF90EF90DF90089580912E0890912F08FD
:102A2000039714F40E94101380912E0890912F08A0
:102A3000892BC1F00E94971280912E0890912F0847
:102A4000019790932F0880932E088091780690919B
:102A50007906019664E070E00E94B43490937906A0
:102A60008093780608950F931F93CF93DF93C0E070
:102A7000D0E08E010058174FFE01EC5CF74F6081EB
:102A80007181828193810E949B32FE01EC5BF74F42
:102A900020813181428153810E94D6330E946F325E
:102AA000F80160837183828393832496C031D105BA
:102AB00001F7DF91CF911F910F9108958F929F920F
:102AC000AF92BF92CF92DF92EF92FF920F931F933C
:102AD000CF93DF93EC016B01009709F45CC08FA9E1
:102AE000882309F058C0EEA0FFA008A519A5FB0196
:102AF000B6A0A7A090A481A4C801B7012B2D3A2DA0
:102B0000492D582D0E94FE3188230CF044C0C80185
:102B1000B701A80197010E94D6337B018C016AA9F5
:102B20007BA98CA99DA9905820E030E040E050ECB2
:102B30000E94D6332EA53FA548A959A90E94D63395
:102B40009B01AC01C801B7010E9487310E943D344E
:102B50007B018C016B2D7A2D892D982D9701A80171
:102B60000E94FE31882324F4EB2CFA2C092D182D19
:102B70006B2D7A2D892D982D9701A8010E94FE3189
:102B8000882349F0C701D801F60186A397A3A0A71F
:102B9000B1A781E086ABDF91CF911F910F91FF909C
:102BA000EF90DF90CF90BF90AF909F908F9008955F
:102BB000EF92FF920F931F93CF93DF93F090E11B5F
:102BC00000E010E020E030E04DE4E42E12C0FE9C76
:102BD000E0011124C056D74FC901B801AE010E94CF
:102BE0005E158F2D8F5F803409F480E0F82E9801F8
:102BF0008E018091E01BF81651F7C901B80140E041
:102C000050E00E945E15DF91CF911F910F91FF90D0
:102C1000EF900895AF92BF92CF92DF92EF92FF9222
:102C20000F931F93CF93DF93EB018A016115710519
:102C300009F466C04115510509F462C0DAA4CBA4B9
:102C4000BCA4ADA46EA17FA188A599A52D2D3C2D76
:102C50004B2D5A2D0E94FE31882309F451C08FA9B3
:102C6000882309F043C0F801E6A0F7A000A511A54C
:102C70006D2D7C2D8B2D9A2DA80197010E94A233DA
:102C80001816A4F5C801B701A80197010E94D63310
:102C90007B018C016AA97BA98CA99DA9905820E091
:102CA00030E040E050EC0E94D6332EA53FA548A965
:102CB00059A90E94D6339B01AC01C801B7010E94FB
:102CC00087310E943D347B018C016D2D7C2D8B2D35
:102CD0009A2D9701A8010E94FE31882324F4ED2C3F
:102CE000FC2C0B2D1A2DC701D80104C08D2D9C2D55
:102CF000AB2DBA2D8EA39FA3A8A7B9A781E08EAB59
:102D0000DF91CF911F910F91FF90EF90DF90CF90C7
:102D1000BF90AF900895CF92DF92EF92FF920F9302
:102D2000DF93CF930F920F92CDB7DEB78091E01B68
:102D30008FB7F894F090E11B8FBF8091E01B90E07B
:102D4000805C9F4F8F1991098F739070049704F1E5
:102D50000091E01B03500F73CC24DD2440E050E0D1
:102D60006DE4E62E13C0802F002309F480E4082FC1
:102D700001500E9DC00111248056974F9A8389837C
:102D8000B6010E940A16A601C980DA800F1559F70C
:102D90000F900F90CF91DF910F91FF90EF90DF9008
:102DA000CF9008951092E01B1092E11B80E1E0E9C2
:102DB000F8E0DF011D928A95E9F780E090E0A0E05D
:102DC000B0E08093E61B9093E71BA093E81BB093C1
:102DD000E91B8093EA1B9093EB1BA093EC1BB09331
:102DE000ED1B8093EE1B9093EF1BA093F01BB09311
:102DF000F11B8093F21B9093F31BA093F41BB093F1
:102E0000F51B8093E21B9093E31BA093E41BB0930C
:102E1000E51B08952F923F924F925F926F927F929F
:102E20008F929F92AF92BF92CF92DF92EF92FF92DA
:102E30000F931F93DF93CF93CDB7DEB766970FB68F
:102E4000F894DEBF0FBECDBF9E8B8D8B6A017B01D8
:102E500048015901DC01D8966D917D918D919C912D
:102E6000DB970E949B32698B7A8B8B8B9C8BA701A3
:102E700096010E94D6330E94EB310E946F326D831F
:102E80007E838F83988769897A898B899C89A5013C
:102E900094010E94D6330E94EB310E946F32698305
:102EA0007A838B839C832D813E814F81588528377F
:102EB00031054105510540F448E750E060E070E01D
:102EC0004D835E836F83788769817A818B819C8152
:102ED000683771058105910540F488E790E0A0E02E
:102EE000B0E089839A83AB83BC83AD89BE89AC5B38
:102EF000BF4FAD90BD90CD90DC901397A454B040DF
:102F0000BE8BAD8B6D817E818F8198850E949B32B7
:102F10006D877E878F87988BC601B5010E949D3291
:102F20001B012C0120E030E040E050E00E94FE3127
:102F3000882321F4E0E070E060E028C069897A89A4
:102F40008B899C899B01AC010E94D6337B018C014B
:102F50006D857E858F8598899B01AC010E94D63353
:102F60009B01AC01C801B7010E9486317B018C0135
:102F7000C201B101A20191010E9487319B01AC0104
:102F8000C801B7010E940232E62F692F2E2F372F7A
:102F9000482F562FB901CA010E94EB310E946A32B4
:102FA0003B014C0169817A818B819C810E949B321B
:102FB00069877A878B879C8766277727CB016A1971
:102FC0007B098C099D090E949D325B016C0120E008
:102FD00030E040E050E00E94FE31882321F4E0E040
:102FE00070E060E028C069857A858B859C859B01AF
:102FF000AC010E94D6337B018C0169897A898B8967
:103000009C899B01AC010E94D6339B01AC01C80195
:10301000B7010E9486317B018C01C601B501A60172
:1030200095010E9487319B01AC01C801B7010E9444
:103030000232E62F692F2E2F372F482F562FB90136
:10304000CA010E94D832ED89FE89A088B188C28861
:10305000D38886017501E618F708080919090E9446
:103060006A32A8019701261B370B480B590B57FFF3
:1030700071C0C201B10120E030E040E050E00E94A8
:10308000FE31882321F4E0E070E060E044C0C2013A
:10309000B101A20191010E9487317B018C01C6011F
:1030A000B5010E949B329B01AC01C801B7010E948F
:1030B000D6337B018C016D857E858F8598899B0138
:1030C000AC010E94D6339B01AC01C801B7010E943C
:1030D00086317B018C0169857A858B859C859B0176
:1030E000AC010E94D6339B01AC01C801B7010E941C
:1030F00087317B018C01C201B10120E030E040E862
:1031000050E40E94D6339B01AC01C801B7010E9474
:103110000232E62F692F2E2F372F482F562FB90155
:10312000CA010E94EB310E946A32AC01CB01DA0184
:103130003C014D0197FE03C06624772443016A14C5
:103140007B048C049D0410F03501460120E030E042
:1031500040E050E09FB7F8946D897E89645B7F4FB3
:10316000DB018C91AC54B040BE8BAD8B882321F534
:10317000FD01648A758A868A978A260D371D481D47
:10318000591D58962D933D934D935C935B972D81DC
:103190003E814F815885DC962D933D934D935C93F2
:1031A000DF97A05CBF4F29813A814B815C812D93D1
:1031B0003D934D935C9313979FBF66960FB6F8941B
:1031C000DEBF0FBECDBFCF91DF911F910F91FF905A
:1031D000EF90DF90CF90BF90AF909F908F907F90B7
:1031E0006F905F904F903F902F9008954F925F9215
:1031F0007F928F929F92AF92BF92CF92DF92EF9287
:10320000FF920F931F93CF93DF937090E11BC0E069
:10321000D0E07DE4472E512C46C02097B1F18EA915
:10322000882361F4849CF001859CF00D949CF00D42
:103230001124E056F74F86A9882339F1EAA0FBA0B4
:103240000CA11DA16EA17FA188A599A5A801970138
:103250000E9402325B016C01849CF001859CF00DA0
:10326000949CF00D1124E056F74F66A177A180A53C
:1032700091A5A80197010E9402328B019C01CE0109
:10328000B601A5010E940A171EAA739480E478165D
:1032900009F47724849CE001859CD00D949CD00D8A
:1032A0001124C056D74F872C992487FC9094809185
:1032B000E01B90E08816990609F0AFCF2097F1F057
:1032C000EAA0FBA00CA11DA16EA17FA188A599A5D4
:1032D000A80197010E9402325B016C016DEC7CEC4D
:1032E0008CE49DE3A80197010E9402328B019C01AE
:1032F000CE01B601A5010E940A171EAADF91CF9147
:103300001F910F91FF90EF90DF90CF90BF90AF9003
:103310009F908F907F905F904F9008950E948B16A2
:103320000E94D8150E94F61808952F923F924F924E
:103330005F926F927F928F929F92AF92BF92CF9245
:10334000DF92EF92FF920F931F93DF93CF93CDB74E
:10335000DEB7C859D0400FB6F894DEBF0FBECDBF60
:10336000FC015B014A013901CB56DF4FE882C559A8
:10337000D040CA56DF4FF882C659D040C956DF4FF9
:103380000883C759D040C856DF4F1883C859D0406A
:10339000E396DFAECEAEE3978091E01B8F5F803483
:1033A00009F480E0282F332727FD30953EA32DA375
:1033B0008091E11B90E04DA15EA184179507C1F3B8
:1033C00060914408709145088091460890914708A3
:1033D000E1966CAF7DAF8EAF9FAFE19720813181D9
:1033E000428153810E94D6330E94A633C158DF4FD9
:1033F0006883CF57D040C058DF4F7883C058D04043
:10340000CF57DF4F8883C158D040CE57DF4F9883C6
:10341000C258D0408091480890914908A0914A082C
:10342000B0914B08AD968CAF9DAFAEAFBFAFAD972F
:10343000BC01CD01D5012D913D914D915C910E9432
:10344000D6330E94A633CD57DF4F6883C358D04090
:10345000CC57DF4F7883C458D040CB57DF4F888399
:10346000C558D040CA57DF4F9883C658D0402091E6
:103470004C0830914D0840914E0850914F08A99644
:103480002CAF3DAF4EAF5FAFA997CA01B901D401D0
:103490002D913D914D915C910E94D6330E94A633AF
:1034A000C957DF4F6883C758D040C857DF4F78836C
:1034B000C858D040C757DF4F8883C958D040C65737
:1034C000DF4F9883CA58D04020915008309151085E
:1034D0004091520850915308A5962CAF3DAF4EAF86
:1034E0005FAFA597CA01B901D3012D913D914D91CF
:1034F0005C910E94D6330E94A633C557DF4F688384
:10350000CB58D040C457DF4F7883CC58D040C357F6
:10351000DF4F8883CD58D040C257DF4F9883CE58B5
:10352000D0408091E01BE82FF0E0A196FFAFEEAF16
:10353000A1978DE490E09F01289FF001299FF00D55
:10354000389FF00D1124E056F74FE45BFF4F1082D7
:10355000EC54F0404091900850919108609192088D
:10356000709193086F964CAF5DAF6EAF7FAF6F9762
:10357000C158DF4F88819981AA81BB81CF57D04044
:10358000841B950BA60BB70B6B968CAF9DAFAEAFA4
:10359000BFAF6B9780839183A283B383B7FF0BC0C8
:1035A000B095A095909581959F4FAF4FBF4F808369
:1035B0009183A283B3832091940830919508409120
:1035C00096085091970867962CAF3DAF4EAF5FAF0E
:1035D0006797CD57DF4F688179818A819B81C35876
:1035E000D040621B730B840B950B63966CAF7DAF61
:1035F0008EAF9FAF63978DE490E0A196AEADBFAD67
:10360000A197A89FF001A99FF00DB89FF00D11247C
:10361000E056F74F63962CAD3DAD4EAD5FAD639771
:10362000248335834683578357FF0DC0DA01C901D0
:10363000B095A095909581959F4FAF4FBF4F8483D4
:103640009583A683B783409198085091990860911B
:103650009A0870919B082F964CAF5DAF6EAF7FAF0D
:103660002F97C957DF4F88819981AA81BB81C7589D
:10367000D040841B950BA60BB70B2B968CAF9DAF40
:10368000AEAFBFAF2B978DE490E0A196AEADBFADCE
:10369000A197A89FF001A99FF00DB89FF00D1124EC
:1036A000E056F74F2B962CAD3DAD4EAD5FAD2B9751
:1036B000208731874287538757FF0DC0DA01C90140
:1036C000B095A095909581959F4FAF4FBF4F808744
:1036D0009187A287B38720909C0830909D084090E6
:1036E0009E0850909F08C557DF4F488159816A81D5
:1036F0007B81CB58D040421953096409750927963C
:103700004CAF5DAF6EAF7FAF2797E0917205F0E0F1
:10371000EE0FFF1FEE0FFF1FEA5EFA4F608171810F
:103720008281938123966CAF7DAF8EAF9FAF23973D
:1037300080911405909115059EAF8DAF27966CADC5
:103740007DAD8EAD9FAD279797FF07C09095809573
:10375000709561957F4F8F4F9F4F0E949D322396AA
:103760002CAD3DAD4EAD5FAD23970E94D6330E9488
:103770006A32ADADBEAD9D01442737FD4095542F53
:103780000E94953424E630E040E050E00E94E934A5
:103790008DE490E0A1966EAD7FADA197689FF0019A
:1037A000699FF00D789FF00D1124E056F74FDF016F
:1037B0001C96248711963C93119712964C9312975E
:1037C00013965C93E080F1800281138164807580A0
:1037D00086809780A084B184C284D384C901DA0131
:1037E0008A159B05AC05BD0514F4D601C5018615E7
:1037F0009705A805B90514F4D401C3019C01AD01D6
:103800008E159F05A007B10714F4A80197018DE458
:1038100090E0A196AEADBFADA197A89FB001A99FC2
:10382000700DB89F700D11246056774FFB01208BEF
:10383000318B428B538B263031054105510510F4F5
:103840000C94B424E85BFF4F809170059091710552
:10385000AA2797FDA095BA2F80839183A283B38373
:10386000DB0190961C92C158DF4F288139814A8133
:103870005B81CF57D0406F968CAD9DADAEADBFADE7
:103880006F97281739074A075B0724F481E0DB01AB
:1038900090968C93CD57DF4F288139814A815B8187
:1038A000C358D04067966CAD7DAD8EAD9FAD679728
:1038B000261737074807590794F48DE490E0A1963E
:1038C000AEADBFADA197A89FF001A99FF00DB89F25
:1038D000F00D1124E056F74F80A1826080A3C957F4
:1038E000DF4F288139814A815B81C758D0402F96AC
:1038F0006CAD7DAD8EAD9FAD2F972617370748076E
:10390000590794F48DE490E0A196AEADBFADA197B8
:10391000A89FF001A99FF00DB89FF00D1124E0566B
:10392000F74F80A1846080A3C557DF4F288139817C
:103930004A815B81CB58D04022153305440555059B
:1039400094F48DE490E0A1964EAD5FADA197489FB1
:10395000F001499FF00D589FF00D1124E056F74FEC
:1039600080A1886080A38DE490E0A1966EAD7FADCC
:10397000A197689FF001699FF00D789FF00D1124C9
:10398000E056F74FE396AEADBFADE3978C9181A3C0
:10399000208131814281538129AF3AAF4BAF5CAF77
:1039A000211531054105510509F0A5988DE490E0F8
:1039B000A1964EAD5FADA197489FF001499FF00DD4
:1039C000589FF00D1124E056F74F64807580868073
:1039D0009780611471048104910441F09FB7F894B9
:1039E000809102018F7E809302019FBF8DE490E061
:1039F000A1966EAD7FADA197689FF001699FF00D14
:103A0000789FF00D1124E056F74FA084B184C28452
:103A1000D384A114B104C104D10441F09FB7F89438
:103A2000809108018E7F809308019FBF8DE490E014
:103A3000A196AEADBFADA197A89FF001A99FF00DD3
:103A4000B89FF00D1124E056F74F84859585A68523
:103A5000B7850097A105B10551F012982090640830
:103A600030906508409066085090670808C0209024
:103A70007C0830907D0840907E0850907F08CB569F
:103A8000DF4F6881C559D040CA56DF4F7881C6598B
:103A9000D040C956DF4F8881C759D040C856DF4F44
:103AA0009881C859D040A20191010E94FE3187FD42
:103AB00016C0CB56DF4F8881C559D040CA56DF4F5C
:103AC0009881C659D040C956DF4FA881C759D04008
:103AD000C856DF4FB881C859D0401C012D016B96E4
:103AE0006CAD7DAD8EAD9FAD6B970E949D32E19622
:103AF0002CAD3DAD4EAD5FADE1970E940232EC962C
:103B00006FAFEC97ED967FAFED97EE968FAFEE9798
:103B1000EF969FAFEF97AC01CB01DA0189839A83CF
:103B2000AB83BC8363966CAD7DAD8EAD9FAD63976B
:103B30000E949D32AD962CAD3DAD4EAD5FADAD97C3
:103B40000E940232E8966FAFE897E9967FAFE99757
:103B5000EA968FAFEA97EB969FAFEB97AC01CB015C
:103B6000DA018D839E83AF83B8872B966CAD7DADD4
:103B70008EAD9FAD2B970E949D32A9962CAD3DAD89
:103B80004EAD5FADA9970E940232E4966FAFE49705
:103B9000E5967FAFE597E6968FAFE697E7969FAFFE
:103BA000E797AC01CB01DA0189879A87AB87BC879D
:103BB00027966CAD7DAD8EAD9FAD27970E949D324F
:103BC000A5962CAD3DAD4EAD5FADA5970E940232DE
:103BD00023962CAD3DAD4EAD5FAD23970E94D633FD
:103BE0007B018C01EDADFEADBF01882777FD80958F
:103BF000982F0E949D329B01AC01C801B7010E9421
:103C0000D63320E030E048EC52E40E9402329B01BF
:103C1000AC016D877E878F87988B69AD7AAD8BAD50
:103C20009CAD66307105810591051CF576E067163F
:103C3000710481049104ECF486E0A816B104C10477
:103C4000D104BCF48DE490E0A196AEADBFADA197D8
:103C5000A89FF001A99FF00DB89FF00D1124E05628
:103C6000F74FDA01C901BF7786A797A7A0ABB1AB21
:103C700055C0EC962FADEC97ED963FADED97EE96D7
:103C80004FADEE97EF965FADEF97B901CA010E9475
:103C900087343B014C01E8962FADE897E9963FAD9C
:103CA000E997EA964FADEA97EB965FADEB97B901CE
:103CB000CA010E9487345B016C01E4962FADE49742
:103CC000E5963FADE597E6964FADE697E7965FAD93
:103CD000E797B901CA010E9487347B018C01C401B6
:103CE000B301A60195010E948731A80197010E94A6
:103CF00087310E943D342DE430E0A1964EAD5FAD9A
:103D0000A197429FF001439FF00D529FF00D1124A7
:103D1000E056F74F66A777A780AB91AB8DE490E0B4
:103D2000A1966EAD7FADA197689F6001699FD00C91
:103D3000789FD00C112480EA98E0C80ED91ED601D5
:103D40009E96ED90FD900D911C91D19760E070E0F2
:103D500080E89FE3A80197010E9402329B01AC0119
:103D6000C201B1010E94D6332B013C01B091E01B8E
:103D7000B8AFE091E11BEFABC801B701A30192011D
:103D80000E94D633D60192966D937D938D939C932A
:103D9000959750966D917D918D919C9153970E942E
:103DA0009B32A30192010E94D6330E94EB310E9404
:103DB0006F32F60160AF71AF82AF93AFC157DF4F83
:103DC0001882CF58D040C057DF4F1882C059D0401A
:103DD00020E8222E9FE3392E88249924E1E0F0E0A8
:103DE000EC0FFD1FE80DF91DC301B20120813181E7
:103DF000428153810E94D633E1E1F0E0EC0FFD1FD8
:103E0000E80DF91D60837183828393835B016C01EC
:103E1000E894D7F8F401EC5AF74FE080F180028182
:103E20001381C601B501A80197010E94A23318169B
:103E3000CCF4C801B701A60195010E9402326B01C2
:103E40007C01C157DF4F6881CF58D040C057DF4F4A
:103E50007881C059D040C101A70196010E94FE316E
:103E600088236CF4C157DF4F8881CF58D040C057AA
:103E7000DF4F9881C059D040D1016C017D0124E011
:103E800030E0820E931E30E18316910471F0D70169
:103E9000C601C157DF4FC882CF58D040C057DF4F4F
:103EA0009883C059D0401D0199CFC701B60120E0C9
:103EB00030E040E85FE30E94FE3188230CF04CC004
:103EC0008E010F5E1F4F81E2A82EB12CAC0EBD1EDD
:103ED000D8016D917D918D919C91A70196010E94D1
:103EE000D633F80161937193819391938F01EA1511
:103EF000FB0571F78DE490E0A1962EAD3FADA19743
:103F0000289F8001299F100D389F100D1124005605
:103F1000174FD80192966D917D918D919C919597B7
:103F2000A70196010E94D633F80162A373A384A36C
:103F300095A360AD71AD82AD93AD0E949B32A70198
:103F400096010E94D6330E946F32D801D8966D93A5
:103F50007D938D939C93DB978DE490E0A196EEADDD
:103F6000FFADA197E89F8001E99F100DF89F100D0C
:103F700011240056174FD80150966D917D918D9167
:103F80009C9153970E949B32F80126A537A540A922
:103F900051A90E9402321B012C01F80180819181FC
:103FA000A281B3810097A105B10549F5848195816E
:103FB000A681B7810097A105B10509F58085918596
:103FC000A285B3850097A105B105C9F4C201B1016D
:103FD00020916C0830916D0840916E0850916F08E7
:103FE0000E94D6330E94EB310C5B1F4F0E946F3250
:103FF000D8016D937D938D939C93139771C1C201EA
:10400000B101209168083091690840916A08509187
:104010006B080E94D6330E94EB310E946F322DE470
:1040200030E0A196EEADFFADA197E29F6001E39F66
:10403000D00CF29FD00C112420EA38E0C20ED31E1F
:10404000B4E46B2E712C6C0C7D1CD3016D937D93AD
:104050008D939C9313978090800890908108A090F6
:104060008208B09083080E949B327B018C01F6018C
:1040700060817181828193810E949D329B01AC019C
:10408000C801B7010E94D6337B018C01D60150963E
:104090006D917D918D919C9153970E949B329B01D4
:1040A000AC01C801B7010E9402327B018C01C5013D
:1040B000B4010E949B329B01AC01C801B7010E9470
:1040C000A23318162CF4F30180829182A282B3826B
:1040D0008090840890908508A0908608B09087080A
:1040E0008DE490E0A1962EAD3FADA197289F600191
:1040F000299FD00C389FD00C112440EA58E0C40E00
:10410000D51EA4E46A2E712C6C0C7D1CD3016D911C
:104110007D918D919C910E949B327B018C01F601D7
:1041200064817581868197810E949D329B01AC01DB
:10413000C801B7010E94D6337B018C01D60150968D
:104140006D917D918D919C9153970E949B329B0123
:10415000AC01C801B7010E9402327B018C01C5018C
:10416000B4010E949B329B01AC01C801B7010E94BF
:10417000A23318162CF4F30180829182A282B382BA
:1041800080908C0890908D08A0908E08B0908F0839
:104190008DE490E0A1962EAD3FADA197289F6001E0
:1041A000299FD00C389FD00C112440EA58E0C40E4F
:1041B000D51EF4E46F2E712C6C0C7D1CD3016D9117
:1041C0007D918D919C910E949B327B018C01F60127
:1041D00064857585868597850E949D329B01AC011B
:1041E000C801B7010E94D6337B018C01D6015096DD
:1041F0006D917D918D919C9153970E949B329B0173
:10420000AC01C801B7010E9402327B018C01C501DB
:10421000B4010E949B329B01AC01C801B7010E940E
:10422000A23318162CF4F30180829182A282B38209
:104230008090880890908908A0908A08B0908B0898
:104240008DE490E0A1962EAD3FADA197289F60012F
:10425000299FD00C389FD00C112440EA58E0C40E9E
:10426000D51EE4E46E2E712C6C0C7D1CD3016D9177
:104270007D918D919C910E949B327B018C01F60176
:1042800060857185828593850E949D329B01AC017A
:10429000C801B7010E94D6337B018C01D60150962C
:1042A0006D917D918D919C9153970E949B329B01C2
:1042B000AC01C801B7010E9402327B018C01C5012B
:1042C000B4010E949B329B01AC01C801B7010E945E
:1042D000A23318162CF4F30180829182A282B38259
:1042E0008DE490E0A1962EAD3FADA197289F60018F
:1042F000299FD00C389FD00C112440EA58E0C40EFE
:10430000D51EF601EC5BFF4F608171818281938144
:104310000E949B327B018C01A20191010E9402321A
:10432000D601D2966D937D938D939C93D597C801BA
:10433000B7012DEB37E346E051E40E94D6330E94EB
:104340006A32F601648F758F868F978F6090700840
:10435000709071088090720890907308C401B30146
:1043600020E030E040E05FE30E94D6335B016C0167
:10437000298D3A8D4B8D5C8D2BAB3CAB4DAB5EAB41
:104380004091740850917508609176087091770893
:104390004FA758AB69AB7AABCB01BA0120E030E054
:1043A00040E05FE30E94D6337B018C016BA97CA9BE
:1043B0008DA99EA99F77A80197010E94A233181684
:1043C00044F4C601B501A80197010E94FE3188237B
:1043D00014F4860175016D8D7E8D8F8D98A16BA76C
:1043E0007CA78DA79EA78091780890917908A091CD
:1043F0007A08B0917B088FA398A7A9A7BAA7BC0198
:10440000CD0120E030E040E05FE30E94D6331B01A5
:104410002C016BA57CA58DA59EA59F77A20191017E
:104420000E94A233181644F4C801B701A2019101F9
:104430000E94FE31882314F4170128018DE490E0D6
:10444000A196AEADBFADA197A89FF001A99FF00DB9
:10445000B89FF00D1124E056F74F22A133A144A1DB
:1044600055A129A33AA34BA35CA3C201B1010E94A9
:10447000FE3187FD04C029A03AA04BA05CA038AD56
:10448000832F90E0805C9F4F4FA9841B91098F730D
:10449000907002970CF405C15091E21BCF56DF4F8C
:1044A0005883C159D0406091E31BCE56DF4F6883DB
:1044B000C259D0407091E41BCD56DF4F7883C35969
:1044C000D0408091E51BCC56DF4F8883C459D04043
:1044D000652FCE56DF4F7881C259D040CD56DF4F81
:1044E0008881C359D040CC56DF4F9881C459D04001
:1044F00027E137EB41ED58E30E94A23318160CF088
:10450000D0C069897A898B899C892091E61B30917A
:10451000E71B4091E81B5091E91B0E9486319B01EB
:10452000AC010E94D6337B018C016D897E898F8915
:10453000988D2091EA1B3091EB1B4091EC1B509120
:10454000ED1B0E9486319B01AC010E94D6339B017A
:10455000AC01C801B7010E9487310E943D347B0144
:104560008C01A40193010E94A23318165CF00F2E57
:10457000F0E06F2EF0E07F2EF0E88F2EFFE39F2E0D
:10458000F02D08C0C401B301A80197010E940232B6
:104590003B014C016BA97CA98DA99EA92091EE1B22
:1045A0003091EF1B4091F01B5091F11B0E9486311E
:1045B0007B018C01E89417F9C801B7012FA538A930
:1045C00049A95AA90E94A233181694F46FA578A994
:1045D00089A99AA9A80197010E9402325B016C0186
:1045E000C401B301A60195010E94FE31882314F491
:1045F000640153016BA57CA58DA59EA52091F21B9E
:104600003091F31B4091F41B5091F51B0E948631B1
:104610007B018C01E89417F9C801B7012FA138A5D7
:1046200049A55AA50E94A233181694F46FA178A543
:1046300089A59AA5A80197010E9402327B018C01ED
:10464000C601B501A80197010E94FE31882314F428
:104650008601750169A17AA18BA19CA1A80197018E
:104660000E94D6337B018C01CF56DF4F6881C15940
:10467000D040CE56DF4F7881C259D040CD56DF4F63
:104680008881C359D040CC56DF4F9881C459D0405F
:10469000A80197010E94FE3187FD19C0D801C7010A
:1046A00002C0D201C101CF56DF4F8883C159D0402B
:1046B000CE56DF4F9883C259D040CD56DF4FA883E6
:1046C000C359D040CC56DF4FB883C459D0408DE495
:1046D00090E0A196AEADBFADA197A89F8001A99F24
:1046E000100DB89F100D11240056174FCF56DF4FF5
:1046F0008881C159D040CE56DF4F9881C259D040F1
:10470000CD56DF4FA881C359D040CC56DF4FB8817A
:10471000C459D040F80182A793A7A4A7B5A762A95E
:1047200073A984A995A9905820E030E040E050ECAE
:104730000E94D633D8019E962D913D914D915C916A
:10474000D1970E94D6332BE037ED43E25BE30E9422
:1047500087310E943D34F62EE72ED82EC92ECF5633
:10476000DF4F6881C159D040CE56DF4F7881C259A2
:10477000D040CD56DF4F8881C359D040CC56DF4F53
:104780009881C459D0402F2D3E2D4D2D5C2D0E9477
:10479000FE3187FD14C0CF56DF4FF882C159D0409B
:1047A000CE56DF4FE882C259D040CD56DF4FD88277
:1047B000C359D040CC56DF4FC882C459D0408DE495
:1047C00090E0A196EEADFFADA197E89F8001E99F33
:1047D000100DF89F100D11240056174FCF56DF4FC4
:1047E0008881C159D040CE56DF4F9881C259D04000
:1047F000CD56DF4FA881C359D040CC56DF4FB8818A
:10480000C459D040F80186A397A3A0A7B1A762A17D
:1048100073A184A195A12F2D3E2D4D2D5C2D0E94BD
:10482000FE3118162CF081E0D801D7968C9302C087
:10483000F80117AA8DE490E0A1962EAD3FADA197A7
:10484000289FF001299FF00D389FF00D1124E056AC
:10485000F74F81E086ABA6EEBBE1FE01719680E1E9
:1048600001900D928150E1F78DE490E0A1964EAD5C
:104870005FADA197489F6001499FD00C589FD00C15
:10488000112460EA78E0C60ED71ED6019296ED900C
:10489000FD900D911C919597E092E21BF092E31B25
:1048A0000093E41B1093E51B96966D917D918D917D
:1048B0009C919997A80197010E9402324B015C01DB
:1048C000C201B101A80197010E9402328B019C0133
:1048D000C601B501A4010E940A17BDA1B093E01B57
:1048E000C557DF4F288139814A815B81CB58D04041
:1048F00020939C0830939D0840939E0850939F08F6
:10490000C957DF4F488159816A817B81C758D040A0
:10491000409398085093990860939A0870939B0865
:10492000CD57DF4F688179818A819B81C358D04000
:1049300060939408709395088093960890939708D5
:10494000C158DF4F88819981AA81BB81CF57D04060
:104950008093900890939108A0939208B093930845
:104960000E948E190E94D124C856DF4F0FB6F894CA
:10497000DEBF0FBECDBFCF91DF911F910F91FF9092
:10498000EF90DF90CF90BF90AF909F908F907F90EF
:104990006F905F904F903F902F90089580932705E0
:1049A0000895EFE6F0E080818260808308956D9A3B
:1049B000A1E0B1E08C9188608C93EAE0F1E0808125
:1049C000826080830E9A3B9A9D9AA59A8C91806111
:1049D0008C939FB7F894E2E0F1E08081806180835E
:1049E0009FBFE7E0F1E08081816080839FB7F8940A
:1049F000E8E0F1E08081816080839FBF0A9A129A8B
:104A00003F9A479A6C9A7498A59A10921C056B9AD3
:104A100073989FB7F894E2E0F1E080818061808331
:104A20009FBF10921D05EAE0F1E0808188608083DD
:104A30009FB7F894EBE0F1E08081877F80839FBF90
:104A40009FB7F894E8E0F1E08081816080839FBFA8
:104A500010921E050C9A1498129A399A4198A1E85E
:104A6000B0E08C918F7E8C938C9188608C93E0E881
:104A7000F0E080818D7F808380818E7F8083808144
:104A80008F73808380818F7C80838C91887F82600C
:104A90008C9380E090E4909389008093880010923A
:104AA000850010928400EFE6F0E0808182608083D0
:104AB00081E080932705789408951F920F920FB696
:104AC0000F920BB60F921124AF92BF92CF92DF924A
:104AD000EF92FF920F931F932F933F934F935F9308
:104AE0006F937F938F939F93AF93BF93CF93DF93F6
:104AF000EF93FF938091F61B9091F71B892B09F0A0
:104B00008BC19091E01B8091E11B981719F4E0E0B4
:104B1000F0E014C08091E11B90E02DE430E0829F32
:104B2000F001839FF00D929FF00D1124E056F74F96
:104B3000E45BFF4F81E08083EC54F040F093F71B7F
:104B4000E093F61B309709F461C1E45BFF4F81E00D
:104B50008083EC54F0401092241C1092251C10927B
:104B6000261C1092271C60AD71AD2CE961347207D0
:104B700018F060E47CE904C03EE46132730730F071
:104B8000769567957695679584E007C047E2613131
:104B9000740730F07695679582E080931D1C07C0FE
:104BA00080931D1C6032710510F460E270E0EB012F
:104BB000A09758E0C030D507E8F04D2F50E0440FE3
:104BC000551F440F551F4A515D4F9A012E5F3F4FAD
:104BD000F901859194919C01AA27C39FC001C29FAE
:104BE000810D9A1F06948A1F9A1F1124FA0145917C
:104BF00054911EC0CE01969587958C7F8A51994F0E
:104C0000FC0145915491FC013296259134918C2FF1
:104C100090E087709070BC01269FC001279F900D87
:104C2000369F900D1124A3E096958795AA95E1F7FC
:104C3000481B590B4436510578F48FE39CE16FEE25
:104C400074E00E94EF2E8FE39CE1BE014AE050E049
:104C50000E947E2E44E650E05093291C4093281C6D
:104C600080911D1C992787FD909590932B1C809314
:104C70002A1CE091F61BF091F71B64AD75AD7093A3
:104C8000231C6093221C8CE96134780718F060E4DF
:104C90007CE904C09EE46132790730F0769567952F
:104CA0007695679584E007C0E7E261317E0730F0D2
:104CB0007695679582E080931D1C08C081E0809303
:104CC0001D1C6032710510F460E270E0EB01A097EA
:104CD000F8E0C030DF07E8F04D2F50E0440F551FDB
:104CE000440F551F4A515D4F9A012E5F3F4FF90106
:104CF000859194919C01AA27C39FC001C29F810DF9
:104D00009A1F06948A1F9A1F1124FA014591549103
:104D10001EC0CE01969587958C7F8A51994FFC01D4
:104D200045915491FC013296259134918C2F90E05D
:104D300087709070BC01269FC001279F900D369F01
:104D4000900D112433E0969587953A95E1F7481B2D
:104D5000590B4436510578F48FE39CE16FEE74E013
:104D60000E94EF2E8FE39CE1BE014AE050E00E94DA
:104D70007E2E44E650E0CA01A0E0B0E080931E1C05
:104D800090931F1CA093201CB093211C509389006A
:104D900040938800E091F61BF091F71B8089918980
:104DA000A289B389B695A79597958795B095A09553
:104DB000909581959F4FAF4FBF4F8093081C909364
:104DC000091CA0930A1CB0930B1C80930C1C90939D
:104DD0000D1CA0930E1CB0930F1C8093101C90937D
:104DE000111CA093121CB093131C8093141C90935D
:104DF000151CA093161CB093171C1092181C10922F
:104E0000191C10921A1C10921B1C06C080ED97E012
:104E10009093890080938800C091F61BD091F71B76
:104E2000209709F4B6C388A180931C1C282F80FF0B
:104E300003C075988FEF02C0759A81E080932305B7
:104E400021FF0AC08FB7F894909102019860909367
:104E500002018FBF8FEF09C08FB7F89490910201C4
:104E6000977F909302018FBF81E08093240522FFFA
:104E70000AC08FB7F89490910B019D7F90930B011E
:104E80008FBF8FEF09C08FB7F89490910B0192609C
:104E900090930B018FBF81E08093250523FF06C00F
:104EA000169A8FEF8093260560E05EC1169881E028
:104EB000F9CF288139814A815B818091081C9091CA
:104EC000091CA0910A1CB0910B1C280F391F4A1F06
:104ED0005B1F2093081C3093091C40930A1C5093BD
:104EE0000B1C12161306140615066CF5749A8889A5
:104EF0009989AA89BB89281B390B4A0B5B0B209324
:104F0000081C3093091C40930A1C50930B1C2091E1
:104F1000F81B3091F91B4091FA1B5091FB1B8091BB
:104F20002305992787FD9095A92FB92F820F931FED
:104F3000A41FB51F8093F81B9093F91BA093FA1B35
:104F4000B093FB1B74982C813D814E815F818091D1
:104F50000C1C90910D1CA0910E1CB0910F1C280FE1
:104F6000391F4A1F5B1F20930C1C30930D1C40936C
:104F70000E1C50930F1C12161306140615066CF522
:104F8000739A88899989AA89BB89281B390B4A0B8E
:104F90005B0B20930C1C30930D1C40930E1C509304
:104FA0000F1C2091FC1B3091FD1B4091FE1B50916A
:104FB000FF1B80912405992787FD9095A92FB92F74
:104FC000820F931FA41FB51F8093FC1B9093FD1BA2
:104FD000A093FE1BB093FF1B7398288539854A85E3
:104FE0005B858091101C9091111CA091121CB091B6
:104FF000131C280F391F4A1F5B1F2093101C30936E
:10500000111C4093121C5093131C12161306140605
:105010001506DCF59FB7F89480910B0188608093AA
:105020000B019FBF88899989AA89BB89281B390BE5
:105030004A0B5B0B2093101C3093111C4093121CE5
:105040005093131C2091001C3091011C4091021CB4
:105050005091031C80912505992787FD9095A92FD4
:10506000B92F820F931FA41FB51F8093001C90932C
:10507000011CA093021CB093031C9FB7F89480916D
:105080000B01877F80930B019FBF2C853D854E854B
:105090005F858091141C9091151CA091161CB091F5
:1050A000171C280F391F4A1F5B1F2093141C3093B5
:1050B000151C4093161C5093171C12161306140649
:1050C00015066CF5149A88899989AA89BB89281BC9
:1050D000390B4A0B5B0B2093141C3093151C409327
:1050E000161C5093171C2091041C3091051C4091F4
:1050F000061C5091071C80912605992787FD9095E5
:10510000A92FB92F820F931FA41FB51F8093041CD2
:105110009093051CA093061CB093071C14988091D3
:10512000181C9091191CA0911A1CB0911B1C01967F
:10513000A11DB11D8093181C9093191CA0931A1CDB
:10514000B0931B1C2091181C3091191C40911A1C03
:1051500050911B1C88899989AA89BB89281739070E
:105160004A075B0730F46F5F80911D1C68170CF4D1
:10517000A0CE2091181C3091191C40911A1C5091FE
:105180001B1C8C899D89AE89BF8982179307A40750
:10519000B50708F4DDC0E0901E1CF0901F1C0091C4
:1051A000201C1091211CAC8CBD8CCE8CDF8CA801F6
:1051B0009701C601B501AA27279FB12D389FF0019D
:1051C000489FF00D479FE00DF11D289FB00DE11D98
:1051D000FA1F379FB00DE11DFA1F469FB00DE11D6C
:1051E000FA1F369FB10DEA1FFA1FB695EA1FFA1F84
:1051F00011248CAD9DAD8E0F9F1F9093231C809327
:10520000221C28AD39AD4AAD5BADA0E0B0E0281757
:1052100039074A075B0720F43093231C2093221C94
:105220006091221C7091231C8CE96134780718F07E
:1052300060E47CE904C09EE46132790730F0769541
:1052400067957695679584E007C0E7E261317E0750
:1052500030F07695679582E080931D1C08C081E050
:1052600080931D1C6032710510F460E270E0EB0168
:10527000A097F8E0C030DF07E8F04D2F50E0440F72
:10528000551F440F551F4A515D4F9A012E5F3F4FE6
:10529000F901859194919C01AA27C39FC001C29FE7
:1052A000810D9A1F06948A1F9A1F1124FA014591B5
:1052B00054911EC0CE01969587958C7F8A51994F47
:1052C000FC0145915491FC013296259134918C2F2B
:1052D00090E087709070BC01269FC001279F900DC1
:1052E000369F900D1124A3E096958795AA95E1F736
:1052F000481B590B4436510578F48FE39CE16FEE5F
:1053000074E00E94EF2E8FE39CE1BE014AE050E082
:105310000E947E2E44E650E050938900409388001E
:105320009A0140E050E080911E1C90911F1CA091BA
:10533000201CB091211C820F931FA41FB51F8093C6
:105340001E1C90931F1CA093201CB093211CFCC01A
:105350002091181C3091191C40911A1C50911B1C53
:10536000888D998DAA8DBB8D82179307A407B507E9
:1053700008F0DEC06091241C7091251C8091261CD1
:105380009091271C2C8D3D8D4E8D5F8DAA27639F9C
:10539000B12D749FF001849FF00D839FE00DF11DEE
:1053A000649FB00DE11DFA1F739FB00DE11DFA1F40
:1053B000829FB00DE11DFA1F729FB10DEA1FFA1F07
:1053C000B695EA1FFA1F11248091221C9091231C8C
:1053D0008E179F0738F4C05CDF4F68817981C05415
:1053E000D04003C0BC016E1B7F0BC05CDF4F288127
:1053F00039814A815B81CB01A0E0B0E0821793073D
:10540000A407B50708F4B9018CE96134780718F0EE
:1054100060E47CE904C09EE46132790730F076955F
:1054200067957695679584E007C0E7E261317E076E
:1054300030F07695679582E080931D1C08C081E06E
:1054400080931D1C6032710510F460E270E0EB0186
:10545000A097F8E0C030DF07E8F04D2F50E0440F90
:10546000551F440F551F4A515D4F9A012E5F3F4F04
:10547000F901859194919C01AA27C39FC001C29F05
:10548000810D9A1F06948A1F9A1F1124FA014591D3
:1054900054911EC0CE01969587958C7F8A51994F65
:1054A000FC0145915491FC013296259134918C2F49
:1054B00090E087709070BC01269FC001279F900DDF
:1054C000369F900D112423E0969587952A95E1F754
:1054D000481B590B4436510578F48FE39CE16FEE7D
:1054E00074E00E94EF2E8FE39CE1BE014AE050E0A1
:1054F0000E947E2E44E650E050938900409388003D
:105500009A0140E050E08091241C9091251CA091CC
:10551000261CB091271C820F931FA41FB51F8093D8
:10552000241C9093251CA093261CB093271C0CC010
:105530008091281C9091291C909389008093880069
:1055400080912A1C80931D1C2091181C3091191CDD
:1055500040911A1C50911B1CE091F61BF091F71B17
:1055600080899189A289B389281739074A075B077F
:1055700080F01092F71B1092F61B9091E01B809127
:10558000E11B981731F08091E11B8F5F8F7380933F
:10559000E11BFF91EF91DF91CF91BF91AF919F916F
:1055A0008F917F916F915F914F913F912F911F91BB
:1055B0000F91FF90EF90DF90CF90BF90AF900F9042
:1055C0000BBE0F900FBE0F901F9018951F920F9259
:1055D0000FB60F920BB60F9211242F933F934F9358
:1055E0005F936F937F938F939F93AF93BF93EF934B
:1055F000FF93E091301CF091311C1995FF91EF91D0
:10560000BF91AF919F918F917F916F915F914F91DA
:105610003F912F910F900BBE0F900FBE0F901F90D8
:1056200018958091381C9091391CA0913A1CB0912A
:105630003B1C0196A11DB11D8093381C9093391C11
:10564000A0933A1CB0933B1C8091381C9091391C5C
:10565000A0913A1CB0913B1C2091321C3091331C1C
:105660004091341C5091351C82179307A407B5074D
:1056700010F180913C1C8823F1F481E080933C1C64
:105680008091381C9091391CA0913A1CB0913B1C20
:10569000821B930BA40BB50B8093381C9093391C81
:1056A000A0933A1CB0933B1CE091361CF091371C40
:1056B000199510923C1C08951F920F920FB60F92ED
:1056C0000BB60F9211242F933F934F935F936F93D9
:1056D0007F938F939F93AF93BF93EF93FF938091AB
:1056E0003D1C90913E1C8093B2000E94112BFF91B3
:1056F000EF91BF91AF919F918F917F916F915F914A
:105700004F913F912F910F900BBE0F900FBE0F90B6
:105710001F901895DC015C968C915C97FD01E80F59
:10572000F11DE35AFF4F20815C968C915C9790E0CD
:1057300001968F7390705C968C935C975696ED9162
:10574000FC91579720835096ED91FC915197808161
:10575000806480835B969C915B975C968C915C9750
:10576000981739F45296ED91FC91539780818F7D73
:1057700080830895DF92EF92FF920F931F93CF9350
:10578000DF93EC017A018B01D22EE889F98982E05E
:105790008083403081EE580780E0680780E078071A
:1057A000A1F060E079E08DE390E0A80197010E940C
:1057B000C73421503040404050405695479537956A
:1057C000279580E12030380798F0E889F989108220
:1057D00060E874E88EE190E0A80197010E94C73468
:1057E0002150304040405040569547953795279579
:1057F000EC85FD853083EE85FF852083188EEC894E
:10580000FD89D082EA89FB89808180618083EA8971
:10581000FB89808188608083EA89FB898081806838
:105820008083EA89FB8980818F7D8083DF91CF919E
:105830001F910F91FF90EF90DF900895FC01218D53
:10584000828D30E0205C3F4F281B31092F73307070
:10585000C9010895FC01918D828D981719F42FEFDD
:105860003FEF06C0828DE80FF11D858D282F30E0B7
:10587000C9010895DC0159969C9159975A968C91CB
:105880005A97981719F42FEF3FEF10C05A968C9142
:105890005A97FD01E80FF11D958D5A968C915A97F4
:1058A0008F5F8F735A968C93292F30E0C90108952A
:1058B000CF93DF93EC01888D882361F419C08C911C
:1058C00085FF0AC0E889F989808185FF05C0CE017E
:1058D0000E948A2BAA89BB898C9185FD05C0E88925
:1058E000F989808186FD04C00FB607FEE8CFF4CFAA
:1058F000DF91CF9108950F931F93CF93DF93EC0126
:10590000062F9B8D8C8D981791F5E889F9898081F8
:1059100085FF2DC0EE89FF896083E889F989808140
:10592000806480831DC00FB607FC08C0E889F98930
:10593000808185FF03C0CE010E948A2B8C8D1817B1
:1059400091F38B8DFE01E80FF11DE35AFF4F0083A9
:105950001B8FEA89FB8980818062808381E0888F48
:1059600081E090E0DF91CF911F910F9108951B8D01
:105970001F5F1F73E3CF81E79DE2892B51F080E029
:1059800090E0892B31F00E94712D882311F00E9444
:10599000000080E090E0892B51F080E090E0892BBE
:1059A00031F00E940000882311F00E94000080E086
:1059B00090E0892B51F080E090E0892B31F00E943B
:1059C0000000882311F00E94000080E090E0892B05
:1059D00051F080E090E0892B31F00E940000882394
:1059E00011F00E94000008951F920F920FB60F92BF
:1059F0000BB60F9211242F938F939F93EF93FF93E6
:105A0000E0914F1CF091501C808182FD16C0E09106
:105A1000551CF091561C20819091581C9F5F9F73DC
:105A20008091591C981771F0E091581CF0E0E15CEE
:105A3000F34E258F9093581C05C0E091551CF091B2
:105A4000561CE081FF91EF919F918F912F910F90C4
:105A50000BBE0F900FBE0F901F9018951092421C16
:105A60001092411C88EE93E0A0E0B0E08093431CCC
:105A70009093441CA093451CB093461C80E695E08F
:105A80009093401C80933F1C85EC90E090934C1CBD
:105A900080934B1C84EC90E090934E1C80934D1CA3
:105AA00080EC90E09093501C80934F1C81EC90E030
:105AB0009093521C8093511C82EC90E09093541C64
:105AC0008093531C86EC90E09093561C8093551C59
:105AD0001092581C1092591C10925A1C10925B1C68
