:100000000C944A060C9477060C9477060C947706A9
:100010000C9477060C9477060C9477060C9477066C
:100020000C9477060C9477060C9477060C9477065C
:100030000C9477060C9477060C9477060C94A52BF9
:100040000C9477060C94C4240C9477060C947706D1
:100050000C942F2B0C9477060C9477060C9431306B
:100060000C9477060C943D2D0C94C42D0C947706BB
:100070000C9477060C9477060C9477060C9477060C
:100080000C9477060C9477060C9477060C947706FC
:100090000C9477060C9477060C9477060C947706EC
:1000A0000C9477060C9477060C9477060C947706DC
:1000B0000C9477060C9477060C9477060C947706CC
:1000C0000C9477060C9477060C9477060C947706BC
:1000D0000C9477060C9477060C9477060C947706AC
:1000E0000C9477066563686F3A0048617264636FC9
:1000F0006465642044656661756C7420536574742E
:10010000696E6773204C6F6164656400205A00203B
:10011000590020204D323036205800486F6D652040
:100120006F666673657420286D6D293A002045005E
:10013000205A0020580020420020540020204D3238
:100140003035205300416476616E636564207661CA
:10015000726961626C65733A20533D4D696E206629
:100160006565647261746520286D6D2F73292C207C
:10017000543D4D696E2074726176656C20666565CC
:10018000647261746520286D6D2F73292C20423DA7
:100190006D696E696D756D207365676D656E742030
:1001A00074696D6520286D73292C20583D6D617828
:1001B000696D756D205859206A65726B20286D6DC8
:1001C0002F73292C20205A3D6D6178696D756D2043
:1001D0005A206A65726B20286D6D2F73292C2020A0
:1001E000453D6D6178696D756D2045206A65726B5E
:1001F00020286D6D2F73290020540020204D3230AF
:1002000034205300416363656C65726174696F6E7D
:100210003A20533D616363656C65726174696F6E0A
:100220002C20543D72657472616374206163636550
:100230006C65726174696F6E00204500205A002061
:10024000590020204D3230312058004D6178696DC1
:10025000756D20416363656C65726174696F6E20B2
:10026000286D6D2F7332293A00204500205A002056
:10027000590020204D3230332058004D6178696D8F
:10028000756D2066656564726174657320286D6D97
:100290002F73293A00204500205A002059002020C1
:1002A0004D39322058005374657073207065722088
:1002B000756E69743A004572726F723A004D313151
:1002C000300045313A200045303A20005A3A2000AB
:1002D000593A2000583A20004D53312C4D533220CA
:1002E00050696E730A0024F404D9201BC40C5C0E00
:1002F0009804C4095F0265077101F405F900FB0465
:10030000B30048048700C103690058035500030384
:100310004500BE023A008402310053022A0029023D
:10032000250004022000E4011C00C8011900AF01EF
:10033000170098011400840113007101100061017D
:10034000100051010E0043010D0036010B002B017E
:100350000B0020010B00150109000C01090003012D
:100360000800FB000800F3000800EB000700E400B1
:100370000600DE000600D8000600D2000600CC0011
:100380000500C7000500C2000500BD000400B9005B
:100390000400B5000400B1000400AD000400A90091
:1003A0000400A5000300A20003009F0004009B00BE
:1003B00003009800030095000200930003009000E2
:1003C00003008D0002008B000300880002008600FD
:1003D000020084000300810002007F0002007D0013
:1003E00002007B0002007900020077000100760025
:1003F00002007400020072000100710002006F0030
:1004000002006D0001006C0002006A00010069003A
:100410000200670001006600010065000100640041
:1004200002006200010061000100600001005F0045
:1004300002005D0001005C0001005B0001005A0049
:10044000010059000100580001005700010056004A
:10045000010055000100540001005300000053004A
:1004600001005200010051000100500001004F0046
:1004700001004E0000004E0001004D0001004C0044
:1004800001004B0000004B0001004A000100490040
:10049000010048000000480001004700010046003C
:1004A0000000460001004500000045000100440036
:1004B0000100430000004300010042000000420030
:1004C00001004100000041000100400001003F0028
:1004D00000003F0001003E0000003E0001003D0022
:1004E00000003D0001003C0000003C0000003C001A
:1004F00001003B0000003B0001003A0000003A0010
:100500000100390000003900010038000000380007
:1005100000003800010037000000370001003600FD
:1005200000003600000036000100350000003500F4
:1005300000003500010034000000340000003400E9
:1005400001003300000033000000330001003200DE
:1005500000003200000032000100310000003100D4
:1005600000003100010030000000300000003000C9
:1005700001002F0000002F0000002F0000002F00BE
:1005800001002E0000002E0000002E0001002D00B2
:1005900000002D0000002D0000002D0001002C00A7
:1005A00000002C0000002C0000002C0001002B009B
:1005B00000002B0000002B0000002B0001002A008F
:1005C00000002A0000002A0000002A000100290083
:1005D0000000290000002900000029000000290077
:1005E000010028000000280000002800000028006A
:1005F000000028000100270000002700000027005D
:10060000000027000000270001002600000026004F
:100610000000260000002600000026000100250042
:100620000000250000002500000025000000250036
:100630000000250001002400000024000000240028
:10064000000024000000240001002300000023001B
:10065000000023000000230000002300000023000E
:100660000000230001002200000022000000220000
:1006700000002200000022000000220001002100F2
:1006800000002100000021000000210000002100E6
:1006900000002100000021000100200000002000D7
:1006A00000002000000020000000200000002000CA
:1006B000000020000000200001001F0000001F00BB
:1006C00000001F0000001F0000001F0000001F00AE
:1006D00000001F0001001E0000001E0000001E00A0
:1006E00000001E00000024F4D43050C38E20C2A2AB
:1006F0004017828B7011127A910D816CD90AA86112
:10070000E108C7586607615143061E4B5D05C145A8
:10071000A7041A411104093D980371393103403689
:10072000DB0265339102D4305402802E1D02632C0B
:10073000EE01752AC501B028A001102781018F257F
:1007400064012B244B01E0223401AC211F018D20D8
:100750000D01801FFC00841EED00971DDF00B81CFA
:10076000D200E61BC600201BBC00641AB200B219FE
:10077000A8000A19A0006A189900D1179100401723
:100780008B00B516840031167E00B31579003A153A
:100790007300C7146F0058146A00EE1366008813C4
:1007A000630025135E00C7125B006C125700151220
:1007B0005400C111510070114F0021114B00D6108F
:1007C00049008D1047004610440002104200C00F3F
:1007D0004000800F3E00420F3C00060F3B00CB0E56
:1007E0003800930E37005C0E3500270E3400F30DF1
:1007F0003200C10D3100900D3000600D2E00320D21
:100800002D00050D2C00D90C2B00AE0C2900850CF9
:1008100029005C0C2700350C27000E0C2600E80B85
:100820002400C40B2400A00B23007D0B23005A0BD3
:100830002100390B2100180B2000F80A1F00D90AEB
:100840001E00BB0A1E009D0A1D00800A1D00630ACF
:100850001C00470A1B002C0A1B00110A1A00F7098A
:100860001A00DD091900C4091900AB091900920921
:1008700017007B091800630917004C091600360998
:100880001600200916000A091500F5081500E008F1
:100890001400CC081400B8081400A4081400900830
:1008A00013007D0812006B08130058081200460858
:1008B0001200340811002308110012081100010869
:1008C0001100F0071000E0071000D0071000C0076B
:1008D0001000B0070F00A107100091070E0083075A
:1008E0000F0074070F0065070E0057070E00490739
:1008F0000E003B070D002E070E0020070D0013070A
:100900000D0006070D00F9060C00ED060D00E006CF
:100910000C00D4060C00C8060C00BC060C00B00687
:100920000C00A4060B0099060C008D060B00820635
:100930000B0077060B006C060B0061060A005706D9
:100940000B004C060A0042060A0038060A002E0672
:100950000A0024060A001A060A0010060900070603
:100960000A00FD050900F4050900EB050900E20590
:100970000900D9050900D0050900C7050900BE0511
:100980000900B5050800AD050800A50509009C058E
:100990000800940508008C050800840508007C0503
:1009A0000800740508006C050700650508005D0572
:1009B0000700560508004E050700470507004005DB
:1009C000080038050700310507002A050700230540
:1009D00007001C050600160507000F05070008059F
:1009E000060002050700FB040600F5040700EE04FC
:1009F0000600E8040600E2040700DB040600D50454
:100A00000600CF040600C9040600C3040600BD04A6
:100A10000600B7040600B1040500AC040600A604F5
:100A20000600A00405009B04060095040500900440
:100A300006008A04050085040500800406007A0487
:100A4000050075040500700405006B0405006604CC
:100A50000500610405005C0405005704050052040C
:100A600005004D04050048040500430405003E044C
:100A700004003A04050035040500300404002C0489
:100A8000050027040400230405001E0404001A04C2
:100A9000040016040500110404000D0404000904F8
:100AA00005000404040000040400FC030400F8032F
:100AB0000400F4030400F0030400EC030400E80362
:100AC0000400E4030400E0030400DC030400D80392
:100AD0000400D4030400D0030400CC030400C803C2
:100AE0000300C50303006563686F3A00656E6473B5
:100AF000746F7073206869743A205A00205A3A0063
:100B0000656E6473746F7073206869743A2059005D
:100B100020593A00656E6473746F7073206869744D
:100B20003A20580020583A00656E6473746F7073F1
:100B3000206869743A200000002100240027002A60
:100B4000002D003000330001010000040107010AFC
:100B50000100002200250028002B002E0031003467
:100B60000002010000050108010B01000020002324
:100B700000260029002C002F003200000100000395
:100B80000106010901050505050705080808080211
:100B90000202020A0A080804040404010101010116
:100BA0000101010303030303030303040707070C05
:100BB0000C0C0C0C0C0C0C020202020606060606BB
:100BC0000606060B0B0B0B0B0B0B0B010210202068
:100BD0000808102040102040800201020108040291
:100BE0000101020408102040808040201008040207
:100BF0000180040201804020100804020108040260
:100C00000101020408102040800102040810204065
:100C1000800000090A02080B0C0D070603040100FE
:100C200000000000000000000000000000000000C4
:100C30000000000000000000000000000011100F84
:100C400000000000000000000000000000000000A4
:100C500000000000000000494E46494E4954594EDC
:100C6000414ECDCCCC3D0AD7233C17B7D13877CCF9
:100C70002B329595E6241FB14F0A00002041000059
:100C8000C84200401C4620BCBE4CCA1B0E5AAEC512
:100C90009D74772D11241FBECFEFD1E2DEBFCDBFF3
:100CA00000E00CBF15E0A0E0B2E0E6E5FBE600E006
:100CB0000BBF02C007900D92A431B107D9F71BBE3C
:100CC0001CE1A4E1B5E001C01D92A23AB107E1F731
:100CD0001CE0C4E9DCE004C02297FE010E946335F9
:100CE000C239D107C9F70E9422300C94A9350C945F
:100CF0000000A0E0B0E0EFE7F6E00C947835EC01FE
:100D00005B016115710519F0FB0191838083F990F6
:100D10008F2D90E00E946735892BC9F7FDE2FF1601
:100D200021F4F990EE24E39405C02BE2F21609F4C5
:100D3000F990EE248E0101501040C80167E57CE077
:100D400043E050E00E940809892B01F58E010E5FF7
:100D50001F4FC8016AE57CE045E050E00E940809A9
:100D6000892B19F48E01095F1F4FA114B10419F0EA
:100D7000F50111830083E0FC04C070E090E080E89E
:100D800014C070E090E080E86FEF08C1C8016FE523
:100D90007CE043E050E00E940809892B69F4A1142B
:100DA000B10429F470E090E080EC6FE7F7C0229680
:100DB000F501D183C083F6CF8824992440E050E028
:100DC00060E070E0EF2DE053EA30A0F5F2E0EF2AAA
:100DD0008E2D90E09C0128703070E2FE06C0232B1F
:100DE00079F50894811C911C2BC0232B19F00894D1
:100DF00081089108DB01CA0112E0880F991FAA1F20
:100E0000BB1F1A95D1F7480F591F6A1F7B1F440F4C
:100E1000551F661F771F4E0F511D611D711D4839EB
:100E200029E9520729E9620729E1720748F084E0BD
:100E3000E82A06C0EE3F31F4E3FC39C098E0E92A25
:100E4000F990C0CFE53311F0E53189F529912D32C4
:100E500019F4E0E1EE2A05C02B3219F081E090E0B0
:100E600003C0299182E090E0E22FE053EA3018F0CD
:100E7000C81BD90B1CC020E030E0FCE020383F0745
:100E80005CF4C901880F991F880F991F280F391F1B
:100E9000220F331F2E0F311DE991E053EA3068F322
:100EA000E4FE03C0309521953F4F820E931ECE2C59
:100EB000DD24E1FE07C0A114B10421F02197F50162
:100EC000D183C083CB01BA010E94E4327B018C0143
:100ED000F3E0CF22DD2423E0C216D10421F417FB76
:100EE000109517F9109557016801C801B70120E066
:100EF00030E040E050E00E944732882309F44AC0C5
:100F000097FE0DC026E7E22E2CE0F22E90948194FD
:100F100091089394C0E2D0E000E010E012C09EE897
:100F2000E92E9CE0F92EF6CFF701259135914591F8
:100F30005491C601B5010E941F345B016C018C1AEB
:100F40009D0A8C169D0684F7D595C7950F5F1F4F98
:100F50000630110529F08CEF9FEFE80EF91EF1CF56
:100F6000C501D6017C018D018C2D880F8D2D881F28
:100F70008F3F51F0C601B50120E030E040E050E085
:100F80000E944732882331F482E290E09093A11CC2
:100F90008093A01C7E2D9F2D802F612F272F392F0E
:100FA000482F562FB901CA01CDB7DEB7ECE00C943B
:100FB00094352F923F925F926F927F928F929F9281
:100FC000AF92BF92CF92DF92EF92FF920F931F9357
:100FD000CF93DF938C011B01EA016115710519F0B4
:100FE000FB0191838083209749F0CE01029783977C
:100FF00028F020E030E040E050E0F6C0F801A19099
:101000008F018A2D90E00E946735892BB9F7FDE2A8
:10101000AF1631F4F801A1908F015524539407C005
:10102000FBE2AF1619F4F801A1908F015524209727
:1010300019F0C031D105C1F4F0E3AF1679F4F8012D
:101040008081883711F0883549F4F801A1800E5F5E
:101050001F4FF2E05F2AC0E1D0E006C0209721F4E4
:1010600080E3A816E9F427C0C830D10531F1C930B2
:10107000D10524F4C230D10531F50CC0CA30D105F8
:1010800089F0C031D105F9F4C12CD12CE12CB8E0A4
:10109000FB2E28C0C12CD12CE12CA0E4FA2E22C0BA
:1010A000CAE0D0E0FCECCF2EFCECDF2EFCECEF2E07
:1010B000FCE0FF2E17C0C8E0D0E0C12CD12CE12C01
:1010C000E0E1FE2E0FC09E01442737FD4095542FCE
:1010D00060E070E080E090E80E941035C901DA011C
:1010E0006C017D0120E030E040E050E060E03E0136
:1010F000882477FC8094982C70EDB72EBA0CE9E028
:10110000EB1570F48A2D81548A3118F499ECB92EBC
:1011100006C08A2D81568A3150F589EAB82EBA0C5C
:101120008B2D90E08C179D0714F56F3FE1F0C216F0
:10113000D306E406F506B0F0CA01B901A401930193
:101140000E94DE349B01AC012B0D311D411D511D50
:101150002130F0E03F07F0E04F07F0E85F0710F4C0
:1011600061E001C06FEFF801A1908F01C5CF21149C
:10117000310481F0662331F001501040F1011183F8
:10118000008308C051FE1AC002501040F1011183C3
:10119000008314C067FF12C050FC05C02FEF3FEF63
:1011A0004FEF5FE704C020E030E040E050E882E22B
:1011B00090E09093A11C8093A01C16C050FE08C024
:1011C00050954095309521953F4F4F4F5F4F0CC044
:1011D00057FF0AC082E290E09093A11C8093A01C6C
:1011E0002FEF3FEF4FEF5FE7B901CA01DF91CF91DA
:1011F0001F910F91FF90EF90DF90CF90BF90AF9035
:101200009F908F907F906F905F903F902F90089568
:10121000FB01DC014150504088F08D9181341CF07D
:101220008B350CF4805E659161341CF06B350CF4E9
:10123000605E861B611171F3990B0895881BFCCFCA
:10124000FB0155915523A9F0BF01DC014D914517D4
:101250004111E1F759F4CD010590002049F04D917D
:1012600040154111C9F3FB014111EFCF81E090E03E
:1012700001970895FC018191861721F08823D9F701
:10128000992708953197CF0108950F931F93DF9306
:10129000CF93CDB7DEB7E0970FB6F894DEBF0FBEA1
:1012A000CDBFDE011196EFEEF4E080E101900D92EA
:1012B0008150E1F7DE015196EFEDF4E080E101901D
:1012C0000D928150E1F7DE019196EFECF4E080E1C0
:1012D00001900D928150E1F789819A81AB81BC81A7
:1012E0008093EC079093ED07A093EE07B093EF0780
:1012F00089899A89AB89BC898093DC079093DD0743
:10130000A093DE07B093DF0789A19AA1ABA1BCA18E
:101310008093FC079093FD07A093FE07B093FF070F
:101320008D819E81AF81B8858093F0079093F107FE
:10133000A093F207B093F3078D899E89AF89B88D8A
:101340008093E0079093E107A093E207B093E3074F
:101350008DA19EA1AFA1B8A580930008909301082C
:10136000A0930208B093030889859A85AB85BC8554
:101370008093F4079093F507A093F607B093F707CF
:10138000898D9A8DAB8DBC8D8093E4079093E50792
:10139000A093E607B093E70789A59AA5ABA5BCA5DE
:1013A0008093040890930508A0930608B09307085B
:1013B0008D859E85AF85B8898093F8079093F9074E
:1013C000A093FA07B093FB078D8D9E8DAF8DB8A1CA
:1013D0008093E8079093E907A093EA07B093EB079F
:1013E0008DA59EA5AFA5B8A980930808909309087C
:1013F000A0930A08B0930B080E94A51480E090E81F
:10140000ABE3B5E48093100890931108A093120801
:10141000B09313088093140890931508A0931608AE
:10142000B093170820E030E040E050E020930C0833
:1014300030930D0840930E0850930F0880E29EE40D
:10144000A0E0B0E08093D8079093D907A093DA0783
:10145000B093DB0720932408309325084093260897
:101460005093270880E090E0A0EAB1E48093180848
:1014700090931908A0931A08B0931B0880931C0836
:1014800090931D08A0931E08B0931F088093200816
:1014900090932108A0932208B0932308209333054A
:1014A00030933405409335055093360520932F052E
:1014B00030933005409331055093320520932B052E
:1014C00030932C0540932D0550932E05E4EEF0E06B
:1014D00064918F010BC0772767FD70958AEF9BE1C0
:1014E0000E94C42C0F5F1F4FF8016491662399F787
:1014F000EAEEF0E064918F010BC0772767FD7095ED
:101500008AEF9BE10E94C42C0F5F1F4FF80164918A
:10151000662399F78AEF9BE16AE00E94C42CE0966B
:101520000FB6F894DEBF0FBECDBFCF91DF911F91F4
:101530000F9108950F931F93CF93DF9304EE10E064
:10154000F8016491E8010AC0772767FD70958AEF7A
:101550009BE10E94C42C2196FE0164916623A1F7B1
:10156000E6EAF2E06491EF010AC0772767FD709523
:101570008AEF9BE10E94C42C2196FE0164916623B0
:10158000A1F78AEF9BE16AE00E94C42CF801649104
:10159000C4EED0E00AC0772767FD70958AEF9BE123
:1015A0000E94C42C2196FE0164916623A1F740910C
:1015B000EC075091ED076091EE077091EF078EE90F
:1015C00092E00E94E8114091F0075091F10760917C
:1015D000F2077091F3078BE992E00E94E8114091C5
:1015E000F4075091F5076091F6077091F70788E9C5
:1015F00092E00E94E8114091F8075091F90760913C
:10160000FA077091FB0785E992E00E94E8118AEFE2
:101610009BE160E072E00E94382F8AEF9BE16AE074
:101620000E94C42CF8016491C4EED0E00AC0772770
:1016300067FD70958AEF9BE10E94C42C2196FE0104
:1016400064916623A1F7EBE7F2E06491EF010AC031
:10165000772767FD70958AEF9BE10E94C42C219645
:10166000FE0164916623A1F78AEF9BE16AE00E9484
:10167000C42CF8016491C4EED0E00AC0772767FD5E
:1016800070958AEF9BE10E94C42C2196FE01649123
:101690006623A1F74091DC075091DD076091DE07DA
:1016A0007091DF0782E792E00E94E8114091E00725
:1016B0005091E1076091E2077091E3078FE692E0B5
:1016C0000E94E8114091E4075091E5076091E60718
:1016D0007091E7078CE692E00E94E8114091E807DC
:1016E0005091E9076091EA077091EB0789E692E073
:1016F0000E94E8118AEF9BE160E072E00E94382FBF
:101700008AEF9BE16AE00E94C42CF8016491C4EE68
:10171000D0E00AC0772767FD70958AEF9BE10E94B1
:10172000C42C2196FE0164916623A1F7EBE4F2E05C
:101730006491EF010AC0772767FD70958AEF9BE1FE
:101740000E94C42C2196FE0164916623A1F78AEFC2
:101750009BE16AE00E94C42CF8016491C4EED0E0E1
:101760000AC0772767FD70958AEF9BE10E94C42C21
:101770002196FE0164916623A1F74091FC075091E8
:10178000FD076091FE077091FF0782E492E00E94DE
:10179000C1114091000850910108609102087091B8
:1017A00003088FE392E00E94C11140910408509118
:1017B000050860910608709107088CE392E00E948A
:1017C000C111409108085091090860910A08709170
:1017D0000B0889E392E00E94C1118AEF9BE160E06F
:1017E00072E00E94382F8AEF9BE16AE00E94C42CCD
:1017F000F8016491C4EED0E00AC0772767FD7095C8
:101800008AEF9BE10E94C42C2196FE01649166231D
:10181000A1F7E4E0F2E06491EF010AC0772767FDE9
:1018200070958AEF9BE10E94C42C2196FE01649181
:101830006623A1F78AEF9BE16AE00E94C42CF801BD
:101840006491C4EED0E00AC0772767FD70958AEFF7
:101850009BE10E94C42C2196FE0164916623A1F7AE
:10186000409110085091110860911208709113086E
:101870008BEF91E00E94E8114091140850911508F7
:10188000609116087091170888EF91E00E94E811A6
:101890008AEF9BE160E072E00E94382F8AEF9BE1C3
:1018A0006AE00E94C42CF8016491C4EED0E00AC042
:1018B000772767FD70958AEF9BE10E94C42C2196E3
:1018C000FE0164916623A1F7E5E4F1E06491EF0184
:1018D0000AC0772767FD70958AEF9BE10E94C42CB0
:1018E0002196FE0164916623A1F78AEF9BE16AE0ED
:1018F0000E94C42CF8016491C4EED0E00AC077279E
:1019000067FD70958AEF9BE10E94C42C2196FE0131
:1019100064916623A1F740910C0850910D086091E5
:101920000E0870910F088CE391E00E94E81140913D
:10193000240850912508609126087091270889E3B2
:1019400091E00E94E8114091D8075091D907609129
:10195000DA077091DB0786E391E00E94C1114091A4
:1019600018085091190860911A0870911B0883E3B8
:1019700091E00E94E81140911C0850911D0860916F
:101980001E0870911F0880E391E00E94E8114091C9
:1019900020085091210860912208709123088DE25F
:1019A00091E00E94E8118AEF9BE160E072E00E9402
:1019B000382F8AEF9BE16AE00E94C42CF801649101
:1019C000C4EED0E00AC0772767FD70958AEF9BE1EF
:1019D0000E94C42C2196FE0164916623A1F7EBE1DD
:1019E000F1E06491EF010AC0772767FD70958AEFF7
:1019F0009BE10E94C42C2196FE0164916623A1F70D
:101A00008AEF9BE16AE00E94C42CF8016491C4EE65
:101A1000D0E00AC0772767FD70958AEF9BE10E94AE
:101A2000C42C2196FE0164916623A1F740912B05F9
:101A300050912C0560912D0570912E0582E191E069
:101A40000E94E81140912F055091300560913105B9
:101A5000709132058FE091E00E94E81140913305CA
:101A60005091340560913505709136058CE091E018
:101A70000E94E8118AEF9BE160E072E00E94382F3B
:101A80008AEF9BE16AE00E94C42CDF91CF911F9105
:101A90000F910895FC011082118212821382148228
:101AA0001582168217821086118612861386148676
:101AB000158616861786108A118A128A138A148A46
:101AC0008BEC9DEDA0E1B3E4858B968BA78BB08F5B
:101AD00080E090E0A0E0B0E0818F928FA38FB48F80
:101AE000858F968FA78FB0A381A392A3A3A3B4A33E
:101AF00085A396A3A7A3B0A780E494E5A9E0BBE4DF
:101B000081A792A7A3A7B4A780E090E4ACE1B8E4D2
:101B100085A796A7A7A7B0AB80E090E0A8E4B3E4C0
:101B200081AB92ABA3ABB4AB15AA16AA17AA10AEA1
:101B30000895FC0183E08083118212821382148253
:101B400015821682178210861186128613861486D5
:101B5000158616861786108A118A128A138A148AA5
:101B600087E69AEFAEE2B3E4858B968BA78BB08FB6
:101B700020E030E040E050E0218F328F438F548FDF
:101B800080E391EAADEBB2E4858F968FA78FB0A387
:101B900021A332A343A354A325A336A347A350A74D
:101BA00080E090EAACE0B6E481A792A7A3A7B4A72F
:101BB00080E090E4ACE1B8E485A796A7A7A7B0AB16
:101BC00080E090E0AAE7B4E481AB92ABA3ABB4AB06
:101BD00015AA16AA17AA81E080AF089540912006A1
:101BE0005091210620E630E0B901469F9001479FC1
:101BF000300D569F300D1124682F772767FD7095A3
:101C0000C9018E5D994F0E943A099C019093A307E8
:101C10008093A20780E0232B09F081E00895809152
:101C2000A2079091A307019660E070E00E947906F8
:101C30000895AF92BF92CF92DF92EF92FF920F93EF
:101C40001F93CF93DF939BE1A92E95E0B92E84EAF1
:101C5000C82E87E0D82EC0E0D0E0FE01E150FB4F57
:101C600080810E94EE0D882311F10E940F0E7B01EE
:101C70008C01FE01EC5EFA4F608170E0882777FDF1
:101C80008095982F0E94E632F501208131814281B2
:101C900053810E941F349B01AC01C801B7010E940F
:101CA000D031F60160837183828393830AC0F5018A
:101CB00080819181A281B381F60180839183A28387
:101CC000B383219684E090E0A80EB91EC80ED91EF9
:101CD000C430D10511F686E40E94EE0D8823E1F0B0
:101CE0000E940F0E7B018C016093B4077093B507BF
:101CF0008093B6079093B70720E030E040E050E0D3
:101D00000E94EB33181644F4E092C604F092C70424
:101D10000093C8041093C904DF91CF911F910F91D4
:101D2000FF90EF90DF90CF90BF90AF9008952F92EB
:101D30003F924F925F926F927F928F929F92AF925B
:101D4000BF92CF92DF92EF92FF920F931F93DF9398
:101D5000CF93CDB7DEB7A4970FB6F894DEBF0FBE12
:101D6000CDBF0E9479306093C4077093C5078093FC
:101D7000C6079093C707EE24FF246E010894C11C88
:101D8000D11C86010E0D1F1DF701EC55F84FD70130
:101D9000A55EBA4F60817181828193812D913D91C1
:101DA0004D915C910E94CF31D8016D937D938D93BD
:101DB0009C931397E4E0F0E0EE0EFF1EF0E1EF16C7
:101DC000F104F9F689819A81AB81BC818D8F9E8F58
:101DD000AF8FB8A38D819E81AF81B885898F9A8F8F
:101DE000AB8FBC8F89859A85AB85BC858D8B9E8B8F
:101DF000AF8BB88F6D8D7E8D8F8D98A19B01AC01BF
:101E00000E941F347B018C01698D7A8D8B8D9C8D96
:101E10009B01AC010E941F349B01AC01C801B701BA
:101E20000E94D0317B018C016D897E898F89988DCC
:101E30009B01AC010E941F349B01AC01C801B7019A
:101E40000E94D0310E9486347B018C012DEB37E358
:101E500046E855E30E944732882394F4ED84FE84DB
:101E60000F851889C801B70120E030E040E050E05C
:101E70000E94EB33181624F017FB109517F91095F4
:101E8000C801B7012DEB37E346E855E30E9447321E
:101E900087FD7AC16091C1047091C204882777FDE3
:101EA0008095982F0E94E6325B016C01C801B70152
:101EB00020E030E84BEB55E40E941F342091C6042B
:101EC0003091C7044091C8045091C9040E944B321C
:101ED0007B018C016091B9047091BA04882777FD69
:101EE0008095982F0E94E6329B01AC01C801B70192
:101EF0000E944B329B01AC01C601B5010E941F3408
:101F00000E94B3327C8B6B8B1616170624F0A1E06F
:101F1000B0E0BC8BAB8BE1E0F0E0FA8BE98B8B8916
:101F20009C89AA2797FDA095BA2F89A39AA3ABA352
:101F3000BCA3E2C0A989BA89BD01882777FD809535
:101F4000982F0E94E6327B018C0169A17AA18BA1B6
:101F50009CA10E94E6329B01AC01C801B7010E941E
:101F60004B321B012C016D8D7E8D8F8D98A1A201AE
:101F700091010E941F3420911B0530911C05409156
:101F80001D0550911E050E94D0313B014C01CB0133
:101F9000D4018093A4079093A507A093A607B093BC
:101FA000A707698D7A8D8B8D9C8DA20191010E946E
:101FB0001F3420911F05309120054091210550913B
:101FC00022050E94D0315B016C01CB01D6018093C8
:101FD000A8079093A907A093AA07B093AB076D89B0
:101FE0007E898F89988DA20191010E941F342091D2
:101FF00023053091240540912505509126050E9426
:10200000D0317B018C01CB01D8018093AC07909338
:10201000AD07A093AE07B093AF07C201B1012D8504
:102020003E854F8558890E941F349B01AC01609109
:102030002705709128058091290590912A050E9415
:10204000D0316093B0077093B1078093B20790933B
:10205000B307C301D4018093B8079093B907A09345
:10206000BA07B093BB07C501D6018093BC07909314
:10207000BD07A093BE07B093BF07C701D8018093E7
:10208000C0079093C107A093C207B093C3076091A4
:10209000B9047091BA04882777FD8095982F0E9423
:1020A000E6322091C6043091C7044091C804509193
:1020B000C9040E941F3420E030E040E752E40E944F
:1020C0004B3220E030E048EC52E40E944B327B017E
:1020D0008C0188EB97E06CEB77E040EC57E020EB6D
:1020E00037E0EAE1CE2EE5E0DE2E0E940719E9890D
:1020F000FA893196FA8BE98B29893A898B899C89EF
:10210000821793070CF016CF8091A4079091A50732
:10211000A091A607B091A70780931B0590931C057B
:10212000A0931D05B0931E058091A8079091A90763
:10213000A091AA07B091AB0780931F05909320054B
:10214000A0932105B09322058091AC079091AD0733
:10215000A091AE07B091AF0780932305909324051B
:10216000A0932505B09326058091B0079091B10703
:10217000A091B207B091B3078093270590932805EB
:10218000A0932905B0932A05A4960FB6F894DEBF54
:102190000FBECDBFCF91DF911F910F91FF90EF90B8
:1021A000DF90CF90BF90AF909F908F907F906F9077
:1021B0005F904F903F902F90089587E161E00E94DB
:1021C0009C31089586E161E00E94E93087E161E099
:1021D0000E94E93088E161E00E94E9308CE161E031
:1021E0000E94E9308DE161E00E94E9308EE161E01A
:1021F0000E94E93089E161E00E94E9308AE161E012
:102200000E94E9308BE161E00E94E93082E061E008
:102210000E94E93083E061E00E94E93084E061E0FF
:102220000E94E93085E061E00E94E93086E061E0EB
:102230000E94E93087E061E00E94E93089E260E0D5
:102240000E94E9308DE260E00E94E93081E360E0C5
:102250000E94E93080E360E00E94E9308FE260E0B4
:102260000E94E9308BE260E00E94E93085E360E0A3
:102270000E94E93084E360E00E94E93083E360E09B
:102280000E94E93082E360E00E94E93089E261E087
:102290000E949C318DE261E00E949C3181E361E00B
:1022A0000E949C3180E361E00E949C318FE261E0FA
:1022B0000E949C318BE261E00E949C3185E361E0E9
:1022C0000E949C3184E361E00E949C3183E361E0E1
:1022D0000E949C3182E361E00E949C3180E261E0D7
:1022E0000E94E93084E261E00E94E93088E261E026
:1022F0000E94E9308FE161E00E94E93083E261E011
:102300000E94E93082E260E00E94E93086E260E00B
:102310000E94E9308AE260E00E94E93081E260E0F8
:102320000E94E93085E260E00E94E9308DE061E0E2
:102330000E94E93008950E94E2100E94DD108AEFA9
:102340009BE140E052EC61E070E026E00E94032C4B
:102350008AEA95E00E944A0D83EE95E00E944A0DBC
:1023600081E795E00E94990D88E395E00E94990D20
:102370000E9445090E949A0A0E9444160E943F2426
:102380000895EF92FF920F931F93CF93DF93EC0189
:102390007A018B01FC0164910AC0772767FD709573
:1023A0008AEF9BE10E94C42C2196FE016491662372
:1023B000A1F78AEF9BE1B801A7012AE030E00E9473
:1023C000B82EDF91CF911F910F91FF90EF9008955C
:1023D000EF92FF920F931F93CF93DF93EC017A015B
:1023E0008B01FC0164910AC0772767FD70958AEF25
:1023F0009BE10E94C42C2196FE0164916623A1F703
:102400008AEF9BE1B801A70122E030E00E941F3073
:10241000DF91CF911F910F91FF90EF9008950F934F
:102420001F930AEF1BE1C8010E94A12C40911C06DA
:1024300050911D0660911E0670911F064F5F5F4F01
:102440006F4F7F4FC8012AE030E00E94E42EC801A0
:102450006AE00E94C42C1F910F91089587E40E94A6
:10246000EE0D882319F10E940F0E0E94B33277FD02
:1024700048C0623071052CF06C31710509F041C023
:1024800009C0809137058823E1F50E94190E0E944A
:10249000970E08958AEF9BE162E674E00E94382F60
:1024A0008AEF9BE16AE00E94C42C08958DE40E94AB
:1024B000EE0D882331F10E940F0E0E94B33261317C
:1024C000710521F062317105E1F40DC08AEF9BE1E5
:1024D00060E874E00E94382F8AEF9BE16AE00E9476
:1024E000C42C5F9808958AEF9BE169E874E00E942C
:1024F000382F8AEF9BE16AE00E94C42C5F9A109209
:10250000C3040895DF92EF92FF920F931F93CF932E
:10251000DF93A0E6EA2EF12CDD24D394B5C14D3033
:1025200071F04A3321F48091C907882341F020914A
:10253000CA073091CB072F3531050CF487C1E091E4
:10254000CA07F091CB07309719F41092C907CEC192
:10255000A091CC07B091CD07AE9D8001AF9D100D2D
:10256000BE9D100D1124E00FF11FEE5DF94F10829A
:102570008091C907882309F064C11092C907A2534A
:10258000B84F1C92E801CE5DD94FCE016EE470E0E9
:102590000E943A099C01009709F4DFC09093A307B9
:1025A0008093A2072F5F3F4F2C1B3D0B200F311F45
:1025B000C9018E5D994F60E070E04AE050E00E94F2
:1025C000D9076093D2077093D3078093D407909371
:1025D000D50720911C0630911D0640911E06509192
:1025E0001F062F5F3F4F4F4F5F4F621773078407E0
:1025F000950709F461C18091CC079091CD079C01AA
:102600002E9DC0012F9D900D3E9D900D11248E5D3D
:10261000994F6DEB72E00E942009892B09F04CC1A3
:10262000E6EBF2E06491EF010AC0772767FD709551
:102630008AEF9BE10E94C42C2196FE0164916623DF
:10264000A1F740911C0650911D0660911E067091E5
:102650001F068AEF9BE12AE030E00E94E42E8AEF19
:102660009BE16AE00E94C42C4091D2075091D307AD
:102670006091D4077091D5078AEF9BE12AE030E0A2
:102680000E94242F40C01E274F5FFC01E40FF11D64
:10269000EE5DF94FE081EA32B1F73093A307209362
:1026A000A207C901019660E070E00E9479060E94CD
:1026B000B332212F30E02617370709F43DC0E6EB8F
:1026C000F2E06491EF010AC0772767FD70958AEF09
:1026D0009BE10E94C42C2196FE0164916623A1F720
:1026E00040911C0650911D0660911E0670911F06B8
:1026F0008AEF9BE12AE030E00E94E42E8AEF9BE122
:102700006AE00E94C42C0E940F121092CB07109214
:10271000CA07ECC0E6EBF2E06491EF010AC077274C
:1027200067FD70958AEF9BE10E94C42C2196FE0103
:1027300064916623A1F7D4CF8091D2079091D307FB
:10274000A091D407B091D50780931C0690931D06E5
:10275000A0931E06B0931F062CC0CE016AE270E063
:102760000E943A09009729F1E6EBF2E06491EF014B
:102770000AC0772767FD70958AEF9BE10E94C42C01
:102780002196FE0164916623A1F740911C065091A9
:102790001D0660911E0670911F068AEF9BE12AE0DC
:1027A00030E00E94E42E8AEF9BE16AE00E94C42C94
:1027B000ACCF8091CC079091CD078E9D80018F9DED
:1027C000100D9E9D100D1124E801CE5DD94FCE0154
:1027D00067E470E00E943A099C01009789F09093A9
:1027E000A3078093A2072F5F3F4F2C1B3D0B200FA9
:1027F000311FC9018E5D994F60E070E00E9479063B
:102800008AEF9BE163E974E00E94382F8AEF9BE135
:102810006AE00E94C42C8091CC079091CD0701966C
:1028200064E070E00E94FD349093CD078093CC0764
:102830008091D6079091D70701969093D707809300
:10284000D6071092CB071092CA071EC04B3311F463
:10285000D092C9078091C9078823B1F48091CC0731
:102860009091CD078E9DF0018F9DF00D9E9DF00DF6
:102870001124E20FF31FEE5DF94F40832F5F3F4FAE
:102880003093CB072093CA078AEF9BE10E94672C05
:10289000181619065CF58091D6079091D707049712
:1028A0002CF58AEF9BE10E94832C482F8093C80768
:1028B0008A3009F034CE43CE8091CC079091CD0779
:1028C0008E9DE0018F9DD00D9E9DD00D1124CE01D7
:1028D0008E5D994F6AE270E00E943A099C01009770
:1028E00009F418CF10E040E0CE01CFCEDF91CF91B8
:1028F0001F910F91FF90EF90DF9008958091D60780
:102900009091D707039714F40E9482128091D60702
:102910009091D707892BC1F00E942E128091D60783
:102920009091D70701979093D7078093D60780910E
:10293000200690912106019664E070E00E94FD342B
:10294000909321068093200608950F931F93CF93B1
:10295000DF93C0E0D0E08E01085D174FFE01E45028
:10296000F84F60817181828193810E94E432FE017F
:10297000E451F84F20813181428153810E941F34FC
:102980000E94B832F8016083718382839383249616
:10299000C031D10501F7DF91CF911F910F910895BB
:1029A0008F929F92AF92BF92CF92DF92EF92FF925F
:1029B0000F931F93CF93DF93EC016B01009709F402
:1029C0005CC08FA9882309F058C0EEA0FFA008A51D
:1029D00019A5FB01B6A0A7A090A481A4C801B701C6
:1029E0002B2D3A2D492D582D0E94473288230CF06B
:1029F00044C0C801B701A80197010E941F347B01A0
:102A00008C016AA97BA98CA99DA9905820E030E08F
:102A100040E050EC0E941F342EA53FA548A959A9BB
:102A20000E941F349B01AC01C801B7010E94D03144
:102A30000E9486347B018C016B2D7A2D892D982D77
:102A40009701A8010E944732882324F4EB2CFA2C2A
:102A5000092D182D6B2D7A2D892D982D9701A80100
:102A60000E944732882349F0C701D801F60186A3A6
:102A700097A3A0A7B1A781E086ABDF91CF911F916B
:102A80000F91FF90EF90DF90CF90BF90AF909F900D
:102A90008F900895EF92FF920F931F93CF93DF9340
:102AA000F090891B00E010E020E030E04DE4E42EDF
:102AB00012C0FE9CE0011124C85BD74FC901B801C8
:102AC000AE010E94D0148F2D8F5F803409F480E016
:102AD000F82E98018E018091881BF81651F7C901D4
:102AE000B80140E050E00E94D014DF91CF911F91D7
:102AF0000F91FF90EF900895AF92BF92CF92DF9227
:102B0000EF92FF920F931F93CF93DF93EB018A0114
:102B10006115710509F466C04115510509F462C0DB
:102B2000DAA4CBA4BCA4ADA46EA17FA188A599A56D
:102B30002D2D3C2D4B2D5A2D0E944732882309F410
:102B400051C08FA9882309F043C0F801E6A0F7A07F
:102B500000A511A56D2D7C2D8B2D9A2DA801970117
:102B60000E94EB331816A4F5C801B701A80197011C
:102B70000E941F347B018C016AA97BA98CA99DA9A5
:102B8000905820E030E040E050EC0E941F342EA529
:102B90003FA548A959A90E941F349B01AC01C80157
:102BA000B7010E94D0310E9486347B018C016D2DCB
:102BB0007C2D8B2D9A2D9701A8010E9447328823E6
:102BC00024F4ED2CFC2C0B2D1A2DC701D80104C0C8
:102BD0008D2D9C2DAB2DBA2D8EA39FA3A8A7B9A791
:102BE00081E08EABDF91CF911F910F91FF90EF901D
:102BF000DF90CF90BF90AF900895CF92DF92EF9289
:102C0000FF920F93DF93CF930F920F92CDB7DEB762
:102C10008091881B8FB7F894F090891B8FBF8091AB
:102C2000881B90E0805C9F4F8F1991098F73907083
:102C3000049704F10091881B03500F73CC24DD240A
:102C400040E050E06DE4E62E13C0802F002309F42D
:102C500080E4082F01500E9DC0011124885B974F1E
:102C60009A838983B6010E947C15A601C980DA8007
:102C70000F1559F70F900F90CF91DF910F91FF90A3
:102C8000EF90DF90CF9008951092881B1092891BCF
:102C900080E1E8E3F8E0DF011D928A95E9F780E042
:102CA00090E0A0E0B0E080938E1B90938F1BA093E8
:102CB000901BB093911B8093921B9093931BA093B6
:102CC000941BB093951B8093961B9093971BA09396
:102CD000981BB093991B80939A1B90939B1BA09376
:102CE0009C1BB0939D1B80938A1B90938B1BA0937E
:102CF0008C1BB0938D1B08952F923F924F925F9241
:102D00006F927F928F929F92AF92BF92CF92DF92FB
:102D1000EF92FF920F931F93DF93CF93CDB7DEB760
:102D200066970FB6F894DEBF0FBECDBF9E8B8D8B1E
:102D30006A017B0148015901DC01D8966D917D91B2
:102D40008D919C91DB970E94E432698B7A8B8B8BFF
:102D50009C8BA70196010E941F340E9434320E946E
:102D6000B8326D837E838F83988769897A898B894E
:102D70009C89A50194010E941F340E9434320E9454
:102D8000B83269837A838B839C832D813E814F8106
:102D90005885283731054105510540F448E750E092
:102DA00060E070E04D835E836F83788769817A810C
:102DB0008B819C81683771058105910540F488E716
:102DC00090E0A0E0B0E089839A83AB83BC83AD89B7
:102DD000BE89AC5BBF4FAD90BD90CD90DC9013979A
:102DE000A454B040BE8BAD8B6D817E818F81988560
:102DF0000E94E4326D877E878F87988BC601B5016C
:102E00000E94E6321B012C0120E030E040E050E05F
:102E10000E944732882321F4E0E070E060E028C09F
:102E200069897A898B899C899B01AC010E941F3436
:102E30007B018C016D857E858F8598899B01AC0116
:102E40000E941F349B01AC01C801B7010E94CF3121
:102E50007B018C01C201B101A20191010E94D0311C
:102E60009B01AC01C801B7010E944B32E62F692FCC
:102E70002E2F372F482F562FB901CA010E94343206
:102E80000E94B3323B014C0169817A818B819C8124
:102E90000E94E43269877A878B879C876627772729
:102EA000CB016A197B098C099D090E94E6325B01FE
:102EB0006C0120E030E040E050E00E94473288237F
:102EC00021F4E0E070E060E028C069857A858B85B8
:102ED0009C859B01AC010E941F347B018C01698998
:102EE0007A898B899C899B01AC010E941F349B01CC
:102EF000AC01C801B7010E94CF317B018C01C60132
:102F0000B501A60195010E94D0319B01AC01C80119
:102F1000B7010E944B32E62F692F2E2F372F482FF3
:102F2000562FB901CA010E942133ED89FE89A0887C
:102F3000B188C288D38886017501E618F7080809A8
:102F400019090E94B332A8019701261B370B480BC1
:102F5000590B57FF71C0C201B10120E030E040E0E1
:102F600050E00E944732882321F4E0E070E060E006
:102F700044C0C201B101A20191010E94D0317B0184
:102F80008C01C601B5010E94E4329B01AC01C8016D
:102F9000B7010E941F347B018C016D857E858F8572
:102FA00098899B01AC010E941F349B01AC01C801B0
:102FB000B7010E94CF317B018C0169857A858B85B1
:102FC0009C859B01AC010E941F349B01AC01C80190
:102FD000B7010E94D0317B018C01C201B10120E018
:102FE00030E040E850E40E941F349B01AC01C8016E
:102FF000B7010E944B32E62F692F2E2F372F482F13
:10300000562FB901CA010E9434320E94B332AC017A
:10301000CB01DA013C014D0197FE03C06624772401
:1030200043016A147B048C049D0410F035014601B1
:1030300020E030E040E050E09FB7F8946D897E8951
:10304000645B7F4FDB018C91AC54B040BE8BAD8B89
:10305000882321F5FD01648A758A868A978A260D60
:10306000371D481D591D58962D933D934D935C93E4
:103070005B972D813E814F815885DC962D933D9342
:103080004D935C93DF97A05CBF4F29813A814B81C0
:103090005C812D933D934D935C9313979FBF6696F0
:1030A0000FB6F894DEBF0FBECDBFCF91DF911F9159
:1030B0000F91FF90EF90DF90CF90BF90AF909F90D7
:1030C0008F907F906F905F904F903F902F900895DA
:1030D0004F925F927F928F929F92AF92BF92CF92C8
:1030E000DF92EF92FF920F931F93CF93DF93709035
:1030F000891BC0E0D0E07DE4472E512C46C02097CC
:10310000B1F18EA9882361F4849CF001859CF00DB7
:10311000949CF00D1124E85BF74F86A9882339F1C0
:10312000EAA0FBA00CA11DA16EA17FA188A599A575
:10313000A80197010E944B325B016C01849CF00155
:10314000859CF00D949CF00D1124E85BF74F66A16F
:1031500077A180A591A5A80197010E944B328B0110
:103160009C01CE01B601A5010E947C161EAA739493
:1031700080E4781609F47724849CE001859CD00DC6
:10318000949CD00D1124C85BD74F872C992487FCC1
:1031900090948091881B90E08816990609F0AFCF33
:1031A0002097F1F0EAA0FBA00CA11DA16EA17FA1C8
:1031B00088A599A5A80197010E944B325B016C017B
:1031C0006DEC7CEC8CE49DE3A80197010E944B32EE
:1031D0008B019C01CE01B601A5010E947C161EAA9E
:1031E000DF91CF911F910F91FF90EF90DF90CF90E3
:1031F000BF90AF909F908F907F905F904F90089579
:103200000E94FD150E944A150E94681808952F9289
:103210003F924F925F926F927F928F929F92AF9266
:10322000BF92CF92DF92EF92FF920F931F93DF93A3
:10323000CF93CDB7DEB7C859D0400FB6F894DEBFF4
:103240000FBECDBFFC015B014A013901CB56DF4FF8
:10325000E882C559D040CA56DF4FF882C659D040DF
:10326000C956DF4F0883C759D040C856DF4F18836F
:10327000C859D040E396DFAECEAEE3978091881B6D
:103280008F5F803409F480E0282F332727FD3095A5
:103290003EA32DA38091891B90E04DA15EA18417D0
:1032A0009507C1F36091EC077091ED078091EE07EF
:1032B0009091EF07E1966CAF7DAF8EAF9FAFE19736
:1032C00020813181428153810E941F340E94EF335B
:1032D000C158DF4F6883CF57D040C058DF4F788345
:1032E000C058D040CF57DF4F8883C158D040CE5709
:1032F000DF4F9883C258D0408091F0079091F1073A
:10330000A091F207B091F307AD968CAF9DAFAEAF31
:10331000BFAFAD97BC01CD01D5012D913D914D9130
:103320005C910E941F340E94EF33CD57DF4F6883BA
:10333000C358D040CC57DF4F7883C458D040CB57C8
:10334000DF4F8883C558D040CA57DF4F9883C6588F
:10335000D0402091F4073091F5074091F607509145
:10336000F707A9962CAF3DAF4EAF5FAFA997CA0143
:10337000B901D4012D913D914D915C910E941F3472
:103380000E94EF33C957DF4F6883C758D040C857F2
:10339000DF4F7883C858D040C757DF4F8883C9585C
:1033A000D040C657DF4F9883CA58D0402091F807C5
:1033B0003091F9074091FA075091FB07A5962CAF81
:1033C0003DAF4EAF5FAFA597CA01B901D3012D91B3
:1033D0003D914D915C910E941F340E94EF33C5577F
:1033E000DF4F6883CB58D040C457DF4F7883CC5829
:1033F000D040C357DF4F8883CD58D040C257DF4FEE
:103400009883CE58D0408091881BE82FF0E0A19699
:10341000FFAFEEAFA1978DE490E09F01289FF001F0
:10342000299FF00D389FF00D1124E85BF74FE45B06
:10343000FF4F1082EC54F040409138085091390809
:1034400060913A0870913B086F964CAF5DAF6EAFDC
:103450007FAF6F97C158DF4F88819981AA81BB8167
:10346000CF57D040841B950BA60BB70B6B968CAF38
:103470009DAFAEAFBFAF6B9780839183A283B383C1
:10348000B7FF0BC0B095A095909581959F4FAF4F1A
:10349000BF4F80839183A283B38320913C083091F6
:1034A0003D0840913E0850913F0867962CAF3DAFD4
:1034B0004EAF5FAF6797CD57DF4F688179818A81C3
:1034C0009B81C358D040621B730B840B950B639692
:1034D0006CAF7DAF8EAF9FAF63978DE490E0A19608
:1034E000AEADBFADA197A89FF001A99FF00DB89F09
:1034F000F00D1124E85BF74F63962CAD3DAD4EAD5A
:103500005FAD6397248335834683578357FF0DC090
:10351000DA01C901B095A095909581959F4FAF4F65
:10352000BF4F84839583A683B78340914008509111
:10353000410860914208709143082F964CAF5DAFEF
:103540006EAF7FAF2F97C957DF4F88819981AA81CE
:10355000BB81C758D040841B950BA60BB70B2B968D
:103560008CAF9DAFAEAFBFAF2B978DE490E0A1962F
:10357000AEADBFADA197A89FF001A99FF00DB89F78
:10358000F00D1124E85BF74F2B962CAD3DAD4EAD01
:103590005FAD2B97208731874287538757FF0DC038
:1035A000DA01C901B095A095909581959F4FAF4FD5
:1035B000BF4F80879187A287B387209044083090BF
:1035C00045084090460850904708C557DF4F48814E
:1035D00059816A817B81CB58D040421953096409D3
:1035E000750927964CAF5DAF6EAF7FAF2797E0911F
:1035F0001A05F0E0EE0FFF1FEE0FFF1FE354FB4F25
:10360000608171818281938123966CAF7DAF8EAF93
:103610009FAF23978091BB049091BC049EAF8DAF68
:1036200027966CAD7DAD8EAD9FAD279797FF07C0F8
:1036300090958095709561957F4F8F4F9F4F0E9419
:10364000E63223962CAD3DAD4EAD5FAD23970E9483
:103650001F340E94B332ADADBEAD9D01442737FD8E
:103660004095542F0E94DE3424E630E040E050E0E4
:103670000E9432358DE490E0A1966EAD7FADA197AA
:10368000689FF001699FF00D789FF00D1124E85BB1
:10369000F74FDF011C96248711963C9311971296E1
:1036A0004C93129713965C93E080F1800281138112
:1036B0006480758086809780A084B184C284D3841E
:1036C000C901DA018A159B05AC05BD0514F4D601C4
:1036D000C50186159705A805B90514F4D401C301E1
:1036E0009C01AD018E159F05A007B10714F4A80138
:1036F00097018DE490E0A196AEADBFADA197A89FD4
:10370000B001A99F700DB89F700D1124685B774FB1
:10371000FB01208B318B428B538B263031054105C9
:10372000510510F40C941F24E85BFF4F809118059D
:1037300090911905AA2797FDA095BA2F80839183B0
:10374000A283B383DB0190961C92C158DF4F28817E
:1037500039814A815B81CF57D0406F968CAD9DAD4A
:10376000AEADBFAD6F97281739074A075B0724F442
:1037700081E0DB0190968C93CD57DF4F2881398112
:103780004A815B81C358D04067966CAD7DAD8EADEC
:103790009FAD6797261737074807590794F48DE4BC
:1037A00090E0A196AEADBFADA197A89FF001A99FF3
:1037B000F00DB89FF00D1124E85BF74F80A18260F7
:1037C00080A3C957DF4F288139814A815B81C7585F
:1037D000D0402F966CAD7DAD8EAD9FAD2F97261747
:1037E00037074807590794F48DE490E0A196AEADF1
:1037F000BFADA197A89FF001A99FF00DB89FF00D54
:103800001124E85BF74F80A1846080A3C557DF4F88
:10381000288139814A815B81CB58D04022153305FC
:103820004405550594F48DE490E0A1964EAD5FAD4E
:10383000A197489FF001499FF00D589FF00D11246A
:10384000E85BF74F80A1886080A38DE490E0A196AB
:103850006EAD7FADA197689FF001699FF00D789FD5
:10386000F00D1124E85BF74FE396AEADBFADE397E3
:103870008C9181A3208131814281538129AF3AAF5C
:103880004BAF5CAF211531054105510509F05F983B
:103890008DE490E0A1964EAD5FADA197489FF001F9
:1038A000499FF00D589FF00D1124E85BF74F64809D
:1038B000758086809780611471048104910409F0F9
:1038C0008A988DE490E0A1966EAD7FADA197689F38
:1038D000F001699FF00D789FF00D1124E85BF74F20
:1038E000A084B184C284D384A114B104C104D104DE
:1038F00041F09FB7F894809108018E7F8093080172
:103900009FBF8DE490E0A196AEADBFADA197A89FFB
:10391000F001A99FF00DB89FF00D1124E85BF74F5F
:1039200084859585A685B7850097A105B10551F0D9
:10393000129820900C0830900D0840900E0850907E
:103940000F0808C0209024083090250840902608D1
:1039500050902708CB56DF4F6881C559D040CA56D2
:10396000DF4F7881C659D040C956DF4F8881C7598B
:10397000D040C856DF4F9881C859D040A20191016C
:103980000E94473287FD16C0CB56DF4F8881C5594C
:10399000D040CA56DF4F9881C659D040C956DF4F34
:1039A000A881C759D040C856DF4FB881C859D04008
:1039B0001C012D016B966CAD7DAD8EAD9FAD6B97EF
:1039C0000E94E632E1962CAD3DAD4EAD5FADE19784
:1039D0000E944B32EC966FAFEC97ED967FAFED9770
:1039E000EE968FAFEE97EF969FAFEF97AC01CB01BE
:1039F000DA0189839A83AB83BC8363966CAD7DAD1A
:103A00008EAD9FAD63970E94E632AD962CAD3DAD75
:103A10004EAD5FADAD970E944B32E8966FAFE89721
:103A2000E9967FAFE997EA968FAFEA97EB969FAF5B
:103A3000EB97AC01CB01DA018D839E83AF83B8870E
:103A40002B966CAD7DAD8EAD9FAD2B970E94E6326F
:103A5000A9962CAD3DAD4EAD5FADA9970E944B32FE
:103A6000E4966FAFE497E5967FAFE597E6968FAF64
:103A7000E697E7969FAFE797AC01CB01DA0189871C
:103A80009A87AB87BC8727966CAD7DAD8EAD9FAD19
:103A900027970E94E632A5962CAD3DAD4EAD5FADA9
:103AA000A5970E944B3223962CAD3DAD4EAD5FAD38
:103AB00023970E941F347B018C01EDADFEADBF0149
:103AC000882777FD8095982F0E94E6329B01AC01F4
:103AD000C801B7010E941F3420E030E048EC52E4F6
:103AE0000E944B329B01AC016D877E878F87988B3C
:103AF00069AD7AAD8BAD9CAD6630710581059105E0
:103B00001CF576E06716710481049104ECF486E0FC
:103B1000A816B104C104D104BCF48DE490E0A196D0
:103B2000AEADBFADA197A89FF001A99FF00DB89FC2
:103B3000F00D1124E85BF74FDA01C901BF7786A7C2
:103B400097A7A0ABB1AB55C0EC962FADEC97ED9617
:103B50003FADED97EE964FADEE97EF965FADEF97D9
:103B6000B901CA010E94D0343B014C01E8962FAD47
:103B7000E897E9963FADE997EA964FADEA97EB965D
:103B80005FADEB97B901CA010E94D0345B016C01B3
:103B9000E4962FADE497E5963FADE597E6964FADF9
:103BA000E697E7965FADE797B901CA010E94D03466
:103BB0007B018C01C401B301A60195010E94D031A3
:103BC000A80197010E94D0310E9486342DE430E094
:103BD000A1964EAD5FADA197429FF001439FF00DBE
:103BE000529FF00D1124E85BF74F66A777A780ABD3
:103BF00091AB8DE490E0A1966EAD7FADA197689FEB
:103C00006001699FD00C789FD00C112488E498E063
:103C1000C80ED91ED6019E96ED90FD900D911C9177
:103C2000D19760E070E080E89FE3A80197010E94CF
:103C30004B329B01AC01C201B1010E941F342B0128
:103C40003C01B091881BB8AFE091891BEFABC80174
:103C5000B701A30192010E941F34D60192966D9381
:103C60007D938D939C93959750966D917D918D91B9
:103C70009C9153970E94E432A30192010E941F3449
:103C80000E9434320E94B832F60160AF71AF82AF49
:103C900093AFC157DF4F1882CF58D040C057DF4F86
:103CA0001882C059D04020E8222E9FE3392E882464
:103CB0009924E1E0F0E0EC0FFD1FE80DF91DC301D0
:103CC000B20120813181428153810E941F34E1E1A0
:103CD000F0E0EC0FFD1FE80DF91D60837183828316
:103CE00093835B016C01E894D7F8F401E452F84F38
:103CF000E080F18002811381C601B501A80197011E
:103D00000E94EB331816CCF4C801B701A601950147
:103D10000E944B326B017C01C157DF4F6881CF5845
:103D2000D040C057DF4F7881C059D040C101A701B2
:103D300096010E94473288236CF4C157DF4F888177
:103D4000CF58D040C057DF4F9881C059D040D101E3
:103D50006C017D0124E030E0820E931E30E1831679
:103D6000910471F0D701C601C157DF4FC882CF5807
:103D7000D040C057DF4F9883C059D0401D0199CF24
:103D8000C701B60120E030E040E85FE30E9447321F
:103D900088230CF04CC08E010F5E1F4F81E2A82ECD
:103DA000B12CAC0EBD1ED8016D917D918D919C9171
:103DB000A70196010E941F34F801619371938193CA
:103DC00091938F01EA15FB0571F78DE490E0A196C0
:103DD0002EAD3FADA197289F8001299F100D389FE0
:103DE000100D1124085B174FD80192966D917D91AB
:103DF0008D919C919597A70196010E941F34F8011F
:103E000062A373A384A395A360AD71AD82AD93AD9E
:103E10000E94E432A70196010E941F340E94B8322A
:103E2000D801D8966D937D938D939C93DB978DE409
:103E300090E0A196EEADFFADA197E89F8001E99FCC
:103E4000100DF89F100D1124085B174FD8015096E4
:103E50006D917D918D919C9153970E94E432F80170
:103E600026A537A540A951A90E944B321B012C0160
:103E7000F80180819181A281B3810097A105B105EC
:103E800049F584819581A681B7810097A105B10587
:103E900009F580859185A285B3850097A105B105B7
:103EA000C9F4C201B1012091140830911508409164
:103EB0001608509117080E941F340E9434320C5B80
:103EC0001F4F0E94B832D8016D937D938D939C93C0
:103ED000139771C1C201B1012091100830911108EE
:103EE00040911208509113080E941F340E943432EE
:103EF0000E94B8322DE430E0A196EEADFFADA1975F
:103F0000E29F6001E39FD00CF29FD00C112428E4C3
:103F100038E0C20ED31EB4E46B2E712C6C0C7D1CE9
:103F2000D3016D937D938D939C9313978090280874
:103F300090902908A0902A08B0902B080E94E432A3
:103F40007B018C01F60160817181828193810E94E5
:103F5000E6329B01AC01C801B7010E941F347B010E
:103F60008C01D60150966D917D918D919C915397C6
:103F70000E94E4329B01AC01C801B7010E944B32A0
:103F80007B018C01C501B4010E94E4329B01AC01AC
:103F9000C801B7010E94EB3318162CF4F30180829C
:103FA0009182A282B38280902C0890902D08A090DC
:103FB0002E08B0902F088DE490E0A1962EAD3FAD75
:103FC000A197289F6001299FD00C389FD00C112405
:103FD00048E458E0C40ED51EA4E46A2E712C6C0C83
:103FE0007D1CD3016D917D918D919C910E94E43255
:103FF0007B018C01F60164817581868197810E9425
:10400000E6329B01AC01C801B7010E941F347B015D
:104010008C01D60150966D917D918D919C91539715
:104020000E94E4329B01AC01C801B7010E944B32EF
:104030007B018C01C501B4010E94E4329B01AC01FB
:10404000C801B7010E94EB3318162CF4F3018082EB
:104050009182A282B3828090340890903508A0901B
:104060003608B09037088DE490E0A1962EAD3FADB4
:10407000A197289F6001299FD00C389FD00C112454
:1040800048E458E0C40ED51EF4E46F2E712C6C0C7D
:104090007D1CD3016D917D918D919C910E94E432A4
:1040A0007B018C01F60164857585868597850E9464
:1040B000E6329B01AC01C801B7010E941F347B01AD
:1040C0008C01D60150966D917D918D919C91539765
:1040D0000E94E4329B01AC01C801B7010E944B323F
:1040E0007B018C01C501B4010E94E4329B01AC014B
:1040F000C801B7010E94EB3318162CF4F30180823B
:104100009182A282B3828090300890903108A09072
:104110003208B09033088DE490E0A1962EAD3FAD0B
:10412000A197289F6001299FD00C389FD00C1124A3
:1041300048E458E0C40ED51EE4E46E2E712C6C0CDD
:104140007D1CD3016D917D918D919C910E94E432F3
:104150007B018C01F60160857185828593850E94C3
:10416000E6329B01AC01C801B7010E941F347B01FC
:104170008C01D60150966D917D918D919C915397B4
:104180000E94E4329B01AC01C801B7010E944B328E
:104190007B018C01C501B4010E94E4329B01AC019A
:1041A000C801B7010E94EB3318162CF4F30180828A
:1041B0009182A282B3828DE490E0A1962EAD3FADB4
:1041C000A197289F6001299FD00C389FD00C112403
:1041D00048E458E0C40ED51EF601EC5BFF4F608149
:1041E0007181828193810E94E4327B018C01A20162
:1041F00091010E944B32D601D2966D937D938D939F
:104200009C93D597C801B7012DEB37E346E051E405
:104210000E941F340E94B332F601648F758F868F1F
:10422000978F609018087090190880901A089090E5
:104230001B08C401B30120E030E040E05FE30E94CE
:104240001F345B016C01298D3A8D4B8D5C8D2BAB3E
:104250003CAB4DAB5EAB40911C0850911D0860918A
:104260001E0870911F084FA758AB69AB7AABCB0102
:10427000BA0120E030E040E05FE30E941F347B01A0
:104280008C016BA97CA98DA99EA99F77A801970194
:104290000E94EB33181644F4C601B501A80197013A
:1042A0000E944732882314F4860175016D8D7E8D3E
:1042B0008F8D98A16BA77CA78DA79EA780912008C2
:1042C00090912108A0912208B09123088FA398A76C
:1042D000A9A7BAA7BC01CD0120E030E040E05FE330
:1042E0000E941F341B012C016BA57CA58DA59EA5EA
:1042F0009F77A20191010E94EB33181644F4C80184
:10430000B701A20191010E944732882314F41701DA
:1043100028018DE490E0A196AEADBFADA197A89F16
:10432000F001A99FF00DB89FF00D1124E85BF74F45
:1043300022A133A144A155A129A33AA34BA35CA375
:10434000C201B1010E94473287FD04C029A03AA0F2
:104350004BA05CA038AD832F90E0805C9F4F4FA9AD
:10436000841B91098F73907002970CF405C15091D2
:104370008A1BCF56DF4F5883C159D04060918B1BA9
:10438000CE56DF4F6883C259D04070918C1BCD56FA
:10439000DF4F7883C359D04080918D1BCC56DF4FBF
:1043A0008883C459D040652FCE56DF4F7881C259DB
:1043B000D040CD56DF4F8881C359D040CC56DF4F17
:1043C0009881C459D04027E137EB41ED58E30E9472
:1043D000EB3318160CF0D0C069897A898B899C89D7
:1043E00020918E1B30918F1B4091901B5091911BFF
:1043F0000E94CF319B01AC010E941F347B018C01D4
:104400006D897E898F89988D2091921B3091931BA5
:104410004091941B5091951B0E94CF319B01AC01A0
:104420000E941F349B01AC01C801B7010E94D0312A
:104430000E9486347B018C01A40193010E94EB331E
:1044400018165CF00F2EF0E06F2EF0E07F2EF0E8F3
:104450008F2EFFE39F2EF02D08C0C401B301A801E9
:1044600097010E944B323B014C016BA97CA98DA99D
:104470009EA92091961B3091971B4091981B5091BB
:10448000991B0E94CF317B018C01E89417F9C80178
:10449000B7012FA538A949A95AA90E94EB331816CC
:1044A00094F46FA578A989A99AA9A80197010E94F7
:1044B0004B325B016C01C401B301A60195010E945E
:1044C0004732882314F4640153016BA57CA58DA5A4
:1044D0009EA520919A1B30919B1B40919C1B509153
:1044E0009D1B0E94CF317B018C01E89417F9C80114
:1044F000B7012FA138A549A55AA50E94EB3318167C
:1045000094F46FA178A589A59AA5A80197010E94A6
:104510004B327B018C01C601B501A80197010E94B5
:104520004732882314F48601750169A17AA18BA111
:104530009CA1A80197010E941F347B018C01CF56DA
:10454000DF4F6881C159D040CE56DF4F7881C259C4
:10455000D040CD56DF4F8881C359D040CC56DF4F75
:104560009881C459D040A80197010E94473287FD25
:1045700019C0D801C70102C0D201C101CF56DF4F17
:104580008883C159D040CE56DF4F9883C259D0405E
:10459000CD56DF4FA883C359D040CC56DF4FB883E8
:1045A000C459D0408DE490E0A196AEADBFADA197C7
:1045B000A89F8001A99F100DB89F100D1124085BC2
:1045C000174FCF56DF4F8881C159D040CE56DF4FAD
:1045D0009881C259D040CD56DF4FA881C359D040F1
:1045E000CC56DF4FB881C459D040F80182A793A7B9
:1045F000A4A7B5A762A973A984A995A9905820E09A
:1046000030E040E050EC0E941F34D8019E962D917E
:104610003D914D915C91D1970E941F342BE037ED75
:1046200043E25BE30E94D0310E948634F62EE72EEF
:10463000D82EC92ECF56DF4F6881C159D040CE56F3
:10464000DF4F7881C259D040CD56DF4F8881C359A2
:10465000D040CC56DF4F9881C459D0402F2D3E2DED
:104660004D2D5C2D0E94473287FD14C0CF56DF4F81
:10467000F882C159D040CE56DF4FE882C259D040AF
:10468000CD56DF4FD882C359D040CC56DF4FC882B9
:10469000C459D0408DE490E0A196EEADFFADA19756
:1046A000E89F8001E99F100DF89F100D1124085B11
:1046B000174FCF56DF4F8881C159D040CE56DF4FBC
:1046C0009881C259D040CD56DF4FA881C359D04000
:1046D000CC56DF4FB881C459D040F80186A397A3C8
:1046E000A0A7B1A762A173A184A195A12F2D3E2DF2
:1046F0004D2D5C2D0E94473218162CF081E0D80118
:10470000D7968C9302C0F80117AA8DE490E0A19689
:104710002EAD3FADA197289FF001299FF00D389F46
:10472000F00D1124E85BF74F81E086ABAEE8BBE10A
:10473000FE01719680E101900D928150E1F78DE4C8
:1047400090E0A1964EAD5FADA197489F6001499F53
:10475000D00C589FD00C112468E478E0C60ED71E08
:10476000D6019296ED90FD900D911C919597E09257
:104770008A1BF0928B1B00938C1B10938D1B9696BB
:104780006D917D918D919C919997A80197010E94BF
:104790004B324B015C01C201B101A80197010E949B
:1047A0004B328B019C01C601B501A4010E947C160D
:1047B000BDA1B093881BC557DF4F288139814A813D
:1047C0005B81CB58D04020934408309345084093F8
:1047D000460850934708C957DF4F488159816A817D
:1047E0007B81C758D0404093400850934108609364
:1047F000420870934308CD57DF4F688179818A81E1
:104800009B81C358D04060933C0870933D088093CF
:104810003E0890933F08C158DF4F88819981AA8153
:10482000BB81CF57D0408093380890933908A0932C
:104830003A08B0933B080E9400190E943924C856D8
:10484000DF4F0FB6F894DEBF0FBECDBFCF91DF9123
:104850001F910F91FF90EF90DF90CF90BF90AF909E
:104860009F908F907F906F905F904F903F902F9090
:104870000895EFE6F0E08081826080830895819A58
:10488000879AEAE0F1E08081826080830E9A3B9A09
:10489000579A5F9A829A8A9AE7E0F1E08081816074
:1048A00080839FB7F894E8E0F1E0808181608083A5
:1048B0009FBF0A9A129A3F9A479A53985B9A6C98AC
:1048C000749AE4E0F1E080818E7F80839FB7F89452
:1048D000E5E0F1E08081816080839FBF52985A9A21
:1048E000809A88985F9A1092C304869A8E988A9AC2
:1048F0001092C404EAE0F1E08081886080839FB771
:10490000F894EBE0F1E08081877F80839FBF9FB7C1
:10491000F894E8E0F1E08081816080839FBF10928D
:10492000C5040C9A1498129A399A4198A1E8B0E0FB
:104930008C918F7E8C938C9188608C93E0E8F0E072
:1049400080818D7F808380818E7F808380818F7343
:10495000808380818F7C80838C91887F82608C9320
:1049600080E090E490938900809388001092850005
:1049700010928400EFE6F0E080818260808381E025
:104980008093CE04789408951F920F920FB60F92E1
:104990000BB60F921124AF92BF92CF92DF92EF929B
:1049A000FF920F931F932F933F934F935F936F93B8
:1049B0007F938F939F93AF93BF93CF93DF93EF93A7
:1049C000FF9380919E1B90919F1B892B09F08BC1B7
:1049D0009091881B8091891B981719F4E0E0F0E012
:1049E00014C08091891B90E02DE430E0829FF0019B
:1049F000839FF00D929FF00D1124E85BF74FE45B6D
:104A0000FF4F81E08083EC54F040F0939F1BE093D4
:104A10009E1B309709F461C1E45BFF4F81E0808306
:104A2000EC54F0401092DF1B1092E01B1092E11B3F
:104A30001092E21B60AD71AD2CE96134720718F081
:104A400060E47CE904C03EE46132730730F076959F
:104A500067957695679584E007C047E261317407F2
:104A600030F07695679582E08093D81B07C08093DD
:104A7000D81B6032710510F460E270E0EB01A09782
:104A800058E0C030D507E8F04D2F50E0440F551FD7
:104A9000440F551F4A515D4F9A012E5F3F4FF90158
:104AA000859194919C01AA27C39FC001C29F810D4B
:104AB0009A1F06948A1F9A1F1124FA014591549156
:104AC0001EC0CE01969587958C7F8A51994FFC0127
:104AD00045915491FC013296259134918C2F90E0B0
:104AE00087709070BC01269FC001279F900D369F54
:104AF000900D1124A3E096958795AA95E1F7481BA0
:104B0000590B4436510578F48AEF9BE166E974E06D
:104B10000E94382F8AEF9BE1BE014AE050E00E94DC
:104B2000C72E44E650E05093E41B4093E31B809172
:104B3000D81B992787FD90959093E61B8093E51BE2
:104B4000E0919E1BF0919F1B64AD75AD7093DE1BD1
:104B50006093DD1B8CE96134780718F060E47CE930
:104B600004C09EE46132790730F0769567957695BA
:104B7000679584E007C0E7E261317E0730F0769503
:104B8000679582E08093D81B08C081E08093D81B92
:104B90006032710510F460E270E0EB01A097F8E07C
:104BA000C030DF07E8F04D2F50E0440F551F440F91
:104BB000551F4A515D4F9A012E5F3F4FF901859174
:104BC00094919C01AA27C39FC001C29F810D9A1F87
:104BD00006948A1F9A1F1124FA01459154911EC010
:104BE000CE01969587958C7F8A51994FFC0145910E
:104BF0005491FC013296259134918C2F90E087706E
:104C00009070BC01269FC001279F900D369F900D8C
:104C1000112433E0969587953A95E1F7481B590B97
:104C20004436510578F48AEF9BE166E974E00E940E
:104C3000382F8AEF9BE1BE014AE050E00E94C72E68
:104C400044E650E0CA01A0E0B0E08093D91B909305
:104C5000DA1BA093DB1BB093DC1B509389004093BD
:104C60008800E0919E1BF0919F1B80899189A28909
:104C7000B389B695A79597958795B095A09590958A
:104C800081959F4FAF4FBF4F8093BC1B9093BD1B2F
:104C9000A093BE1BB093BF1B8093C01B9093C11BFE
:104CA000A093C21BB093C31B8093C41B9093C51BDE
:104CB000A093C61BB093C71B8093C81B9093C91BBE
:104CC000A093CA1BB093CB1B1092CC1B1092CD1B90
:104CD0001092CE1B1092CF1B06C080ED97E09093F0
:104CE000890080938800E0919E1BF0919F1B309774
:104CF00009F498C480A18093D01B80FF03C08998D9
:104D00008FEF02C0899A81E08093CA048091D01B02
:104D100081FF03C08F988FEF02C08F9A81E080934C
:104D2000CB048091D01B80FD37C08091CE048823B6
:104D300099F1649902C080E02DC08091D11B882335
:104D400041F180819181A281B381181619061A065A
:104D50001B06FCF48091AC1B9091AD1BA091AE1B87
:104D6000B091AF1B8093A01B9093A11BA093A21B9B
:104D7000B093A31B81E08093D21B80899189A28983
:104D8000B3898093CC1B9093CD1BA093CE1BB09383
:104D9000CF1B81E08093D11B8091D01B81FD3AC055
:104DA0008091CE048823B1F18091030190E081705D
:104DB0009070282F882361F18091D31B882341F1C3
:104DC00084819581A681B781181619061A061B06DB
:104DD000FCF48091B01B9091B11BA091B21BB091DB
:104DE000B31B8093A41B9093A51BA093A61BB09309
:104DF000A71B81E08093D41B80899189A289B38904
:104E00008093CC1B9093CD1BA093CE1BB093CF1B54
:104E10002093D31B8091D01B2091CE0482FF46C0EB
:104E20008FB7F89490910B019D7F90930B018FBFEA
:104E30008FEF8093CC04222309F477C089B1869543
:104E4000869586958095282F217080FF2CC08091B3
:104E5000D51B882341F180859185A285B3851816DD
:104E600019061A061B06FCF48091B41B9091B51B21
:104E7000A091B61BB091B71B8093A81B9093A91B60
:104E8000A093AA1BB093AB1B81E08093D61B8089B3
:104E90009189A289B3898093CC1B9093CD1BA09359
:104EA000CE1BB093CF1B2093D51B3FC09FB7F89468
:104EB00080910B01826080930B019FBF31E03093A2
:104EC000CC04222391F14A9902C080E02CC0809149
:104ED000D71B882339F180859185A285B385181663
:104EE00019061A061B06F4F48091B41B9091B51BA9
:104EF000A091B61BB091B71B8093A81B9093A91BE0
:104F0000A093AA1BB093AB1B3093D61B80899189C9
:104F1000A289B3898093CC1B9093CD1BA093CE1B09
:104F2000B093CF1B81E08093D71B8091D01B83FF70
:104F300003C0169A8FEF02C0169881E08093CD04CB
:104F400060E05BC120813181428153818091BC1B33
:104F50009091BD1BA091BE1BB091BF1B280F391FA4
:104F60004A1F5B1F2093BC1B3093BD1B4093BE1B8D
:104F70005093BF1B12161306140615066CF5889A7B
:104F800080899189A289B389281B390B4A0B5B0B55
:104F90002093BC1B3093BD1B4093BE1B5093BF1B83
:104FA0002091AC1B3091AD1B4091AE1B5091AF1BBB
:104FB0008091CA04992787FD9095A92FB92F820F58
:104FC000931FA41FB51F8093AC1B9093AD1BA093A0
:104FD000AE1BB093AF1B88982481358146815781E1
:104FE0008091C01B9091C11BA091C21BB091C31BAB
:104FF000280F391F4A1F5B1F2093C01B3093C11B12
:105000004093C21B5093C31B1216130614061506B9
:105010006CF58E9A80899189A289B389281B390BF6
:105020004A0B5B0B2093C01B3093C11B4093C21BE8
:105030005093C31B2091B01B3091B11B4091B21B08
:105040005091B31B8091CB04992787FD9095A92F90
:10505000B92F820F931FA41FB51F8093B01B90938D
:10506000B11BA093B21BB093B31B8E9820853185E2
:10507000428553858091C41B9091C51BA091C61B8E
:10508000B091C71B280F391F4A1F5B1F2093C41BF9
:105090003093C51B4093C61B5093C71B12161306B3
:1050A00014061506DCF59FB7F89480910B01886013
:1050B00080930B019FBF80899189A289B389281BA6
:1050C000390B4A0B5B0B2093C41B3093C51B4093D9
:1050D000C61B5093C71B2091B41B3091B51B409148
:1050E000B61B5091B71B8091CC04992787FD9095F2
:1050F000A92FB92F820F931FA41FB51F8093B41B34
:105100009093B51BA093B61BB093B71B9FB7F894B1
:1051100080910B01877F80930B019FBF248535858C
:10512000468557858091C81B9091C91BA091CA1BC9
:10513000B091CB1B280F391F4A1F5B1F2093C81B40
:105140003093C91B4093CA1B5093CB1B12161306F6
:10515000140615066CF5149A80899189A289B38981
:10516000281B390B4A0B5B0B2093C81B3093C91BC0
:105170004093CA1B5093CB1B2091B81B3091B91B95
:105180004091BA1B5091BB1B8091CD04992787FD9C
:105190009095A92FB92F820F931FA41FB51F80933D
:1051A000B81B9093B91BA093BA1BB093BB1B149868
:1051B0008091CC1B9091CD1BA091CE1BB091CF1BA9
:1051C0000196A11DB11D8093CC1B9093CD1BA09384
:1051D000CE1BB093CF1B2091CC1B3091CD1B4091A7
:1051E000CE1B5091CF1B80899189A289B389281742
:1051F00039074A075B0730F46F5F8091D81B681747
:105200000CF4A0CE2091CC1B3091CD1B4091CE1B35
:105210005091CF1B84899589A689B78982179307F6
:10522000A407B50708F4DDC0E090D91BF090DA1BA5
:105230000091DB1B1091DC1BA48CB58CC68CD78C29
:10524000A8019701C601B501AA27279FB12D389F54
:10525000E001489FD00D479FC00DD11D289FB00D84
:10526000C11DDA1F379FB00DC11DDA1F469FB00D5B
:10527000C11DDA1F369FB10DCA1FDA1FB695CA1FAE
:10528000DA1F112484AD95AD8C0F9D1F9093DE1B0A
:105290008093DD1B20AD31AD42AD53ADA0E0B0E059
:1052A000281739074A075B0720F43093DE1B209349
:1052B000DD1B6091DD1B7091DE1B8CE9613478078A
:1052C00018F060E47CE904C09EE46132790730F0B4
:1052D000769567957695679584E007C0E7E261313A
:1052E0007E0730F07695679582E08093D81B08C0E2
:1052F00081E08093D81B6032710510F460E270E0A9
:10530000EB01A097F8E0C030DF07E8F04D2F50E048
:10531000440F551F440F551F4A515D4F9A012E5F90
:105320003F4FF901859194919C01AA27C39FC00129
:10533000C29F810D9A1F06948A1F9A1F1124FA0199
:10534000459154911EC0CE01969587958C7F8A51C8
:10535000994FFC0145915491FC013296259134916D
:105360008C2F90E087709070BC01269FC001279F12
:10537000900D369F900D1124A3E096958795AA95E0
:10538000E1F7481B590B4436510578F48AEF9BE14D
:1053900066E974E00E94382F8AEF9BE1BE014AE083
:1053A00050E00E94C72E44E650E05093890040939D
:1053B00088009A0140E050E08091D91B9091DA1B5F
:1053C000A091DB1BB091DC1B820F931FA41FB51FA4
:1053D0008093D91B9093DA1BA093DB1BB093DC1B4B
:1053E000FCC02091CC1B3091CD1B4091CE1B509125
:1053F000CF1B808D918DA28DB38D82179307A4074B
:10540000B50708F0DEC06091DF1B7091E01B809152
:10541000E11B9091E21B248D358D468D578DAA2777
:10542000639FB12D749FE001849FD00D839FC00DB9
:10543000D11D649FB00DC11DDA1F739FB00DC11D3A
:10544000DA1F829FB00DC11DDA1F729FB10DCA1FF6
:10545000DA1FB695CA1FDA1F11248091DD1B9091C7
:10546000DE1B8C179D0738F4E05CFF4F6081718173
:10547000E054F04003C0BC016C1B7D0BE05CFF4FAF
:105480002081318142815381CB01A0E0B0E08217BD
:105490009307A407B50708F4B9018CE961347807CC
:1054A00018F060E47CE904C09EE46132790730F0D2
:1054B000769567957695679584E007C0E7E2613158
:1054C0007E0730F07695679582E08093D81B08C000
:1054D00081E08093D81B6032710510F460E270E0C7
:1054E000EB01A097F8E0C030DF07E8F04D2F50E067
:1054F000440F551F440F551F4A515D4F9A012E5FAF
:105500003F4FF901859194919C01AA27C39FC00147
:10551000C29F810D9A1F06948A1F9A1F1124FA01B7
:10552000459154911EC0CE01969587958C7F8A51E6
:10553000994FFC0145915491FC013296259134918B
:105540008C2F90E087709070BC01269FC001279F30
:10555000900D369F900D112423E0969587952A95FE
:10556000E1F7481B590B4436510578F48AEF9BE16B
:1055700066E974E00E94382F8AEF9BE1BE014AE0A1
:1055800050E00E94C72E44E650E0509389004093BB
:1055900088009A0140E050E08091DF1B9091E01B71
:1055A000A091E11BB091E21B820F931FA41FB51FB6
:1055B0008093DF1B9093E01BA093E11BB093E21B51
:1055C0000CC08091E31B9091E41B90938900809321
:1055D00088008091E51B8093D81B2091CC1B3091D3
:1055E000CD1B4091CE1B5091CF1BE0919E1BF091A3
:1055F0009F1B80899189A289B389281739074A0797
:105600005B0780F010929F1B10929E1B9091881B4D
:105610008091891B981731F08091891B8F5F8F7360
:105620008093891BFF91EF91DF91CF91BF91AF9153
:105630009F918F917F916F915F914F913F912F91AA
:105640001F910F91FF90EF90DF90CF90BF90AF90A0
:105650000F900BBE0F900FBE0F901F9018951F92CA
:105660000F920FB60F920BB60F9211242F933F9308
:105670004F935F936F937F938F939F93AF93BF935A
:10568000EF93FF93E091EB1BF091EC1B1995FF91C9
:10569000EF91BF91AF919F918F917F916F915F91AA
:1056A0004F913F912F910F900BBE0F900FBE0F9017
:1056B0001F9018958091F31B9091F41BA091F51BFE
:1056C000B091F61B0196A11DB11D8093F31B909321
:1056D000F41BA093F51BB093F61B8091F31B9091E4
:1056E000F41BA091F51BB091F61B2091ED1B30919E
:1056F000EE1B4091EF1B5091F01B82179307A407FC
:10570000B50710F18091F71B8823F1F481E08093B5
:10571000F71B8091F31B9091F41BA091F51BB091A6
:10572000F61B821B930BA40BB50B8093F31B90937A
:10573000F41BA093F51BB093F61BE091F11BF091C5
:10574000F21B19951092F71B08951F920F920FB636
:105750000F920BB60F9211242F933F934F935F93A9
:105760006F937F938F939F93AF93BF93EF93FF9329
:105770008091F81B9091F91B8093B2000E945A2BE4
:10578000FF91EF91BF91AF919F918F917F916F9119
:105790005F914F913F912F910F900BBE0F900FBED5
:1057A0000F901F901895DC015C968C915C97FD0121
:1057B000E80FF11DE35AFF4F20815C968C915C97B6
:1057C00090E001968F7390705C968C935C975696E0
:1057D000ED91FC91579720835096ED91FC91519754
:1057E0008081806480835B969C915B975C968C91B2
:1057F0005C97981739F45296ED91FC9153978081FC
:105800008F7D80830895DF92EF92FF920F931F9315
:10581000CF93DF93EC017A018B01D22EE889F989CD
:1058200082E08083403081EE580780E0680780E0A6
:105830007807A1F060E079E08DE390E0A80197019E
:105840000E941035215030404040504056954795B9
:105850003795279580E12030380798F0E889F98955
:10586000108260E874E88EE190E0A80197010E9440
:10587000103521503040404050405695479537955F
:105880002795EC85FD853083EE85FF852083188E76
:10589000EC89FD89D082EA89FB89808180618083DF
:1058A000EA89FB89808188608083EA89FB8980811D
:1058B00080688083EA89FB8980818F7D8083DF9186
:1058C000CF911F910F91FF90EF90DF900895FC0111
:1058D000218D828D30E0205C3F4F281B31092F73D2
:1058E0003070C9010895FC01918D828D981719F4CB
:1058F0002FEF3FEF06C0828DE80FF11D858D282F19
:1059000030E0C9010895DC0159969C9159975A9647
:105910008C915A97981719F42FEF3FEF10C05A96B1
:105920008C915A97FD01E80FF11D958D5A968C9137
:105930005A978F5F8F735A968C93292F30E0C90145
:105940000895CF93DF93EC01888D882361F419C00B
:105950008C9185FF0AC0E889F989808185FF05C09F
:10596000CE010E94D32BAA89BB898C9185FD05C0ED
:10597000E889F989808186FD04C00FB607FEE8CF6B
:10598000F4CFDF91CF9108950F931F93CF93DF93BF
:10599000EC01062F9B8D8C8D981791F5E889F9897C
:1059A000808185FF2DC0EE89FF896083E889F989B0
:1059B0008081806480831DC00FB607FC08C0E88921
:1059C000F989808185FF03C0CE010E94D32B8C8D85
:1059D000181791F38B8DFE01E80FF11DE35AFF4F6D
:1059E00000831B8FEA89FB8980818062808381E04C
:1059F000888F81E090E0DF91CF911F910F91089502
:105A00001B8D1F5F1F73E3CF8AEB9DE2892B51F043
:105A100080E090E0892B31F00E94BA2D882311F0AC
:105A20000E94000080E090E0892B51F080E090E03F
:105A3000892B31F00E940000882311F00E940000A1
:105A400080E090E0892B51F080E090E0892B31F0EC
:105A50000E940000882311F00E94000080E090E086
:105A6000892B51F080E090E0892B31F00E940000FA
:105A7000882311F00E94000008951F920F920FB624
:105A80000F920BB60F9211242F938F939F93EF9346
:105A9000FF93E0910A1CF0910B1C808182FD16C0DF
:105AA000E091101CF091111C20819091131C9F5FBC
:105AB0009F738091141C981771F0E091131CF0E013
:105AC000E650F44E258F9093131C05C0E091101CF6
:105AD000F091111CE081FF91EF919F918F912F9197
