:100000000C94A6060C94D3060C94D3060C94D30639
:100010000C94D3060C94D3060C94D3060C94D306FC
:100020000C94D3060C94D3060C94D3060C94D306EC
:100030000C94D3060C94D3060C94D3060C946D2E1A
:100040000C94D3060C9425270C94D3060C94D30659
:100050000C94F72D0C94D3060C94D3060C941833FF
:100060000C94D3060C9405300C948C300C94D3066D
:100070000C94D3060C94D3060C94D3060C94D3069C
:100080000C94D3060C94D3060C94D3060C94D3068C
:100090000C94D3060C94D3060C94D3060C94D3067C
:1000A0000C94D3060C94D3060C94D3060C94D3066C
:1000B0000C94D3060C94D3060C94D3060C94D3065C
:1000C0000C94D3060C94D3060C94D3060C94D3064C
:1000D0000C94D3060C94D3060C94D3060C94D3063C
:1000E0000C94D3066563686F3A0048617264636F6D
:1000F0006465642044656661756C7420536574742E
:10010000696E6773204C6F6164656400205A00203B
:10011000590020204D323036205800486F6D652040
:100120006F666673657420286D6D293A002045005E
:10013000205A0020580020420020540020204D3238
:100140003035205300416476616E636564207661CA
:10015000726961626C65733A20533D4D696E206629
:100160006565647261746520286D6D2F73292C207C
:10017000543D4D696E2074726176656C20666565CC
:10018000647261746520286D6D2F73292C20423DA7
:100190006D696E696D756D207365676D656E742030
:1001A00074696D6520286D73292C20583D6D617828
:1001B000696D756D205859206A65726B20286D6DC8
:1001C0002F73292C20205A3D6D6178696D756D2043
:1001D0005A206A65726B20286D6D2F73292C2020A0
:1001E000453D6D6178696D756D2045206A65726B5E
:1001F00020286D6D2F73290020540020204D3230AF
:1002000034205300416363656C65726174696F6E7D
:100210003A20533D616363656C65726174696F6E0A
:100220002C20543D72657472616374206163636550
:100230006C65726174696F6E00204500205A002061
:10024000590020204D3230312058004D6178696DC1
:10025000756D20416363656C65726174696F6E20B2
:10026000286D6D2F7332293A00204500205A002056
:10027000590020204D3230332058004D6178696D8F
:10028000756D2066656564726174657320286D6D97
:100290002F73293A00204500205A002059002020C1
:1002A0004D39322058005374657073207065722088
:1002B000756E69743A0053544F502100205A3A0029
:1002C00020593A0020436F756E7420583A20002060
:1002D000453A00205A3A0020593A00583A004572EF
:1002E000726F723A004D3131300046726F6E742D6C
:1002F0004C6566742D456E6453746F70203D20000C
:1003000046726F6E742D52696768742D456E645322
:10031000746F70203D2020004C4946545F424F547A
:10032000544F4D5F454E4453544F50203D202000C4
:10033000534C4944455F424F54544F4D5F454E44E2
:1003400053544F50203D202000534C4944455F54A6
:100350004F505F454E4453544F5020203D202000C5
:10036000534C4944455F5452494745525F454E44BA
:1003700053544F5020203D20200045313A20004565
:10038000303A20005A3A2000593A2000583A2000CA
:100390004D53312C4D53322050696E730A0024F4B2
:1003A00004D9201BC40C5C0E9804C4095F026507C5
:1003B0007101F405F900FB04B30048048700C10390
:1003C00069005803550003034500BE023A00840249
:1003D000310053022A002902250004022000E40112
:1003E0001C00C8011900AF01170098011400840116
:1003F0001300710110006101100051010E00430152
:100400000D0036010B002B010B0020010B00150124
:1004100009000C01090003010800FB000800F300BB
:100420000800EB000700E4000600DE000600D8002C
:100430000600D2000600CC000500C7000500C2007F
:100440000500BD000400B9000400B5000400B100BF
:100450000400AD000400A9000400A5000300A200F0
:1004600003009F0004009B00030098000300950018
:10047000020093000300900003008D0002008B0037
:10048000030088000200860002008400030081004F
:1004900002007F0002007D0002007B000200790064
:1004A0000200770001007600020074000200720072
:1004B0000100710002006F0002006D0001006C007D
:1004C00002006A0001006900020067000100660086
:1004D000010065000100640002006200010061008B
:1004E0000100600001005F0002005D0001005C008F
:1004F00001005B0001005A00010059000100580092
:100500000100570001005600010055000100540091
:10051000010053000000530001005200010051008F
:100520000100500001004F0001004E0000004E008D
:1005300001004D0001004C0001004B0000004B0089
:1005400001004A0001004900010048000000480085
:100550000100470001004600000046000100450080
:10056000000045000100440001004300000043007A
:100570000100420000004200010041000000410073
:100580000100400001003F0000003F0001003E006C
:1005900000003E0001003D0000003D0001003C0065
:1005A00000003C0000003C0001003B0000003B005C
:1005B00001003A0000003A00010039000000390053
:1005C000010038000000380000003800010037004A
:1005D0000000370001003600000036000000360041
:1005E0000100350000003500000035000100340036
:1005F000000034000000340001003300000033002C
:100600000000330001003200000032000000320020
:100610000100310000003100000031000100300015
:10062000000030000000300001002F0000002F000B
:1006300000002F0000002F0001002E0000002E00FF
:1006400000002E0001002D0000002D0000002D00F4
:1006500000002D0001002C0000002C0000002C00E8
:1006600000002C0001002B0000002B0000002B00DC
:1006700000002B0001002A0000002A0000002A00D0
:1006800000002A00010029000000290000002900C4
:1006900000002900000029000100280000002800B7
:1006A00000002800000028000000280001002700AA
:1006B000000027000000270000002700000027009E
:1006C0000100260000002600000026000000260091
:1006D0000000260001002500000025000000250084
:1006E0000000250000002500000025000100240076
:1006F000000024000000240000002400000024006A
:10070000010023000000230000002300000023005C
:10071000000023000000230000002300010022004D
:100720000000220000002200000022000000220041
:100730000000220001002100000021000000210033
:100740000000210000002100000021000000210025
:100750000100200000002000000020000000200018
:100760000000200000002000000020000000200009
:1007700001001F0000001F0000001F0000001F00FC
:1007800000001F0000001F0000001F0001001E00ED
:1007900000001E0000001E0000001E00000024F4E7
:1007A000D43050C38E20C2A24017828B7011127AAF
:1007B000910D816CD90AA861E108C758660761519B
:1007C00043061E4B5D05C145A7041A411104093DAE
:1007D0009803713931034036DB0265339102D4301E
:1007E0005402802E1D02632CEE01752AC501B0282B
:1007F000A001102781018F2564012B244B01E022E9
:100800003401AC211F018D200D01801FFC00841ECE
:10081000ED00971DDF00B81CD200E61BC600201BB0
:10082000BC00641AB200B219A8000A19A0006A1824
:100830009900D117910040178B00B516840031162E
:100840007E00B31579003A157300C7146F00581471
:100850006A00EE1366008813630025135E00C7125A
:100860005B006C12570015125400C1115100701139
:100870004F0021114B00D61049008D104700461043
:10088000440002104200C00F4000800F3E00420FA3
:100890003C00060F3B00CB0E3800930E37005C0E79
:1008A0003500270E3400F30D3200C10D3100900DDC
:1008B0003000600D2E00320D2D00050D2C00D90CDE
:1008C0002B00AE0C2900850C29005C0C2700350C90
:1008D00027000E0C2600E80B2400C40B2400A00BFC
:1008E00023007D0B23005A0B2100390B2100180B2C
:1008F0002000F80A1F00D90A1E00BB0A1E009D0A2C
:100900001D00800A1D00630A1C00470A1B002C0AF8
:100910001B00110A1A00F7091A00DD091900C409A1
:100920001900AB091900920917007B091800630927
:1009300017004C09160036091600200916000A098E
:100940001500F5081500E0081400CC081400B808DC
:100950001400A4081400900813007D0812006B080E
:10096000130058081200460812003408110023082A
:1009700011001208110001081100F0071000E00733
:100980001000D0071000C0071000B0070F00A1072B
:10099000100091070E0083070F0074070F00650712
:1009A0000E0057070E0049070E003B070D002E07EB
:1009B0000E0020070D0013070D0006070D00F906B5
:1009C0000C00ED060D00E0060C00D4060C00C80675
:1009D0000C00BC060C00B0060C00A4060B00990627
:1009E0000C008D060B0082060B0077060B006C06D0
:1009F0000B0061060A0057060B004C060A0042066F
:100A00000A0038060A002E060A0024060A001A0602
:100A10000A001006090007060A00FD050900F40592
:100A20000900EB050900E2050900D9050900D00518
:100A30000900C7050900BE050900B5050800AD0598
:100A40000800A50509009C050800940508008C0510
:100A50000800840508007C050800740508006C0582
:100A60000700650508005D050700560508004E05EE
:100A70000700470507004005080038050700310555
:100A800007002A050700230507001C0506001605B8
:100A900007000F0507000805060002050700FB0414
:100AA0000600F5040700EE040600E8040600E20470
:100AB0000700DB040600D5040600CF040600C904C5
:100AC0000600C3040600BD040600B7040600B10416
:100AD0000500AC040600A6040600A00405009B0463
:100AE000060095040500900406008A0405008504AC
:100AF0000500800406007A040500750405007004F2
:100B000005006B04050066040500610405005C0433
:100B1000050057040500520405004D040500480473
:100B20000500430405003E0404003A0405003504B2
:100B30000500300404002C040500270404002304ED
:100B400005001E0404001A04040016040500110424
:100B500004000D040400090405000404040000045A
:100B60000400FC030400F8030400F4030400F00391
:100B70000400EC030400E8030400E4030400E003C1
:100B80000400DC030400D8030400D4030400D003F1
:100B90000400CC030400C8030300C503030065631D
:100BA000686F3A00656E6473746F7073206869745F
:100BB0003A205A00205A3A00656E6473746F70735D
:100BC000206869743A20590020593A00656E6473B0
:100BD000746F7073206869743A20580020583A0086
:100BE000656E6473746F7073206869743A200000D6
:100BF000002100240027002A002D003000330001CE
:100C0000010000040107010A01000022002500285C
:100C1000002B002E00310034000201000005010805
:100C2000010B01000020002300260029002C002FCA
:100C3000003200000100000301060109010505055D
:100C400005070508080808020202020A0A08080443
:100C50000404040101010101010101030303030371
:100C6000030303040707070C0C0C0C0C0C0C0C0200
:100C700002020206060606060606060B0B0B0B0B07
:100C80000B0B0B0102102020080810204010204000
:100C90008002010201080402010102040810204040
:100CA000808040201008040201800402018040205E
:100CB0001008040201080402010102040810204087
:100CC0008001020408102040800000090A02080B7D
:100CD0000C0D0706030401000000000000000000E6
:100CE0000000000000000000000000000000000004
:100CF000000000000011100F0000000000000000C4
:100D0000000000000000000000000000000000499A
:100D10004E46494E4954594E414ECDCCCC3D0AD752
:100D2000233C17B7D13877CC2B329595E6241FB1E9
:100D30004F0A000020410000C84200401C4620BC71
:100D4000BE4CCA1B0E5AAEC59D743F3011241FBE47
:100D5000CFEFD1E2DEBFCDBF00E00CBF14E0A0E0DA
:100D6000B2E0E4E8F1E700E00BBF02C007900D92AB
:100D7000A83DB107D9F71BBE1CE1A8EDB4E001C046
:100D80001D92A436B107E1F71DE0CCE4DDE004C01C
:100D90002297FE010E947A38CA34D107C9F70E940F
:100DA00009330C94C0380C940000A0E0B0E0EBEDE7
:100DB000F6E00C948F38EC015B016115710519F0B8
:100DC000FB0191838083F9908F2D90E00E947E3803
:100DD000892BC9F7FDE2FF1621F4F990EE24E39484
:100DE00005C02BE2F21609F4F990EE248E010150B1
:100DF0001040C8016FE07DE043E050E00E946409CC
:100E0000892B01F58E010E5F1F4FC80162E17DE065
:100E100045E050E00E946409892B19F48E01095FB6
:100E20001F4FA114B10419F0F50111830083E0FCF8
:100E300004C070E090E080E814C070E090E080E8CA
:100E40006FEF08C1C80167E17DE043E050E00E9418
:100E50006409892B69F4A114B10429F470E090E0CD
:100E600080EC6FE7F7C02296F501D183C083F6CFFF
:100E70008824992440E050E060E070E0EF2DE053DA
:100E8000EA30A0F5F2E0EF2A8E2D90E09C01287068
:100E90003070E2FE06C0232B79F50894811C911C6A
:100EA0002BC0232B19F0089481089108DB01CA019B
:100EB00012E0880F991FAA1FBB1F1A95D1F7480F80
:100EC000591F6A1F7B1F440F551F661F771F4E0F48
:100ED000511D611D711D483929E9520729E9620731
:100EE00029E1720748F084E0E82A06C0EE3F31F4B9
:100EF000E3FC39C098E0E92AF990C0CFE53311F05E
:100F0000E53189F529912D3219F4E0E1EE2A05C089
:100F10002B3219F081E090E003C0299182E090E04B
:100F2000E22FE053EA3018F0C81BD90B1CC020E0B8
:100F300030E0FCE020383F075CF4C901880F991FBE
:100F4000880F991F280F391F220F331F2E0F311DB5
:100F5000E991E053EA3068F3E4FE03C0309521954F
:100F60003F4F820E931ECE2CDD24E1FE07C0A1145C
:100F7000B10421F02197F501D183C083CB01BA01DF
:100F80000E94FB357B018C01F3E0CF22DD2423E0BE
:100F9000C216D10421F417FB109517F910955701CB
:100FA0006801C801B70120E030E040E050E00E9455
:100FB0005E35882309F44AC097FE0DC02EE2E22E6A
:100FC0002DE0F22E9094819491089394C0E2D0E0A9
:100FD00000E010E012C096E4E92E9DE0F92EF6CF75
:100FE000F7012591359145915491C601B5010E94B3
:100FF00036375B016C018C1A9D0A8C169D0684F7AE
:10100000D595C7950F5F1F4F0630110529F08CEF5E
:101010009FEFE80EF91EF1CFC501D6017C018D01CD
:101020008C2D880F8D2D881F8F3F51F0C601B50183
:1010300020E030E040E050E00E945E35882331F44B
:1010400082E290E09093631C8093621C7E2D9F2D22
:10105000802F612F272F392F482F562FB901CA0112
:10106000CDB7DEB7ECE00C94AB382F923F925F9295
:101070006F927F928F929F92AF92BF92CF92DF92A8
:10108000EF92FF920F931F93CF93DF938C011B017D
:10109000EA016115710519F0FB01918380832097A6
:1010A00049F0CE010297839728F020E030E040E03D
:1010B00050E0F6C0F801A1908F018A2D90E00E94C7
:1010C0007E38892BB9F7FDE2AF1631F4F801A19013
:1010D0008F015524539407C0FBE2AF1619F4F801B1
:1010E000A1908F015524209719F0C031D105C1F48A
:1010F000F0E3AF1679F4F8018081883711F0883574
:1011000049F4F801A1800E5F1F4FF2E05F2AC0E1B1
:10111000D0E006C0209721F480E3A816E9F427C0A8
:10112000C830D10531F1C930D10524F4C230D10520
:1011300031F50CC0CA30D10589F0C031D105F9F4C0
:10114000C12CD12CE12CB8E0FB2E28C0C12CD12C15
:10115000E12CA0E4FA2E22C0CAE0D0E0FCECCF2EB5
:10116000FCECDF2EFCECEF2EFCE0FF2E17C0C8E0FD
:10117000D0E0C12CD12CE12CE0E1FE2E0FC09E016D
:10118000442737FD4095542F60E070E080E090E800
:101190000E942738C901DA016C017D0120E030E0AE
:1011A00040E050E060E03E01882477FC8094982C79
:1011B00070EDB72EBA0CE9E0EB1570F48A2D81546E
:1011C0008A3118F499ECB92E06C08A2D81568A31DD
:1011D00050F589EAB82EBA0C8B2D90E08C179D073C
:1011E00014F56F3FE1F0C216D306E406F506B0F041
:1011F000CA01B901A40193010E94F5379B01AC011A
:101200002B0D311D411D511D2130F0E03F07F0E055
:101210004F07F0E85F0710F461E001C06FEFF801DD
:10122000A1908F01C5CF2114310481F0662331F0E4
:1012300001501040F1011183008308C051FE1AC013
:1012400002501040F1011183008314C067FF12C0E7
:1012500050FC05C02FEF3FEF4FEF5FE704C020E0E9
:1012600030E040E050E882E290E09093631C80938D
:10127000621C16C050FE08C05095409530952195CF
:101280003F4F4F4F5F4F0CC057FF0AC082E290E0C4
:101290009093631C8093621C2FEF3FEF4FEF5FE74B
:1012A000B901CA01DF91CF911F910F91FF90EF908B
:1012B000DF90CF90BF90AF909F908F907F906F9076
:1012C0005F903F902F900895FB01DC01415050400A
:1012D00088F08D9181341CF08B350CF4805E659123
:1012E00061341CF06B350CF4605E861B611171F388
:1012F000990B0895881BFCCFFB0155915523A9F04C
:10130000BF01DC014D9145174111E1F759F4CD01C1
:101310000590002049F04D9140154111C9F3FB01A2
:101320004111EFCF81E090E001970895FC01819198
:10133000861721F08823D9F7992708953197CF018F
:1013400008950F931F93DF93CF93CDB7DEB7E09748
:101350000FB6F894DEBF0FBECDBFDE011196E3EBF2
:10136000F4E080E101900D928150E1F7DE015196A9
:10137000E3EAF4E080E101900D928150E1F7DE01B3
:101380009196E3E9F4E080E101900D928150E1F75C
:1013900089819A81AB81BC818093B0079093B1071A
:1013A000A093B207B093B30789899A89AB89BC89A6
:1013B0008093C0079093C107A093C207B093C3075F
:1013C00089A19AA1ABA1BCA18093A0079093A1078A
:1013D000A093A207B093A3078D819E81AF81B885AA
:1013E0008093B4079093B507A093B607B093B7075F
:1013F0008D899E89AF89B88D8093C4079093C50766
:10140000A093C607B093C7078DA19EA1AFA1B8A5B1
:101410008093A4079093A507A093A607B093A7076E
:1014200089859A85AB85BC858093B8079093B90769
:10143000A093BA07B093BB07898D9A8DAB8DBC8DF5
:101440008093C8079093C907A093CA07B093CB07AE
:1014500089A59AA5ABA5BCA58093A8079093A907D9
:10146000A093AA07B093AB078D859E85AF85B889F9
:101470008093BC079093BD07A093BE07B093BF07AE
:101480008D8D9E8DAF8DB8A18093CC079093CD07A5
:10149000A093CE07B093CF078DA59EA5AFA5B8A901
:1014A0008093AC079093AD07A093AE07B093AF07BE
:1014B0000E94221780E090E8ABE3B5E48093D40764
:1014C0009093D507A093D607B093D7078093D807FA
:1014D0009093D907A093DA07B093DB0720E030E0C0
:1014E00040E050E02093D0073093D1074093D207DB
:1014F0005093D30780E29EE4A0E0B0E080939C0785
:1015000090939D07A0939E07B0939F072093E807B1
:101510003093E9074093EA075093EB0780E090E0AF
:10152000A0EAB1E48093DC079093DD07A093DE0787
:10153000B093DF078093E0079093E107A093E20761
:10154000B093E3078093E4079093E507A093E60741
:10155000B093E7072093F7043093F8044093F9041D
:101560005093FA042093F3043093F4044093F50469
:101570005093F6042093EF043093F0044093F10469
:101580005093F204E4EEF0E064918F010BC07727F2
:1015900067FD70958CEB9BE10E948C2F0F5F1F4FB6
:1015A000F8016491662399F7EAEEF0E064918F0107
:1015B0000BC0772767FD70958CEB9BE10E948C2F09
:1015C0000F5F1F4FF8016491662399F78CEB9BE145
:1015D0006AE00E948C2FE0960FB6F894DEBF0FBE33
:1015E000CDBFCF91DF911F910F9108950F931F935E
:1015F000CF93DF9304EE10E0F8016491E8010AC094
:10160000772767FD70958CEB9BE10E948C2F2196CC
:10161000FE0164916623A1F7E6EAF2E06491EF012E
:101620000AC0772767FD70958CEB9BE10E948C2F99
:101630002196FE0164916623A1F78CEB9BE16AE0A1
:101640000E948C2FF8016491C4EED0E00AC0772785
:1016500067FD70958CEB9BE10E948C2F2196FE011B
:1016600064916623A1F74091B0075091B107609152
:10167000B2077091B3078EE992E00E940610409184
:10168000B4075091B5076091B6077091B7078BE921
:1016900092E00E9406104091B8075091B9076091FE
:1016A000BA077091BB0788E992E00E94061040914A
:1016B000BC075091BD076091BE077091BF0785E9D7
:1016C00092E00E9406108CEB9BE160E072E00E94C9
:1016D0001F328CEB9BE16AE00E948C2FF801649131
:1016E000C4EED0E00AC0772767FD70958CEB9BE1D4
:1016F0000E948C2F2196FE0164916623A1F7EBE7EF
:10170000F2E06491EF010AC0772767FD70958CEBDA
:101710009BE10E948C2F2196FE0164916623A1F724
:101720008CEB9BE16AE00E948C2FF8016491C4EE7F
:10173000D0E00AC0772767FD70958CEB9BE10E9493
:101740008C2F2196FE0164916623A1F74091C0077A
:101750005091C1076091C2077091C30782E792E080
:101760000E9406104091C4075091C5076091C607BA
:101770007091C7078FE692E00E9406104091C8075B
:101780005091C9076091CA077091CB078CE692E02F
:101790000E9406104091CC075091CD076091CE0772
:1017A0007091CF0789E692E00E9406108CEB9BE1D6
:1017B00060E072E00E941F328CEB9BE16AE00E94C5
:1017C0008C2FF8016491C4EED0E00AC0772767FD42
:1017D00070958CEB9BE10E948C2F2196FE01649109
:1017E0006623A1F7EBE4F2E06491EF010AC07727EA
:1017F00067FD70958CEB9BE10E948C2F2196FE017A
:1018000064916623A1F78CEB9BE16AE00E948C2F28
:10181000F8016491C4EED0E00AC0772767FD7095A7
:101820008CEB9BE10E948C2F2196FE016491662334
:10183000A1F74091A0075091A1076091A207709174
:10184000A30782E492E00E94DF0F4091A407509129
:10185000A5076091A6077091A7078FE392E00E9409
:10186000DF0F4091A8075091A9076091AA077091D6
:10187000AB078CE392E00E94DF0F4091AC075091E0
:10188000AD076091AE077091AF0789E392E00E94C7
:10189000DF0F8CEB9BE160E072E00E941F328CEB6B
:1018A0009BE16AE00E948C2FF8016491C4EED0E0C5
:1018B0000AC0772767FD70958CEB9BE10E948C2F07
:1018C0002196FE0164916623A1F7E4E0F2E06491C1
:1018D000EF010AC0772767FD70958CEB9BE10E94B2
:1018E0008C2F2196FE0164916623A1F78CEB9BE17E
:1018F0006AE00E948C2FF8016491C4EED0E00AC027
:10190000772767FD70958CEB9BE10E948C2F2196C9
:10191000FE0164916623A1F74091D4075091D50749
:101920006091D6077091D7078BEF91E00E94061067
:101930004091D8075091D9076091DA077091DB0781
:1019400088EF91E00E9406108CEB9BE160E072E072
:101950000E941F328CEB9BE16AE00E948C2FF80101
:101960006491C4EED0E00AC0772767FD70958CEBD8
:101970009BE10E948C2F2196FE0164916623A1F7C2
:10198000E5E4F1E06491EF010AC0772767FD709507
:101990008CEB9BE10E948C2F2196FE0164916623C3
:1019A000A1F78CEB9BE16AE00E948C2FF801649117
:1019B000C4EED0E00AC0772767FD70958CEB9BE101
:1019C0000E948C2F2196FE0164916623A1F740911D
:1019D000D0075091D1076091D2077091D3078CE363
:1019E00091E00E9406104091E8075091E90760914C
:1019F000EA077091EB0789E391E00E94061040919D
:101A00009C0750919D0760919E0770919F0786E308
:101A100091E00E94DF0F4091DC075091DD0760915B
:101A2000DE077091DF0783E391E00E94061040918A
:101A3000E0075091E1076091E2077091E30780E3CE
:101A400091E00E9406104091E4075091E5076091F3
:101A5000E6077091E7078DE291E00E9406108CEB9B
:101A60009BE160E072E00E941F328CEB9BE16AE038
:101A70000E948C2FF8016491C4EED0E00AC0772751
:101A800067FD70958CEB9BE10E948C2F2196FE01E7
:101A900064916623A1F7EBE1F1E06491EF010AC0E4
:101AA000772767FD70958CEB9BE10E948C2F219628
:101AB000FE0164916623A1F78CEB9BE16AE00E9432
:101AC0008C2FF8016491C4EED0E00AC0772767FD3F
:101AD00070958CEB9BE10E948C2F2196FE01649106
:101AE0006623A1F74091EF045091F0046091F10456
:101AF0007091F20482E191E00E9406104091F3049B
:101B00005091F4046091F5047091F6048FE091E037
:101B10000E9406104091F7045091F8046091F90476
:101B20007091FA048CE091E00E9406108CEB9BE12E
:101B300060E072E00E941F328CEB9BE16AE00E9441
:101B40008C2FDF91CF911F910F910895FC0110828E
:101B500011821282138214821582168217821086D5
:101B60001186128613861486158616861786108AA5
:101B7000118A128A138A148A8BEC9DEDA0E1B3E4DA
:101B8000858B968BA78BB08F80E090E0A0E0B0E0D3
:101B9000818F928FA38FB48F858F968FA78FB0A3DD
:101BA00081A392A3A3A3B4A385A396A3A7A3B0A73D
:101BB00080E494E5A9E0BBE481A792A7A3A7B4A71A
:101BC00080E090E4ACE1B8E485A796A7A7A7B0AB06
:101BD00080E090E0A8E4B3E481AB92ABA3ABB4ABFC
:101BE00015AA16AA17AA10AE0895FC0183E08083F7
:101BF0001182128213821482158216821782108635
:101C00001186128613861486158616861786108A04
:101C1000118A128A138A148A87E69AEFAEE2B3E435
:101C2000858B968BA78BB08F20E030E040E050E0B2
:101C3000218F328F438F548F80E391EAADEBB2E472
:101C4000858F968FA78FB0A321A332A343A354A35C
:101C500025A336A347A350A780E090EAACE0B6E402
:101C600081A792A7A3A7B4A780E090E4ACE1B8E471
:101C700085A796A7A7A7B0AB80E090E0AAE7B4E459
:101C800081AB92ABA3ABB4AB15AA16AA17AA81E09D
:101C900080AF08954091E4055091E50520E630E0DD
:101CA000B901469F9001479F300D569F300D11247A
:101CB000682F772767FD7095C9018A519A4F0E9456
:101CC00096099C01909367078093660780E0232B19
:101CD00009F081E008958091660790916707019669
:101CE00060E070E00E94D5060895AF92BF92CF9257
:101CF000DF92EF92FF920F931F93CF93DF939FEDAD
:101D0000A92E94E0B92E88E6C82E87E0D82EC0E030
:101D1000D0E0FE01ED53FB4F80810E944A0E8823E4
:101D200011F10E946B0E7B018C01FE01E852FB4F0A
:101D3000608170E0882777FD8095982F0E94FD359F
:101D4000F50120813181428153810E9436379B0108
:101D5000AC01C801B7010E94E734F60160837183CA
:101D6000828393830AC0F50180819181A281B3812E
:101D7000F60180839183A283B383219684E090E06F
:101D8000A80EB91EC80ED91EC430D10511F686E4BE
:101D90000E944A0E8823E1F00E946B0E7B018C01A9
:101DA000609378077093790780937A0790937B0705
:101DB00020E030E040E050E00E940237181644F482
:101DC000E0928A04F0928B0400938C0410938D04AB
:101DD000DF91CF911F910F91FF90EF90DF90CF9007
:101DE000BF90AF90089587E161E00E948334089529
:101DF00086E161E00E94D03387E161E00E94D03348
:101E000088E161E00E94D0338CE161E00E94D03330
:101E10008DE161E00E94D0338EE161E00E94D03319
:101E200089E161E00E94D0338AE161E00E94D03311
:101E30008BE161E00E94D03382E061E00E94D03308
:101E400083E061E00E94D03384E061E00E94D033FF
:101E500085E061E00E94D03386E061E00E94D033EB
:101E600087E061E00E94D03389E260E00E94D033D5
:101E70008DE260E00E94D03381E360E00E94D033C5
:101E800080E360E00E94D0338FE260E00E94D033B4
:101E90008BE260E00E94D03385E360E00E94D033A3
:101EA00087E260E00E94D03384E360E00E94D03398
:101EB00083E360E00E94D03382E360E00E94D0338D
:101EC00089E261E00E9483348DE261E00E94833404
:101ED00081E361E00E94833480E361E00E94833407
:101EE0008FE261E00E9483348BE261E00E948334E0
:101EF00085E361E00E94833484E361E00E948334DF
:101F000087E261E00E94833483E361E00E948334CE
:101F100082E361E00E94833480E261E00E94D0337A
:101F200084E261E00E94D03388E261E00E94D03315
:101F30008FE161E00E94D03383E261E00E94D03300
:101F400082E260E00E94D03386E260E00E94D033FB
:101F50008AE260E00E94D03381E260E00E94D033E8
:101F600085E260E00E94D0338DE061E00E94D033D2
:101F700008950E94F80E0E94F30E8CEB9BE140E066
:101F800052EC61E070E026E00E94CB2E8EE695E0F8
:101F90000E94A60D87EA95E00E94A60D85E395E0D4
:101FA0000E94F50D8CEF94E00E94F50D0E94A109AE
:101FB0000E94F60A0E94C1180E949E260895EF9280
:101FC000FF920F931F93CF93DF93EC017A018B0164
:101FD000FC0164910AC0772767FD70958CEB9BE14B
:101FE0000E948C2F2196FE0164916623A1F78CEB51
:101FF0009BE1B801A7012AE030E00E948031DF9127
:10200000CF911F910F91FF90EF900895EF92FF9263
:102010000F931F93CF93DF93EC017A018B01FC01A7
:1020200064910AC0772767FD70958CEB9BE10E9455
:102030008C2F2196FE0164916623A1F78CEB9BE126
:10204000B801A70122E030E00E940633DF91CF9172
:102050001F910F91FF90EF9008950F931F930CEB3A
:102060001BE1C8010E94692F4091E0055091E105F4
:102070006091E2057091E3054F5F5F4F6F4F7F4FB7
:10208000C8012AE030E00E94AC31C8016AE00E9439
:102090008C2F1F910F9108952F923F924F925F9234
:1020A0006F927F928F929F92AF92BF92CF92DF9268
:1020B000EF92FF920F931F93DF93CF93CDB7DEB7CD
:1020C000A4970FB6F894DEBF0FBECDBF0E94603359
:1020D000609388077093890780938A0790938B0792
:1020E000EE24FF246E010894C11CD11C86010E0D44
:1020F0001F1DF701E859F84FD701A152BB4F60816E
:102100007181828193812D913D914D915C910E94CD
:10211000E634D8016D937D938D939C931397E4E0FF
:10212000F0E0EE0EFF1EF0E1EF16F104F9F6898102
:102130009A81AB81BC818D8F9E8FAF8FB8A38D812B
:102140009E81AF81B885898F9A8FAB8FBC8F89852F
:102150009A85AB85BC858D8B9E8BAF8BB88F6D8D33
:102160007E8D8F8D98A19B01AC010E9436377B013B
:102170008C01698D7A8D8B8D9C8D9B01AC010E94A9
:1021800036379B01AC01C801B7010E94E7347B01DF
:102190008C016D897E898F89988D9B01AC010E948D
:1021A00036379B01AC01C801B7010E94E7340E9499
:1021B0009D377B018C012DEB37E346E855E30E9408
:1021C0005E35882394F4ED84FE840F851889C80158
:1021D000B70120E030E040E050E00E9402371816DE
:1021E00024F017FB109517F91095C801B7012DEBD6
:1021F00037E346E855E30E945E3587FDD1C1609123
:10220000850470918604882777FD8095982F0E9419
:10221000FD355B016C01C801B70120E030E84BEBF4
:1022200055E40E94363720918A0430918B04409106
:102230008C0450918D040E9462357B018C01609169
:102240007D0470917E04882777FD8095982F0E94E9
:10225000FD359B01AC01C801B7010E9462359B01AD
:10226000AC01C601B5010E9436370E94CA357C8B8D
:102270006B8B1616170624F0A1E0B0E0BC8BAB8B7D
:10228000E1E0F0E0FA8BE98B8B899C89AA2797FD26
:10229000A095BA2F89A39AA3ABA3BCA339C10E946E
:1022A0008426833098F4E6EBF2E064918F010BC052
:1022B000772767FD70958CEB9BE10E948C2F0F5F59
:1022C0001F4FF8016491662399F76AC129893A89F9
:1022D000B901882777FD8095982F0E94FD357B01F5
:1022E0008C0169A17AA18BA19CA10E94FD359B0163
:1022F000AC01C801B7010E9462351B012C016D8D34
:102300007E8D8F8D98A1A20191010E943637209178
:10231000DF043091E0044091E1045091E2040E9416
:10232000E7343B014C01CB01D401809368079093C3
:102330006907A0936A07B0936B07698D7A8D8B8DBF
:102340009C8DA20191010E9436372091E3043091C7
:10235000E4044091E5045091E6040E94E7345B01F7
:102360006C01CB01D60180936C0790936D07A0930D
:102370006E07B0936F076D897E898F89988DA20152
:1023800091010E9436372091E7043091E804409192
:10239000E9045091EA040E94E7347B018C01CB01EF
:1023A000D8018093700790937107A0937207B09340
:1023B0007307C201B1012D853E854F8558890E9462
:1023C00036379B01AC016091EB047091EC04809175
:1023D000ED049091EE040E94E734609374077093CB
:1023E00075078093760790937707C301D401809394
:1023F0007C0790937D07A0937E07B0937F07C5016C
:10240000D6018093800790938107A0938207B093B1
:102410008307C701D8018093840790938507A09311
:102420008607B093870760917D0470917E048827AA
:1024300077FD8095982F0E94FD3520918A04309178
:102440008B0440918C0450918D040E94363720E01B
:1024500030E040E752E40E94623520E030E048EC92
:1024600052E40E9462357B018C018CE797E060E8C2
:1024700077E044E857E024E737E0EEEDCE2EE4E0E5
:10248000DE2E0E94841B8091680790916907A091BD
:102490006A07B0916B078093DF049093E004A093E8
:1024A000E104B093E20480916C0790916D07A091D4
:1024B0006E07B0916F078093E3049093E404A093B8
:1024C000E504B093E6048091700790917107A091A4
:1024D0007207B09173078093E7049093E804A09388
:1024E000E904B093EA048091740790917507A09174
:1024F0007607B09177078093EB049093EC04A09358
:10250000ED04B093EE0489899A8901969A8B898BA0
:10251000A989BA89EB89FC89EA17FB070CF0BFCEC1
:102520008091680790916907A0916A07B0916B0745
:102530008093DF049093E004A093E104B093E2045D
:1025400080916C0790916D07A0916E07B0916F0715
:102550008093E3049093E404A093E504B093E6042D
:102560008091700790917107A0917207B0917307E5
:102570008093E7049093E804A093E904B093EA04FD
:102580008091740790917507A0917607B0917707B5
:102590008093EB049093EC04A093ED04B093EE04CD
:1025A000A4960FB6F894DEBF0FBECDBFCF91DF91DA
:1025B0001F910F91FF90EF90DF90CF90BF90AF9061
:1025C0009F908F907F906F905F904F903F902F9053
:1025D0000895DF92EF92FF920F931F93CF93DF93B3
:1025E000F0E6EF2EF12CDD24D394B5C14D3071F01F
:1025F0004A3321F480918D07882341F020918E0782
:1026000030918F072F3531050CF487C1E0918E078B
:10261000F0918F07309719F410928D07CEC1A091D9
:102620009007B0919107AE9D8001AF9D100DBE9DAA
:10263000100D1124E00FF11FEA51FA4F1082809122
:102640008D07882309F064C110928D07AE56B84FEC
:102650001C92E801CA51DA4FCE016EE470E00E948C
:1026600096099C01009709F4DFC090936707809357
:1026700066072F5F3F4F2C1B3D0B200F311FC901F9
:102680008A519A4F60E070E04AE050E00E943508BD
:102690006093960770939707809398079093990794
:1026A0002091E0053091E1054091E2055091E3056C
:1026B0002F5F3F4F4F4F5F4F621773078407950798
:1026C00009F461C180919007909191079C012E9D22
:1026D000C0012F9D900D3E9D900D11248A519A4F5F
:1026E00065EE72E00E947C09892B09F04CC1EEED89
:1026F000F2E06491EF010AC0772767FD70958CEBDB
:102700009BE10E948C2F2196FE0164916623A1F724
:102710004091E0055091E1056091E2057091E3057B
:102720008CEB9BE12AE030E00E94AC318CEB9BE12A
:102730006AE00E948C2F4091960750919707609114
:102740009807709199078CEB9BE12AE030E00E949A
:10275000EC3140C01E274F5FFC01E40FF11DEA5130
:10276000FA4FE081EA32B1F73093670720936607AA
:10277000C901019660E070E00E94D5060E94CA354A
:10278000212F30E02617370709F43DC0EEEDF2E0C7
:102790006491EF010AC0772767FD70958CEB9BE190
:1027A0000E948C2F2196FE0164916623A1F740912F
:1027B000E0055091E1056091E2057091E3058CEB35
:1027C0009BE12AE030E00E94AC318CEB9BE16AE0B7
:1027D0000E948C2F0E942D1010928F0710928E074E
:1027E000ECC0EEEDF2E06491EF010AC0772767FDDF
:1027F00070958CEB9BE10E948C2F2196FE016491D9
:102800006623A1F7D4CF8091960790919707A09166
:102810009807B09199078093E0059093E105A09304
:10282000E205B093E3052CC0CE016AE270E00E949D
:102830009609009729F1EEEDF2E06491EF010AC0EC
:10284000772767FD70958CEB9BE10E948C2F21967A
:10285000FE0164916623A1F74091E0055091E105E6
:102860006091E2057091E3058CEB9BE12AE030E09A
:102870000E94AC318CEB9BE16AE00E948C2FACCFC4
:1028800080919007909191078E9D80018F9D100DF2
:102890009E9D100D1124E801CA51DA4FCE0167E464
:1028A00070E00E9496099C01009789F09093670759
:1028B000809366072F5F3F4F2C1B3D0B200F311F6E
:1028C000C9018A519A4F60E070E00E94D5068CEBF6
:1028D0009BE16AED73E00E941F328CEB9BE16AE0A2
:1028E0000E948C2F8091900790919107019664E04F
:1028F00070E00E9414389093910780939007809124
:102900009A0790919B07019690939B0780939A0753
:1029100010928F0710928E071EC04B3311F4D09285
:102920008D0780918D078823B1F480919007909155
:1029300091078E9DF0018F9DF00D9E9DF00D11244D
:10294000E20FF31FEA51FA4F40832F5F3F4F30935E
:102950008F0720938E078CEB9BE10E942F2F181678
:1029600019065CF580919A0790919B0704972CF5C6
:102970008CEB9BE10E944B2F482F80938C078A3071
:1029800009F034CE43CE80919007909191078E9DAF
:10299000E0018F9DD00D9E9DD00D1124CE018A5156
:1029A0009A4F6AE270E00E9496099C01009709F430
:1029B00018CF10E040E0CE01CFCEDF91CF911F9134
:1029C0000F91FF90EF90DF900895CF93DF93E0E6B3
:1029D000F3E06491EF010AC0772767FD70958CEBF7
:1029E0009BE10E948C2F2196FE0164916623A1F742
:1029F00087E20E94B634BC018CEB9BE14AE050E0D8
:102A00000E940032E9E4F3E06491EF010AC0772705
:102A100067FD70958CEB9BE10E948C2F2196FE0147
:102A200064916623A1F785E30E94B634BC018CEB68
:102A30009BE14AE050E00E940032E0E3F3E0649161
:102A4000EF010AC0772767FD70958CEB9BE10E9430
:102A50008C2F2196FE0164916623A1F784E30E94E6
:102A6000B634BC018CEB9BE14AE050E00E9400329E
:102A7000E8E1F3E06491EF010AC0772767FD709504
:102A80008CEB9BE10E948C2F2196FE0164916623C2
:102A9000A1F782E30E94B634BC018CEB9BE14AE0D3
:102AA00050E00E940032E0E0F3E06491EF010AC0E0
:102AB000772767FD70958CEB9BE10E948C2F219608
:102AC000FE0164916623A1F789E20E94B634BC013D
:102AD0008CEB9BE14AE050E00E940032EAEEF2E02B
:102AE0006491EF010AC0772767FD70958CEB9BE13D
:102AF0000E948C2F2196FE0164916623A1F78DE23E
:102B00000E94B634BC018CEB9BE14AE050E00E948D
:102B10000032DF91CF910895CF93DF9387E40E9435
:102B20004A0E8823E9F00E946B0E0E94CA3577FD99
:102B30005DC1623071052CF06C31710509F056C130
:102B40000AC08091FB04882309F050C10E94750ED1
:102B50000E944C104BC18CEB9BE160E274E031C1F0
:102B60008DE40E944A0E882309F440C10E946B0E36
:102B70000E94CA3562317105E9F0633171052CF4A8
:102B80006131710509F032C108C06237710509F180
:102B90006737710509F02AC11CC18CEB9BE16EE31C
:102BA00074E00E941F328CEB9BE16AE00E948C2F44
:102BB000A5981CC18CEB9BE165E474E00E941F3278
:102BC0008CEB9BE16AE00E948C2FA59A10928704FF
:102BD0000DC1EBEDF2E06491EF010AC0772767FDCC
:102BE00070958CEB9BE10E948C2F2196FE016491E5
:102BF0006623A1F74091DF045091E0046091E10465
:102C00007091E2048CEB9BE122E030E00E940633FD
:102C1000E7EDF2E06491EF010AC0772767FD709558
:102C20008CEB9BE10E948C2F2196FE016491662320
:102C3000A1F74091E3045091E4046091E5047091A0
:102C4000E6048CEB9BE122E030E00E940633E3EDEA
:102C5000F2E06491EF010AC0772767FD70958CEB75
:102C60009BE10E948C2F2196FE0164916623A1F7BF
:102C70004091E7045091E8046091E9047091EA04FE
:102C80008CEB9BE122E030E00E940633EFECF2E0B7
:102C90006491EF010AC0772767FD70958CEB9BE18B
:102CA0000E948C2F2196FE0164916623A1F740912A
:102CB000EB045091EC046091ED047091EE048CEB08
:102CC0009BE122E030E00E940633E4ECF2E0649104
:102CD000EF010AC0772767FD70958CEB9BE10E949E
:102CE0008C2F2196FE0164916623A1F780E00E945B
:102CF00013270E94FD352091B0073091B107409114
:102D0000B2075091B3070E946235AB01BC018CEB56
:102D10009BE122E030E00E940633E0ECF2E06491B7
:102D2000EF010AC0772767FD70958CEB9BE10E944D
:102D30008C2F2196FE0164916623A1F781E00E9409
:102D400013270E94FD352091B4073091B5074091BB
:102D5000B6075091B7070E946235AB01BC018CEBFE
:102D60009BE122E030E00E940633ECEBF2E064915C
:102D7000EF010AC0772767FD70958CEB9BE10E94FD
:102D80008C2F2196FE0164916623A1F782E00E94B8
:102D900013270E94FD352091B8073091B907409163
:102DA000BA075091BB070E946235AB01BC018CEBA6
:102DB0009BE122E030E00E9406338CEB9BE16BE06C
:102DC00072E00E941F328CEB9BE16AE00E948C2F24
:102DD0000DC08CEB9BE16DE474E00E941F328CEB24
:102DE0009BE16AE00E948C2F0E94E514DF91CF9155
:102DF000089580919A0790919B07039714F40E947D
:102E0000E91280919A0790919B07892BC1F00E944B
:102E10008C1580919A0790919B07019790939B073F
:102E200080939A078091E4059091E505019664E00E
:102E300070E00E9414389093E5058093E4050E94A9
:102E4000252D08950F931F93CF93DF93C0E0D0E01B
:102E50008E010451184FFE01E056F84F60817181D8
:102E6000828193810E94FB35FE01E055F84F20815D
:102E70003181428153810E9436370E94CF35F8015B
:102E800060837183828393832496C031D10501F7D7
:102E9000DF91CF911F910F9108958F929F92AF92E2
:102EA000BF92CF92DF92EF92FF920F931F93CF9337
:102EB000DF93EC016B01009709F45CC08FA98823B4
:102EC00009F058C0EEA0FFA008A519A5FB01B6A007
:102ED000A7A090A481A4C801B7012B2D3A2D492D9C
:102EE000582D0E945E3588230CF044C0C801B701FC
:102EF000A80197010E9436377B018C016AA97BA942
:102F00008CA99DA9905820E030E040E050EC0E9450
:102F100036372EA53FA548A959A90E9436379B01EF
:102F2000AC01C801B7010E94E7340E949D377B01C4
:102F30008C016B2D7A2D892D982D9701A8010E9467
:102F40005E35882324F4EB2CFA2C092D182D6B2DDB
:102F50007A2D892D982D9701A8010E945E3588232E
:102F600049F0C701D801F60186A397A3A0A7B1A78E
:102F700081E086ABDF91CF911F910F91FF90EF9091
:102F8000DF90CF90BF90AF909F908F900895EF9279
:102F9000FF920F931F93CF93DF93F0904D1B00E0B0
:102FA00010E020E030E04DE4E42E12C0FE9CE00191
:102FB0001124C45FD74FC901B801AE010E944D175B
:102FC0008F2D8F5F803409F480E0F82E98018E01F8
:102FD00080914C1BF81651F7C901B80140E050E050
:102FE0000E944D17DF91CF911F910F91FF90EF90AD
:102FF0000895AF92BF92CF92DF92EF92FF920F931C
:103000001F93CF93DF93EB018A016115710509F4DA
:1030100066C04115510509F462C0DAA4CBA4BCA472
:10302000ADA46EA17FA188A599A52D2D3C2D4B2D7A
:103030005A2D0E945E35882309F451C08FA9882338
:1030400009F043C0F801E6A0F7A000A511A56D2D79
:103050007C2D8B2D9A2DA80197010E9402371816FE
:10306000A4F5C801B701A80197010E9436377B017A
:103070008C016AA97BA98CA99DA9905820E030E019
:1030800040E050EC0E9436372EA53FA548A959A92B
:103090000E9436379B01AC01C801B7010E94E7349A
:1030A0000E949D377B018C016D2D7C2D8B2D9A2DDF
:1030B0009701A8010E945E35882324F4ED2CFC2C96
:1030C0000B2D1A2DC701D80104C08D2D9C2DAB2DC1
:1030D000BA2D8EA39FA3A8A7B9A781E08EABDF91DD
:1030E000CF911F910F91FF90EF90DF90CF90BF9005
:1030F000AF900895CF92DF92EF92FF920F93DF93FC
:10310000CF930F920F92CDB7DEB780914C1B8FB744
:10311000F894F0904D1B8FBF80914C1B90E0805C29
:103120009F4F8F1991098F739070049704F100914C
:103130004C1B03500F73CC24DD2440E050E06DE4C1
:10314000E62E13C0802F002309F480E4082F0150DD
:103150000E9DC0011124845F974F9A838983B60125
:103160000E94F917A601C980DA800F1559F70F9050
:103170000F90CF91DF910F91FF90EF90DF90CF9064
:10318000089510924C1B10924D1B80E1ECEFF7E07C
:10319000DF011D928A95E9F780E090E0A0E0B0E0C1
:1031A0008093521B9093531BA093541BB093551BB9
:1031B0008093561B9093571BA093581BB093591B99
:1031C00080935A1B90935B1BA0935C1BB0935D1B79
:1031D00080935E1B90935F1BA093601BB093611B59
:1031E00080934E1B90934F1BA093501BB093511B89
:1031F00008952F923F924F925F926F927F928F929B
:103200009F92AF92BF92CF92DF92EF92FF920F9375
:103210001F93DF93CF93CDB7DEB766970FB6F894C1
:10322000DEBF0FBECDBF9E8B8D8B6A017B01480137
:103230005901DC01D8966D917D918D919C91DB9720
:103240000E94FB35698B7A8B8B8B9C8BA701960137
:103250000E9436370E944B350E94CF356D837E83A6
:103260008F83988769897A898B899C89A5019401C4
:103270000E9436370E944B350E94CF3569837A838E
:103280008B839C832D813E814F8158852837310562
:103290004105510540F448E750E060E070E04D839F
:1032A0005E836F83788769817A818B819C8168379F
:1032B00071058105910540F488E790E0A0E0B0E059
:1032C00089839A83AB83BC83AD89BE89AC5BBF4FD6
:1032D000AD90BD90CD90DC901397A454B040BE8BC0
:1032E000AD8B6D817E818F8198850E94FB356D87C6
:1032F0007E878F87988BC601B5010E94FD351B0123
:103300002C0120E030E040E050E00E945E35882350
:1033100021F4E0E070E060E028C069897A898B8957
:103320009C899B01AC010E9436377B018C016D8525
:103330007E858F8598899B01AC010E9436379B0161
:10334000AC01C801B7010E94E6347B018C01C201C7
:10335000B101A20191010E94E7349B01AC01C801B7
:10336000B7010E946235E62F692F2E2F372F482F85
:10337000562FB901CA010E944B350E94CA353B0144
:103380004C0169817A818B819C810E94FB35698720
:103390007A878B879C8766277727CB016A197B09F9
:1033A0008C099D090E94FD355B016C0120E030E035
:1033B00040E050E00E945E35882321F4E0E070E0B8
:1033C00060E028C069857A858B859C859B01AC016E
:1033D0000E9436377B018C0169897A898B899C89A7
:1033E0009B01AC010E9436379B01AC01C801B701BB
:1033F0000E94E6347B018C01C601B501A60195014E
:103400000E94E7349B01AC01C801B7010E946235FC
:10341000E62F692F2E2F372F482F562FB901CA01BB
:103420000E943836ED89FE89A088B188C288D38889
:1034300086017501E618F708080919090E94CA35BE
:10344000A8019701261B370B480B590B57FF71C07A
:10345000C201B10120E030E040E050E00E945E3562
:10346000882321F4E0E070E060E044C0C201B101D3
:10347000A20191010E94E7347B018C01C601B501D4
:103480000E94FB359B01AC01C801B7010E94363791
:103490007B018C016D857E858F8598899B01AC01B0
:1034A0000E9436379B01AC01C801B7010E94E63487
:1034B0007B018C0169857A858B859C859B01AC019C
:1034C0000E9436379B01AC01C801B7010E94E73466
:1034D0007B018C01C201B10120E030E040E850E402
:1034E0000E9436379B01AC01C801B7010E946235CA
:1034F000E62F692F2E2F372F482F562FB901CA01DB
:103500000E944B350E94CA35AC01CB01DA013C0167
:103510004D0197FE03C06624772443016A147B049F
:103520008C049D0410F03501460120E030E040E0BD
:1035300050E09FB7F8946D897E89645B7F4FDB0113
:103540008C91AC54B040BE8BAD8B882321F5FD012E
:10355000648A758A868A978A260D371D481D591DEB
:1035600058962D933D934D935C935B972D813E81AF
:103570004F815885DC962D933D934D935C93DF9757
:10358000A05CBF4F29813A814B815C812D933D9393
:103590004D935C9313979FBF66960FB6F894DEBF6A
:1035A0000FBECDBFCF91DF911F910F91FF90EF9094
:1035B000DF90CF90BF90AF909F908F907F906F9053
:1035C0005F904F903F902F9008954F925F927F921F
:1035D0008F929F92AF92BF92CF92DF92EF92FF9223
:1035E0000F931F93CF93DF9370904D1BC0E0D0E0FB
:1035F0007DE4472E512C46C02097B1F18EA9882337
:1036000061F4849CF001859CF00D949CF00D1124D4
:10361000E45FF74F86A9882339F1EAA0FBA00CA14B
:103620001DA16EA17FA188A599A5A80197010E945F
:1036300062355B016C01849CF001859CF00D949CCB
:10364000F00D1124E45FF74F66A177A180A591A545
:10365000A80197010E9462358B019C01CE01B60141
:10366000A5010E94F9181EAA739480E4781609F443
:103670007724849CE001859CD00D949CD00D11246E
:10368000C45FD74F872C992487FC909480914C1B62
:1036900090E08816990609F0AFCF2097F1F0EAA0E4
:1036A000FBA00CA11DA16EA17FA188A599A5A801D1
:1036B00097010E9462355B016C016DEC7CEC8CE43F
:1036C0009DE3A80197010E9462358B019C01CE0108
:1036D000B601A5010E94F9181EAADF91CF911F9192
:1036E0000F91FF90EF90DF90CF90BF90AF909F90A1
:1036F0008F907F905F904F9008950E947A180E945B
:10370000C7170E94E51A08952F923F924F925F9239
:103710006F927F928F929F92AF92BF92CF92DF92E1
:10372000EF92FF920F931F93DF93CF93CDB7DEB746
:10373000C459D0400FB6F894DEBF0FBECDBFFC0118
:103740005B014A013901CF56DF4FE882C159D040B1
:10375000CE56DF4FF882C259D040CD56DF4F088396
:10376000C359D040CC56DF4F1883C459D040AF96D0
:10377000DFAECEAEAF9780914C1B8F5F803409F4E3
:1037800080E0282F332727FD30953EA32DA380917D
:103790004D1B90E04DA15EA184179507C1F3609188
:1037A000B0077091B1078091B2079091B307AD96C1
:1037B0006CAF7DAF8EAF9FAFAD97208131814281DD
:1037C00053810E9436370E940637EC966FAFEC9714
:1037D000ED967FAFED97EE968FAFEE97EF969FAF9A
:1037E000EF978091B4079091B507A091B607B0917B
:1037F000B707A9968CAF9DAFAEAFBFAFA997BC017D
:10380000CD01D5012D913D914D915C910E943637AE
:103810000E940637C158DF4F6883CF57D040C05849
:10382000DF4F7883C058D040CF57DF4F8883C158CF
:10383000D040CE57DF4F9883C258D0402091B80770
:103840003091B9074091BA075091BB07A5962CAFAC
:103850003DAF4EAF5FAFA597CA01B901D4012D911D
:103860003D914D915C910E9436370E940637CD57AD
:10387000DF4F6883C358D040CC57DF4F7883C4589C
:10388000D040CB57DF4F8883C558D040CA57DF4F51
:103890009883C658D0402091BC073091BD07409115
:1038A000BE075091BF07A1962CAF3DAF4EAF5FAFA3
:1038B000A197CA01B901D3012D913D914D915C9120
:1038C0000E9436370E940637C957DF4F6883C758B2
:1038D000D040C857DF4F7883C858D040C757DF4F14
:1038E0008883C958D040C657DF4F9883CA58D04004
:1038F00080914C1BE82FF0E06D96FFAFEEAF6D9717
:103900008DE490E09F01289FF001299FF00D389FE2
:10391000F00D1124E45FF74FE45BFF4F1082EC548D
:10392000F0404091FC075091FD076091FE077091B7
:10393000FF076B964CAF5DAF6EAF7FAF6B97EF96A7
:103940008CAD9DADAEADBFADEF97841B950BA60BB7
:10395000B70B67968CAF9DAFAEAFBFAF6797808355
:103960009183A283B383B7FF0BC0B095A0959095C8
:1039700081959F4FAF4FBF4F80839183A283B383C5
:1039800020910008309101084091020850910308ED
:1039900063962CAF3DAF4EAF5FAF6397C158DF4F1B
:1039A000688179818A819B81CF57D040621B730BDC
:1039B000840B950B2F966CAF7DAF8EAF9FAF2F977B
:1039C0008DE490E06D96AEADBFAD6D97A89FF00110
:1039D000A99FF00DB89FF00D1124E45FF74F2F96CB
:1039E0002CAD3DAD4EAD5FAD2F972483358346831F
:1039F000578357FF0DC0DA01C901B095A095909586
:103A000081959F4FAF4FBF4F84839583A683B78324
:103A100040910408509105086091060870910708CC
:103A20002B964CAF5DAF6EAF7FAF2B97CD57DF4F6F
:103A300088819981AA81BB81C358D040841B950B92
:103A4000A60BB70B27968CAF9DAFAEAFBFAF279736
:103A50008DE490E06D96AEADBFAD6D97A89FF0017F
:103A6000A99FF00DB89FF00D1124E45FF74F279642
:103A70002CAD3DAD4EAD5FAD279720873187428796
:103A8000538757FF0DC0DA01C901B095A0959095F5
:103A900081959F4FAF4FBF4F80879187A287B38794
:103AA000209008083090090840900A0850900B08B0
:103AB000C957DF4F488159816A817B81C758D040FF
:103AC000421953096409750923964CAF5DAF6EAF77
:103AD0007FAF2397E091DE04F0E0EE0FFF1FEE0FC3
:103AE000FF1FEF57FB4F60817181828193816BAF24
:103AF0007CAF8DAF9EAF80917F04909180049AAF90
:103B000089AF23966CAD7DAD8EAD9FAD239797FFAA
:103B100007C090958095709561957F4F8F4F9F4F0F
:103B20000E94FD352BAD3CAD4DAD5EAD0E943637EC
:103B30000E94CA35A9ADBAAD9D01442737FD409515
:103B4000542F0E94F53724E630E040E050E00E9418
:103B500049388DE490E06D966EAD7FAD6D97689FAE
:103B6000F001699FF00D789FF00D1124E45FF74F8D
:103B7000DF011C96248711963C93119712964C9363
:103B8000129713965C93E080F18002811381648028
:103B9000758086809780A084B184C284D384C90153
:103BA000DA018A159B05AC05BD0514F4D601C501E3
:103BB00086159705A805B90514F4D401C3019C0125
:103BC000AD018E159F05A007B10714F4A801970158
:103BD0008DE490E06D96AEADBFAD6D97A89FB0013E
:103BE000A99F700DB89F700D1124645F774FFB0182
:103BF000208B318B428B538B26303105410551058B
:103C000010F40C946A26E85BFF4F8091DC049091DD
:103C1000DD04AA2797FDA095BA2F80839183A28304
:103C2000B383DB0190961C92EF962CAD3DAD4EAD6B
:103C30005FADEF976B968CAD9DADAEADBFAD6B97A5
:103C4000281739074A075B0724F481E0DB019096C7
:103C50008C93C158DF4F288139814A815B81CF57CE
:103C6000D04063966CAD7DAD8EAD9FAD639726174A
:103C700037074807590794F48DE490E06D96AEAD90
:103C8000BFAD6D97A89FF001A99FF00DB89FF00DF3
:103C90001124E45FF74F80A1826080A3CD57DF4FEE
:103CA000288139814A815B81C358D0402B966CAD05
:103CB0007DAD8EAD9FAD2B97261737074807590767
:103CC00094F48DE490E06D96AEADBFAD6D97A89F76
:103CD000F001A99FF00DB89FF00D1124E45FF74F9C
:103CE00080A1846080A3C957DF4F288139814A8130
:103CF0005B81C758D040221533054405550594F41F
:103D00008DE490E06D964EAD5FAD6D97489FF001EC
:103D1000499FF00D589FF00D1124E45FF74F80A1EB
:103D2000886080A38DE490E06D966EAD7FAD6D9759
:103D3000689FF001699FF00D789FF00D1124E45FFA
:103D4000F74FAF96AEADBFADAF978C9181A3A0807A
:103D5000B180C280D380A114B104C104D10409F0A0
:103D6000A5988DE490E06D962EAD3FAD6D97289FA0
:103D7000F001299FF00D389FF00D1124E45FF74FFB
:103D80006084718482849384611471048104910439
:103D900041F09FB7F894809108018E7F80930801CD
:103DA0009FBF8DE490E06D964EAD5FAD6D97489FDF
:103DB000F001499FF00D589FF00D1124E45FF74F7B
:103DC00084859585A685B7850097A105B10551F035
:103DD00012982090D0073090D1074090D207509091
:103DE000D30708C02090E8073090E9074090EA0721
:103DF0005090EB07CF56DF4F6881C159D040CE5667
:103E0000DF4F7881C259D040CD56DF4F8881C359EA
:103E1000D040CC56DF4F9881C459D040A2019101C7
:103E20000E945E3587FD16C0CF56DF4F8881C1598D
:103E3000D040CE56DF4F9881C259D040CD56DF4F8B
:103E4000A881C359D040CC56DF4FB881C459D04067
:103E50001C012D0167966CAD7DAD8EAD9FAD679752
:103E60000E94FD35AD962CAD3DAD4EAD5FADAD972D
:103E70000E946235E8966FAFE897E9967FAFE997C1
:103E8000EA968FAFEA97EB969FAFEB97AC01CB0129
:103E9000DA0189839A83AB83BC832F966CAD7DADA9
:103EA0008EAD9FAD2F970E94FD35A9962CAD3DADEF
:103EB0004EAD5FADA9970E946235E4966FAFE4976F
:103EC000E5967FAFE597E6968FAFE697E7969FAFCB
:103ED000E797AC01CB01DA018D839E83AF83B8876E
:103EE00027966CAD7DAD8EAD9FAD27970E94FD35B9
:103EF000A5962CAD3DAD4EAD5FADA5970E94623548
:103F0000E0966FAFE097E1967FAFE197E2968FAFD3
:103F1000E297E3969FAFE397AC01CB01DA01898783
:103F20009A87AB87BC8723966CAD7DAD8EAD9FAD78
:103F300023970E94FD35A1962CAD3DAD4EAD5FADF2
:103F4000A1970E9462352BAD3CAD4DAD5EAD0E9498
:103F500036377B018C01A9ADBAADBD01882777FD4D
:103F60008095982F0E94FD359B01AC01C801B701D7
:103F70000E94363720E030E048EC52E40E9462357F
:103F80009B01AC016D877E878F87988BB6E0AB165F
:103F9000B104C104D1042CF58DE490E06D966EADB2
:103FA0007FAD6D97689FF001699FF00D789FF00DD0
:103FB0001124E45FF74F84819581A681B78106972C
:103FC000A105B10574F476E06716710481049104CB
:103FD00044F4DA01C901BF7786A797A7A0ABB1ABBC
:103FE00055C0E8962FADE897E9963FADE997EA9678
:103FF0004FADEA97EB965FADEB97B901CA010E940E
:10400000E7373B014C01E4962FADE497E5963FADD1
:10401000E597E6964FADE697E7965FADE797B9016E
:10402000CA010E94E7375B016C01E0962FADE09773
:10403000E1963FADE197E2964FADE297E3965FAD33
:10404000E397B901CA010E94E7377B018C01C401E3
:10405000B301A60195010E94E734A80197010E94CF
:10406000E7340E949D372DE430E06D96AEADBFADD4
:104070006D97A29FF001A39FF00DB29FF00D112448
:10408000E45FF74F66A777A780AB91AB8DE490E034
:104090006D96EEADFFAD6D97E89F6001E99FD00C86
:1040A000F89FD00C11242CE038E0C20ED31ED601AC
:1040B0009E96ED90FD900D911C91D19760E070E07F
:1040C00080E89FE3A80197010E9462359B01AC0143
:1040D000C201B1010E9436372B013C01B0914C1B4B
:1040E000B8AFE0914D1BEFABC801B701A30192013E
:1040F0000E943637D60192966D937D938D939C9353
:10410000959750966D917D918D919C9153970E94BA
:10411000FB35A30192010E9436370E944B350E9465
:10412000CF35F60160AF71AF82AF93AFC557DF4FA8
:104130001882CB58D040C457DF4F1882CC58D0409B
:1041400020E8222E9FE3392E88249924E1E0F0E034
:10415000EC0FFD1FE80DF91DC301B2012081318173
:10416000428153810E943637E1E1F0E0EC0FFD1F00
:10417000E80DF91D60837183828393835B016C0179
:10418000E894D7F8F401E054F84FE080F180028120
:104190001381C601B501A80197010E9402371816C4
:1041A000CCF4C801B701A60195010E9462356B01EC
:1041B0007C01C557DF4F6881CB58D040C457DF4FD3
:1041C0007881CC58D040C101A70196010E945E358C
:1041D00088236CF4C557DF4F8881CB58D040C45733
:1041E000DF4F9881CC58D040D1016C017D0124E093
:1041F00030E0820E931E30E18316910471F0D701F6
:10420000C601C557DF4FC882CB58D040C457DF4FD7
:104210009883CC58D0401D0199CFC701B60120E04A
:1042200030E040E85FE30E945E3588230CF04CC02C
:104230008E010F5E1F4F81E2A82EB12CAC0EBD1E69
:10424000D8016D917D918D919C91A70196010E945D
:104250003637F80161937193819391938F01EA1539
:10426000FB0571F78DE490E06D962EAD3FAD6D9737
:10427000289F8001299F100D389F100D1124045F85
:10428000174FD80192966D917D918D919C91959744
:10429000A70196010E943637F80162A373A384A395
:1042A00095A360AD71AD82AD93AD0E94FB35A701C2
:1042B00096010E9436370E94CF35D801D8966D936B
:1042C0007D938D939C93DB978DE490E06D96EEAD9E
:1042D000FFAD6D97E89F8001E99F100DF89F100DCD
:1042E0001124045F174FD80150966D917D918D91E7
:1042F0009C9153970E94FB35F80126A537A540A94C
:1043000051A90E9462351B012C01F8018081918125
:10431000A281B3810097A105B10549F584819581FA
:10432000A681B7810097A105B10509F58085918522
:10433000A285B3850097A105B105C9F4C201B101F9
:104340002091D8073091D9074091DA075091DB07C7
:104350000E9436370E944B350C5B1F4F0E94CF35B1
:10436000D8016D937D938D939C93139771C1C20176
:10437000B1012091D4073091D5074091D6075091D3
:10438000D7070E9436370E944B350E94CF352DE467
:1043900030E06D96EEADFFAD6D97E29F6001E39F5B
:1043A000D00CF29FD00C11242CE038E0C20ED31EAA
:1043B000B4E46B2E712C6C0C7D1CD3016D937D933A
:1043C0008D939C9313978090EC079090ED07A090AD
:1043D000EE07B090EF070E94FB357B018C01F601E0
:1043E00060817181828193810E94FD359B01AC01C6
:1043F000C801B7010E9436377B018C01D601509667
:104400006D917D918D919C9153970E94FB359B01FD
:10441000AC01C801B7010E9462357B018C01C50166
:10442000B4010E94FB359B01AC01C801B7010E9499
:10443000023718162CF4F30180829182A282B38293
:104440008090F0079090F107A090F207B090F307EA
:104450008DE490E06D962EAD3FAD6D97289F600185
:10446000299FD00C389FD00C11244CE058E0C40E8A
:10447000D51EA4E46A2E712C6C0C7D1CD3016D91A9
:104480007D918D919C910E94FB357B018C01F60101
:1044900064817581868197810E94FD359B01AC0105
:1044A000C801B7010E9436377B018C01D6015096B6
:1044B0006D917D918D919C9153970E94FB359B014D
:1044C000AC01C801B7010E9462357B018C01C501B6
:1044D000B4010E94FB359B01AC01C801B7010E94E9
:1044E000023718162CF4F30180829182A282B382E3
:1044F0008090F8079090F907A090FA07B090FB071A
:104500008DE490E06D962EAD3FAD6D97289F6001D4
:10451000299FD00C389FD00C11244CE058E0C40ED9
:10452000D51EF4E46F2E712C6C0C7D1CD3016D91A3
:104530007D918D919C910E94FB357B018C01F60150
:1045400064857585868597850E94FD359B01AC0144
:10455000C801B7010E9436377B018C01D601509605
:104560006D917D918D919C9153970E94FB359B019C
:10457000AC01C801B7010E9462357B018C01C50105
:10458000B4010E94FB359B01AC01C801B7010E9438
:10459000023718162CF4F30180829182A282B38232
:1045A0008090F4079090F507A090F607B090F70779
:1045B0008DE490E06D962EAD3FAD6D97289F600124
:1045C000299FD00C389FD00C11244CE058E0C40E29
:1045D000D51EE4E46E2E712C6C0C7D1CD3016D9104
:1045E0007D918D919C910E94FB357B018C01F601A0
:1045F00060857185828593850E94FD359B01AC01A4
:10460000C801B7010E9436377B018C01D601509654
:104610006D917D918D919C9153970E94FB359B01EB
:10462000AC01C801B7010E9462357B018C01C50154
:10463000B4010E94FB359B01AC01C801B7010E9487
:10464000023718162CF4F30180829182A282B38281
:104650008DE490E06D962EAD3FAD6D97289F600183
:10466000299FD00C389FD00C11244CE058E0C40E88
:10467000D51EF601EC5BFF4F6081718182819381D1
:104680000E94FB357B018C01A20191010E946235E1
:10469000D601D2966D937D938D939C93D597C80147
:1046A000B7012DEB37E346E051E40E9436370E9414
:1046B000CA35F601648F758F868F978F6090DC07FF
:1046C0007090DD078090DE079090DF07C401B30192
:1046D00020E030E040E05FE30E9436375B016C0190
:1046E000298D3A8D4B8D5C8D2BAB3CAB4DAB5EABCE
:1046F0004091E0075091E1076091E2077091E30774
:104700004FA758AB69AB7AABCB01BA0120E030E0E0
:1047100040E05FE30E9436377B018C016BA97CA9E6
:104720008DA99EA99F77A80197010E9402371816AC
:1047300044F4C601B501A80197010E945E358823A3
:1047400014F4860175016D8D7E8D8F8D98A16BA7F8
:104750007CA78DA79EA78091E4079091E507A09183
:10476000E607B091E7078FA398A7A9A7BAA7BC014E
:10477000CD0120E030E040E05FE30E9436371B01CE
:104780002C016BA57CA58DA59EA59F77A20191010B
:104790000E940237181644F4C801B701A201910122
:1047A0000E945E35882314F4170128018DE490E0FF
:1047B0006D96AEADBFAD6D97A89FF001A99FF00DAE
:1047C000B89FF00D1124E45FF74F22A133A144A15B
:1047D00055A129A33AA34BA35CA3C201B1010E9436
:1047E0005E3587FD04C029A03AA04BA05CA038AD7F
:1047F000832F90E0805C9F4F4FA9841B91098F739A
:10480000907002970CF405C150914E1BC357DF4FB7
:104810005883CD58D04060914F1BC257DF4F6883FB
:10482000CE58D0407091501BC157DF4F7883CF587E
:10483000D0408091511BC057DF4F8883C059D04072
:10484000652FC257DF4F7881CE58D040C157DF4F18
:104850008881CF58D040C057DF4F9881C059D04091
:1048600027E137EB41ED58E30E94023718160CF0B0
:10487000D0C069897A898B899C892091521B30919B
:10488000531B4091541B5091551B0E94E6349B01D1
:10489000AC010E9436377B018C016D897E898F893E
:1048A000988D2091561B3091571B4091581B509169
:1048B000591B0E94E6349B01AC010E9436379B01D4
:1048C000AC01C801B7010E94E7340E949D377B010B
:1048D0008C01A40193010E94023718165CF00F2E80
:1048E000F0E06F2EF0E07F2EF0E88F2EFFE39F2E9A
:1048F000F02D08C0C401B301A80197010E946235E0
:104900003B014C016BA97CA98DA99EA920915A1B42
:1049100030915B1B40915C1B50915D1B0E94E63403
:104920007B018C01E89417F9C801B7012FA538A9BC
:1049300049A95AA90E940237181694F46FA578A9BC
:1049400089A99AA9A80197010E9462355B016C01AF
:10495000C401B301A60195010E945E35882314F4B9
:10496000640153016BA57CA58DA59EA520915E1BBE
:1049700030915F1B4091601B5091611B0E94E63497
:104980007B018C01E89417F9C801B7012FA138A564
:1049900049A55AA50E940237181694F46FA178A56C
:1049A00089A59AA5A80197010E9462357B018C0117
:1049B000C601B501A80197010E945E35882314F451
:1049C0008601750169A17AA18BA19CA1A80197011B
:1049D0000E9436377B018C01C357DF4F6881CD5869
:1049E000D040C257DF4F7881CE58D040C157DF4FFB
:1049F0008881CF58D040C057DF4F9881C059D040F0
:104A0000A80197010E945E3587FD19C0D801C70132
:104A100002C0D201C101C357DF4F8883CD58D040B7
:104A2000C257DF4F9883CE58D040C157DF4FA8837D
:104A3000CF58D040C057DF4FB883C059D0408DE425
:104A400090E06D96AEADBFAD6D97A89F8001A99F18
:104A5000100DB89F100D1124045F174FC357DF4F7F
:104A60008881CD58D040C257DF4F9881CE58D04072
:104A7000C157DF4FA881CF58D040C057DF4FB88112
:104A8000C059D040F80182A793A7A4A7B5A762A9EF
:104A900073A984A995A9905820E030E040E050EC3B
:104AA0000E943637D8019E962D913D914D915C9193
:104AB000D1970E9436372BE037ED43E25BE30E944B
:104AC000E7340E949D37F62EE72ED82EC92EC35705
:104AD000DF4F6881CD58D040C257DF4F7881CE5824
:104AE000D040C157DF4F8881CF58D040C057DF4FEB
:104AF0009881C059D0402F2D3E2D4D2D5C2D0E9408
:104B00005E3587FD14C0C357DF4FF882CD58D040C3
:104B1000C257DF4FE882CE58D040C157DF4FD8820E
:104B2000CF58D040C057DF4FC882C059D0408DE425
:104B300090E06D96EEADFFAD6D97E89F8001E99F27
:104B4000100DF89F100D1124045F174FC357DF4F4E
:104B50008881CD58D040C257DF4F9881CE58D04081
:104B6000C157DF4FA881CF58D040C057DF4FB88121
:104B7000C059D040F80186A397A3A0A7B1A762A10E
:104B800073A184A195A12F2D3E2D4D2D5C2D0E944A
:104B90005E3518162CF081E0D801D7968C9302C0B0
:104BA000F80117AA8DE490E06D962EAD3FAD6D979C
:104BB000289FF001299FF00D389FF00D1124E45F2C
:104BC000F74F81E086ABA2E5BBE1FE01719680E183
:104BD00001900D928150E1F78DE490E06D964EAD1D
:104BE0005FAD6D97489F6001499FD00C589FD00CD6
:104BF00011246CE078E0C60ED71ED6019296ED9097
:104C0000FD900D911C919597E0924E1BF0924F1BD9
:104C10000093501B1093511B96966D917D918D9131
:104C20009C919997A80197010E9462354B015C0104
:104C3000C201B101A80197010E9462358B019C015C
:104C4000C601B501A4010E94F918BDA1B0934C1B87
:104C5000C957DF4F288139814A815B81C758D040CD
:104C6000209308083093090840930A0850930B08D2
:104C7000CD57DF4F488159816A817B81C358D0402D
:104C80004093040850930508609306087093070842
:104C9000C158DF4F688179818A819B81CF57D0408D
:104CA00060930008709301088093020890930308B2
:104CB000EF968CAD9DADAEADBFADEF978093FC0789
:104CC0009093FD07A093FE07B093FF070E947D1B02
:104CD0000E949826CC56DF4F0FB6F894DEBF0FBE69
:104CE000CDBFCF91DF911F910F91FF90EF90DF909B
:104CF000CF90BF90AF909F908F907F906F905F907C
:104D00004F903F902F9008958091961B882311F02B
:104D100080E008958091A71B882311F081E0089519
:104D20008091A81B882311F48FEF089582E00895E5
:104D3000EFE6F0E080818260808308956D9AE1E083
:104D4000F1E0808188608083EAE0F1E08081826028
:104D500080830E9A3B9A9D9AA59AE7E0F1E08081C4
:104D6000816080839FB7F894E8E0F1E08081816002
:104D700080839FBF0A9A129A3F9A479A2198299A4C
:104D80009A98A29A6C9A7498A59A109287046B9A32
:104D90007398EAE0F1E08081886080839FB7F8949F
:104DA000EBE0F1E08081877F80839FBF9FB7F8941D
:104DB000E8E0F1E08081816080839FBF10928904E8
:104DC0000C9A1498129A399A4198A1E8B0E08C9103
:104DD0008F7E8C938C9188608C93E0E8F0E08081EA
:104DE0008D7F808380818E7F808380818F7380839D
:104DF00080818F7C80838C91887F82608C9380E01F
:104E000090E490938900809388001092850010921E
:104E10008400EFE6F0E080818260808381E080930F
:104E2000920478940895E82F8FB7F894F0E0EE0F8D
:104E3000FF1FEE0FFF1FE059F44E208131814281A8
:104E400053818FBFB901CA0108951F920F920FB607
:104E50000F920BB60F921124AF92BF92CF92DF92B6
:104E6000EF92FF920F931F932F933F934F935F9374
:104E70006F937F938F939F93AF93BF93CF93DF9362
:104E8000EF93FF938091621B9091631B892B09F034
:104E90008BC190914C1B80914D1B981719F4E0E049
:104EA000F0E014C080914D1B90E02DE430E0829F33
:104EB000F001839FF00D929FF00D1124E45FF74FF6
:104EC000E45BFF4F81E08083EC54F040F093631B80
:104ED000E093621B309709F461C1E45BFF4F81E00E
:104EE0008083EC54F04010929F1B1092A01B1092F4
:104EF000A11B1092A21B60AD71AD2CE96134720749
:104F000018F060E47CE904C03EE46132730730F0DD
:104F1000769567957695679584E007C047E261319D
:104F2000740730F07695679582E08093981B07C0F0
:104F30008093981B6032710510F460E270E0EB0121
:104F4000A09758E0C030D507E8F04D2F50E0440F4F
:104F5000551F440F551F42565C4F9A012E5F3F4F1D
:104F6000F901859194919C01AA27C39FC001C29F1A
:104F7000810D9A1F06948A1F9A1F1124FA014591E8
:104F800054911EC0CE01969587958C7F8256984F7E
:104F9000FC0145915491FC013296259134918C2F5E
:104FA00090E087709070BC01269FC001279F900DF4
:104FB000369F900D1124A3E096958795AA95E1F769
:104FC000481B590B4436510578F48CEB9BE16AE59C
:104FD00074E00E941F328CEB9BE1BE014AE050E07E
:104FE0000E948F3144E650E05093A41B4093A31BD2
:104FF0008091981B992787FD90959093A61B80938D
:10500000A51BE091621BF091631B64AD75AD7093BD
:105010009E1B60939D1B8CE96134780718F060E457
:105020007CE904C09EE46132790730F0769567959B
:105030007695679584E007C0E7E261317E0730F03E
:105040007695679582E08093981B08C081E08093F5
:10505000981B6032710510F460E270E0EB01A097DC
:10506000F8E0C030DF07E8F04D2F50E0440F551F47
:10507000440F551F42565C4F9A012E5F3F4FF90176
:10508000859194919C01AA27C39FC001C29F810D65
:105090009A1F06948A1F9A1F1124FA014591549170
:1050A0001EC0CE01969587958C7F8256984FFC0145
:1050B00045915491FC013296259134918C2F90E0CA
:1050C00087709070BC01269FC001279F900D369F6E
:1050D000900D112433E0969587953A95E1F7481B9A
:1050E000590B4436510578F48CEB9BE16AE574E08A
:1050F0000E941F328CEB9BE1BE014AE050E00E940F
:105100008F3144E650E0CA01A0E0B0E08093991BE3
:1051100090939A1BA0939B1BB0939C1B5093890068
:1051200040938800E091621BF091631B8089918914
:10513000A289B389B695A79597958795B095A095BF
:10514000909581959F4FAF4FBF4F8093801B909359
:10515000811BA093821BB093831B8093841B90932D
:10516000851BA093861BB093871B8093881B90930D
:10517000891BA0938A1BB0938B1B80938C1B9093ED
:105180008D1BA0938E1BB0938F1B1092901B1092BF
:10519000911B1092921B1092931B06C080ED97E01A
:1051A0009093890080938800C091621BD091631B0B
:1051B000209709F42DC488A18093941B80FF03C01D
:1051C00075988FEF02C0759A81E080938E0480916C
:1051D000941B81FF0AC08FB7F894909102019860E8
:1051E000909302018FBF8FEF09C08FB7F894909111
:1051F0000201977F909302018FBF81E080938F041B
:105200008091941B9091920480FF37C0992309F4F8
:1052100069C0199902C080E02DC08091951B882338
:1052200041F188819981AA81BB81181619061A0655
:105230001B06FCF48091701B9091711BA091721B56
:10524000B091731B8093641B9093651BA093661BA6
:10525000B093671B81E08093961B88899989AA89FE
:10526000BB898093901B9093911BA093921BB0934A
:10527000931B81E08093951B35C0992399F19299F6
:1052800002C080E02DC08091971B882341F1888166
:105290009981AA81BB81181619061A061B06FCF40F
:1052A0008091701B9091711BA091721BB091731B28
:1052B0008093641B9093651BA093661BB093671B40
:1052C00081E08093961B88899989AA89BB898093FC
:1052D000901B9093911BA093921BB093931B81E022
:1052E0008093971B8091941B82FF0AC08FB7F8941C
:1052F00090910B019D7F90930B018FBF8FEF09C0A1
:105300008FB7F89490910B01926090930B018FBF2F
:1053100081E0809390048091941B83FF03C0169AD0
:105320008FEF02C0169881E08093910460E05BC12A
:10533000288139814A815B818091801B9091811BFA
:10534000A091821BB091831B280F391F4A1F5B1F3E
:105350002093801B3093811B4093821B5093831BAF
:1053600012161306140615066CF5749A8889998925
:10537000AA89BB89281B390B4A0B5B0B2093801B26
:105380003093811B4093821B5093831B2091701B91
:105390003091711B4091721B5091731B80918E0450
:1053A000992787FD9095A92FB92F820F931FA41FCE
:1053B000B51F8093701B9093711BA093721BB093C9
:1053C000731B74982C813D814E815F818091841B79
:1053D0009091851BA091861BB091871B280F391FC8
:1053E0004A1F5B1F2093841B3093851B4093861BB1
:1053F0005093871B12161306140615066CF5739A44
:1054000088899989AA89BB89281B390B4A0B5B0BB0
:105410002093841B3093851B4093861B5093871BDE
:105420002091741B3091751B4091761B5091771B16
:1054300080918F04992787FD9095A92FB92F820F0E
:10544000931FA41FB51F8093741B9093751BA0938B
:10545000761BB093771B7398288539854A855B85C1
:105460008091881B9091891BA0918A1BB0918B1B06
:10547000280F391F4A1F5B1F2093881B3093891BFD
:1054800040938A1B50938B1B1216130614061506A5
:10549000DCF59FB7F89480910B01886080930B0135
:1054A0009FBF88899989AA89BB89281B390B4A0B18
:1054B0005B0B2093881B3093891B40938A1B50936E
:1054C0008B1B2091781B3091791B40917A1B509156
:1054D0007B1B80919004992787FD9095A92FB92F68
:1054E000820F931FA41FB51F8093781B9093791B85
:1054F000A0937A1BB0937B1B9FB7F89480910B010C
:10550000877F80930B019FBF2C853D854E855F85EE
:1055100080918C1B90918D1BA0918E1BB0918F1B45
:10552000280F391F4A1F5B1F20938C1B30938D1B44
:1055300040938E1B50938F1B1216130614061506EC
:105540006CF5149A88899989AA89BB89281B390B1B
:105550004A0B5B0B20938C1B30938D1B40938E1B4F
:1055600050938F1B20917C1B30917D1B40917E1BA3
:1055700050917F1B80919104992787FD9095A92FC9
:10558000B92F820F931FA41FB51F80937C1B90938C
:105590007D1BA0937E1BB0937F1B14988091901B62
:1055A0009091911BA091921BB091931B0196A11D0C
:1055B000B11D8093901B9093911BA093921BB0936D
:1055C000931B2091901B3091911B4091921B509105
:1055D000931B88899989AA89BB89281739074A07A3
:1055E0005B0730F46F5F8091981B68170CF4A0CEB6
:1055F0002091901B3091911B4091921B5091931BD5
:105600008C899D89AE89BF8982179307A407B50746
:1056100008F4DDC0E090991BF0909A1B00919B1B51
:1056200010919C1BAC8CBD8CCE8CDF8CA80197019B
:10563000C601B501AA27279FB12D389FF001489FC9
:10564000F00D479FE00DF11D289FB00DE11DFA1FE1
:10565000379FB00DE11DFA1F469FB00DE11DFA1FE7
:10566000369FB10DEA1FFA1FB695EA1FFA1F1124E3
:105670008CAD9DAD8E0F9F1F90939E1B80939D1BA5
:1056800028AD39AD4AAD5BADA0E0B0E028173907D1
:105690004A075B0720F430939E1B20939D1B60916B
:1056A0009D1B70919E1B8CE96134780718F060E4B3
:1056B0007CE904C09EE46132790730F07695679505
:1056C0007695679584E007C0E7E261317E0730F0A8
:1056D0007695679582E08093981B08C081E080935F
:1056E000981B6032710510F460E270E0EB01A09746
:1056F000F8E0C030DF07E8F04D2F50E0440F551FB1
:10570000440F551F42565C4F9A012E5F3F4FF901DF
:10571000859194919C01AA27C39FC001C29F810DCE
:105720009A1F06948A1F9A1F1124FA0145915491D9
:105730001EC0CE01969587958C7F8256984FFC01AE
:1057400045915491FC013296259134918C2F90E033
:1057500087709070BC01269FC001279F900D369FD7
:10576000900D1124A3E096958795AA95E1F7481B23
:10577000590B4436510578F48CEB9BE16AE574E0F3
:105780000E941F328CEB9BE1BE014AE050E00E9478
:105790008F3144E650E050938900409388009A018D
:1057A00040E050E08091991B90919A1BA0919B1B27
:1057B000B0919C1B820F931FA41FB51F8093991B50
:1057C00090939A1BA0939B1BB0939C1BFCC02091B1
:1057D000901B3091911B4091921B5091931B888D8F
:1057E000998DAA8DBB8D82179307A407B50708F082
:1057F000DEC060919F1B7091A01B8091A11B9091B6
:10580000A21B2C8D3D8D4E8D5F8DAA27639FB12DE0
:10581000749FF001849FF00D839FE00DF11D649F44
:10582000B00DE11DFA1F739FB00DE11DFA1F829F9D
:10583000B00DE11DFA1F729FB10DEA1FFA1FB69558
:10584000EA1FFA1F112480919D1B90919E1B8E17B9
:105850009F0738F4C05CDF4F68817981C054D04025
:1058600003C0BC016E1B7F0BC05CDF4F28813981F8
:105870004A815B81CB01A0E0B0E082179307A407C7
:10588000B50708F4B9018CE96134780718F060E4D1
:105890007CE904C09EE46132790730F07695679523
:1058A0007695679584E007C0E7E261317E0730F0C6
:1058B0007695679582E08093981B08C081E080937D
:1058C000981B6032710510F460E270E0EB01A09764
:1058D000F8E0C030DF07E8F04D2F50E0440F551FCF
:1058E000440F551F42565C4F9A012E5F3F4FF901FE
:1058F000859194919C01AA27C39FC001C29F810DED
:105900009A1F06948A1F9A1F1124FA0145915491F7
:105910001EC0CE01969587958C7F8256984FFC01CC
:1059200045915491FC013296259134918C2F90E051
:1059300087709070BC01269FC001279F900D369FF5
:10594000900D112423E0969587952A95E1F7481B41
:10595000590B4436510578F48CEB9BE16AE574E011
:105960000E941F328CEB9BE1BE014AE050E00E9496
:105970008F3144E650E050938900409388009A01AB
:1059800040E050E080919F1B9091A01BA091A11B33
:10599000B091A21B820F931FA41FB51F80939F1B62
:1059A0009093A01BA093A11BB093A21B0CC080914D
:1059B000A31B9091A41B90938900809388008091F1
:1059C000A51B8093981B2091901B3091911B4091B7
:1059D000921B5091931BE091621BF091631B808995
:1059E0009189A289B389281739074A075B0780F094
:1059F0001092631B1092621B90914C1B80914D1B67
:105A0000981731F080914D1B8F5F8F7380934D1BE2
:105A1000FF91EF91DF91CF91BF91AF919F918F91C6
:105A20007F916F915F914F913F912F911F910F91B6
:105A3000FF90EF90DF90CF90BF90AF900F900BBE94
:105A40000F900FBE0F901F901895CF93DF9380910A
:105A5000961B882349F48091A71B882329F4809101
:105A6000A81B882309F4C0C0EEE9FBE06491EF01B4
:105A70000AC0772767FD70958CEB9BE10E948C2F05
:105A80002196FE0164916623A1F7E0EEFBE06491AC
:105A9000EF010AC0772767FD70958CEB9BE10E94B0
:105AA0008C2F2196FE0164916623A1F78091961BAD
:105AB000882359F16091641B7091651B8091661B6E
:105AC0009091671B0E94FD352091B0073091B1077E
:105AD0004091B2075091B3070E946235AB01BC01FF
